{
	"contracts/SuplyBeam_main.sol": {
		"SupplyBeam_main": {
			"abi": [
				{
					"inputs": [
						{
							"internalType": "string",
							"name": "title",
							"type": "string"
						},
						{
							"internalType": "address",
							"name": "owner_address",
							"type": "address"
						}
					],
					"stateMutability": "nonpayable",
					"type": "constructor"
				},
				{
					"anonymous": false,
					"inputs": [
						{
							"indexed": true,
							"internalType": "address",
							"name": "by",
							"type": "address"
						},
						{
							"components": [
								{
									"internalType": "string",
									"name": "name",
									"type": "string"
								},
								{
									"components": [
										{
											"internalType": "string",
											"name": "name",
											"type": "string"
										},
										{
											"internalType": "string",
											"name": "notes",
											"type": "string"
										},
										{
											"internalType": "address",
											"name": "applied_by",
											"type": "address"
										}
									],
									"internalType": "struct state",
									"name": "state",
									"type": "tuple"
								}
							],
							"indexed": true,
							"internalType": "struct object",
							"name": "newobject",
							"type": "tuple"
						},
						{
							"components": [
								{
									"components": [
										{
											"internalType": "string",
											"name": "name",
											"type": "string"
										},
										{
											"components": [
												{
													"internalType": "string",
													"name": "name",
													"type": "string"
												},
												{
													"internalType": "string",
													"name": "notes",
													"type": "string"
												},
												{
													"internalType": "address",
													"name": "applied_by",
													"type": "address"
												}
											],
											"internalType": "struct state",
											"name": "state",
											"type": "tuple"
										}
									],
									"internalType": "struct object",
									"name": "object",
									"type": "tuple"
								},
								{
									"internalType": "address",
									"name": "by",
									"type": "address"
								},
								{
									"internalType": "uint256",
									"name": "timestamp",
									"type": "uint256"
								},
								{
									"components": [
										{
											"internalType": "string",
											"name": "name",
											"type": "string"
										},
										{
											"internalType": "string",
											"name": "notes",
											"type": "string"
										},
										{
											"internalType": "address",
											"name": "applied_by",
											"type": "address"
										}
									],
									"internalType": "struct state",
									"name": "oldstate",
									"type": "tuple"
								},
								{
									"components": [
										{
											"internalType": "string",
											"name": "name",
											"type": "string"
										},
										{
											"internalType": "string",
											"name": "notes",
											"type": "string"
										},
										{
											"internalType": "address",
											"name": "applied_by",
											"type": "address"
										}
									],
									"internalType": "struct state",
									"name": "newstate",
									"type": "tuple"
								},
								{
									"internalType": "string",
									"name": "notes",
									"type": "string"
								}
							],
							"indexed": false,
							"internalType": "struct update",
							"name": "update",
							"type": "tuple"
						}
					],
					"name": "Create",
					"type": "event"
				},
				{
					"anonymous": false,
					"inputs": [
						{
							"indexed": true,
							"internalType": "address",
							"name": "by",
							"type": "address"
						},
						{
							"components": [
								{
									"internalType": "string",
									"name": "name",
									"type": "string"
								},
								{
									"components": [
										{
											"internalType": "string",
											"name": "name",
											"type": "string"
										},
										{
											"internalType": "string",
											"name": "notes",
											"type": "string"
										},
										{
											"internalType": "address",
											"name": "applied_by",
											"type": "address"
										}
									],
									"internalType": "struct state",
									"name": "state",
									"type": "tuple"
								}
							],
							"indexed": true,
							"internalType": "struct object",
							"name": "newobject",
							"type": "tuple"
						},
						{
							"components": [
								{
									"components": [
										{
											"internalType": "string",
											"name": "name",
											"type": "string"
										},
										{
											"components": [
												{
													"internalType": "string",
													"name": "name",
													"type": "string"
												},
												{
													"internalType": "string",
													"name": "notes",
													"type": "string"
												},
												{
													"internalType": "address",
													"name": "applied_by",
													"type": "address"
												}
											],
											"internalType": "struct state",
											"name": "state",
											"type": "tuple"
										}
									],
									"internalType": "struct object",
									"name": "object",
									"type": "tuple"
								},
								{
									"internalType": "address",
									"name": "by",
									"type": "address"
								},
								{
									"internalType": "uint256",
									"name": "timestamp",
									"type": "uint256"
								},
								{
									"components": [
										{
											"internalType": "string",
											"name": "name",
											"type": "string"
										},
										{
											"internalType": "string",
											"name": "notes",
											"type": "string"
										},
										{
											"internalType": "address",
											"name": "applied_by",
											"type": "address"
										}
									],
									"internalType": "struct state",
									"name": "oldstate",
									"type": "tuple"
								},
								{
									"components": [
										{
											"internalType": "string",
											"name": "name",
											"type": "string"
										},
										{
											"internalType": "string",
											"name": "notes",
											"type": "string"
										},
										{
											"internalType": "address",
											"name": "applied_by",
											"type": "address"
										}
									],
									"internalType": "struct state",
									"name": "newstate",
									"type": "tuple"
								},
								{
									"internalType": "string",
									"name": "notes",
									"type": "string"
								}
							],
							"indexed": false,
							"internalType": "struct update",
							"name": "update",
							"type": "tuple"
						}
					],
					"name": "Update",
					"type": "event"
				},
				{
					"inputs": [
						{
							"internalType": "string",
							"name": "obj_name",
							"type": "string"
						},
						{
							"components": [
								{
									"internalType": "string",
									"name": "name",
									"type": "string"
								},
								{
									"internalType": "string",
									"name": "notes",
									"type": "string"
								},
								{
									"internalType": "address",
									"name": "applied_by",
									"type": "address"
								}
							],
							"internalType": "struct state",
							"name": "obj_state",
							"type": "tuple"
						}
					],
					"name": "_create",
					"outputs": [],
					"stateMutability": "nonpayable",
					"type": "function"
				},
				{
					"inputs": [
						{
							"internalType": "string",
							"name": "obj_name",
							"type": "string"
						},
						{
							"components": [
								{
									"internalType": "string",
									"name": "name",
									"type": "string"
								},
								{
									"internalType": "string",
									"name": "notes",
									"type": "string"
								},
								{
									"internalType": "address",
									"name": "applied_by",
									"type": "address"
								}
							],
							"internalType": "struct state",
							"name": "obj_state",
							"type": "tuple"
						}
					],
					"name": "_update",
					"outputs": [],
					"stateMutability": "nonpayable",
					"type": "function"
				},
				{
					"inputs": [
						{
							"internalType": "string",
							"name": "obj_name",
							"type": "string"
						}
					],
					"name": "forceUnlockObject",
					"outputs": [],
					"stateMutability": "nonpayable",
					"type": "function"
				},
				{
					"inputs": [],
					"name": "getAllObjects",
					"outputs": [
						{
							"components": [
								{
									"internalType": "string",
									"name": "name",
									"type": "string"
								},
								{
									"components": [
										{
											"internalType": "string",
											"name": "name",
											"type": "string"
										},
										{
											"internalType": "string",
											"name": "notes",
											"type": "string"
										},
										{
											"internalType": "address",
											"name": "applied_by",
											"type": "address"
										}
									],
									"internalType": "struct state",
									"name": "state",
									"type": "tuple"
								}
							],
							"internalType": "struct object[]",
							"name": "",
							"type": "tuple[]"
						}
					],
					"stateMutability": "view",
					"type": "function"
				},
				{
					"inputs": [
						{
							"internalType": "string",
							"name": "obj_name",
							"type": "string"
						}
					],
					"name": "getObject",
					"outputs": [
						{
							"components": [
								{
									"internalType": "string",
									"name": "name",
									"type": "string"
								},
								{
									"components": [
										{
											"internalType": "string",
											"name": "name",
											"type": "string"
										},
										{
											"internalType": "string",
											"name": "notes",
											"type": "string"
										},
										{
											"internalType": "address",
											"name": "applied_by",
											"type": "address"
										}
									],
									"internalType": "struct state",
									"name": "state",
									"type": "tuple"
								}
							],
							"internalType": "struct object",
							"name": "",
							"type": "tuple"
						}
					],
					"stateMutability": "view",
					"type": "function"
				},
				{
					"inputs": [
						{
							"internalType": "uint256",
							"name": "from",
							"type": "uint256"
						},
						{
							"internalType": "uint256",
							"name": "to",
							"type": "uint256"
						}
					],
					"name": "getObjects",
					"outputs": [
						{
							"components": [
								{
									"internalType": "string",
									"name": "name",
									"type": "string"
								},
								{
									"components": [
										{
											"internalType": "string",
											"name": "name",
											"type": "string"
										},
										{
											"internalType": "string",
											"name": "notes",
											"type": "string"
										},
										{
											"internalType": "address",
											"name": "applied_by",
											"type": "address"
										}
									],
									"internalType": "struct state",
									"name": "state",
									"type": "tuple"
								}
							],
							"internalType": "struct object[]",
							"name": "",
							"type": "tuple[]"
						}
					],
					"stateMutability": "view",
					"type": "function"
				},
				{
					"inputs": [],
					"name": "getObjectsNumber",
					"outputs": [
						{
							"internalType": "uint256",
							"name": "",
							"type": "uint256"
						}
					],
					"stateMutability": "view",
					"type": "function"
				},
				{
					"inputs": [
						{
							"internalType": "string",
							"name": "obj_name",
							"type": "string"
						}
					],
					"name": "isObjectLocked",
					"outputs": [
						{
							"internalType": "bool",
							"name": "",
							"type": "bool"
						}
					],
					"stateMutability": "view",
					"type": "function"
				},
				{
					"inputs": [
						{
							"internalType": "string",
							"name": "obj_name",
							"type": "string"
						}
					],
					"name": "lockObject",
					"outputs": [],
					"stateMutability": "nonpayable",
					"type": "function"
				},
				{
					"inputs": [],
					"name": "name",
					"outputs": [
						{
							"internalType": "string",
							"name": "",
							"type": "string"
						}
					],
					"stateMutability": "view",
					"type": "function"
				},
				{
					"inputs": [],
					"name": "owner",
					"outputs": [
						{
							"internalType": "address",
							"name": "",
							"type": "address"
						}
					],
					"stateMutability": "view",
					"type": "function"
				},
				{
					"inputs": [
						{
							"internalType": "string",
							"name": "obj_name",
							"type": "string"
						}
					],
					"name": "unlockObject",
					"outputs": [],
					"stateMutability": "nonpayable",
					"type": "function"
				}
			],
			"devdoc": {
				"kind": "dev",
				"methods": {},
				"version": 1
			},
			"evm": {
				"assembly": "    /* \"contracts/SuplyBeam_main.sol\":732:4756  contract SupplyBeam_main {... */\n  mstore(0x40, 0x80)\n    /* \"contracts/SuplyBeam_main.sol\":2057:2176  constructor(string memory title, address owner_address) {... */\n  callvalue\n  dup1\n  iszero\n  tag_1\n  jumpi\n  0x00\n  dup1\n  revert\ntag_1:\n  pop\n  mload(0x40)\n  sub(codesize, bytecodeSize)\n  dup1\n  bytecodeSize\n  dup4\n  codecopy\n  dup2\n  dup2\n  add\n  0x40\n  mstore\n  dup2\n  add\n  swap1\n  tag_2\n  swap2\n  swap1\n  tag_3\n  jump\t// in\ntag_2:\n    /* \"contracts/SuplyBeam_main.sol\":2131:2136  title */\n  dup2\n    /* \"contracts/SuplyBeam_main.sol\":2124:2128  name */\n  0x00\n    /* \"contracts/SuplyBeam_main.sol\":2124:2136  name = title */\n  swap1\n  dup2\n  tag_6\n  swap2\n  swap1\n  tag_7\n  jump\t// in\ntag_6:\n  pop\n    /* \"contracts/SuplyBeam_main.sol\":2155:2168  owner_address */\n  dup1\n    /* \"contracts/SuplyBeam_main.sol\":2147:2152  owner */\n  0x01\n  0x00\n    /* \"contracts/SuplyBeam_main.sol\":2147:2168  owner = owner_address */\n  0x0100\n  exp\n  dup2\n  sload\n  dup2\n  0xffffffffffffffffffffffffffffffffffffffff\n  mul\n  not\n  and\n  swap1\n  dup4\n  0xffffffffffffffffffffffffffffffffffffffff\n  and\n  mul\n  or\n  swap1\n  sstore\n  pop\n    /* \"contracts/SuplyBeam_main.sol\":2057:2176  constructor(string memory title, address owner_address) {... */\n  pop\n  pop\n    /* \"contracts/SuplyBeam_main.sol\":732:4756  contract SupplyBeam_main {... */\n  jump(tag_8)\n    /* \"#utility.yul\":7:82   */\ntag_9:\n    /* \"#utility.yul\":40:46   */\n  0x00\n    /* \"#utility.yul\":73:75   */\n  0x40\n    /* \"#utility.yul\":67:76   */\n  mload\n    /* \"#utility.yul\":57:76   */\n  swap1\n  pop\n    /* \"#utility.yul\":7:82   */\n  swap1\n  jump\t// out\n    /* \"#utility.yul\":88:205   */\ntag_10:\n    /* \"#utility.yul\":197:198   */\n  0x00\n    /* \"#utility.yul\":194:195   */\n  dup1\n    /* \"#utility.yul\":187:199   */\n  revert\n    /* \"#utility.yul\":211:328   */\ntag_11:\n    /* \"#utility.yul\":320:321   */\n  0x00\n    /* \"#utility.yul\":317:318   */\n  dup1\n    /* \"#utility.yul\":310:322   */\n  revert\n    /* \"#utility.yul\":334:451   */\ntag_12:\n    /* \"#utility.yul\":443:444   */\n  0x00\n    /* \"#utility.yul\":440:441   */\n  dup1\n    /* \"#utility.yul\":433:445   */\n  revert\n    /* \"#utility.yul\":457:574   */\ntag_13:\n    /* \"#utility.yul\":566:567   */\n  0x00\n    /* \"#utility.yul\":563:564   */\n  dup1\n    /* \"#utility.yul\":556:568   */\n  revert\n    /* \"#utility.yul\":580:682   */\ntag_14:\n    /* \"#utility.yul\":621:627   */\n  0x00\n    /* \"#utility.yul\":672:674   */\n  0x1f\n    /* \"#utility.yul\":668:675   */\n  not\n    /* \"#utility.yul\":663:665   */\n  0x1f\n    /* \"#utility.yul\":656:661   */\n  dup4\n    /* \"#utility.yul\":652:666   */\n  add\n    /* \"#utility.yul\":648:676   */\n  and\n    /* \"#utility.yul\":638:676   */\n  swap1\n  pop\n    /* \"#utility.yul\":580:682   */\n  swap2\n  swap1\n  pop\n  jump\t// out\n    /* \"#utility.yul\":688:868   */\ntag_15:\n    /* \"#utility.yul\":736:813   */\n  0x4e487b7100000000000000000000000000000000000000000000000000000000\n    /* \"#utility.yul\":733:734   */\n  0x00\n    /* \"#utility.yul\":726:814   */\n  mstore\n    /* \"#utility.yul\":833:837   */\n  0x41\n    /* \"#utility.yul\":830:831   */\n  0x04\n    /* \"#utility.yul\":823:838   */\n  mstore\n    /* \"#utility.yul\":857:861   */\n  0x24\n    /* \"#utility.yul\":854:855   */\n  0x00\n    /* \"#utility.yul\":847:862   */\n  revert\n    /* \"#utility.yul\":874:1155   */\ntag_16:\n    /* \"#utility.yul\":957:984   */\n  tag_54\n    /* \"#utility.yul\":979:983   */\n  dup3\n    /* \"#utility.yul\":957:984   */\n  tag_14\n  jump\t// in\ntag_54:\n    /* \"#utility.yul\":949:955   */\n  dup2\n    /* \"#utility.yul\":945:985   */\n  add\n    /* \"#utility.yul\":1087:1093   */\n  dup2\n    /* \"#utility.yul\":1075:1085   */\n  dup2\n    /* \"#utility.yul\":1072:1094   */\n  lt\n    /* \"#utility.yul\":1051:1069   */\n  0xffffffffffffffff\n    /* \"#utility.yul\":1039:1049   */\n  dup3\n    /* \"#utility.yul\":1036:1070   */\n  gt\n    /* \"#utility.yul\":1033:1095   */\n  or\n    /* \"#utility.yul\":1030:1118   */\n  iszero\n  tag_55\n  jumpi\n    /* \"#utility.yul\":1098:1116   */\n  tag_56\n  tag_15\n  jump\t// in\ntag_56:\n    /* \"#utility.yul\":1030:1118   */\ntag_55:\n    /* \"#utility.yul\":1138:1148   */\n  dup1\n    /* \"#utility.yul\":1134:1136   */\n  0x40\n    /* \"#utility.yul\":1127:1149   */\n  mstore\n    /* \"#utility.yul\":917:1155   */\n  pop\n    /* \"#utility.yul\":874:1155   */\n  pop\n  pop\n  jump\t// out\n    /* \"#utility.yul\":1161:1290   */\ntag_17:\n    /* \"#utility.yul\":1195:1201   */\n  0x00\n    /* \"#utility.yul\":1222:1242   */\n  tag_58\n  tag_9\n  jump\t// in\ntag_58:\n    /* \"#utility.yul\":1212:1242   */\n  swap1\n  pop\n    /* \"#utility.yul\":1251:1284   */\n  tag_59\n    /* \"#utility.yul\":1279:1283   */\n  dup3\n    /* \"#utility.yul\":1271:1277   */\n  dup3\n    /* \"#utility.yul\":1251:1284   */\n  tag_16\n  jump\t// in\ntag_59:\n    /* \"#utility.yul\":1161:1290   */\n  swap2\n  swap1\n  pop\n  jump\t// out\n    /* \"#utility.yul\":1296:1604   */\ntag_18:\n    /* \"#utility.yul\":1358:1362   */\n  0x00\n    /* \"#utility.yul\":1448:1466   */\n  0xffffffffffffffff\n    /* \"#utility.yul\":1440:1446   */\n  dup3\n    /* \"#utility.yul\":1437:1467   */\n  gt\n    /* \"#utility.yul\":1434:1490   */\n  iszero\n  tag_61\n  jumpi\n    /* \"#utility.yul\":1470:1488   */\n  tag_62\n  tag_15\n  jump\t// in\ntag_62:\n    /* \"#utility.yul\":1434:1490   */\ntag_61:\n    /* \"#utility.yul\":1508:1537   */\n  tag_63\n    /* \"#utility.yul\":1530:1536   */\n  dup3\n    /* \"#utility.yul\":1508:1537   */\n  tag_14\n  jump\t// in\ntag_63:\n    /* \"#utility.yul\":1500:1537   */\n  swap1\n  pop\n    /* \"#utility.yul\":1592:1596   */\n  0x20\n    /* \"#utility.yul\":1586:1590   */\n  dup2\n    /* \"#utility.yul\":1582:1597   */\n  add\n    /* \"#utility.yul\":1574:1597   */\n  swap1\n  pop\n    /* \"#utility.yul\":1296:1604   */\n  swap2\n  swap1\n  pop\n  jump\t// out\n    /* \"#utility.yul\":1610:1856   */\ntag_19:\n    /* \"#utility.yul\":1691:1692   */\n  0x00\n    /* \"#utility.yul\":1701:1814   */\ntag_65:\n    /* \"#utility.yul\":1715:1721   */\n  dup4\n    /* \"#utility.yul\":1712:1713   */\n  dup2\n    /* \"#utility.yul\":1709:1722   */\n  lt\n    /* \"#utility.yul\":1701:1814   */\n  iszero\n  tag_67\n  jumpi\n    /* \"#utility.yul\":1800:1801   */\n  dup1\n    /* \"#utility.yul\":1795:1798   */\n  dup3\n    /* \"#utility.yul\":1791:1802   */\n  add\n    /* \"#utility.yul\":1785:1803   */\n  mload\n    /* \"#utility.yul\":1781:1782   */\n  dup2\n    /* \"#utility.yul\":1776:1779   */\n  dup5\n    /* \"#utility.yul\":1772:1783   */\n  add\n    /* \"#utility.yul\":1765:1804   */\n  mstore\n    /* \"#utility.yul\":1737:1739   */\n  0x20\n    /* \"#utility.yul\":1734:1735   */\n  dup2\n    /* \"#utility.yul\":1730:1740   */\n  add\n    /* \"#utility.yul\":1725:1740   */\n  swap1\n  pop\n    /* \"#utility.yul\":1701:1814   */\n  jump(tag_65)\ntag_67:\n    /* \"#utility.yul\":1848:1849   */\n  0x00\n    /* \"#utility.yul\":1839:1845   */\n  dup5\n    /* \"#utility.yul\":1834:1837   */\n  dup5\n    /* \"#utility.yul\":1830:1846   */\n  add\n    /* \"#utility.yul\":1823:1850   */\n  mstore\n    /* \"#utility.yul\":1672:1856   */\n  pop\n    /* \"#utility.yul\":1610:1856   */\n  pop\n  pop\n  pop\n  jump\t// out\n    /* \"#utility.yul\":1862:2296   */\ntag_20:\n    /* \"#utility.yul\":1951:1956   */\n  0x00\n    /* \"#utility.yul\":1976:2042   */\n  tag_69\n    /* \"#utility.yul\":1992:2041   */\n  tag_70\n    /* \"#utility.yul\":2034:2040   */\n  dup5\n    /* \"#utility.yul\":1992:2041   */\n  tag_18\n  jump\t// in\ntag_70:\n    /* \"#utility.yul\":1976:2042   */\n  tag_17\n  jump\t// in\ntag_69:\n    /* \"#utility.yul\":1967:2042   */\n  swap1\n  pop\n    /* \"#utility.yul\":2065:2071   */\n  dup3\n    /* \"#utility.yul\":2058:2063   */\n  dup2\n    /* \"#utility.yul\":2051:2072   */\n  mstore\n    /* \"#utility.yul\":2103:2107   */\n  0x20\n    /* \"#utility.yul\":2096:2101   */\n  dup2\n    /* \"#utility.yul\":2092:2108   */\n  add\n    /* \"#utility.yul\":2141:2144   */\n  dup5\n    /* \"#utility.yul\":2132:2138   */\n  dup5\n    /* \"#utility.yul\":2127:2130   */\n  dup5\n    /* \"#utility.yul\":2123:2139   */\n  add\n    /* \"#utility.yul\":2120:2145   */\n  gt\n    /* \"#utility.yul\":2117:2229   */\n  iszero\n  tag_71\n  jumpi\n    /* \"#utility.yul\":2148:2227   */\n  tag_72\n  tag_13\n  jump\t// in\ntag_72:\n    /* \"#utility.yul\":2117:2229   */\ntag_71:\n    /* \"#utility.yul\":2238:2290   */\n  tag_73\n    /* \"#utility.yul\":2283:2289   */\n  dup5\n    /* \"#utility.yul\":2278:2281   */\n  dup3\n    /* \"#utility.yul\":2273:2276   */\n  dup6\n    /* \"#utility.yul\":2238:2290   */\n  tag_19\n  jump\t// in\ntag_73:\n    /* \"#utility.yul\":1957:2296   */\n  pop\n    /* \"#utility.yul\":1862:2296   */\n  swap4\n  swap3\n  pop\n  pop\n  pop\n  jump\t// out\n    /* \"#utility.yul\":2316:2671   */\ntag_21:\n    /* \"#utility.yul\":2383:2388   */\n  0x00\n    /* \"#utility.yul\":2432:2435   */\n  dup3\n    /* \"#utility.yul\":2425:2429   */\n  0x1f\n    /* \"#utility.yul\":2417:2423   */\n  dup4\n    /* \"#utility.yul\":2413:2430   */\n  add\n    /* \"#utility.yul\":2409:2436   */\n  slt\n    /* \"#utility.yul\":2399:2521   */\n  tag_75\n  jumpi\n    /* \"#utility.yul\":2440:2519   */\n  tag_76\n  tag_12\n  jump\t// in\ntag_76:\n    /* \"#utility.yul\":2399:2521   */\ntag_75:\n    /* \"#utility.yul\":2550:2556   */\n  dup2\n    /* \"#utility.yul\":2544:2557   */\n  mload\n    /* \"#utility.yul\":2575:2665   */\n  tag_77\n    /* \"#utility.yul\":2661:2664   */\n  dup5\n    /* \"#utility.yul\":2653:2659   */\n  dup3\n    /* \"#utility.yul\":2646:2650   */\n  0x20\n    /* \"#utility.yul\":2638:2644   */\n  dup7\n    /* \"#utility.yul\":2634:2651   */\n  add\n    /* \"#utility.yul\":2575:2665   */\n  tag_20\n  jump\t// in\ntag_77:\n    /* \"#utility.yul\":2566:2665   */\n  swap2\n  pop\n    /* \"#utility.yul\":2389:2671   */\n  pop\n    /* \"#utility.yul\":2316:2671   */\n  swap3\n  swap2\n  pop\n  pop\n  jump\t// out\n    /* \"#utility.yul\":2677:2803   */\ntag_22:\n    /* \"#utility.yul\":2714:2721   */\n  0x00\n    /* \"#utility.yul\":2754:2796   */\n  0xffffffffffffffffffffffffffffffffffffffff\n    /* \"#utility.yul\":2747:2752   */\n  dup3\n    /* \"#utility.yul\":2743:2797   */\n  and\n    /* \"#utility.yul\":2732:2797   */\n  swap1\n  pop\n    /* \"#utility.yul\":2677:2803   */\n  swap2\n  swap1\n  pop\n  jump\t// out\n    /* \"#utility.yul\":2809:2905   */\ntag_23:\n    /* \"#utility.yul\":2846:2853   */\n  0x00\n    /* \"#utility.yul\":2875:2899   */\n  tag_80\n    /* \"#utility.yul\":2893:2898   */\n  dup3\n    /* \"#utility.yul\":2875:2899   */\n  tag_22\n  jump\t// in\ntag_80:\n    /* \"#utility.yul\":2864:2899   */\n  swap1\n  pop\n    /* \"#utility.yul\":2809:2905   */\n  swap2\n  swap1\n  pop\n  jump\t// out\n    /* \"#utility.yul\":2911:3033   */\ntag_24:\n    /* \"#utility.yul\":2984:3008   */\n  tag_82\n    /* \"#utility.yul\":3002:3007   */\n  dup2\n    /* \"#utility.yul\":2984:3008   */\n  tag_23\n  jump\t// in\ntag_82:\n    /* \"#utility.yul\":2977:2982   */\n  dup2\n    /* \"#utility.yul\":2974:3009   */\n  eq\n    /* \"#utility.yul\":2964:3027   */\n  tag_83\n  jumpi\n    /* \"#utility.yul\":3023:3024   */\n  0x00\n    /* \"#utility.yul\":3020:3021   */\n  dup1\n    /* \"#utility.yul\":3013:3025   */\n  revert\n    /* \"#utility.yul\":2964:3027   */\ntag_83:\n    /* \"#utility.yul\":2911:3033   */\n  pop\n  jump\t// out\n    /* \"#utility.yul\":3039:3182   */\ntag_25:\n    /* \"#utility.yul\":3096:3101   */\n  0x00\n    /* \"#utility.yul\":3127:3133   */\n  dup2\n    /* \"#utility.yul\":3121:3134   */\n  mload\n    /* \"#utility.yul\":3112:3134   */\n  swap1\n  pop\n    /* \"#utility.yul\":3143:3176   */\n  tag_85\n    /* \"#utility.yul\":3170:3175   */\n  dup2\n    /* \"#utility.yul\":3143:3176   */\n  tag_24\n  jump\t// in\ntag_85:\n    /* \"#utility.yul\":3039:3182   */\n  swap3\n  swap2\n  pop\n  pop\n  jump\t// out\n    /* \"#utility.yul\":3188:3868   */\ntag_3:\n    /* \"#utility.yul\":3277:3283   */\n  0x00\n    /* \"#utility.yul\":3285:3291   */\n  dup1\n    /* \"#utility.yul\":3334:3336   */\n  0x40\n    /* \"#utility.yul\":3322:3331   */\n  dup4\n    /* \"#utility.yul\":3313:3320   */\n  dup6\n    /* \"#utility.yul\":3309:3332   */\n  sub\n    /* \"#utility.yul\":3305:3337   */\n  slt\n    /* \"#utility.yul\":3302:3421   */\n  iszero\n  tag_87\n  jumpi\n    /* \"#utility.yul\":3340:3419   */\n  tag_88\n  tag_10\n  jump\t// in\ntag_88:\n    /* \"#utility.yul\":3302:3421   */\ntag_87:\n    /* \"#utility.yul\":3481:3482   */\n  0x00\n    /* \"#utility.yul\":3470:3479   */\n  dup4\n    /* \"#utility.yul\":3466:3483   */\n  add\n    /* \"#utility.yul\":3460:3484   */\n  mload\n    /* \"#utility.yul\":3511:3529   */\n  0xffffffffffffffff\n    /* \"#utility.yul\":3503:3509   */\n  dup2\n    /* \"#utility.yul\":3500:3530   */\n  gt\n    /* \"#utility.yul\":3497:3614   */\n  iszero\n  tag_89\n  jumpi\n    /* \"#utility.yul\":3533:3612   */\n  tag_90\n  tag_11\n  jump\t// in\ntag_90:\n    /* \"#utility.yul\":3497:3614   */\ntag_89:\n    /* \"#utility.yul\":3638:3712   */\n  tag_91\n    /* \"#utility.yul\":3704:3711   */\n  dup6\n    /* \"#utility.yul\":3695:3701   */\n  dup3\n    /* \"#utility.yul\":3684:3693   */\n  dup7\n    /* \"#utility.yul\":3680:3702   */\n  add\n    /* \"#utility.yul\":3638:3712   */\n  tag_21\n  jump\t// in\ntag_91:\n    /* \"#utility.yul\":3628:3712   */\n  swap3\n  pop\n    /* \"#utility.yul\":3431:3722   */\n  pop\n    /* \"#utility.yul\":3761:3763   */\n  0x20\n    /* \"#utility.yul\":3787:3851   */\n  tag_92\n    /* \"#utility.yul\":3843:3850   */\n  dup6\n    /* \"#utility.yul\":3834:3840   */\n  dup3\n    /* \"#utility.yul\":3823:3832   */\n  dup7\n    /* \"#utility.yul\":3819:3841   */\n  add\n    /* \"#utility.yul\":3787:3851   */\n  tag_25\n  jump\t// in\ntag_92:\n    /* \"#utility.yul\":3777:3851   */\n  swap2\n  pop\n    /* \"#utility.yul\":3732:3861   */\n  pop\n    /* \"#utility.yul\":3188:3868   */\n  swap3\n  pop\n  swap3\n  swap1\n  pop\n  jump\t// out\n    /* \"#utility.yul\":3874:3973   */\ntag_26:\n    /* \"#utility.yul\":3926:3932   */\n  0x00\n    /* \"#utility.yul\":3960:3965   */\n  dup2\n    /* \"#utility.yul\":3954:3966   */\n  mload\n    /* \"#utility.yul\":3944:3966   */\n  swap1\n  pop\n    /* \"#utility.yul\":3874:3973   */\n  swap2\n  swap1\n  pop\n  jump\t// out\n    /* \"#utility.yul\":3979:4159   */\ntag_27:\n    /* \"#utility.yul\":4027:4104   */\n  0x4e487b7100000000000000000000000000000000000000000000000000000000\n    /* \"#utility.yul\":4024:4025   */\n  0x00\n    /* \"#utility.yul\":4017:4105   */\n  mstore\n    /* \"#utility.yul\":4124:4128   */\n  0x22\n    /* \"#utility.yul\":4121:4122   */\n  0x04\n    /* \"#utility.yul\":4114:4129   */\n  mstore\n    /* \"#utility.yul\":4148:4152   */\n  0x24\n    /* \"#utility.yul\":4145:4146   */\n  0x00\n    /* \"#utility.yul\":4138:4153   */\n  revert\n    /* \"#utility.yul\":4165:4485   */\ntag_28:\n    /* \"#utility.yul\":4209:4215   */\n  0x00\n    /* \"#utility.yul\":4246:4247   */\n  0x02\n    /* \"#utility.yul\":4240:4244   */\n  dup3\n    /* \"#utility.yul\":4236:4248   */\n  div\n    /* \"#utility.yul\":4226:4248   */\n  swap1\n  pop\n    /* \"#utility.yul\":4293:4294   */\n  0x01\n    /* \"#utility.yul\":4287:4291   */\n  dup3\n    /* \"#utility.yul\":4283:4295   */\n  and\n    /* \"#utility.yul\":4314:4332   */\n  dup1\n    /* \"#utility.yul\":4304:4385   */\n  tag_96\n  jumpi\n    /* \"#utility.yul\":4370:4374   */\n  0x7f\n    /* \"#utility.yul\":4362:4368   */\n  dup3\n    /* \"#utility.yul\":4358:4375   */\n  and\n    /* \"#utility.yul\":4348:4375   */\n  swap2\n  pop\n    /* \"#utility.yul\":4304:4385   */\ntag_96:\n    /* \"#utility.yul\":4432:4434   */\n  0x20\n    /* \"#utility.yul\":4424:4430   */\n  dup3\n    /* \"#utility.yul\":4421:4435   */\n  lt\n    /* \"#utility.yul\":4401:4419   */\n  dup2\n    /* \"#utility.yul\":4398:4436   */\n  sub\n    /* \"#utility.yul\":4395:4479   */\n  tag_97\n  jumpi\n    /* \"#utility.yul\":4451:4469   */\n  tag_98\n  tag_27\n  jump\t// in\ntag_98:\n    /* \"#utility.yul\":4395:4479   */\ntag_97:\n    /* \"#utility.yul\":4216:4485   */\n  pop\n    /* \"#utility.yul\":4165:4485   */\n  swap2\n  swap1\n  pop\n  jump\t// out\n    /* \"#utility.yul\":4491:4632   */\ntag_29:\n    /* \"#utility.yul\":4540:4544   */\n  0x00\n    /* \"#utility.yul\":4563:4566   */\n  dup2\n    /* \"#utility.yul\":4555:4566   */\n  swap1\n  pop\n    /* \"#utility.yul\":4586:4589   */\n  dup2\n    /* \"#utility.yul\":4583:4584   */\n  0x00\n    /* \"#utility.yul\":4576:4590   */\n  mstore\n    /* \"#utility.yul\":4620:4624   */\n  0x20\n    /* \"#utility.yul\":4617:4618   */\n  0x00\n    /* \"#utility.yul\":4607:4625   */\n  keccak256\n    /* \"#utility.yul\":4599:4625   */\n  swap1\n  pop\n    /* \"#utility.yul\":4491:4632   */\n  swap2\n  swap1\n  pop\n  jump\t// out\n    /* \"#utility.yul\":4638:4731   */\ntag_30:\n    /* \"#utility.yul\":4675:4681   */\n  0x00\n    /* \"#utility.yul\":4722:4724   */\n  0x20\n    /* \"#utility.yul\":4717:4719   */\n  0x1f\n    /* \"#utility.yul\":4710:4715   */\n  dup4\n    /* \"#utility.yul\":4706:4720   */\n  add\n    /* \"#utility.yul\":4702:4725   */\n  div\n    /* \"#utility.yul\":4692:4725   */\n  swap1\n  pop\n    /* \"#utility.yul\":4638:4731   */\n  swap2\n  swap1\n  pop\n  jump\t// out\n    /* \"#utility.yul\":4737:4844   */\ntag_31:\n    /* \"#utility.yul\":4781:4789   */\n  0x00\n    /* \"#utility.yul\":4831:4836   */\n  dup3\n    /* \"#utility.yul\":4825:4829   */\n  dup3\n    /* \"#utility.yul\":4821:4837   */\n  shl\n    /* \"#utility.yul\":4800:4837   */\n  swap1\n  pop\n    /* \"#utility.yul\":4737:4844   */\n  swap3\n  swap2\n  pop\n  pop\n  jump\t// out\n    /* \"#utility.yul\":4850:5243   */\ntag_32:\n    /* \"#utility.yul\":4919:4925   */\n  0x00\n    /* \"#utility.yul\":4969:4970   */\n  0x08\n    /* \"#utility.yul\":4957:4967   */\n  dup4\n    /* \"#utility.yul\":4953:4971   */\n  mul\n    /* \"#utility.yul\":4992:5089   */\n  tag_103\n    /* \"#utility.yul\":5022:5088   */\n  0xffffffffffffffffffffffffffffffffffffffffffffffffffffffffffffffff\n    /* \"#utility.yul\":5011:5020   */\n  dup3\n    /* \"#utility.yul\":4992:5089   */\n  tag_31\n  jump\t// in\ntag_103:\n    /* \"#utility.yul\":5110:5149   */\n  tag_104\n    /* \"#utility.yul\":5140:5148   */\n  dup7\n    /* \"#utility.yul\":5129:5138   */\n  dup4\n    /* \"#utility.yul\":5110:5149   */\n  tag_31\n  jump\t// in\ntag_104:\n    /* \"#utility.yul\":5098:5149   */\n  swap6\n  pop\n    /* \"#utility.yul\":5182:5186   */\n  dup1\n    /* \"#utility.yul\":5178:5187   */\n  not\n    /* \"#utility.yul\":5171:5176   */\n  dup5\n    /* \"#utility.yul\":5167:5188   */\n  and\n    /* \"#utility.yul\":5158:5188   */\n  swap4\n  pop\n    /* \"#utility.yul\":5231:5235   */\n  dup1\n    /* \"#utility.yul\":5221:5229   */\n  dup7\n    /* \"#utility.yul\":5217:5236   */\n  and\n    /* \"#utility.yul\":5210:5215   */\n  dup5\n    /* \"#utility.yul\":5207:5237   */\n  or\n    /* \"#utility.yul\":5197:5237   */\n  swap3\n  pop\n    /* \"#utility.yul\":4926:5243   */\n  pop\n  pop\n    /* \"#utility.yul\":4850:5243   */\n  swap4\n  swap3\n  pop\n  pop\n  pop\n  jump\t// out\n    /* \"#utility.yul\":5249:5326   */\ntag_33:\n    /* \"#utility.yul\":5286:5293   */\n  0x00\n    /* \"#utility.yul\":5315:5320   */\n  dup2\n    /* \"#utility.yul\":5304:5320   */\n  swap1\n  pop\n    /* \"#utility.yul\":5249:5326   */\n  swap2\n  swap1\n  pop\n  jump\t// out\n    /* \"#utility.yul\":5332:5392   */\ntag_34:\n    /* \"#utility.yul\":5360:5363   */\n  0x00\n    /* \"#utility.yul\":5381:5386   */\n  dup2\n    /* \"#utility.yul\":5374:5386   */\n  swap1\n  pop\n    /* \"#utility.yul\":5332:5392   */\n  swap2\n  swap1\n  pop\n  jump\t// out\n    /* \"#utility.yul\":5398:5540   */\ntag_35:\n    /* \"#utility.yul\":5448:5457   */\n  0x00\n    /* \"#utility.yul\":5481:5534   */\n  tag_108\n    /* \"#utility.yul\":5499:5533   */\n  tag_109\n    /* \"#utility.yul\":5508:5532   */\n  tag_110\n    /* \"#utility.yul\":5526:5531   */\n  dup5\n    /* \"#utility.yul\":5508:5532   */\n  tag_33\n  jump\t// in\ntag_110:\n    /* \"#utility.yul\":5499:5533   */\n  tag_34\n  jump\t// in\ntag_109:\n    /* \"#utility.yul\":5481:5534   */\n  tag_33\n  jump\t// in\ntag_108:\n    /* \"#utility.yul\":5468:5534   */\n  swap1\n  pop\n    /* \"#utility.yul\":5398:5540   */\n  swap2\n  swap1\n  pop\n  jump\t// out\n    /* \"#utility.yul\":5546:5621   */\ntag_36:\n    /* \"#utility.yul\":5589:5592   */\n  0x00\n    /* \"#utility.yul\":5610:5615   */\n  dup2\n    /* \"#utility.yul\":5603:5615   */\n  swap1\n  pop\n    /* \"#utility.yul\":5546:5621   */\n  swap2\n  swap1\n  pop\n  jump\t// out\n    /* \"#utility.yul\":5627:5896   */\ntag_37:\n    /* \"#utility.yul\":5737:5776   */\n  tag_113\n    /* \"#utility.yul\":5768:5775   */\n  dup4\n    /* \"#utility.yul\":5737:5776   */\n  tag_35\n  jump\t// in\ntag_113:\n    /* \"#utility.yul\":5798:5889   */\n  tag_114\n    /* \"#utility.yul\":5847:5888   */\n  tag_115\n    /* \"#utility.yul\":5871:5887   */\n  dup3\n    /* \"#utility.yul\":5847:5888   */\n  tag_36\n  jump\t// in\ntag_115:\n    /* \"#utility.yul\":5839:5845   */\n  dup5\n    /* \"#utility.yul\":5832:5836   */\n  dup5\n    /* \"#utility.yul\":5826:5837   */\n  sload\n    /* \"#utility.yul\":5798:5889   */\n  tag_32\n  jump\t// in\ntag_114:\n    /* \"#utility.yul\":5792:5796   */\n  dup3\n    /* \"#utility.yul\":5785:5890   */\n  sstore\n    /* \"#utility.yul\":5703:5896   */\n  pop\n    /* \"#utility.yul\":5627:5896   */\n  pop\n  pop\n  pop\n  jump\t// out\n    /* \"#utility.yul\":5902:5975   */\ntag_38:\n    /* \"#utility.yul\":5947:5950   */\n  0x00\n    /* \"#utility.yul\":5902:5975   */\n  swap1\n  jump\t// out\n    /* \"#utility.yul\":5981:6170   */\ntag_39:\n    /* \"#utility.yul\":6058:6090   */\n  tag_118\n  tag_38\n  jump\t// in\ntag_118:\n    /* \"#utility.yul\":6099:6164   */\n  tag_119\n    /* \"#utility.yul\":6157:6163   */\n  dup2\n    /* \"#utility.yul\":6149:6155   */\n  dup5\n    /* \"#utility.yul\":6143:6147   */\n  dup5\n    /* \"#utility.yul\":6099:6164   */\n  tag_37\n  jump\t// in\ntag_119:\n    /* \"#utility.yul\":6034:6170   */\n  pop\n    /* \"#utility.yul\":5981:6170   */\n  pop\n  pop\n  jump\t// out\n    /* \"#utility.yul\":6176:6362   */\ntag_40:\n    /* \"#utility.yul\":6236:6356   */\ntag_121:\n    /* \"#utility.yul\":6253:6256   */\n  dup2\n    /* \"#utility.yul\":6246:6251   */\n  dup2\n    /* \"#utility.yul\":6243:6257   */\n  lt\n    /* \"#utility.yul\":6236:6356   */\n  iszero\n  tag_123\n  jumpi\n    /* \"#utility.yul\":6307:6346   */\n  tag_124\n    /* \"#utility.yul\":6344:6345   */\n  0x00\n    /* \"#utility.yul\":6337:6342   */\n  dup3\n    /* \"#utility.yul\":6307:6346   */\n  tag_39\n  jump\t// in\ntag_124:\n    /* \"#utility.yul\":6280:6281   */\n  0x01\n    /* \"#utility.yul\":6273:6278   */\n  dup2\n    /* \"#utility.yul\":6269:6282   */\n  add\n    /* \"#utility.yul\":6260:6282   */\n  swap1\n  pop\n    /* \"#utility.yul\":6236:6356   */\n  jump(tag_121)\ntag_123:\n    /* \"#utility.yul\":6176:6362   */\n  pop\n  pop\n  jump\t// out\n    /* \"#utility.yul\":6368:6911   */\ntag_41:\n    /* \"#utility.yul\":6469:6471   */\n  0x1f\n    /* \"#utility.yul\":6464:6467   */\n  dup3\n    /* \"#utility.yul\":6461:6472   */\n  gt\n    /* \"#utility.yul\":6458:6904   */\n  iszero\n  tag_126\n  jumpi\n    /* \"#utility.yul\":6503:6541   */\n  tag_127\n    /* \"#utility.yul\":6535:6540   */\n  dup2\n    /* \"#utility.yul\":6503:6541   */\n  tag_29\n  jump\t// in\ntag_127:\n    /* \"#utility.yul\":6587:6616   */\n  tag_128\n    /* \"#utility.yul\":6605:6615   */\n  dup5\n    /* \"#utility.yul\":6587:6616   */\n  tag_30\n  jump\t// in\ntag_128:\n    /* \"#utility.yul\":6577:6585   */\n  dup2\n    /* \"#utility.yul\":6573:6617   */\n  add\n    /* \"#utility.yul\":6770:6772   */\n  0x20\n    /* \"#utility.yul\":6758:6768   */\n  dup6\n    /* \"#utility.yul\":6755:6773   */\n  lt\n    /* \"#utility.yul\":6752:6801   */\n  iszero\n  tag_129\n  jumpi\n    /* \"#utility.yul\":6791:6799   */\n  dup2\n    /* \"#utility.yul\":6776:6799   */\n  swap1\n  pop\n    /* \"#utility.yul\":6752:6801   */\ntag_129:\n    /* \"#utility.yul\":6814:6894   */\n  tag_130\n    /* \"#utility.yul\":6870:6892   */\n  tag_131\n    /* \"#utility.yul\":6888:6891   */\n  dup6\n    /* \"#utility.yul\":6870:6892   */\n  tag_30\n  jump\t// in\ntag_131:\n    /* \"#utility.yul\":6860:6868   */\n  dup4\n    /* \"#utility.yul\":6856:6893   */\n  add\n    /* \"#utility.yul\":6843:6854   */\n  dup3\n    /* \"#utility.yul\":6814:6894   */\n  tag_40\n  jump\t// in\ntag_130:\n    /* \"#utility.yul\":6473:6904   */\n  pop\n  pop\n    /* \"#utility.yul\":6458:6904   */\ntag_126:\n    /* \"#utility.yul\":6368:6911   */\n  pop\n  pop\n  pop\n  jump\t// out\n    /* \"#utility.yul\":6917:7034   */\ntag_42:\n    /* \"#utility.yul\":6971:6979   */\n  0x00\n    /* \"#utility.yul\":7021:7026   */\n  dup3\n    /* \"#utility.yul\":7015:7019   */\n  dup3\n    /* \"#utility.yul\":7011:7027   */\n  shr\n    /* \"#utility.yul\":6990:7027   */\n  swap1\n  pop\n    /* \"#utility.yul\":6917:7034   */\n  swap3\n  swap2\n  pop\n  pop\n  jump\t// out\n    /* \"#utility.yul\":7040:7209   */\ntag_43:\n    /* \"#utility.yul\":7084:7090   */\n  0x00\n    /* \"#utility.yul\":7117:7168   */\n  tag_134\n    /* \"#utility.yul\":7165:7166   */\n  0x00\n    /* \"#utility.yul\":7161:7167   */\n  not\n    /* \"#utility.yul\":7153:7158   */\n  dup5\n    /* \"#utility.yul\":7150:7151   */\n  0x08\n    /* \"#utility.yul\":7146:7159   */\n  mul\n    /* \"#utility.yul\":7117:7168   */\n  tag_42\n  jump\t// in\ntag_134:\n    /* \"#utility.yul\":7113:7169   */\n  not\n    /* \"#utility.yul\":7198:7202   */\n  dup1\n    /* \"#utility.yul\":7192:7196   */\n  dup4\n    /* \"#utility.yul\":7188:7203   */\n  and\n    /* \"#utility.yul\":7178:7203   */\n  swap2\n  pop\n    /* \"#utility.yul\":7091:7209   */\n  pop\n    /* \"#utility.yul\":7040:7209   */\n  swap3\n  swap2\n  pop\n  pop\n  jump\t// out\n    /* \"#utility.yul\":7214:7509   */\ntag_44:\n    /* \"#utility.yul\":7290:7294   */\n  0x00\n    /* \"#utility.yul\":7436:7465   */\n  tag_136\n    /* \"#utility.yul\":7461:7464   */\n  dup4\n    /* \"#utility.yul\":7455:7459   */\n  dup4\n    /* \"#utility.yul\":7436:7465   */\n  tag_43\n  jump\t// in\ntag_136:\n    /* \"#utility.yul\":7428:7465   */\n  swap2\n  pop\n    /* \"#utility.yul\":7498:7501   */\n  dup3\n    /* \"#utility.yul\":7495:7496   */\n  0x02\n    /* \"#utility.yul\":7491:7502   */\n  mul\n    /* \"#utility.yul\":7485:7489   */\n  dup3\n    /* \"#utility.yul\":7482:7503   */\n  or\n    /* \"#utility.yul\":7474:7503   */\n  swap1\n  pop\n    /* \"#utility.yul\":7214:7509   */\n  swap3\n  swap2\n  pop\n  pop\n  jump\t// out\n    /* \"#utility.yul\":7514:8909   */\ntag_7:\n    /* \"#utility.yul\":7631:7668   */\n  tag_138\n    /* \"#utility.yul\":7664:7667   */\n  dup3\n    /* \"#utility.yul\":7631:7668   */\n  tag_26\n  jump\t// in\ntag_138:\n    /* \"#utility.yul\":7733:7751   */\n  0xffffffffffffffff\n    /* \"#utility.yul\":7725:7731   */\n  dup2\n    /* \"#utility.yul\":7722:7752   */\n  gt\n    /* \"#utility.yul\":7719:7775   */\n  iszero\n  tag_139\n  jumpi\n    /* \"#utility.yul\":7755:7773   */\n  tag_140\n  tag_15\n  jump\t// in\ntag_140:\n    /* \"#utility.yul\":7719:7775   */\ntag_139:\n    /* \"#utility.yul\":7799:7837   */\n  tag_141\n    /* \"#utility.yul\":7831:7835   */\n  dup3\n    /* \"#utility.yul\":7825:7836   */\n  sload\n    /* \"#utility.yul\":7799:7837   */\n  tag_28\n  jump\t// in\ntag_141:\n    /* \"#utility.yul\":7884:7951   */\n  tag_142\n    /* \"#utility.yul\":7944:7950   */\n  dup3\n    /* \"#utility.yul\":7936:7942   */\n  dup3\n    /* \"#utility.yul\":7930:7934   */\n  dup6\n    /* \"#utility.yul\":7884:7951   */\n  tag_41\n  jump\t// in\ntag_142:\n    /* \"#utility.yul\":7978:7979   */\n  0x00\n    /* \"#utility.yul\":8002:8006   */\n  0x20\n    /* \"#utility.yul\":7989:8006   */\n  swap1\n  pop\n    /* \"#utility.yul\":8034:8036   */\n  0x1f\n    /* \"#utility.yul\":8026:8032   */\n  dup4\n    /* \"#utility.yul\":8023:8037   */\n  gt\n    /* \"#utility.yul\":8051:8052   */\n  0x01\n    /* \"#utility.yul\":8046:8664   */\n  dup2\n  eq\n  tag_144\n  jumpi\n    /* \"#utility.yul\":8708:8709   */\n  0x00\n    /* \"#utility.yul\":8725:8731   */\n  dup5\n    /* \"#utility.yul\":8722:8799   */\n  iszero\n  tag_145\n  jumpi\n    /* \"#utility.yul\":8774:8783   */\n  dup3\n    /* \"#utility.yul\":8769:8772   */\n  dup8\n    /* \"#utility.yul\":8765:8784   */\n  add\n    /* \"#utility.yul\":8759:8785   */\n  mload\n    /* \"#utility.yul\":8750:8785   */\n  swap1\n  pop\n    /* \"#utility.yul\":8722:8799   */\ntag_145:\n    /* \"#utility.yul\":8825:8892   */\n  tag_146\n    /* \"#utility.yul\":8885:8891   */\n  dup6\n    /* \"#utility.yul\":8878:8883   */\n  dup3\n    /* \"#utility.yul\":8825:8892   */\n  tag_44\n  jump\t// in\ntag_146:\n    /* \"#utility.yul\":8819:8823   */\n  dup7\n    /* \"#utility.yul\":8812:8893   */\n  sstore\n    /* \"#utility.yul\":8681:8903   */\n  pop\n    /* \"#utility.yul\":8016:8903   */\n  jump(tag_143)\n    /* \"#utility.yul\":8046:8664   */\ntag_144:\n    /* \"#utility.yul\":8098:8102   */\n  0x1f\n    /* \"#utility.yul\":8094:8103   */\n  not\n    /* \"#utility.yul\":8086:8092   */\n  dup5\n    /* \"#utility.yul\":8082:8104   */\n  and\n    /* \"#utility.yul\":8132:8169   */\n  tag_147\n    /* \"#utility.yul\":8164:8168   */\n  dup7\n    /* \"#utility.yul\":8132:8169   */\n  tag_29\n  jump\t// in\ntag_147:\n    /* \"#utility.yul\":8191:8192   */\n  0x00\n    /* \"#utility.yul\":8205:8413   */\ntag_148:\n    /* \"#utility.yul\":8219:8226   */\n  dup3\n    /* \"#utility.yul\":8216:8217   */\n  dup2\n    /* \"#utility.yul\":8213:8227   */\n  lt\n    /* \"#utility.yul\":8205:8413   */\n  iszero\n  tag_150\n  jumpi\n    /* \"#utility.yul\":8298:8307   */\n  dup5\n    /* \"#utility.yul\":8293:8296   */\n  dup10\n    /* \"#utility.yul\":8289:8308   */\n  add\n    /* \"#utility.yul\":8283:8309   */\n  mload\n    /* \"#utility.yul\":8275:8281   */\n  dup3\n    /* \"#utility.yul\":8268:8310   */\n  sstore\n    /* \"#utility.yul\":8349:8350   */\n  0x01\n    /* \"#utility.yul\":8341:8347   */\n  dup3\n    /* \"#utility.yul\":8337:8351   */\n  add\n    /* \"#utility.yul\":8327:8351   */\n  swap2\n  pop\n    /* \"#utility.yul\":8396:8398   */\n  0x20\n    /* \"#utility.yul\":8385:8394   */\n  dup6\n    /* \"#utility.yul\":8381:8399   */\n  add\n    /* \"#utility.yul\":8368:8399   */\n  swap5\n  pop\n    /* \"#utility.yul\":8242:8246   */\n  0x20\n    /* \"#utility.yul\":8239:8240   */\n  dup2\n    /* \"#utility.yul\":8235:8247   */\n  add\n    /* \"#utility.yul\":8230:8247   */\n  swap1\n  pop\n    /* \"#utility.yul\":8205:8413   */\n  jump(tag_148)\ntag_150:\n    /* \"#utility.yul\":8441:8447   */\n  dup7\n    /* \"#utility.yul\":8432:8439   */\n  dup4\n    /* \"#utility.yul\":8429:8448   */\n  lt\n    /* \"#utility.yul\":8426:8605   */\n  iszero\n  tag_151\n  jumpi\n    /* \"#utility.yul\":8499:8508   */\n  dup5\n    /* \"#utility.yul\":8494:8497   */\n  dup10\n    /* \"#utility.yul\":8490:8509   */\n  add\n    /* \"#utility.yul\":8484:8510   */\n  mload\n    /* \"#utility.yul\":8542:8590   */\n  tag_152\n    /* \"#utility.yul\":8584:8588   */\n  0x1f\n    /* \"#utility.yul\":8576:8582   */\n  dup10\n    /* \"#utility.yul\":8572:8589   */\n  and\n    /* \"#utility.yul\":8561:8570   */\n  dup3\n    /* \"#utility.yul\":8542:8590   */\n  tag_43\n  jump\t// in\ntag_152:\n    /* \"#utility.yul\":8534:8540   */\n  dup4\n    /* \"#utility.yul\":8527:8591   */\n  sstore\n    /* \"#utility.yul\":8449:8605   */\n  pop\n    /* \"#utility.yul\":8426:8605   */\ntag_151:\n    /* \"#utility.yul\":8651:8652   */\n  0x01\n    /* \"#utility.yul\":8647:8648   */\n  0x02\n    /* \"#utility.yul\":8639:8645   */\n  dup9\n    /* \"#utility.yul\":8635:8649   */\n  mul\n    /* \"#utility.yul\":8631:8653   */\n  add\n    /* \"#utility.yul\":8625:8629   */\n  dup9\n    /* \"#utility.yul\":8618:8654   */\n  sstore\n    /* \"#utility.yul\":8053:8664   */\n  pop\n  pop\n  pop\n    /* \"#utility.yul\":8016:8903   */\ntag_143:\n  pop\n    /* \"#utility.yul\":7606:8909   */\n  pop\n  pop\n  pop\n    /* \"#utility.yul\":7514:8909   */\n  pop\n  pop\n  jump\t// out\n    /* \"contracts/SuplyBeam_main.sol\":732:4756  contract SupplyBeam_main {... */\ntag_8:\n  dataSize(sub_0)\n  dup1\n  dataOffset(sub_0)\n  0x00\n  codecopy\n  0x00\n  return\nstop\n\nsub_0: assembly {\n        /* \"contracts/SuplyBeam_main.sol\":732:4756  contract SupplyBeam_main {... */\n      mstore(0x40, 0x80)\n      callvalue\n      dup1\n      iszero\n      tag_1\n      jumpi\n      0x00\n      dup1\n      revert\n    tag_1:\n      pop\n      jumpi(tag_2, lt(calldatasize, 0x04))\n      shr(0xe0, calldataload(0x00))\n      dup1\n      0x8da5cb5b\n      gt\n      tag_15\n      jumpi\n      dup1\n      0x8da5cb5b\n      eq\n      tag_9\n      jumpi\n      dup1\n      0xb83c893a\n      eq\n      tag_10\n      jumpi\n      dup1\n      0xcfe50a0c\n      eq\n      tag_11\n      jumpi\n      dup1\n      0xef3cada2\n      eq\n      tag_12\n      jumpi\n      dup1\n      0xf3030f95\n      eq\n      tag_13\n      jumpi\n      dup1\n      0xff9e0c32\n      eq\n      tag_14\n      jumpi\n      jump(tag_2)\n    tag_15:\n      dup1\n      0x0153ea91\n      eq\n      tag_3\n      jumpi\n      dup1\n      0x0269ba5c\n      eq\n      tag_4\n      jumpi\n      dup1\n      0x06fdde03\n      eq\n      tag_5\n      jumpi\n      dup1\n      0x4408497d\n      eq\n      tag_6\n      jumpi\n      dup1\n      0x784544ec\n      eq\n      tag_7\n      jumpi\n      dup1\n      0x7f191d47\n      eq\n      tag_8\n      jumpi\n    tag_2:\n      0x00\n      dup1\n      revert\n        /* \"contracts/SuplyBeam_main.sol\":2989:3133  function getObject(string calldata obj_name) public view objExists(obj_name) returns (object memory) {... */\n    tag_3:\n      tag_16\n      0x04\n      dup1\n      calldatasize\n      sub\n      dup2\n      add\n      swap1\n      tag_17\n      swap2\n      swap1\n      tag_18\n      jump\t// in\n    tag_17:\n      tag_19\n      jump\t// in\n    tag_16:\n      mload(0x40)\n      tag_20\n      swap2\n      swap1\n      tag_21\n      jump\t// in\n    tag_20:\n      mload(0x40)\n      dup1\n      swap2\n      sub\n      swap1\n      return\n        /* \"contracts/SuplyBeam_main.sol\":3539:3871  function getObjects(uint from, uint to) public view nLowerThanObjects(to) returns (object[] memory) {... */\n    tag_4:\n      tag_22\n      0x04\n      dup1\n      calldatasize\n      sub\n      dup2\n      add\n      swap1\n      tag_23\n      swap2\n      swap1\n      tag_24\n      jump\t// in\n    tag_23:\n      tag_25\n      jump\t// in\n    tag_22:\n      mload(0x40)\n      tag_26\n      swap2\n      swap1\n      tag_27\n      jump\t// in\n    tag_26:\n      mload(0x40)\n      dup1\n      swap2\n      sub\n      swap1\n      return\n        /* \"contracts/SuplyBeam_main.sol\":764:782  string public name */\n    tag_5:\n      tag_28\n      tag_29\n      jump\t// in\n    tag_28:\n      mload(0x40)\n      tag_30\n      swap2\n      swap1\n      tag_31\n      jump\t// in\n    tag_30:\n      mload(0x40)\n      dup1\n      swap2\n      sub\n      swap1\n      return\n        /* \"contracts/SuplyBeam_main.sol\":3139:3236  function getObjectsNumber() public view returns(uint){... */\n    tag_6:\n      tag_32\n      tag_33\n      jump\t// in\n    tag_32:\n      mload(0x40)\n      tag_34\n      swap2\n      swap1\n      tag_35\n      jump\t// in\n    tag_34:\n      mload(0x40)\n      dup1\n      swap2\n      sub\n      swap1\n      return\n        /* \"contracts/SuplyBeam_main.sol\":2456:2598  function unlockObject(string calldata obj_name) public objLocked(obj_name) onlyLocker(obj_name) {... */\n    tag_7:\n      tag_36\n      0x04\n      dup1\n      calldatasize\n      sub\n      dup2\n      add\n      swap1\n      tag_37\n      swap2\n      swap1\n      tag_18\n      jump\t// in\n    tag_37:\n      tag_38\n      jump\t// in\n    tag_36:\n      stop\n        /* \"contracts/SuplyBeam_main.sol\":3879:4317  function _create(string calldata obj_name, state memory obj_state) notObjExists(obj_name) public {... */\n    tag_8:\n      tag_39\n      0x04\n      dup1\n      calldatasize\n      sub\n      dup2\n      add\n      swap1\n      tag_40\n      swap2\n      swap1\n      tag_41\n      jump\t// in\n    tag_40:\n      tag_42\n      jump\t// in\n    tag_39:\n      stop\n        /* \"contracts/SuplyBeam_main.sol\":789:809  address public owner */\n    tag_9:\n      tag_43\n      tag_44\n      jump\t// in\n    tag_43:\n      mload(0x40)\n      tag_45\n      swap2\n      swap1\n      tag_46\n      jump\t// in\n    tag_45:\n      mload(0x40)\n      dup1\n      swap2\n      sub\n      swap1\n      return\n        /* \"contracts/SuplyBeam_main.sol\":4325:4753  function _update(string calldata obj_name, state memory obj_state) public objExists(obj_name) {... */\n    tag_10:\n      tag_47\n      0x04\n      dup1\n      calldatasize\n      sub\n      dup2\n      add\n      swap1\n      tag_48\n      swap2\n      swap1\n      tag_41\n      jump\t// in\n    tag_48:\n      tag_49\n      jump\t// in\n    tag_47:\n      stop\n        /* \"contracts/SuplyBeam_main.sol\":3242:3533  function getAllObjects() public view returns (object[] memory) {... */\n    tag_11:\n      tag_50\n      tag_51\n      jump\t// in\n    tag_50:\n      mload(0x40)\n      tag_52\n      swap2\n      swap1\n      tag_27\n      jump\t// in\n    tag_52:\n      mload(0x40)\n      dup1\n      swap2\n      sub\n      swap1\n      return\n        /* \"contracts/SuplyBeam_main.sol\":2606:2738  function isObjectLocked(string calldata obj_name) view  public returns(bool){... */\n    tag_12:\n      tag_53\n      0x04\n      dup1\n      calldatasize\n      sub\n      dup2\n      add\n      swap1\n      tag_54\n      swap2\n      swap1\n      tag_18\n      jump\t// in\n    tag_54:\n      tag_55\n      jump\t// in\n    tag_53:\n      mload(0x40)\n      tag_56\n      swap2\n      swap1\n      tag_57\n      jump\t// in\n    tag_56:\n      mload(0x40)\n      dup1\n      swap2\n      sub\n      swap1\n      return\n        /* \"contracts/SuplyBeam_main.sol\":2182:2304  function lockObject(string calldata obj_name) public objNotLocked(obj_name) {... */\n    tag_13:\n      tag_58\n      0x04\n      dup1\n      calldatasize\n      sub\n      dup2\n      add\n      swap1\n      tag_59\n      swap2\n      swap1\n      tag_18\n      jump\t// in\n    tag_59:\n      tag_60\n      jump\t// in\n    tag_58:\n      stop\n        /* \"contracts/SuplyBeam_main.sol\":2312:2448  function forceUnlockObject(string calldata obj_name) public onlyOwner objLocked(obj_name) {... */\n    tag_14:\n      tag_61\n      0x04\n      dup1\n      calldatasize\n      sub\n      dup2\n      add\n      swap1\n      tag_62\n      swap2\n      swap1\n      tag_18\n      jump\t// in\n    tag_62:\n      tag_63\n      jump\t// in\n    tag_61:\n      stop\n        /* \"contracts/SuplyBeam_main.sol\":2989:3133  function getObject(string calldata obj_name) public view objExists(obj_name) returns (object memory) {... */\n    tag_19:\n        /* \"contracts/SuplyBeam_main.sol\":3075:3088  object memory */\n      tag_64\n      tag_65\n      jump\t// in\n    tag_64:\n        /* \"contracts/SuplyBeam_main.sol\":3056:3064  obj_name */\n      dup3\n      dup3\n        /* \"contracts/SuplyBeam_main.sol\":1490:1512  objectExists(obj_name) */\n      tag_67\n        /* \"contracts/SuplyBeam_main.sol\":1503:1511  obj_name */\n      dup3\n      dup3\n        /* \"contracts/SuplyBeam_main.sol\":1490:1502  objectExists */\n      tag_68\n        /* \"contracts/SuplyBeam_main.sol\":1490:1512  objectExists(obj_name) */\n      jump\t// in\n    tag_67:\n        /* \"contracts/SuplyBeam_main.sol\":1482:1513  require(objectExists(obj_name)) */\n      tag_69\n      jumpi\n      0x00\n      dup1\n      revert\n    tag_69:\n        /* \"contracts/SuplyBeam_main.sol\":3108:3115  objects */\n      0x04\n        /* \"contracts/SuplyBeam_main.sol\":3116:3124  obj_name */\n      dup6\n      dup6\n        /* \"contracts/SuplyBeam_main.sol\":3108:3125  objects[obj_name] */\n      mload(0x40)\n      tag_71\n      swap3\n      swap2\n      swap1\n      tag_72\n      jump\t// in\n    tag_71:\n      swap1\n      dup2\n      mstore\n      0x20\n      add\n      mload(0x40)\n      dup1\n      swap2\n      sub\n      swap1\n      keccak256\n        /* \"contracts/SuplyBeam_main.sol\":3101:3125  return objects[obj_name] */\n      mload(0x40)\n      dup1\n      0x40\n      add\n      0x40\n      mstore\n      swap1\n      dup2\n      0x00\n      dup3\n      add\n      dup1\n      sload\n      tag_73\n      swap1\n      tag_74\n      jump\t// in\n    tag_73:\n      dup1\n      0x1f\n      add\n      0x20\n      dup1\n      swap2\n      div\n      mul\n      0x20\n      add\n      mload(0x40)\n      swap1\n      dup2\n      add\n      0x40\n      mstore\n      dup1\n      swap3\n      swap2\n      swap1\n      dup2\n      dup2\n      mstore\n      0x20\n      add\n      dup3\n      dup1\n      sload\n      tag_75\n      swap1\n      tag_74\n      jump\t// in\n    tag_75:\n      dup1\n      iszero\n      tag_76\n      jumpi\n      dup1\n      0x1f\n      lt\n      tag_77\n      jumpi\n      0x0100\n      dup1\n      dup4\n      sload\n      div\n      mul\n      dup4\n      mstore\n      swap2\n      0x20\n      add\n      swap2\n      jump(tag_76)\n    tag_77:\n      dup3\n      add\n      swap2\n      swap1\n      0x00\n      mstore\n      keccak256(0x00, 0x20)\n      swap1\n    tag_78:\n      dup2\n      sload\n      dup2\n      mstore\n      swap1\n      0x01\n      add\n      swap1\n      0x20\n      add\n      dup1\n      dup4\n      gt\n      tag_78\n      jumpi\n      dup3\n      swap1\n      sub\n      0x1f\n      and\n      dup3\n      add\n      swap2\n    tag_76:\n      pop\n      pop\n      pop\n      pop\n      pop\n      dup2\n      mstore\n      0x20\n      add\n      0x01\n      dup3\n      add\n      mload(0x40)\n      dup1\n      0x60\n      add\n      0x40\n      mstore\n      swap1\n      dup2\n      0x00\n      dup3\n      add\n      dup1\n      sload\n      tag_79\n      swap1\n      tag_74\n      jump\t// in\n    tag_79:\n      dup1\n      0x1f\n      add\n      0x20\n      dup1\n      swap2\n      div\n      mul\n      0x20\n      add\n      mload(0x40)\n      swap1\n      dup2\n      add\n      0x40\n      mstore\n      dup1\n      swap3\n      swap2\n      swap1\n      dup2\n      dup2\n      mstore\n      0x20\n      add\n      dup3\n      dup1\n      sload\n      tag_80\n      swap1\n      tag_74\n      jump\t// in\n    tag_80:\n      dup1\n      iszero\n      tag_81\n      jumpi\n      dup1\n      0x1f\n      lt\n      tag_82\n      jumpi\n      0x0100\n      dup1\n      dup4\n      sload\n      div\n      mul\n      dup4\n      mstore\n      swap2\n      0x20\n      add\n      swap2\n      jump(tag_81)\n    tag_82:\n      dup3\n      add\n      swap2\n      swap1\n      0x00\n      mstore\n      keccak256(0x00, 0x20)\n      swap1\n    tag_83:\n      dup2\n      sload\n      dup2\n      mstore\n      swap1\n      0x01\n      add\n      swap1\n      0x20\n      add\n      dup1\n      dup4\n      gt\n      tag_83\n      jumpi\n      dup3\n      swap1\n      sub\n      0x1f\n      and\n      dup3\n      add\n      swap2\n    tag_81:\n      pop\n      pop\n      pop\n      pop\n      pop\n      dup2\n      mstore\n      0x20\n      add\n      0x01\n      dup3\n      add\n      dup1\n      sload\n      tag_84\n      swap1\n      tag_74\n      jump\t// in\n    tag_84:\n      dup1\n      0x1f\n      add\n      0x20\n      dup1\n      swap2\n      div\n      mul\n      0x20\n      add\n      mload(0x40)\n      swap1\n      dup2\n      add\n      0x40\n      mstore\n      dup1\n      swap3\n      swap2\n      swap1\n      dup2\n      dup2\n      mstore\n      0x20\n      add\n      dup3\n      dup1\n      sload\n      tag_85\n      swap1\n      tag_74\n      jump\t// in\n    tag_85:\n      dup1\n      iszero\n      tag_86\n      jumpi\n      dup1\n      0x1f\n      lt\n      tag_87\n      jumpi\n      0x0100\n      dup1\n      dup4\n      sload\n      div\n      mul\n      dup4\n      mstore\n      swap2\n      0x20\n      add\n      swap2\n      jump(tag_86)\n    tag_87:\n      dup3\n      add\n      swap2\n      swap1\n      0x00\n      mstore\n      keccak256(0x00, 0x20)\n      swap1\n    tag_88:\n      dup2\n      sload\n      dup2\n      mstore\n      swap1\n      0x01\n      add\n      swap1\n      0x20\n      add\n      dup1\n      dup4\n      gt\n      tag_88\n      jumpi\n      dup3\n      swap1\n      sub\n      0x1f\n      and\n      dup3\n      add\n      swap2\n    tag_86:\n      pop\n      pop\n      pop\n      pop\n      pop\n      dup2\n      mstore\n      0x20\n      add\n      0x02\n      dup3\n      add\n      0x00\n      swap1\n      sload\n      swap1\n      0x0100\n      exp\n      swap1\n      div\n      0xffffffffffffffffffffffffffffffffffffffff\n      and\n      0xffffffffffffffffffffffffffffffffffffffff\n      and\n      0xffffffffffffffffffffffffffffffffffffffff\n      and\n      dup2\n      mstore\n      pop\n      pop\n      dup2\n      mstore\n      pop\n      pop\n      swap3\n      pop\n        /* \"contracts/SuplyBeam_main.sol\":2989:3133  function getObject(string calldata obj_name) public view objExists(obj_name) returns (object memory) {... */\n      pop\n      pop\n      swap3\n      swap2\n      pop\n      pop\n      jump\t// out\n        /* \"contracts/SuplyBeam_main.sol\":3539:3871  function getObjects(uint from, uint to) public view nLowerThanObjects(to) returns (object[] memory) {... */\n    tag_25:\n        /* \"contracts/SuplyBeam_main.sol\":3622:3637  object[] memory */\n      0x60\n        /* \"contracts/SuplyBeam_main.sol\":3609:3611  to */\n      dup2\n        /* \"contracts/SuplyBeam_main.sol\":1984:1995  object_keys */\n      0x03\n        /* \"contracts/SuplyBeam_main.sol\":1984:2002  object_keys.length */\n      dup1\n      sload\n      swap1\n      pop\n        /* \"contracts/SuplyBeam_main.sol\":1982:1983  n */\n      dup2\n        /* \"contracts/SuplyBeam_main.sol\":1982:2002  n<object_keys.length */\n      lt\n        /* \"contracts/SuplyBeam_main.sol\":1974:2025  require(n<object_keys.length, \"index out of range\") */\n      tag_90\n      jumpi\n      mload(0x40)\n      0x08c379a000000000000000000000000000000000000000000000000000000000\n      dup2\n      mstore\n      0x04\n      add\n      tag_91\n      swap1\n      tag_92\n      jump\t// in\n    tag_91:\n      mload(0x40)\n      dup1\n      swap2\n      sub\n      swap1\n      revert\n    tag_90:\n        /* \"contracts/SuplyBeam_main.sol\":3650:3656  uint l */\n      0x00\n        /* \"contracts/SuplyBeam_main.sol\":3667:3671  from */\n      dup5\n        /* \"contracts/SuplyBeam_main.sol\":3664:3666  to */\n      dup5\n        /* \"contracts/SuplyBeam_main.sol\":3664:3671  to-from */\n      tag_94\n      swap2\n      swap1\n      tag_95\n      jump\t// in\n    tag_94:\n        /* \"contracts/SuplyBeam_main.sol\":3650:3672  uint l = uint(to-from) */\n      swap1\n      pop\n        /* \"contracts/SuplyBeam_main.sol\":3683:3705  object[] memory result */\n      0x00\n        /* \"contracts/SuplyBeam_main.sol\":3721:3722  l */\n      dup2\n        /* \"contracts/SuplyBeam_main.sol\":3708:3723  new object[](l) */\n      0xffffffffffffffff\n      dup2\n      gt\n      iszero\n      tag_96\n      jumpi\n      tag_97\n      tag_98\n      jump\t// in\n    tag_97:\n    tag_96:\n      mload(0x40)\n      swap1\n      dup1\n      dup3\n      mstore\n      dup1\n      0x20\n      mul\n      0x20\n      add\n      dup3\n      add\n      0x40\n      mstore\n      dup1\n      iszero\n      tag_99\n      jumpi\n      dup2\n      0x20\n      add\n    tag_100:\n      tag_101\n      tag_65\n      jump\t// in\n    tag_101:\n      dup2\n      mstore\n      0x20\n      add\n      swap1\n      0x01\n      swap1\n      sub\n      swap1\n      dup2\n      tag_100\n      jumpi\n      swap1\n      pop\n    tag_99:\n      pop\n        /* \"contracts/SuplyBeam_main.sol\":3683:3723  object[] memory result = new object[](l) */\n      swap1\n      pop\n        /* \"contracts/SuplyBeam_main.sol\":3739:3745  uint i */\n      0x00\n        /* \"contracts/SuplyBeam_main.sol\":3748:3752  from */\n      dup7\n        /* \"contracts/SuplyBeam_main.sol\":3739:3752  uint i = from */\n      swap1\n      pop\n        /* \"contracts/SuplyBeam_main.sol\":3734:3840  for (uint i = from; i <= to; i++) ... */\n    tag_102:\n        /* \"contracts/SuplyBeam_main.sol\":3759:3761  to */\n      dup6\n        /* \"contracts/SuplyBeam_main.sol\":3754:3755  i */\n      dup2\n        /* \"contracts/SuplyBeam_main.sol\":3754:3761  i <= to */\n      gt\n        /* \"contracts/SuplyBeam_main.sol\":3734:3840  for (uint i = from; i <= to; i++) ... */\n      tag_103\n      jumpi\n        /* \"contracts/SuplyBeam_main.sol\":3805:3812  objects */\n      0x04\n        /* \"contracts/SuplyBeam_main.sol\":3813:3824  object_keys */\n      0x03\n        /* \"contracts/SuplyBeam_main.sol\":3825:3826  i */\n      dup3\n        /* \"contracts/SuplyBeam_main.sol\":3813:3827  object_keys[i] */\n      dup2\n      sload\n      dup2\n      lt\n      tag_105\n      jumpi\n      tag_106\n      tag_107\n      jump\t// in\n    tag_106:\n    tag_105:\n      swap1\n      0x00\n      mstore\n      keccak256(0x00, 0x20)\n      add\n        /* \"contracts/SuplyBeam_main.sol\":3805:3828  objects[object_keys[i]] */\n      mload(0x40)\n      tag_109\n      swap2\n      swap1\n      tag_110\n      jump\t// in\n    tag_109:\n      swap1\n      dup2\n      mstore\n      0x20\n      add\n      mload(0x40)\n      dup1\n      swap2\n      sub\n      swap1\n      keccak256\n        /* \"contracts/SuplyBeam_main.sol\":3793:3828  result[i] = objects[object_keys[i]] */\n      mload(0x40)\n      dup1\n      0x40\n      add\n      0x40\n      mstore\n      swap1\n      dup2\n      0x00\n      dup3\n      add\n      dup1\n      sload\n      tag_111\n      swap1\n      tag_74\n      jump\t// in\n    tag_111:\n      dup1\n      0x1f\n      add\n      0x20\n      dup1\n      swap2\n      div\n      mul\n      0x20\n      add\n      mload(0x40)\n      swap1\n      dup2\n      add\n      0x40\n      mstore\n      dup1\n      swap3\n      swap2\n      swap1\n      dup2\n      dup2\n      mstore\n      0x20\n      add\n      dup3\n      dup1\n      sload\n      tag_112\n      swap1\n      tag_74\n      jump\t// in\n    tag_112:\n      dup1\n      iszero\n      tag_113\n      jumpi\n      dup1\n      0x1f\n      lt\n      tag_114\n      jumpi\n      0x0100\n      dup1\n      dup4\n      sload\n      div\n      mul\n      dup4\n      mstore\n      swap2\n      0x20\n      add\n      swap2\n      jump(tag_113)\n    tag_114:\n      dup3\n      add\n      swap2\n      swap1\n      0x00\n      mstore\n      keccak256(0x00, 0x20)\n      swap1\n    tag_115:\n      dup2\n      sload\n      dup2\n      mstore\n      swap1\n      0x01\n      add\n      swap1\n      0x20\n      add\n      dup1\n      dup4\n      gt\n      tag_115\n      jumpi\n      dup3\n      swap1\n      sub\n      0x1f\n      and\n      dup3\n      add\n      swap2\n    tag_113:\n      pop\n      pop\n      pop\n      pop\n      pop\n      dup2\n      mstore\n      0x20\n      add\n      0x01\n      dup3\n      add\n      mload(0x40)\n      dup1\n      0x60\n      add\n      0x40\n      mstore\n      swap1\n      dup2\n      0x00\n      dup3\n      add\n      dup1\n      sload\n      tag_116\n      swap1\n      tag_74\n      jump\t// in\n    tag_116:\n      dup1\n      0x1f\n      add\n      0x20\n      dup1\n      swap2\n      div\n      mul\n      0x20\n      add\n      mload(0x40)\n      swap1\n      dup2\n      add\n      0x40\n      mstore\n      dup1\n      swap3\n      swap2\n      swap1\n      dup2\n      dup2\n      mstore\n      0x20\n      add\n      dup3\n      dup1\n      sload\n      tag_117\n      swap1\n      tag_74\n      jump\t// in\n    tag_117:\n      dup1\n      iszero\n      tag_118\n      jumpi\n      dup1\n      0x1f\n      lt\n      tag_119\n      jumpi\n      0x0100\n      dup1\n      dup4\n      sload\n      div\n      mul\n      dup4\n      mstore\n      swap2\n      0x20\n      add\n      swap2\n      jump(tag_118)\n    tag_119:\n      dup3\n      add\n      swap2\n      swap1\n      0x00\n      mstore\n      keccak256(0x00, 0x20)\n      swap1\n    tag_120:\n      dup2\n      sload\n      dup2\n      mstore\n      swap1\n      0x01\n      add\n      swap1\n      0x20\n      add\n      dup1\n      dup4\n      gt\n      tag_120\n      jumpi\n      dup3\n      swap1\n      sub\n      0x1f\n      and\n      dup3\n      add\n      swap2\n    tag_118:\n      pop\n      pop\n      pop\n      pop\n      pop\n      dup2\n      mstore\n      0x20\n      add\n      0x01\n      dup3\n      add\n      dup1\n      sload\n      tag_121\n      swap1\n      tag_74\n      jump\t// in\n    tag_121:\n      dup1\n      0x1f\n      add\n      0x20\n      dup1\n      swap2\n      div\n      mul\n      0x20\n      add\n      mload(0x40)\n      swap1\n      dup2\n      add\n      0x40\n      mstore\n      dup1\n      swap3\n      swap2\n      swap1\n      dup2\n      dup2\n      mstore\n      0x20\n      add\n      dup3\n      dup1\n      sload\n      tag_122\n      swap1\n      tag_74\n      jump\t// in\n    tag_122:\n      dup1\n      iszero\n      tag_123\n      jumpi\n      dup1\n      0x1f\n      lt\n      tag_124\n      jumpi\n      0x0100\n      dup1\n      dup4\n      sload\n      div\n      mul\n      dup4\n      mstore\n      swap2\n      0x20\n      add\n      swap2\n      jump(tag_123)\n    tag_124:\n      dup3\n      add\n      swap2\n      swap1\n      0x00\n      mstore\n      keccak256(0x00, 0x20)\n      swap1\n    tag_125:\n      dup2\n      sload\n      dup2\n      mstore\n      swap1\n      0x01\n      add\n      swap1\n      0x20\n      add\n      dup1\n      dup4\n      gt\n      tag_125\n      jumpi\n      dup3\n      swap1\n      sub\n      0x1f\n      and\n      dup3\n      add\n      swap2\n    tag_123:\n      pop\n      pop\n      pop\n      pop\n      pop\n      dup2\n      mstore\n      0x20\n      add\n      0x02\n      dup3\n      add\n      0x00\n      swap1\n      sload\n      swap1\n      0x0100\n      exp\n      swap1\n      div\n      0xffffffffffffffffffffffffffffffffffffffff\n      and\n      0xffffffffffffffffffffffffffffffffffffffff\n      and\n      0xffffffffffffffffffffffffffffffffffffffff\n      and\n      dup2\n      mstore\n      pop\n      pop\n      dup2\n      mstore\n      pop\n      pop\n        /* \"contracts/SuplyBeam_main.sol\":3793:3799  result */\n      dup3\n        /* \"contracts/SuplyBeam_main.sol\":3800:3801  i */\n      dup3\n        /* \"contracts/SuplyBeam_main.sol\":3793:3802  result[i] */\n      dup2\n      mload\n      dup2\n      lt\n      tag_126\n      jumpi\n      tag_127\n      tag_107\n      jump\t// in\n    tag_127:\n    tag_126:\n      0x20\n      mul\n      0x20\n      add\n      add\n        /* \"contracts/SuplyBeam_main.sol\":3793:3828  result[i] = objects[object_keys[i]] */\n      dup2\n      swap1\n      mstore\n      pop\n        /* \"contracts/SuplyBeam_main.sol\":3763:3766  i++ */\n      dup1\n      dup1\n      tag_128\n      swap1\n      tag_129\n      jump\t// in\n    tag_128:\n      swap2\n      pop\n      pop\n        /* \"contracts/SuplyBeam_main.sol\":3734:3840  for (uint i = from; i <= to; i++) ... */\n      jump(tag_102)\n    tag_103:\n      pop\n        /* \"contracts/SuplyBeam_main.sol\":3857:3863  result */\n      dup1\n        /* \"contracts/SuplyBeam_main.sol\":3850:3863  return result */\n      swap4\n      pop\n      pop\n      pop\n        /* \"contracts/SuplyBeam_main.sol\":3539:3871  function getObjects(uint from, uint to) public view nLowerThanObjects(to) returns (object[] memory) {... */\n      pop\n      swap3\n      swap2\n      pop\n      pop\n      jump\t// out\n        /* \"contracts/SuplyBeam_main.sol\":764:782  string public name */\n    tag_29:\n      0x00\n      dup1\n      sload\n      tag_130\n      swap1\n      tag_74\n      jump\t// in\n    tag_130:\n      dup1\n      0x1f\n      add\n      0x20\n      dup1\n      swap2\n      div\n      mul\n      0x20\n      add\n      mload(0x40)\n      swap1\n      dup2\n      add\n      0x40\n      mstore\n      dup1\n      swap3\n      swap2\n      swap1\n      dup2\n      dup2\n      mstore\n      0x20\n      add\n      dup3\n      dup1\n      sload\n      tag_131\n      swap1\n      tag_74\n      jump\t// in\n    tag_131:\n      dup1\n      iszero\n      tag_132\n      jumpi\n      dup1\n      0x1f\n      lt\n      tag_133\n      jumpi\n      0x0100\n      dup1\n      dup4\n      sload\n      div\n      mul\n      dup4\n      mstore\n      swap2\n      0x20\n      add\n      swap2\n      jump(tag_132)\n    tag_133:\n      dup3\n      add\n      swap2\n      swap1\n      0x00\n      mstore\n      keccak256(0x00, 0x20)\n      swap1\n    tag_134:\n      dup2\n      sload\n      dup2\n      mstore\n      swap1\n      0x01\n      add\n      swap1\n      0x20\n      add\n      dup1\n      dup4\n      gt\n      tag_134\n      jumpi\n      dup3\n      swap1\n      sub\n      0x1f\n      and\n      dup3\n      add\n      swap2\n    tag_132:\n      pop\n      pop\n      pop\n      pop\n      pop\n      dup2\n      jump\t// out\n        /* \"contracts/SuplyBeam_main.sol\":3139:3236  function getObjectsNumber() public view returns(uint){... */\n    tag_33:\n        /* \"contracts/SuplyBeam_main.sol\":3187:3191  uint */\n      0x00\n        /* \"contracts/SuplyBeam_main.sol\":3210:3221  object_keys */\n      0x03\n        /* \"contracts/SuplyBeam_main.sol\":3210:3228  object_keys.length */\n      dup1\n      sload\n      swap1\n      pop\n        /* \"contracts/SuplyBeam_main.sol\":3203:3228  return object_keys.length */\n      swap1\n      pop\n        /* \"contracts/SuplyBeam_main.sol\":3139:3236  function getObjectsNumber() public view returns(uint){... */\n      swap1\n      jump\t// out\n        /* \"contracts/SuplyBeam_main.sol\":2456:2598  function unlockObject(string calldata obj_name) public objLocked(obj_name) onlyLocker(obj_name) {... */\n    tag_38:\n        /* \"contracts/SuplyBeam_main.sol\":2521:2529  obj_name */\n      dup2\n      dup2\n        /* \"contracts/SuplyBeam_main.sol\":1720:1744  isObjectLocked(obj_name) */\n      tag_137\n        /* \"contracts/SuplyBeam_main.sol\":1735:1743  obj_name */\n      dup3\n      dup3\n        /* \"contracts/SuplyBeam_main.sol\":1720:1734  isObjectLocked */\n      tag_55\n        /* \"contracts/SuplyBeam_main.sol\":1720:1744  isObjectLocked(obj_name) */\n      jump\t// in\n    tag_137:\n        /* \"contracts/SuplyBeam_main.sol\":1712:1766  require(isObjectLocked(obj_name), \"Object not locked\") */\n      tag_138\n      jumpi\n      mload(0x40)\n      0x08c379a000000000000000000000000000000000000000000000000000000000\n      dup2\n      mstore\n      0x04\n      add\n      tag_139\n      swap1\n      tag_140\n      jump\t// in\n    tag_139:\n      mload(0x40)\n      dup1\n      swap2\n      sub\n      swap1\n      revert\n    tag_138:\n        /* \"contracts/SuplyBeam_main.sol\":2542:2550  obj_name */\n      dup4\n      dup4\n        /* \"contracts/SuplyBeam_main.sol\":1359:1363  lock */\n      0x02\n        /* \"contracts/SuplyBeam_main.sol\":1364:1372  obj_name */\n      dup3\n      dup3\n        /* \"contracts/SuplyBeam_main.sol\":1359:1373  lock[obj_name] */\n      mload(0x40)\n      tag_142\n      swap3\n      swap2\n      swap1\n      tag_72\n      jump\t// in\n    tag_142:\n      swap1\n      dup2\n      mstore\n      0x20\n      add\n      mload(0x40)\n      dup1\n      swap2\n      sub\n      swap1\n      keccak256\n      0x00\n      swap1\n      sload\n      swap1\n      0x0100\n      exp\n      swap1\n      div\n      0xffffffffffffffffffffffffffffffffffffffff\n      and\n        /* \"contracts/SuplyBeam_main.sol\":1345:1373  msg.sender == lock[obj_name] */\n      0xffffffffffffffffffffffffffffffffffffffff\n      and\n        /* \"contracts/SuplyBeam_main.sol\":1345:1355  msg.sender */\n      caller\n        /* \"contracts/SuplyBeam_main.sol\":1345:1373  msg.sender == lock[obj_name] */\n      0xffffffffffffffffffffffffffffffffffffffff\n      and\n      eq\n        /* \"contracts/SuplyBeam_main.sol\":1337:1400  require(msg.sender == lock[obj_name], \"You are not the owner.\") */\n      tag_143\n      jumpi\n      mload(0x40)\n      0x08c379a000000000000000000000000000000000000000000000000000000000\n      dup2\n      mstore\n      0x04\n      add\n      tag_144\n      swap1\n      tag_145\n      jump\t// in\n    tag_144:\n      mload(0x40)\n      dup1\n      swap2\n      sub\n      swap1\n      revert\n    tag_143:\n        /* \"contracts/SuplyBeam_main.sol\":2588:2589  0 */\n      0x00\n        /* \"contracts/SuplyBeam_main.sol\":2563:2567  lock */\n      0x02\n        /* \"contracts/SuplyBeam_main.sol\":2568:2576  obj_name */\n      dup8\n      dup8\n        /* \"contracts/SuplyBeam_main.sol\":2563:2577  lock[obj_name] */\n      mload(0x40)\n      tag_147\n      swap3\n      swap2\n      swap1\n      tag_72\n      jump\t// in\n    tag_147:\n      swap1\n      dup2\n      mstore\n      0x20\n      add\n      mload(0x40)\n      dup1\n      swap2\n      sub\n      swap1\n      keccak256\n      0x00\n        /* \"contracts/SuplyBeam_main.sol\":2563:2590  lock[obj_name] = address(0) */\n      0x0100\n      exp\n      dup2\n      sload\n      dup2\n      0xffffffffffffffffffffffffffffffffffffffff\n      mul\n      not\n      and\n      swap1\n      dup4\n      0xffffffffffffffffffffffffffffffffffffffff\n      and\n      mul\n      or\n      swap1\n      sstore\n      pop\n        /* \"contracts/SuplyBeam_main.sol\":1777:1778  _ */\n      pop\n      pop\n        /* \"contracts/SuplyBeam_main.sol\":2456:2598  function unlockObject(string calldata obj_name) public objLocked(obj_name) onlyLocker(obj_name) {... */\n      pop\n      pop\n      pop\n      pop\n      jump\t// out\n        /* \"contracts/SuplyBeam_main.sol\":3879:4317  function _create(string calldata obj_name, state memory obj_state) notObjExists(obj_name) public {... */\n    tag_42:\n        /* \"contracts/SuplyBeam_main.sol\":3959:3967  obj_name */\n      dup3\n      dup3\n        /* \"contracts/SuplyBeam_main.sol\":1607:1629  objectExists(obj_name) */\n      tag_149\n        /* \"contracts/SuplyBeam_main.sol\":1620:1628  obj_name */\n      dup3\n      dup3\n        /* \"contracts/SuplyBeam_main.sol\":1607:1619  objectExists */\n      tag_68\n        /* \"contracts/SuplyBeam_main.sol\":1607:1629  objectExists(obj_name) */\n      jump\t// in\n    tag_149:\n        /* \"contracts/SuplyBeam_main.sol\":1606:1629  !objectExists(obj_name) */\n      iszero\n        /* \"contracts/SuplyBeam_main.sol\":1598:1630  require(!objectExists(obj_name)) */\n      tag_150\n      jumpi\n      0x00\n      dup1\n      revert\n    tag_150:\n        /* \"contracts/SuplyBeam_main.sol\":3987:3997  address by */\n      0x00\n        /* \"contracts/SuplyBeam_main.sol\":4000:4010  msg.sender */\n      caller\n        /* \"contracts/SuplyBeam_main.sol\":3987:4010  address by = msg.sender */\n      swap1\n      pop\n        /* \"contracts/SuplyBeam_main.sol\":4044:4046  by */\n      dup1\n        /* \"contracts/SuplyBeam_main.sol\":4021:4030  obj_state */\n      dup5\n        /* \"contracts/SuplyBeam_main.sol\":4021:4041  obj_state.applied_by */\n      0x40\n      add\n        /* \"contracts/SuplyBeam_main.sol\":4021:4046  obj_state.applied_by = by */\n      swap1\n      0xffffffffffffffffffffffffffffffffffffffff\n      and\n      swap1\n      dup2\n      0xffffffffffffffffffffffffffffffffffffffff\n      and\n      dup2\n      mstore\n      pop\n      pop\n        /* \"contracts/SuplyBeam_main.sol\":4057:4074  object memory obj */\n      0x00\n        /* \"contracts/SuplyBeam_main.sol\":4077:4104  object(obj_name, obj_state) */\n      mload(0x40)\n      dup1\n      0x40\n      add\n      0x40\n      mstore\n      dup1\n        /* \"contracts/SuplyBeam_main.sol\":4084:4092  obj_name */\n      dup9\n      dup9\n        /* \"contracts/SuplyBeam_main.sol\":4077:4104  object(obj_name, obj_state) */\n      dup1\n      dup1\n      0x1f\n      add\n      0x20\n      dup1\n      swap2\n      div\n      mul\n      0x20\n      add\n      mload(0x40)\n      swap1\n      dup2\n      add\n      0x40\n      mstore\n      dup1\n      swap4\n      swap3\n      swap2\n      swap1\n      dup2\n      dup2\n      mstore\n      0x20\n      add\n      dup4\n      dup4\n      dup1\n      dup3\n      dup5\n      calldatacopy\n      0x00\n      dup2\n      dup5\n      add\n      mstore\n      not(0x1f)\n      0x1f\n      dup3\n      add\n      and\n      swap1\n      pop\n      dup1\n      dup4\n      add\n      swap3\n      pop\n      pop\n      pop\n      pop\n      pop\n      pop\n      pop\n      dup2\n      mstore\n      0x20\n      add\n        /* \"contracts/SuplyBeam_main.sol\":4094:4103  obj_state */\n      dup7\n        /* \"contracts/SuplyBeam_main.sol\":4077:4104  object(obj_name, obj_state) */\n      dup2\n      mstore\n      pop\n        /* \"contracts/SuplyBeam_main.sol\":4057:4104  object memory obj = object(obj_name, obj_state) */\n      swap1\n      pop\n        /* \"contracts/SuplyBeam_main.sol\":4135:4138  obj */\n      dup1\n        /* \"contracts/SuplyBeam_main.sol\":4115:4122  objects */\n      0x04\n        /* \"contracts/SuplyBeam_main.sol\":4123:4126  obj */\n      dup3\n        /* \"contracts/SuplyBeam_main.sol\":4123:4131  obj.name */\n      0x00\n      add\n      mload\n        /* \"contracts/SuplyBeam_main.sol\":4115:4132  objects[obj.name] */\n      mload(0x40)\n      tag_152\n      swap2\n      swap1\n      tag_153\n      jump\t// in\n    tag_152:\n      swap1\n      dup2\n      mstore\n      0x20\n      add\n      mload(0x40)\n      dup1\n      swap2\n      sub\n      swap1\n      keccak256\n        /* \"contracts/SuplyBeam_main.sol\":4115:4138  objects[obj.name] = obj */\n      0x00\n      dup3\n      add\n      mload\n      dup2\n      0x00\n      add\n      swap1\n      dup2\n      tag_154\n      swap2\n      swap1\n      tag_155\n      jump\t// in\n    tag_154:\n      pop\n      0x20\n      dup3\n      add\n      mload\n      dup2\n      0x01\n      add\n      0x00\n      dup3\n      add\n      mload\n      dup2\n      0x00\n      add\n      swap1\n      dup2\n      tag_156\n      swap2\n      swap1\n      tag_155\n      jump\t// in\n    tag_156:\n      pop\n      0x20\n      dup3\n      add\n      mload\n      dup2\n      0x01\n      add\n      swap1\n      dup2\n      tag_157\n      swap2\n      swap1\n      tag_155\n      jump\t// in\n    tag_157:\n      pop\n      0x40\n      dup3\n      add\n      mload\n      dup2\n      0x02\n      add\n      exp(0x0100, 0x00)\n      dup2\n      sload\n      dup2\n      0xffffffffffffffffffffffffffffffffffffffff\n      mul\n      not\n      and\n      swap1\n      dup4\n      0xffffffffffffffffffffffffffffffffffffffff\n      and\n      mul\n      or\n      swap1\n      sstore\n      pop\n      pop\n      pop\n      swap1\n      pop\n      pop\n        /* \"contracts/SuplyBeam_main.sol\":4149:4160  object_keys */\n      0x03\n        /* \"contracts/SuplyBeam_main.sol\":4166:4169  obj */\n      dup2\n        /* \"contracts/SuplyBeam_main.sol\":4166:4174  obj.name */\n      0x00\n      add\n      mload\n        /* \"contracts/SuplyBeam_main.sol\":4149:4175  object_keys.push(obj.name) */\n      swap1\n      dup1\n      0x01\n      dup2\n      sload\n      add\n      dup1\n      dup3\n      sstore\n      dup1\n      swap2\n      pop\n      pop\n      0x01\n      swap1\n      sub\n      swap1\n      0x00\n      mstore\n      keccak256(0x00, 0x20)\n      add\n      0x00\n      swap1\n      swap2\n      swap1\n      swap2\n      swap1\n      swap2\n      pop\n      swap1\n      dup2\n      tag_159\n      swap2\n      swap1\n      tag_155\n      jump\t// in\n    tag_159:\n      pop\n        /* \"contracts/SuplyBeam_main.sol\":4186:4201  update memory u */\n      0x00\n        /* \"contracts/SuplyBeam_main.sol\":4204:4275  update(obj, by, block.timestamp, obj.state, obj.state, obj.state.notes) */\n      mload(0x40)\n      dup1\n      0xc0\n      add\n      0x40\n      mstore\n      dup1\n        /* \"contracts/SuplyBeam_main.sol\":4211:4214  obj */\n      dup4\n        /* \"contracts/SuplyBeam_main.sol\":4204:4275  update(obj, by, block.timestamp, obj.state, obj.state, obj.state.notes) */\n      dup2\n      mstore\n      0x20\n      add\n        /* \"contracts/SuplyBeam_main.sol\":4216:4218  by */\n      dup5\n        /* \"contracts/SuplyBeam_main.sol\":4204:4275  update(obj, by, block.timestamp, obj.state, obj.state, obj.state.notes) */\n      0xffffffffffffffffffffffffffffffffffffffff\n      and\n      dup2\n      mstore\n      0x20\n      add\n        /* \"contracts/SuplyBeam_main.sol\":4220:4235  block.timestamp */\n      timestamp\n        /* \"contracts/SuplyBeam_main.sol\":4204:4275  update(obj, by, block.timestamp, obj.state, obj.state, obj.state.notes) */\n      dup2\n      mstore\n      0x20\n      add\n        /* \"contracts/SuplyBeam_main.sol\":4237:4240  obj */\n      dup4\n        /* \"contracts/SuplyBeam_main.sol\":4237:4246  obj.state */\n      0x20\n      add\n      mload\n        /* \"contracts/SuplyBeam_main.sol\":4204:4275  update(obj, by, block.timestamp, obj.state, obj.state, obj.state.notes) */\n      dup2\n      mstore\n      0x20\n      add\n        /* \"contracts/SuplyBeam_main.sol\":4248:4251  obj */\n      dup4\n        /* \"contracts/SuplyBeam_main.sol\":4248:4257  obj.state */\n      0x20\n      add\n      mload\n        /* \"contracts/SuplyBeam_main.sol\":4204:4275  update(obj, by, block.timestamp, obj.state, obj.state, obj.state.notes) */\n      dup2\n      mstore\n      0x20\n      add\n        /* \"contracts/SuplyBeam_main.sol\":4259:4262  obj */\n      dup4\n        /* \"contracts/SuplyBeam_main.sol\":4259:4268  obj.state */\n      0x20\n      add\n      mload\n        /* \"contracts/SuplyBeam_main.sol\":4259:4274  obj.state.notes */\n      0x20\n      add\n      mload\n        /* \"contracts/SuplyBeam_main.sol\":4204:4275  update(obj, by, block.timestamp, obj.state, obj.state, obj.state.notes) */\n      dup2\n      mstore\n      pop\n        /* \"contracts/SuplyBeam_main.sol\":4186:4275  update memory u = update(obj, by, block.timestamp, obj.state, obj.state, obj.state.notes) */\n      swap1\n      pop\n        /* \"contracts/SuplyBeam_main.sol\":4302:4305  obj */\n      dup2\n        /* \"contracts/SuplyBeam_main.sol\":4291:4309  Create(by, obj, u) */\n      mload(0x40)\n      tag_160\n      swap2\n      swap1\n      tag_161\n      jump\t// in\n    tag_160:\n      mload(0x40)\n      dup1\n      swap2\n      sub\n      swap1\n      keccak256\n        /* \"contracts/SuplyBeam_main.sol\":4298:4300  by */\n      dup4\n        /* \"contracts/SuplyBeam_main.sol\":4291:4309  Create(by, obj, u) */\n      0xffffffffffffffffffffffffffffffffffffffff\n      and\n      0x3a81a26506fddefe4586928869f84f4a59463a4bf4f3df96de9204c1d126d3b2\n        /* \"contracts/SuplyBeam_main.sol\":4307:4308  u */\n      dup4\n        /* \"contracts/SuplyBeam_main.sol\":4291:4309  Create(by, obj, u) */\n      mload(0x40)\n      tag_162\n      swap2\n      swap1\n      tag_163\n      jump\t// in\n    tag_162:\n      mload(0x40)\n      dup1\n      swap2\n      sub\n      swap1\n      log3\n        /* \"contracts/SuplyBeam_main.sol\":3976:4317  {... */\n      pop\n      pop\n      pop\n        /* \"contracts/SuplyBeam_main.sol\":3879:4317  function _create(string calldata obj_name, state memory obj_state) notObjExists(obj_name) public {... */\n      pop\n      pop\n      pop\n      pop\n      pop\n      jump\t// out\n        /* \"contracts/SuplyBeam_main.sol\":789:809  address public owner */\n    tag_44:\n      0x01\n      0x00\n      swap1\n      sload\n      swap1\n      0x0100\n      exp\n      swap1\n      div\n      0xffffffffffffffffffffffffffffffffffffffff\n      and\n      dup2\n      jump\t// out\n        /* \"contracts/SuplyBeam_main.sol\":4325:4753  function _update(string calldata obj_name, state memory obj_state) public objExists(obj_name) {... */\n    tag_49:\n        /* \"contracts/SuplyBeam_main.sol\":4409:4417  obj_name */\n      dup3\n      dup3\n        /* \"contracts/SuplyBeam_main.sol\":1490:1512  objectExists(obj_name) */\n      tag_165\n        /* \"contracts/SuplyBeam_main.sol\":1503:1511  obj_name */\n      dup3\n      dup3\n        /* \"contracts/SuplyBeam_main.sol\":1490:1502  objectExists */\n      tag_68\n        /* \"contracts/SuplyBeam_main.sol\":1490:1512  objectExists(obj_name) */\n      jump\t// in\n    tag_165:\n        /* \"contracts/SuplyBeam_main.sol\":1482:1513  require(objectExists(obj_name)) */\n      tag_166\n      jumpi\n      0x00\n      dup1\n      revert\n    tag_166:\n        /* \"contracts/SuplyBeam_main.sol\":4430:4440  address by */\n      0x00\n        /* \"contracts/SuplyBeam_main.sol\":4443:4453  msg.sender */\n      caller\n        /* \"contracts/SuplyBeam_main.sol\":4430:4453  address by = msg.sender */\n      swap1\n      pop\n        /* \"contracts/SuplyBeam_main.sol\":4487:4489  by */\n      dup1\n        /* \"contracts/SuplyBeam_main.sol\":4464:4473  obj_state */\n      dup5\n        /* \"contracts/SuplyBeam_main.sol\":4464:4484  obj_state.applied_by */\n      0x40\n      add\n        /* \"contracts/SuplyBeam_main.sol\":4464:4489  obj_state.applied_by = by */\n      swap1\n      0xffffffffffffffffffffffffffffffffffffffff\n      and\n      swap1\n      dup2\n      0xffffffffffffffffffffffffffffffffffffffff\n      and\n      dup2\n      mstore\n      pop\n      pop\n        /* \"contracts/SuplyBeam_main.sol\":4500:4517  object memory obj */\n      0x00\n        /* \"contracts/SuplyBeam_main.sol\":4520:4547  object(obj_name, obj_state) */\n      mload(0x40)\n      dup1\n      0x40\n      add\n      0x40\n      mstore\n      dup1\n        /* \"contracts/SuplyBeam_main.sol\":4527:4535  obj_name */\n      dup9\n      dup9\n        /* \"contracts/SuplyBeam_main.sol\":4520:4547  object(obj_name, obj_state) */\n      dup1\n      dup1\n      0x1f\n      add\n      0x20\n      dup1\n      swap2\n      div\n      mul\n      0x20\n      add\n      mload(0x40)\n      swap1\n      dup2\n      add\n      0x40\n      mstore\n      dup1\n      swap4\n      swap3\n      swap2\n      swap1\n      dup2\n      dup2\n      mstore\n      0x20\n      add\n      dup4\n      dup4\n      dup1\n      dup3\n      dup5\n      calldatacopy\n      0x00\n      dup2\n      dup5\n      add\n      mstore\n      not(0x1f)\n      0x1f\n      dup3\n      add\n      and\n      swap1\n      pop\n      dup1\n      dup4\n      add\n      swap3\n      pop\n      pop\n      pop\n      pop\n      pop\n      pop\n      pop\n      dup2\n      mstore\n      0x20\n      add\n        /* \"contracts/SuplyBeam_main.sol\":4537:4546  obj_state */\n      dup7\n        /* \"contracts/SuplyBeam_main.sol\":4520:4547  object(obj_name, obj_state) */\n      dup2\n      mstore\n      pop\n        /* \"contracts/SuplyBeam_main.sol\":4500:4547  object memory obj = object(obj_name, obj_state) */\n      swap1\n      pop\n        /* \"contracts/SuplyBeam_main.sol\":4558:4573  update memory u */\n      0x00\n        /* \"contracts/SuplyBeam_main.sol\":4576:4675  update(objects[obj.name], by, block.timestamp, objects[obj.name].state, obj.state, obj.state.notes) */\n      mload(0x40)\n      dup1\n      0xc0\n      add\n      0x40\n      mstore\n      dup1\n        /* \"contracts/SuplyBeam_main.sol\":4583:4590  objects */\n      0x04\n        /* \"contracts/SuplyBeam_main.sol\":4591:4594  obj */\n      dup5\n        /* \"contracts/SuplyBeam_main.sol\":4591:4599  obj.name */\n      0x00\n      add\n      mload\n        /* \"contracts/SuplyBeam_main.sol\":4583:4600  objects[obj.name] */\n      mload(0x40)\n      tag_168\n      swap2\n      swap1\n      tag_153\n      jump\t// in\n    tag_168:\n      swap1\n      dup2\n      mstore\n      0x20\n      add\n      mload(0x40)\n      dup1\n      swap2\n      sub\n      swap1\n      keccak256\n        /* \"contracts/SuplyBeam_main.sol\":4576:4675  update(objects[obj.name], by, block.timestamp, objects[obj.name].state, obj.state, obj.state.notes) */\n      mload(0x40)\n      dup1\n      0x40\n      add\n      0x40\n      mstore\n      swap1\n      dup2\n      0x00\n      dup3\n      add\n      dup1\n      sload\n      tag_169\n      swap1\n      tag_74\n      jump\t// in\n    tag_169:\n      dup1\n      0x1f\n      add\n      0x20\n      dup1\n      swap2\n      div\n      mul\n      0x20\n      add\n      mload(0x40)\n      swap1\n      dup2\n      add\n      0x40\n      mstore\n      dup1\n      swap3\n      swap2\n      swap1\n      dup2\n      dup2\n      mstore\n      0x20\n      add\n      dup3\n      dup1\n      sload\n      tag_170\n      swap1\n      tag_74\n      jump\t// in\n    tag_170:\n      dup1\n      iszero\n      tag_171\n      jumpi\n      dup1\n      0x1f\n      lt\n      tag_172\n      jumpi\n      0x0100\n      dup1\n      dup4\n      sload\n      div\n      mul\n      dup4\n      mstore\n      swap2\n      0x20\n      add\n      swap2\n      jump(tag_171)\n    tag_172:\n      dup3\n      add\n      swap2\n      swap1\n      0x00\n      mstore\n      keccak256(0x00, 0x20)\n      swap1\n    tag_173:\n      dup2\n      sload\n      dup2\n      mstore\n      swap1\n      0x01\n      add\n      swap1\n      0x20\n      add\n      dup1\n      dup4\n      gt\n      tag_173\n      jumpi\n      dup3\n      swap1\n      sub\n      0x1f\n      and\n      dup3\n      add\n      swap2\n    tag_171:\n      pop\n      pop\n      pop\n      pop\n      pop\n      dup2\n      mstore\n      0x20\n      add\n      0x01\n      dup3\n      add\n      mload(0x40)\n      dup1\n      0x60\n      add\n      0x40\n      mstore\n      swap1\n      dup2\n      0x00\n      dup3\n      add\n      dup1\n      sload\n      tag_174\n      swap1\n      tag_74\n      jump\t// in\n    tag_174:\n      dup1\n      0x1f\n      add\n      0x20\n      dup1\n      swap2\n      div\n      mul\n      0x20\n      add\n      mload(0x40)\n      swap1\n      dup2\n      add\n      0x40\n      mstore\n      dup1\n      swap3\n      swap2\n      swap1\n      dup2\n      dup2\n      mstore\n      0x20\n      add\n      dup3\n      dup1\n      sload\n      tag_175\n      swap1\n      tag_74\n      jump\t// in\n    tag_175:\n      dup1\n      iszero\n      tag_176\n      jumpi\n      dup1\n      0x1f\n      lt\n      tag_177\n      jumpi\n      0x0100\n      dup1\n      dup4\n      sload\n      div\n      mul\n      dup4\n      mstore\n      swap2\n      0x20\n      add\n      swap2\n      jump(tag_176)\n    tag_177:\n      dup3\n      add\n      swap2\n      swap1\n      0x00\n      mstore\n      keccak256(0x00, 0x20)\n      swap1\n    tag_178:\n      dup2\n      sload\n      dup2\n      mstore\n      swap1\n      0x01\n      add\n      swap1\n      0x20\n      add\n      dup1\n      dup4\n      gt\n      tag_178\n      jumpi\n      dup3\n      swap1\n      sub\n      0x1f\n      and\n      dup3\n      add\n      swap2\n    tag_176:\n      pop\n      pop\n      pop\n      pop\n      pop\n      dup2\n      mstore\n      0x20\n      add\n      0x01\n      dup3\n      add\n      dup1\n      sload\n      tag_179\n      swap1\n      tag_74\n      jump\t// in\n    tag_179:\n      dup1\n      0x1f\n      add\n      0x20\n      dup1\n      swap2\n      div\n      mul\n      0x20\n      add\n      mload(0x40)\n      swap1\n      dup2\n      add\n      0x40\n      mstore\n      dup1\n      swap3\n      swap2\n      swap1\n      dup2\n      dup2\n      mstore\n      0x20\n      add\n      dup3\n      dup1\n      sload\n      tag_180\n      swap1\n      tag_74\n      jump\t// in\n    tag_180:\n      dup1\n      iszero\n      tag_181\n      jumpi\n      dup1\n      0x1f\n      lt\n      tag_182\n      jumpi\n      0x0100\n      dup1\n      dup4\n      sload\n      div\n      mul\n      dup4\n      mstore\n      swap2\n      0x20\n      add\n      swap2\n      jump(tag_181)\n    tag_182:\n      dup3\n      add\n      swap2\n      swap1\n      0x00\n      mstore\n      keccak256(0x00, 0x20)\n      swap1\n    tag_183:\n      dup2\n      sload\n      dup2\n      mstore\n      swap1\n      0x01\n      add\n      swap1\n      0x20\n      add\n      dup1\n      dup4\n      gt\n      tag_183\n      jumpi\n      dup3\n      swap1\n      sub\n      0x1f\n      and\n      dup3\n      add\n      swap2\n    tag_181:\n      pop\n      pop\n      pop\n      pop\n      pop\n      dup2\n      mstore\n      0x20\n      add\n      0x02\n      dup3\n      add\n      0x00\n      swap1\n      sload\n      swap1\n      0x0100\n      exp\n      swap1\n      div\n      0xffffffffffffffffffffffffffffffffffffffff\n      and\n      0xffffffffffffffffffffffffffffffffffffffff\n      and\n      0xffffffffffffffffffffffffffffffffffffffff\n      and\n      dup2\n      mstore\n      pop\n      pop\n      dup2\n      mstore\n      pop\n      pop\n      dup2\n      mstore\n      0x20\n      add\n        /* \"contracts/SuplyBeam_main.sol\":4602:4604  by */\n      dup5\n        /* \"contracts/SuplyBeam_main.sol\":4576:4675  update(objects[obj.name], by, block.timestamp, objects[obj.name].state, obj.state, obj.state.notes) */\n      0xffffffffffffffffffffffffffffffffffffffff\n      and\n      dup2\n      mstore\n      0x20\n      add\n        /* \"contracts/SuplyBeam_main.sol\":4606:4621  block.timestamp */\n      timestamp\n        /* \"contracts/SuplyBeam_main.sol\":4576:4675  update(objects[obj.name], by, block.timestamp, objects[obj.name].state, obj.state, obj.state.notes) */\n      dup2\n      mstore\n      0x20\n      add\n        /* \"contracts/SuplyBeam_main.sol\":4623:4630  objects */\n      0x04\n        /* \"contracts/SuplyBeam_main.sol\":4631:4634  obj */\n      dup5\n        /* \"contracts/SuplyBeam_main.sol\":4631:4639  obj.name */\n      0x00\n      add\n      mload\n        /* \"contracts/SuplyBeam_main.sol\":4623:4640  objects[obj.name] */\n      mload(0x40)\n      tag_184\n      swap2\n      swap1\n      tag_153\n      jump\t// in\n    tag_184:\n      swap1\n      dup2\n      mstore\n      0x20\n      add\n      mload(0x40)\n      dup1\n      swap2\n      sub\n      swap1\n      keccak256\n        /* \"contracts/SuplyBeam_main.sol\":4623:4646  objects[obj.name].state */\n      0x01\n      add\n        /* \"contracts/SuplyBeam_main.sol\":4576:4675  update(objects[obj.name], by, block.timestamp, objects[obj.name].state, obj.state, obj.state.notes) */\n      mload(0x40)\n      dup1\n      0x60\n      add\n      0x40\n      mstore\n      swap1\n      dup2\n      0x00\n      dup3\n      add\n      dup1\n      sload\n      tag_185\n      swap1\n      tag_74\n      jump\t// in\n    tag_185:\n      dup1\n      0x1f\n      add\n      0x20\n      dup1\n      swap2\n      div\n      mul\n      0x20\n      add\n      mload(0x40)\n      swap1\n      dup2\n      add\n      0x40\n      mstore\n      dup1\n      swap3\n      swap2\n      swap1\n      dup2\n      dup2\n      mstore\n      0x20\n      add\n      dup3\n      dup1\n      sload\n      tag_186\n      swap1\n      tag_74\n      jump\t// in\n    tag_186:\n      dup1\n      iszero\n      tag_187\n      jumpi\n      dup1\n      0x1f\n      lt\n      tag_188\n      jumpi\n      0x0100\n      dup1\n      dup4\n      sload\n      div\n      mul\n      dup4\n      mstore\n      swap2\n      0x20\n      add\n      swap2\n      jump(tag_187)\n    tag_188:\n      dup3\n      add\n      swap2\n      swap1\n      0x00\n      mstore\n      keccak256(0x00, 0x20)\n      swap1\n    tag_189:\n      dup2\n      sload\n      dup2\n      mstore\n      swap1\n      0x01\n      add\n      swap1\n      0x20\n      add\n      dup1\n      dup4\n      gt\n      tag_189\n      jumpi\n      dup3\n      swap1\n      sub\n      0x1f\n      and\n      dup3\n      add\n      swap2\n    tag_187:\n      pop\n      pop\n      pop\n      pop\n      pop\n      dup2\n      mstore\n      0x20\n      add\n      0x01\n      dup3\n      add\n      dup1\n      sload\n      tag_190\n      swap1\n      tag_74\n      jump\t// in\n    tag_190:\n      dup1\n      0x1f\n      add\n      0x20\n      dup1\n      swap2\n      div\n      mul\n      0x20\n      add\n      mload(0x40)\n      swap1\n      dup2\n      add\n      0x40\n      mstore\n      dup1\n      swap3\n      swap2\n      swap1\n      dup2\n      dup2\n      mstore\n      0x20\n      add\n      dup3\n      dup1\n      sload\n      tag_191\n      swap1\n      tag_74\n      jump\t// in\n    tag_191:\n      dup1\n      iszero\n      tag_192\n      jumpi\n      dup1\n      0x1f\n      lt\n      tag_193\n      jumpi\n      0x0100\n      dup1\n      dup4\n      sload\n      div\n      mul\n      dup4\n      mstore\n      swap2\n      0x20\n      add\n      swap2\n      jump(tag_192)\n    tag_193:\n      dup3\n      add\n      swap2\n      swap1\n      0x00\n      mstore\n      keccak256(0x00, 0x20)\n      swap1\n    tag_194:\n      dup2\n      sload\n      dup2\n      mstore\n      swap1\n      0x01\n      add\n      swap1\n      0x20\n      add\n      dup1\n      dup4\n      gt\n      tag_194\n      jumpi\n      dup3\n      swap1\n      sub\n      0x1f\n      and\n      dup3\n      add\n      swap2\n    tag_192:\n      pop\n      pop\n      pop\n      pop\n      pop\n      dup2\n      mstore\n      0x20\n      add\n      0x02\n      dup3\n      add\n      0x00\n      swap1\n      sload\n      swap1\n      0x0100\n      exp\n      swap1\n      div\n      0xffffffffffffffffffffffffffffffffffffffff\n      and\n      0xffffffffffffffffffffffffffffffffffffffff\n      and\n      0xffffffffffffffffffffffffffffffffffffffff\n      and\n      dup2\n      mstore\n      pop\n      pop\n      dup2\n      mstore\n      0x20\n      add\n        /* \"contracts/SuplyBeam_main.sol\":4648:4651  obj */\n      dup4\n        /* \"contracts/SuplyBeam_main.sol\":4648:4657  obj.state */\n      0x20\n      add\n      mload\n        /* \"contracts/SuplyBeam_main.sol\":4576:4675  update(objects[obj.name], by, block.timestamp, objects[obj.name].state, obj.state, obj.state.notes) */\n      dup2\n      mstore\n      0x20\n      add\n        /* \"contracts/SuplyBeam_main.sol\":4659:4662  obj */\n      dup4\n        /* \"contracts/SuplyBeam_main.sol\":4659:4668  obj.state */\n      0x20\n      add\n      mload\n        /* \"contracts/SuplyBeam_main.sol\":4659:4674  obj.state.notes */\n      0x20\n      add\n      mload\n        /* \"contracts/SuplyBeam_main.sol\":4576:4675  update(objects[obj.name], by, block.timestamp, objects[obj.name].state, obj.state, obj.state.notes) */\n      dup2\n      mstore\n      pop\n        /* \"contracts/SuplyBeam_main.sol\":4558:4675  update memory u = update(objects[obj.name], by, block.timestamp, objects[obj.name].state, obj.state, obj.state.notes) */\n      swap1\n      pop\n        /* \"contracts/SuplyBeam_main.sol\":4706:4709  obj */\n      dup2\n        /* \"contracts/SuplyBeam_main.sol\":4686:4693  objects */\n      0x04\n        /* \"contracts/SuplyBeam_main.sol\":4694:4697  obj */\n      dup4\n        /* \"contracts/SuplyBeam_main.sol\":4694:4702  obj.name */\n      0x00\n      add\n      mload\n        /* \"contracts/SuplyBeam_main.sol\":4686:4703  objects[obj.name] */\n      mload(0x40)\n      tag_195\n      swap2\n      swap1\n      tag_153\n      jump\t// in\n    tag_195:\n      swap1\n      dup2\n      mstore\n      0x20\n      add\n      mload(0x40)\n      dup1\n      swap2\n      sub\n      swap1\n      keccak256\n        /* \"contracts/SuplyBeam_main.sol\":4686:4709  objects[obj.name] = obj */\n      0x00\n      dup3\n      add\n      mload\n      dup2\n      0x00\n      add\n      swap1\n      dup2\n      tag_196\n      swap2\n      swap1\n      tag_155\n      jump\t// in\n    tag_196:\n      pop\n      0x20\n      dup3\n      add\n      mload\n      dup2\n      0x01\n      add\n      0x00\n      dup3\n      add\n      mload\n      dup2\n      0x00\n      add\n      swap1\n      dup2\n      tag_197\n      swap2\n      swap1\n      tag_155\n      jump\t// in\n    tag_197:\n      pop\n      0x20\n      dup3\n      add\n      mload\n      dup2\n      0x01\n      add\n      swap1\n      dup2\n      tag_198\n      swap2\n      swap1\n      tag_155\n      jump\t// in\n    tag_198:\n      pop\n      0x40\n      dup3\n      add\n      mload\n      dup2\n      0x02\n      add\n      exp(0x0100, 0x00)\n      dup2\n      sload\n      dup2\n      0xffffffffffffffffffffffffffffffffffffffff\n      mul\n      not\n      and\n      swap1\n      dup4\n      0xffffffffffffffffffffffffffffffffffffffff\n      and\n      mul\n      or\n      swap1\n      sstore\n      pop\n      pop\n      pop\n      swap1\n      pop\n      pop\n        /* \"contracts/SuplyBeam_main.sol\":4736:4739  obj */\n      dup2\n        /* \"contracts/SuplyBeam_main.sol\":4725:4743  Update(by, obj, u) */\n      mload(0x40)\n      tag_199\n      swap2\n      swap1\n      tag_161\n      jump\t// in\n    tag_199:\n      mload(0x40)\n      dup1\n      swap2\n      sub\n      swap1\n      keccak256\n        /* \"contracts/SuplyBeam_main.sol\":4732:4734  by */\n      dup4\n        /* \"contracts/SuplyBeam_main.sol\":4725:4743  Update(by, obj, u) */\n      0xffffffffffffffffffffffffffffffffffffffff\n      and\n      0x13865537d60c2bfeec4e9564da7a79fa675751782ab1da10434025f0b662365e\n        /* \"contracts/SuplyBeam_main.sol\":4741:4742  u */\n      dup4\n        /* \"contracts/SuplyBeam_main.sol\":4725:4743  Update(by, obj, u) */\n      mload(0x40)\n      tag_200\n      swap2\n      swap1\n      tag_163\n      jump\t// in\n    tag_200:\n      mload(0x40)\n      dup1\n      swap2\n      sub\n      swap1\n      log3\n        /* \"contracts/SuplyBeam_main.sol\":4419:4753  {... */\n      pop\n      pop\n      pop\n        /* \"contracts/SuplyBeam_main.sol\":4325:4753  function _update(string calldata obj_name, state memory obj_state) public objExists(obj_name) {... */\n      pop\n      pop\n      pop\n      pop\n      pop\n      jump\t// out\n        /* \"contracts/SuplyBeam_main.sol\":3242:3533  function getAllObjects() public view returns (object[] memory) {... */\n    tag_51:\n        /* \"contracts/SuplyBeam_main.sol\":3288:3303  object[] memory */\n      0x60\n        /* \"contracts/SuplyBeam_main.sol\":3316:3338  object[] memory result */\n      0x00\n        /* \"contracts/SuplyBeam_main.sol\":3354:3365  object_keys */\n      0x03\n        /* \"contracts/SuplyBeam_main.sol\":3354:3372  object_keys.length */\n      dup1\n      sload\n      swap1\n      pop\n        /* \"contracts/SuplyBeam_main.sol\":3341:3373  new object[](object_keys.length) */\n      0xffffffffffffffff\n      dup2\n      gt\n      iszero\n      tag_202\n      jumpi\n      tag_203\n      tag_98\n      jump\t// in\n    tag_203:\n    tag_202:\n      mload(0x40)\n      swap1\n      dup1\n      dup3\n      mstore\n      dup1\n      0x20\n      mul\n      0x20\n      add\n      dup3\n      add\n      0x40\n      mstore\n      dup1\n      iszero\n      tag_204\n      jumpi\n      dup2\n      0x20\n      add\n    tag_205:\n      tag_206\n      tag_65\n      jump\t// in\n    tag_206:\n      dup2\n      mstore\n      0x20\n      add\n      swap1\n      0x01\n      swap1\n      sub\n      swap1\n      dup2\n      tag_205\n      jumpi\n      swap1\n      pop\n    tag_204:\n      pop\n        /* \"contracts/SuplyBeam_main.sol\":3316:3373  object[] memory result = new object[](object_keys.length) */\n      swap1\n      pop\n        /* \"contracts/SuplyBeam_main.sol\":3389:3395  uint i */\n      0x00\n        /* \"contracts/SuplyBeam_main.sol\":3384:3502  for (uint i = 0; i < object_keys.length; i++) ... */\n    tag_207:\n        /* \"contracts/SuplyBeam_main.sol\":3405:3416  object_keys */\n      0x03\n        /* \"contracts/SuplyBeam_main.sol\":3405:3423  object_keys.length */\n      dup1\n      sload\n      swap1\n      pop\n        /* \"contracts/SuplyBeam_main.sol\":3401:3402  i */\n      dup2\n        /* \"contracts/SuplyBeam_main.sol\":3401:3423  i < object_keys.length */\n      lt\n        /* \"contracts/SuplyBeam_main.sol\":3384:3502  for (uint i = 0; i < object_keys.length; i++) ... */\n      iszero\n      tag_208\n      jumpi\n        /* \"contracts/SuplyBeam_main.sol\":3467:3474  objects */\n      0x04\n        /* \"contracts/SuplyBeam_main.sol\":3475:3486  object_keys */\n      0x03\n        /* \"contracts/SuplyBeam_main.sol\":3487:3488  i */\n      dup3\n        /* \"contracts/SuplyBeam_main.sol\":3475:3489  object_keys[i] */\n      dup2\n      sload\n      dup2\n      lt\n      tag_210\n      jumpi\n      tag_211\n      tag_107\n      jump\t// in\n    tag_211:\n    tag_210:\n      swap1\n      0x00\n      mstore\n      keccak256(0x00, 0x20)\n      add\n        /* \"contracts/SuplyBeam_main.sol\":3467:3490  objects[object_keys[i]] */\n      mload(0x40)\n      tag_213\n      swap2\n      swap1\n      tag_110\n      jump\t// in\n    tag_213:\n      swap1\n      dup2\n      mstore\n      0x20\n      add\n      mload(0x40)\n      dup1\n      swap2\n      sub\n      swap1\n      keccak256\n        /* \"contracts/SuplyBeam_main.sol\":3455:3490  result[i] = objects[object_keys[i]] */\n      mload(0x40)\n      dup1\n      0x40\n      add\n      0x40\n      mstore\n      swap1\n      dup2\n      0x00\n      dup3\n      add\n      dup1\n      sload\n      tag_214\n      swap1\n      tag_74\n      jump\t// in\n    tag_214:\n      dup1\n      0x1f\n      add\n      0x20\n      dup1\n      swap2\n      div\n      mul\n      0x20\n      add\n      mload(0x40)\n      swap1\n      dup2\n      add\n      0x40\n      mstore\n      dup1\n      swap3\n      swap2\n      swap1\n      dup2\n      dup2\n      mstore\n      0x20\n      add\n      dup3\n      dup1\n      sload\n      tag_215\n      swap1\n      tag_74\n      jump\t// in\n    tag_215:\n      dup1\n      iszero\n      tag_216\n      jumpi\n      dup1\n      0x1f\n      lt\n      tag_217\n      jumpi\n      0x0100\n      dup1\n      dup4\n      sload\n      div\n      mul\n      dup4\n      mstore\n      swap2\n      0x20\n      add\n      swap2\n      jump(tag_216)\n    tag_217:\n      dup3\n      add\n      swap2\n      swap1\n      0x00\n      mstore\n      keccak256(0x00, 0x20)\n      swap1\n    tag_218:\n      dup2\n      sload\n      dup2\n      mstore\n      swap1\n      0x01\n      add\n      swap1\n      0x20\n      add\n      dup1\n      dup4\n      gt\n      tag_218\n      jumpi\n      dup3\n      swap1\n      sub\n      0x1f\n      and\n      dup3\n      add\n      swap2\n    tag_216:\n      pop\n      pop\n      pop\n      pop\n      pop\n      dup2\n      mstore\n      0x20\n      add\n      0x01\n      dup3\n      add\n      mload(0x40)\n      dup1\n      0x60\n      add\n      0x40\n      mstore\n      swap1\n      dup2\n      0x00\n      dup3\n      add\n      dup1\n      sload\n      tag_219\n      swap1\n      tag_74\n      jump\t// in\n    tag_219:\n      dup1\n      0x1f\n      add\n      0x20\n      dup1\n      swap2\n      div\n      mul\n      0x20\n      add\n      mload(0x40)\n      swap1\n      dup2\n      add\n      0x40\n      mstore\n      dup1\n      swap3\n      swap2\n      swap1\n      dup2\n      dup2\n      mstore\n      0x20\n      add\n      dup3\n      dup1\n      sload\n      tag_220\n      swap1\n      tag_74\n      jump\t// in\n    tag_220:\n      dup1\n      iszero\n      tag_221\n      jumpi\n      dup1\n      0x1f\n      lt\n      tag_222\n      jumpi\n      0x0100\n      dup1\n      dup4\n      sload\n      div\n      mul\n      dup4\n      mstore\n      swap2\n      0x20\n      add\n      swap2\n      jump(tag_221)\n    tag_222:\n      dup3\n      add\n      swap2\n      swap1\n      0x00\n      mstore\n      keccak256(0x00, 0x20)\n      swap1\n    tag_223:\n      dup2\n      sload\n      dup2\n      mstore\n      swap1\n      0x01\n      add\n      swap1\n      0x20\n      add\n      dup1\n      dup4\n      gt\n      tag_223\n      jumpi\n      dup3\n      swap1\n      sub\n      0x1f\n      and\n      dup3\n      add\n      swap2\n    tag_221:\n      pop\n      pop\n      pop\n      pop\n      pop\n      dup2\n      mstore\n      0x20\n      add\n      0x01\n      dup3\n      add\n      dup1\n      sload\n      tag_224\n      swap1\n      tag_74\n      jump\t// in\n    tag_224:\n      dup1\n      0x1f\n      add\n      0x20\n      dup1\n      swap2\n      div\n      mul\n      0x20\n      add\n      mload(0x40)\n      swap1\n      dup2\n      add\n      0x40\n      mstore\n      dup1\n      swap3\n      swap2\n      swap1\n      dup2\n      dup2\n      mstore\n      0x20\n      add\n      dup3\n      dup1\n      sload\n      tag_225\n      swap1\n      tag_74\n      jump\t// in\n    tag_225:\n      dup1\n      iszero\n      tag_226\n      jumpi\n      dup1\n      0x1f\n      lt\n      tag_227\n      jumpi\n      0x0100\n      dup1\n      dup4\n      sload\n      div\n      mul\n      dup4\n      mstore\n      swap2\n      0x20\n      add\n      swap2\n      jump(tag_226)\n    tag_227:\n      dup3\n      add\n      swap2\n      swap1\n      0x00\n      mstore\n      keccak256(0x00, 0x20)\n      swap1\n    tag_228:\n      dup2\n      sload\n      dup2\n      mstore\n      swap1\n      0x01\n      add\n      swap1\n      0x20\n      add\n      dup1\n      dup4\n      gt\n      tag_228\n      jumpi\n      dup3\n      swap1\n      sub\n      0x1f\n      and\n      dup3\n      add\n      swap2\n    tag_226:\n      pop\n      pop\n      pop\n      pop\n      pop\n      dup2\n      mstore\n      0x20\n      add\n      0x02\n      dup3\n      add\n      0x00\n      swap1\n      sload\n      swap1\n      0x0100\n      exp\n      swap1\n      div\n      0xffffffffffffffffffffffffffffffffffffffff\n      and\n      0xffffffffffffffffffffffffffffffffffffffff\n      and\n      0xffffffffffffffffffffffffffffffffffffffff\n      and\n      dup2\n      mstore\n      pop\n      pop\n      dup2\n      mstore\n      pop\n      pop\n        /* \"contracts/SuplyBeam_main.sol\":3455:3461  result */\n      dup3\n        /* \"contracts/SuplyBeam_main.sol\":3462:3463  i */\n      dup3\n        /* \"contracts/SuplyBeam_main.sol\":3455:3464  result[i] */\n      dup2\n      mload\n      dup2\n      lt\n      tag_229\n      jumpi\n      tag_230\n      tag_107\n      jump\t// in\n    tag_230:\n    tag_229:\n      0x20\n      mul\n      0x20\n      add\n      add\n        /* \"contracts/SuplyBeam_main.sol\":3455:3490  result[i] = objects[object_keys[i]] */\n      dup2\n      swap1\n      mstore\n      pop\n        /* \"contracts/SuplyBeam_main.sol\":3425:3428  i++ */\n      dup1\n      dup1\n      0x01\n      add\n      swap2\n      pop\n      pop\n        /* \"contracts/SuplyBeam_main.sol\":3384:3502  for (uint i = 0; i < object_keys.length; i++) ... */\n      jump(tag_207)\n    tag_208:\n      pop\n        /* \"contracts/SuplyBeam_main.sol\":3519:3525  result */\n      dup1\n        /* \"contracts/SuplyBeam_main.sol\":3512:3525  return result */\n      swap2\n      pop\n      pop\n        /* \"contracts/SuplyBeam_main.sol\":3242:3533  function getAllObjects() public view returns (object[] memory) {... */\n      swap1\n      jump\t// out\n        /* \"contracts/SuplyBeam_main.sol\":2606:2738  function isObjectLocked(string calldata obj_name) view  public returns(bool){... */\n    tag_55:\n        /* \"contracts/SuplyBeam_main.sol\":2677:2681  bool */\n      0x00\n        /* \"contracts/SuplyBeam_main.sol\":2727:2728  0 */\n      dup1\n        /* \"contracts/SuplyBeam_main.sol\":2701:2729  lock[obj_name] != address(0) */\n      0xffffffffffffffffffffffffffffffffffffffff\n      and\n        /* \"contracts/SuplyBeam_main.sol\":2701:2705  lock */\n      0x02\n        /* \"contracts/SuplyBeam_main.sol\":2706:2714  obj_name */\n      dup5\n      dup5\n        /* \"contracts/SuplyBeam_main.sol\":2701:2715  lock[obj_name] */\n      mload(0x40)\n      tag_232\n      swap3\n      swap2\n      swap1\n      tag_72\n      jump\t// in\n    tag_232:\n      swap1\n      dup2\n      mstore\n      0x20\n      add\n      mload(0x40)\n      dup1\n      swap2\n      sub\n      swap1\n      keccak256\n      0x00\n      swap1\n      sload\n      swap1\n      0x0100\n      exp\n      swap1\n      div\n      0xffffffffffffffffffffffffffffffffffffffff\n      and\n        /* \"contracts/SuplyBeam_main.sol\":2701:2729  lock[obj_name] != address(0) */\n      0xffffffffffffffffffffffffffffffffffffffff\n      and\n      eq\n      iszero\n        /* \"contracts/SuplyBeam_main.sol\":2693:2730  return (lock[obj_name] != address(0)) */\n      swap1\n      pop\n        /* \"contracts/SuplyBeam_main.sol\":2606:2738  function isObjectLocked(string calldata obj_name) view  public returns(bool){... */\n      swap3\n      swap2\n      pop\n      pop\n      jump\t// out\n        /* \"contracts/SuplyBeam_main.sol\":2182:2304  function lockObject(string calldata obj_name) public objNotLocked(obj_name) {... */\n    tag_60:\n        /* \"contracts/SuplyBeam_main.sol\":2248:2256  obj_name */\n      dup2\n      dup2\n        /* \"contracts/SuplyBeam_main.sol\":1860:1884  isObjectLocked(obj_name) */\n      tag_234\n        /* \"contracts/SuplyBeam_main.sol\":1875:1883  obj_name */\n      dup3\n      dup3\n        /* \"contracts/SuplyBeam_main.sol\":1860:1874  isObjectLocked */\n      tag_55\n        /* \"contracts/SuplyBeam_main.sol\":1860:1884  isObjectLocked(obj_name) */\n      jump\t// in\n    tag_234:\n        /* \"contracts/SuplyBeam_main.sol\":1859:1884  !isObjectLocked(obj_name) */\n      iszero\n        /* \"contracts/SuplyBeam_main.sol\":1851:1902  require(!isObjectLocked(obj_name), \"Object locked\") */\n      tag_235\n      jumpi\n      mload(0x40)\n      0x08c379a000000000000000000000000000000000000000000000000000000000\n      dup2\n      mstore\n      0x04\n      add\n      tag_236\n      swap1\n      tag_237\n      jump\t// in\n    tag_236:\n      mload(0x40)\n      dup1\n      swap2\n      sub\n      swap1\n      revert\n    tag_235:\n        /* \"contracts/SuplyBeam_main.sol\":2286:2296  msg.sender */\n      caller\n        /* \"contracts/SuplyBeam_main.sol\":2269:2273  lock */\n      0x02\n        /* \"contracts/SuplyBeam_main.sol\":2274:2282  obj_name */\n      dup6\n      dup6\n        /* \"contracts/SuplyBeam_main.sol\":2269:2283  lock[obj_name] */\n      mload(0x40)\n      tag_239\n      swap3\n      swap2\n      swap1\n      tag_72\n      jump\t// in\n    tag_239:\n      swap1\n      dup2\n      mstore\n      0x20\n      add\n      mload(0x40)\n      dup1\n      swap2\n      sub\n      swap1\n      keccak256\n      0x00\n        /* \"contracts/SuplyBeam_main.sol\":2269:2296  lock[obj_name] = msg.sender */\n      0x0100\n      exp\n      dup2\n      sload\n      dup2\n      0xffffffffffffffffffffffffffffffffffffffff\n      mul\n      not\n      and\n      swap1\n      dup4\n      0xffffffffffffffffffffffffffffffffffffffff\n      and\n      mul\n      or\n      swap1\n      sstore\n      pop\n        /* \"contracts/SuplyBeam_main.sol\":2182:2304  function lockObject(string calldata obj_name) public objNotLocked(obj_name) {... */\n      pop\n      pop\n      pop\n      pop\n      jump\t// out\n        /* \"contracts/SuplyBeam_main.sol\":2312:2448  function forceUnlockObject(string calldata obj_name) public onlyOwner objLocked(obj_name) {... */\n    tag_63:\n        /* \"contracts/SuplyBeam_main.sol\":1222:1227  owner */\n      0x01\n      0x00\n      swap1\n      sload\n      swap1\n      0x0100\n      exp\n      swap1\n      div\n      0xffffffffffffffffffffffffffffffffffffffff\n      and\n        /* \"contracts/SuplyBeam_main.sol\":1208:1227  msg.sender == owner */\n      0xffffffffffffffffffffffffffffffffffffffff\n      and\n        /* \"contracts/SuplyBeam_main.sol\":1208:1218  msg.sender */\n      caller\n        /* \"contracts/SuplyBeam_main.sol\":1208:1227  msg.sender == owner */\n      0xffffffffffffffffffffffffffffffffffffffff\n      and\n      eq\n        /* \"contracts/SuplyBeam_main.sol\":1200:1254  require(msg.sender == owner, \"You are not the owner.\") */\n      tag_241\n      jumpi\n      mload(0x40)\n      0x08c379a000000000000000000000000000000000000000000000000000000000\n      dup2\n      mstore\n      0x04\n      add\n      tag_242\n      swap1\n      tag_145\n      jump\t// in\n    tag_242:\n      mload(0x40)\n      dup1\n      swap2\n      sub\n      swap1\n      revert\n    tag_241:\n        /* \"contracts/SuplyBeam_main.sol\":2392:2400  obj_name */\n      dup2\n      dup2\n        /* \"contracts/SuplyBeam_main.sol\":1720:1744  isObjectLocked(obj_name) */\n      tag_244\n        /* \"contracts/SuplyBeam_main.sol\":1735:1743  obj_name */\n      dup3\n      dup3\n        /* \"contracts/SuplyBeam_main.sol\":1720:1734  isObjectLocked */\n      tag_55\n        /* \"contracts/SuplyBeam_main.sol\":1720:1744  isObjectLocked(obj_name) */\n      jump\t// in\n    tag_244:\n        /* \"contracts/SuplyBeam_main.sol\":1712:1766  require(isObjectLocked(obj_name), \"Object not locked\") */\n      tag_245\n      jumpi\n      mload(0x40)\n      0x08c379a000000000000000000000000000000000000000000000000000000000\n      dup2\n      mstore\n      0x04\n      add\n      tag_246\n      swap1\n      tag_140\n      jump\t// in\n    tag_246:\n      mload(0x40)\n      dup1\n      swap2\n      sub\n      swap1\n      revert\n    tag_245:\n        /* \"contracts/SuplyBeam_main.sol\":2438:2439  0 */\n      0x00\n        /* \"contracts/SuplyBeam_main.sol\":2413:2417  lock */\n      0x02\n        /* \"contracts/SuplyBeam_main.sol\":2418:2426  obj_name */\n      dup6\n      dup6\n        /* \"contracts/SuplyBeam_main.sol\":2413:2427  lock[obj_name] */\n      mload(0x40)\n      tag_248\n      swap3\n      swap2\n      swap1\n      tag_72\n      jump\t// in\n    tag_248:\n      swap1\n      dup2\n      mstore\n      0x20\n      add\n      mload(0x40)\n      dup1\n      swap2\n      sub\n      swap1\n      keccak256\n      0x00\n        /* \"contracts/SuplyBeam_main.sol\":2413:2440  lock[obj_name] = address(0) */\n      0x0100\n      exp\n      dup2\n      sload\n      dup2\n      0xffffffffffffffffffffffffffffffffffffffff\n      mul\n      not\n      and\n      swap1\n      dup4\n      0xffffffffffffffffffffffffffffffffffffffff\n      and\n      mul\n      or\n      swap1\n      sstore\n      pop\n        /* \"contracts/SuplyBeam_main.sol\":1265:1266  _ */\n      pop\n      pop\n        /* \"contracts/SuplyBeam_main.sol\":2312:2448  function forceUnlockObject(string calldata obj_name) public onlyOwner objLocked(obj_name) {... */\n      pop\n      pop\n      jump\t// out\n        /* \"contracts/SuplyBeam_main.sol\":2746:2983  function objectExists(string calldata obj_name) internal view returns (bool) {... */\n    tag_68:\n        /* \"contracts/SuplyBeam_main.sol\":2817:2821  bool */\n      0x00\n        /* \"contracts/SuplyBeam_main.sol\":2965:2973  obj_name */\n      dup3\n      dup3\n        /* \"contracts/SuplyBeam_main.sol\":2948:2974  abi.encodePacked(obj_name) */\n      add(0x20, mload(0x40))\n      tag_250\n      swap3\n      swap2\n      swap1\n      tag_72\n      jump\t// in\n    tag_250:\n      mload(0x40)\n      0x20\n      dup2\n      dup4\n      sub\n      sub\n      dup2\n      mstore\n      swap1\n      0x40\n      mstore\n        /* \"contracts/SuplyBeam_main.sol\":2938:2975  keccak256(abi.encodePacked(obj_name)) */\n      dup1\n      mload\n      swap1\n      0x20\n      add\n      keccak256\n        /* \"contracts/SuplyBeam_main.sol\":2910:2917  objects */\n      0x04\n        /* \"contracts/SuplyBeam_main.sol\":2918:2926  obj_name */\n      dup5\n      dup5\n        /* \"contracts/SuplyBeam_main.sol\":2910:2927  objects[obj_name] */\n      mload(0x40)\n      tag_251\n      swap3\n      swap2\n      swap1\n      tag_72\n      jump\t// in\n    tag_251:\n      swap1\n      dup2\n      mstore\n      0x20\n      add\n      mload(0x40)\n      dup1\n      swap2\n      sub\n      swap1\n      keccak256\n        /* \"contracts/SuplyBeam_main.sol\":2910:2932  objects[obj_name].name */\n      0x00\n      add\n        /* \"contracts/SuplyBeam_main.sol\":2893:2933  abi.encodePacked(objects[obj_name].name) */\n      add(0x20, mload(0x40))\n      tag_252\n      swap2\n      swap1\n      tag_110\n      jump\t// in\n    tag_252:\n      mload(0x40)\n      0x20\n      dup2\n      dup4\n      sub\n      sub\n      dup2\n      mstore\n      swap1\n      0x40\n      mstore\n        /* \"contracts/SuplyBeam_main.sol\":2883:2934  keccak256(abi.encodePacked(objects[obj_name].name)) */\n      dup1\n      mload\n      swap1\n      0x20\n      add\n      keccak256\n        /* \"contracts/SuplyBeam_main.sol\":2883:2975  keccak256(abi.encodePacked(objects[obj_name].name)) == keccak256(abi.encodePacked(obj_name)) */\n      eq\n        /* \"contracts/SuplyBeam_main.sol\":2876:2975  return keccak256(abi.encodePacked(objects[obj_name].name)) == keccak256(abi.encodePacked(obj_name)) */\n      swap1\n      pop\n        /* \"contracts/SuplyBeam_main.sol\":2746:2983  function objectExists(string calldata obj_name) internal view returns (bool) {... */\n      swap3\n      swap2\n      pop\n      pop\n      jump\t// out\n    tag_65:\n      mload(0x40)\n      dup1\n      0x40\n      add\n      0x40\n      mstore\n      dup1\n      0x60\n      dup2\n      mstore\n      0x20\n      add\n      tag_253\n      tag_254\n      jump\t// in\n    tag_253:\n      dup2\n      mstore\n      pop\n      swap1\n      jump\t// out\n    tag_254:\n      mload(0x40)\n      dup1\n      0x60\n      add\n      0x40\n      mstore\n      dup1\n      0x60\n      dup2\n      mstore\n      0x20\n      add\n      0x60\n      dup2\n      mstore\n      0x20\n      add\n      and(0xffffffffffffffffffffffffffffffffffffffff, 0x00)\n      dup2\n      mstore\n      pop\n      swap1\n      jump\t// out\n        /* \"#utility.yul\":7:82   */\n    tag_255:\n        /* \"#utility.yul\":40:46   */\n      0x00\n        /* \"#utility.yul\":73:75   */\n      0x40\n        /* \"#utility.yul\":67:76   */\n      mload\n        /* \"#utility.yul\":57:76   */\n      swap1\n      pop\n        /* \"#utility.yul\":7:82   */\n      swap1\n      jump\t// out\n        /* \"#utility.yul\":88:205   */\n    tag_256:\n        /* \"#utility.yul\":197:198   */\n      0x00\n        /* \"#utility.yul\":194:195   */\n      dup1\n        /* \"#utility.yul\":187:199   */\n      revert\n        /* \"#utility.yul\":211:328   */\n    tag_257:\n        /* \"#utility.yul\":320:321   */\n      0x00\n        /* \"#utility.yul\":317:318   */\n      dup1\n        /* \"#utility.yul\":310:322   */\n      revert\n        /* \"#utility.yul\":334:451   */\n    tag_258:\n        /* \"#utility.yul\":443:444   */\n      0x00\n        /* \"#utility.yul\":440:441   */\n      dup1\n        /* \"#utility.yul\":433:445   */\n      revert\n        /* \"#utility.yul\":457:574   */\n    tag_259:\n        /* \"#utility.yul\":566:567   */\n      0x00\n        /* \"#utility.yul\":563:564   */\n      dup1\n        /* \"#utility.yul\":556:568   */\n      revert\n        /* \"#utility.yul\":580:697   */\n    tag_260:\n        /* \"#utility.yul\":689:690   */\n      0x00\n        /* \"#utility.yul\":686:687   */\n      dup1\n        /* \"#utility.yul\":679:691   */\n      revert\n        /* \"#utility.yul\":717:1270   */\n    tag_261:\n        /* \"#utility.yul\":775:783   */\n      0x00\n        /* \"#utility.yul\":785:791   */\n      dup1\n        /* \"#utility.yul\":835:838   */\n      dup4\n        /* \"#utility.yul\":828:832   */\n      0x1f\n        /* \"#utility.yul\":820:826   */\n      dup5\n        /* \"#utility.yul\":816:833   */\n      add\n        /* \"#utility.yul\":812:839   */\n      slt\n        /* \"#utility.yul\":802:924   */\n      tag_347\n      jumpi\n        /* \"#utility.yul\":843:922   */\n      tag_348\n      tag_258\n      jump\t// in\n    tag_348:\n        /* \"#utility.yul\":802:924   */\n    tag_347:\n        /* \"#utility.yul\":956:962   */\n      dup3\n        /* \"#utility.yul\":943:963   */\n      calldataload\n        /* \"#utility.yul\":933:963   */\n      swap1\n      pop\n        /* \"#utility.yul\":986:1004   */\n      0xffffffffffffffff\n        /* \"#utility.yul\":978:984   */\n      dup2\n        /* \"#utility.yul\":975:1005   */\n      gt\n        /* \"#utility.yul\":972:1089   */\n      iszero\n      tag_349\n      jumpi\n        /* \"#utility.yul\":1008:1087   */\n      tag_350\n      tag_259\n      jump\t// in\n    tag_350:\n        /* \"#utility.yul\":972:1089   */\n    tag_349:\n        /* \"#utility.yul\":1122:1126   */\n      0x20\n        /* \"#utility.yul\":1114:1120   */\n      dup4\n        /* \"#utility.yul\":1110:1127   */\n      add\n        /* \"#utility.yul\":1098:1127   */\n      swap2\n      pop\n        /* \"#utility.yul\":1176:1179   */\n      dup4\n        /* \"#utility.yul\":1168:1172   */\n      0x01\n        /* \"#utility.yul\":1160:1166   */\n      dup3\n        /* \"#utility.yul\":1156:1173   */\n      mul\n        /* \"#utility.yul\":1146:1154   */\n      dup4\n        /* \"#utility.yul\":1142:1174   */\n      add\n        /* \"#utility.yul\":1139:1180   */\n      gt\n        /* \"#utility.yul\":1136:1264   */\n      iszero\n      tag_351\n      jumpi\n        /* \"#utility.yul\":1183:1262   */\n      tag_352\n      tag_260\n      jump\t// in\n    tag_352:\n        /* \"#utility.yul\":1136:1264   */\n    tag_351:\n        /* \"#utility.yul\":717:1270   */\n      swap3\n      pop\n      swap3\n      swap1\n      pop\n      jump\t// out\n        /* \"#utility.yul\":1276:1805   */\n    tag_18:\n        /* \"#utility.yul\":1347:1353   */\n      0x00\n        /* \"#utility.yul\":1355:1361   */\n      dup1\n        /* \"#utility.yul\":1404:1406   */\n      0x20\n        /* \"#utility.yul\":1392:1401   */\n      dup4\n        /* \"#utility.yul\":1383:1390   */\n      dup6\n        /* \"#utility.yul\":1379:1402   */\n      sub\n        /* \"#utility.yul\":1375:1407   */\n      slt\n        /* \"#utility.yul\":1372:1491   */\n      iszero\n      tag_354\n      jumpi\n        /* \"#utility.yul\":1410:1489   */\n      tag_355\n      tag_256\n      jump\t// in\n    tag_355:\n        /* \"#utility.yul\":1372:1491   */\n    tag_354:\n        /* \"#utility.yul\":1558:1559   */\n      0x00\n        /* \"#utility.yul\":1547:1556   */\n      dup4\n        /* \"#utility.yul\":1543:1560   */\n      add\n        /* \"#utility.yul\":1530:1561   */\n      calldataload\n        /* \"#utility.yul\":1588:1606   */\n      0xffffffffffffffff\n        /* \"#utility.yul\":1580:1586   */\n      dup2\n        /* \"#utility.yul\":1577:1607   */\n      gt\n        /* \"#utility.yul\":1574:1691   */\n      iszero\n      tag_356\n      jumpi\n        /* \"#utility.yul\":1610:1689   */\n      tag_357\n      tag_257\n      jump\t// in\n    tag_357:\n        /* \"#utility.yul\":1574:1691   */\n    tag_356:\n        /* \"#utility.yul\":1723:1788   */\n      tag_358\n        /* \"#utility.yul\":1780:1787   */\n      dup6\n        /* \"#utility.yul\":1771:1777   */\n      dup3\n        /* \"#utility.yul\":1760:1769   */\n      dup7\n        /* \"#utility.yul\":1756:1778   */\n      add\n        /* \"#utility.yul\":1723:1788   */\n      tag_261\n      jump\t// in\n    tag_358:\n        /* \"#utility.yul\":1705:1788   */\n      swap3\n      pop\n      swap3\n      pop\n        /* \"#utility.yul\":1501:1798   */\n      pop\n        /* \"#utility.yul\":1276:1805   */\n      swap3\n      pop\n      swap3\n      swap1\n      pop\n      jump\t// out\n        /* \"#utility.yul\":1811:1910   */\n    tag_262:\n        /* \"#utility.yul\":1863:1869   */\n      0x00\n        /* \"#utility.yul\":1897:1902   */\n      dup2\n        /* \"#utility.yul\":1891:1903   */\n      mload\n        /* \"#utility.yul\":1881:1903   */\n      swap1\n      pop\n        /* \"#utility.yul\":1811:1910   */\n      swap2\n      swap1\n      pop\n      jump\t// out\n        /* \"#utility.yul\":1916:2075   */\n    tag_263:\n        /* \"#utility.yul\":1990:2001   */\n      0x00\n        /* \"#utility.yul\":2024:2030   */\n      dup3\n        /* \"#utility.yul\":2019:2022   */\n      dup3\n        /* \"#utility.yul\":2012:2031   */\n      mstore\n        /* \"#utility.yul\":2064:2068   */\n      0x20\n        /* \"#utility.yul\":2059:2062   */\n      dup3\n        /* \"#utility.yul\":2055:2069   */\n      add\n        /* \"#utility.yul\":2040:2069   */\n      swap1\n      pop\n        /* \"#utility.yul\":1916:2075   */\n      swap3\n      swap2\n      pop\n      pop\n      jump\t// out\n        /* \"#utility.yul\":2081:2327   */\n    tag_264:\n        /* \"#utility.yul\":2162:2163   */\n      0x00\n        /* \"#utility.yul\":2172:2285   */\n    tag_362:\n        /* \"#utility.yul\":2186:2192   */\n      dup4\n        /* \"#utility.yul\":2183:2184   */\n      dup2\n        /* \"#utility.yul\":2180:2193   */\n      lt\n        /* \"#utility.yul\":2172:2285   */\n      iszero\n      tag_364\n      jumpi\n        /* \"#utility.yul\":2271:2272   */\n      dup1\n        /* \"#utility.yul\":2266:2269   */\n      dup3\n        /* \"#utility.yul\":2262:2273   */\n      add\n        /* \"#utility.yul\":2256:2274   */\n      mload\n        /* \"#utility.yul\":2252:2253   */\n      dup2\n        /* \"#utility.yul\":2247:2250   */\n      dup5\n        /* \"#utility.yul\":2243:2254   */\n      add\n        /* \"#utility.yul\":2236:2275   */\n      mstore\n        /* \"#utility.yul\":2208:2210   */\n      0x20\n        /* \"#utility.yul\":2205:2206   */\n      dup2\n        /* \"#utility.yul\":2201:2211   */\n      add\n        /* \"#utility.yul\":2196:2211   */\n      swap1\n      pop\n        /* \"#utility.yul\":2172:2285   */\n      jump(tag_362)\n    tag_364:\n        /* \"#utility.yul\":2319:2320   */\n      0x00\n        /* \"#utility.yul\":2310:2316   */\n      dup5\n        /* \"#utility.yul\":2305:2308   */\n      dup5\n        /* \"#utility.yul\":2301:2317   */\n      add\n        /* \"#utility.yul\":2294:2321   */\n      mstore\n        /* \"#utility.yul\":2143:2327   */\n      pop\n        /* \"#utility.yul\":2081:2327   */\n      pop\n      pop\n      pop\n      jump\t// out\n        /* \"#utility.yul\":2333:2435   */\n    tag_265:\n        /* \"#utility.yul\":2374:2380   */\n      0x00\n        /* \"#utility.yul\":2425:2427   */\n      0x1f\n        /* \"#utility.yul\":2421:2428   */\n      not\n        /* \"#utility.yul\":2416:2418   */\n      0x1f\n        /* \"#utility.yul\":2409:2414   */\n      dup4\n        /* \"#utility.yul\":2405:2419   */\n      add\n        /* \"#utility.yul\":2401:2429   */\n      and\n        /* \"#utility.yul\":2391:2429   */\n      swap1\n      pop\n        /* \"#utility.yul\":2333:2435   */\n      swap2\n      swap1\n      pop\n      jump\t// out\n        /* \"#utility.yul\":2441:2798   */\n    tag_266:\n        /* \"#utility.yul\":2519:2522   */\n      0x00\n        /* \"#utility.yul\":2547:2586   */\n      tag_367\n        /* \"#utility.yul\":2580:2585   */\n      dup3\n        /* \"#utility.yul\":2547:2586   */\n      tag_262\n      jump\t// in\n    tag_367:\n        /* \"#utility.yul\":2602:2663   */\n      tag_368\n        /* \"#utility.yul\":2656:2662   */\n      dup2\n        /* \"#utility.yul\":2651:2654   */\n      dup6\n        /* \"#utility.yul\":2602:2663   */\n      tag_263\n      jump\t// in\n    tag_368:\n        /* \"#utility.yul\":2595:2663   */\n      swap4\n      pop\n        /* \"#utility.yul\":2672:2737   */\n      tag_369\n        /* \"#utility.yul\":2730:2736   */\n      dup2\n        /* \"#utility.yul\":2725:2728   */\n      dup6\n        /* \"#utility.yul\":2718:2722   */\n      0x20\n        /* \"#utility.yul\":2711:2716   */\n      dup7\n        /* \"#utility.yul\":2707:2723   */\n      add\n        /* \"#utility.yul\":2672:2737   */\n      tag_264\n      jump\t// in\n    tag_369:\n        /* \"#utility.yul\":2762:2791   */\n      tag_370\n        /* \"#utility.yul\":2784:2790   */\n      dup2\n        /* \"#utility.yul\":2762:2791   */\n      tag_265\n      jump\t// in\n    tag_370:\n        /* \"#utility.yul\":2757:2760   */\n      dup5\n        /* \"#utility.yul\":2753:2792   */\n      add\n        /* \"#utility.yul\":2746:2792   */\n      swap2\n      pop\n        /* \"#utility.yul\":2523:2798   */\n      pop\n        /* \"#utility.yul\":2441:2798   */\n      swap3\n      swap2\n      pop\n      pop\n      jump\t// out\n        /* \"#utility.yul\":2804:2930   */\n    tag_267:\n        /* \"#utility.yul\":2841:2848   */\n      0x00\n        /* \"#utility.yul\":2881:2923   */\n      0xffffffffffffffffffffffffffffffffffffffff\n        /* \"#utility.yul\":2874:2879   */\n      dup3\n        /* \"#utility.yul\":2870:2924   */\n      and\n        /* \"#utility.yul\":2859:2924   */\n      swap1\n      pop\n        /* \"#utility.yul\":2804:2930   */\n      swap2\n      swap1\n      pop\n      jump\t// out\n        /* \"#utility.yul\":2936:3032   */\n    tag_268:\n        /* \"#utility.yul\":2973:2980   */\n      0x00\n        /* \"#utility.yul\":3002:3026   */\n      tag_373\n        /* \"#utility.yul\":3020:3025   */\n      dup3\n        /* \"#utility.yul\":3002:3026   */\n      tag_267\n      jump\t// in\n    tag_373:\n        /* \"#utility.yul\":2991:3026   */\n      swap1\n      pop\n        /* \"#utility.yul\":2936:3032   */\n      swap2\n      swap1\n      pop\n      jump\t// out\n        /* \"#utility.yul\":3038:3146   */\n    tag_269:\n        /* \"#utility.yul\":3115:3139   */\n      tag_375\n        /* \"#utility.yul\":3133:3138   */\n      dup2\n        /* \"#utility.yul\":3115:3139   */\n      tag_268\n      jump\t// in\n    tag_375:\n        /* \"#utility.yul\":3110:3113   */\n      dup3\n        /* \"#utility.yul\":3103:3140   */\n      mstore\n        /* \"#utility.yul\":3038:3146   */\n      pop\n      pop\n      jump\t// out\n        /* \"#utility.yul\":3188:4026   */\n    tag_270:\n        /* \"#utility.yul\":3287:3290   */\n      0x00\n        /* \"#utility.yul\":3323:3327   */\n      0x60\n        /* \"#utility.yul\":3318:3321   */\n      dup4\n        /* \"#utility.yul\":3314:3328   */\n      add\n        /* \"#utility.yul\":3410:3414   */\n      0x00\n        /* \"#utility.yul\":3403:3408   */\n      dup4\n        /* \"#utility.yul\":3399:3415   */\n      add\n        /* \"#utility.yul\":3393:3416   */\n      mload\n        /* \"#utility.yul\":3463:3466   */\n      dup5\n        /* \"#utility.yul\":3457:3461   */\n      dup3\n        /* \"#utility.yul\":3453:3467   */\n      sub\n        /* \"#utility.yul\":3446:3450   */\n      0x00\n        /* \"#utility.yul\":3441:3444   */\n      dup7\n        /* \"#utility.yul\":3437:3451   */\n      add\n        /* \"#utility.yul\":3430:3468   */\n      mstore\n        /* \"#utility.yul\":3489:3562   */\n      tag_377\n        /* \"#utility.yul\":3557:3561   */\n      dup3\n        /* \"#utility.yul\":3543:3555   */\n      dup3\n        /* \"#utility.yul\":3489:3562   */\n      tag_266\n      jump\t// in\n    tag_377:\n        /* \"#utility.yul\":3481:3562   */\n      swap2\n      pop\n        /* \"#utility.yul\":3338:3573   */\n      pop\n        /* \"#utility.yul\":3656:3660   */\n      0x20\n        /* \"#utility.yul\":3649:3654   */\n      dup4\n        /* \"#utility.yul\":3645:3661   */\n      add\n        /* \"#utility.yul\":3639:3662   */\n      mload\n        /* \"#utility.yul\":3709:3712   */\n      dup5\n        /* \"#utility.yul\":3703:3707   */\n      dup3\n        /* \"#utility.yul\":3699:3713   */\n      sub\n        /* \"#utility.yul\":3692:3696   */\n      0x20\n        /* \"#utility.yul\":3687:3690   */\n      dup7\n        /* \"#utility.yul\":3683:3697   */\n      add\n        /* \"#utility.yul\":3676:3714   */\n      mstore\n        /* \"#utility.yul\":3735:3808   */\n      tag_378\n        /* \"#utility.yul\":3803:3807   */\n      dup3\n        /* \"#utility.yul\":3789:3801   */\n      dup3\n        /* \"#utility.yul\":3735:3808   */\n      tag_266\n      jump\t// in\n    tag_378:\n        /* \"#utility.yul\":3727:3808   */\n      swap2\n      pop\n        /* \"#utility.yul\":3583:3819   */\n      pop\n        /* \"#utility.yul\":3907:3911   */\n      0x40\n        /* \"#utility.yul\":3900:3905   */\n      dup4\n        /* \"#utility.yul\":3896:3912   */\n      add\n        /* \"#utility.yul\":3890:3913   */\n      mload\n        /* \"#utility.yul\":3926:3989   */\n      tag_379\n        /* \"#utility.yul\":3983:3987   */\n      0x40\n        /* \"#utility.yul\":3978:3981   */\n      dup7\n        /* \"#utility.yul\":3974:3988   */\n      add\n        /* \"#utility.yul\":3960:3972   */\n      dup3\n        /* \"#utility.yul\":3926:3989   */\n      tag_269\n      jump\t// in\n    tag_379:\n        /* \"#utility.yul\":3829:3999   */\n      pop\n        /* \"#utility.yul\":4016:4020   */\n      dup1\n        /* \"#utility.yul\":4009:4020   */\n      swap2\n      pop\n        /* \"#utility.yul\":3292:4026   */\n      pop\n        /* \"#utility.yul\":3188:4026   */\n      swap3\n      swap2\n      pop\n      pop\n      jump\t// out\n        /* \"#utility.yul\":4070:4762   */\n    tag_271:\n        /* \"#utility.yul\":4183:4186   */\n      0x00\n        /* \"#utility.yul\":4219:4223   */\n      0x40\n        /* \"#utility.yul\":4214:4217   */\n      dup4\n        /* \"#utility.yul\":4210:4224   */\n      add\n        /* \"#utility.yul\":4306:4310   */\n      0x00\n        /* \"#utility.yul\":4299:4304   */\n      dup4\n        /* \"#utility.yul\":4295:4311   */\n      add\n        /* \"#utility.yul\":4289:4312   */\n      mload\n        /* \"#utility.yul\":4359:4362   */\n      dup5\n        /* \"#utility.yul\":4353:4357   */\n      dup3\n        /* \"#utility.yul\":4349:4363   */\n      sub\n        /* \"#utility.yul\":4342:4346   */\n      0x00\n        /* \"#utility.yul\":4337:4340   */\n      dup7\n        /* \"#utility.yul\":4333:4347   */\n      add\n        /* \"#utility.yul\":4326:4364   */\n      mstore\n        /* \"#utility.yul\":4385:4458   */\n      tag_381\n        /* \"#utility.yul\":4453:4457   */\n      dup3\n        /* \"#utility.yul\":4439:4451   */\n      dup3\n        /* \"#utility.yul\":4385:4458   */\n      tag_266\n      jump\t// in\n    tag_381:\n        /* \"#utility.yul\":4377:4458   */\n      swap2\n      pop\n        /* \"#utility.yul\":4234:4469   */\n      pop\n        /* \"#utility.yul\":4552:4556   */\n      0x20\n        /* \"#utility.yul\":4545:4550   */\n      dup4\n        /* \"#utility.yul\":4541:4557   */\n      add\n        /* \"#utility.yul\":4535:4558   */\n      mload\n        /* \"#utility.yul\":4605:4608   */\n      dup5\n        /* \"#utility.yul\":4599:4603   */\n      dup3\n        /* \"#utility.yul\":4595:4609   */\n      sub\n        /* \"#utility.yul\":4588:4592   */\n      0x20\n        /* \"#utility.yul\":4583:4586   */\n      dup7\n        /* \"#utility.yul\":4579:4593   */\n      add\n        /* \"#utility.yul\":4572:4610   */\n      mstore\n        /* \"#utility.yul\":4631:4724   */\n      tag_382\n        /* \"#utility.yul\":4719:4723   */\n      dup3\n        /* \"#utility.yul\":4705:4717   */\n      dup3\n        /* \"#utility.yul\":4631:4724   */\n      tag_270\n      jump\t// in\n    tag_382:\n        /* \"#utility.yul\":4623:4724   */\n      swap2\n      pop\n        /* \"#utility.yul\":4479:4735   */\n      pop\n        /* \"#utility.yul\":4752:4756   */\n      dup1\n        /* \"#utility.yul\":4745:4756   */\n      swap2\n      pop\n        /* \"#utility.yul\":4188:4762   */\n      pop\n        /* \"#utility.yul\":4070:4762   */\n      swap3\n      swap2\n      pop\n      pop\n      jump\t// out\n        /* \"#utility.yul\":4768:5129   */\n    tag_21:\n        /* \"#utility.yul\":4905:4909   */\n      0x00\n        /* \"#utility.yul\":4943:4945   */\n      0x20\n        /* \"#utility.yul\":4932:4941   */\n      dup3\n        /* \"#utility.yul\":4928:4946   */\n      add\n        /* \"#utility.yul\":4920:4946   */\n      swap1\n      pop\n        /* \"#utility.yul\":4992:5001   */\n      dup2\n        /* \"#utility.yul\":4986:4990   */\n      dup2\n        /* \"#utility.yul\":4982:5002   */\n      sub\n        /* \"#utility.yul\":4978:4979   */\n      0x00\n        /* \"#utility.yul\":4967:4976   */\n      dup4\n        /* \"#utility.yul\":4963:4980   */\n      add\n        /* \"#utility.yul\":4956:5003   */\n      mstore\n        /* \"#utility.yul\":5020:5122   */\n      tag_384\n        /* \"#utility.yul\":5117:5121   */\n      dup2\n        /* \"#utility.yul\":5108:5114   */\n      dup5\n        /* \"#utility.yul\":5020:5122   */\n      tag_271\n      jump\t// in\n    tag_384:\n        /* \"#utility.yul\":5012:5122   */\n      swap1\n      pop\n        /* \"#utility.yul\":4768:5129   */\n      swap3\n      swap2\n      pop\n      pop\n      jump\t// out\n        /* \"#utility.yul\":5135:5212   */\n    tag_272:\n        /* \"#utility.yul\":5172:5179   */\n      0x00\n        /* \"#utility.yul\":5201:5206   */\n      dup2\n        /* \"#utility.yul\":5190:5206   */\n      swap1\n      pop\n        /* \"#utility.yul\":5135:5212   */\n      swap2\n      swap1\n      pop\n      jump\t// out\n        /* \"#utility.yul\":5218:5340   */\n    tag_273:\n        /* \"#utility.yul\":5291:5315   */\n      tag_387\n        /* \"#utility.yul\":5309:5314   */\n      dup2\n        /* \"#utility.yul\":5291:5315   */\n      tag_272\n      jump\t// in\n    tag_387:\n        /* \"#utility.yul\":5284:5289   */\n      dup2\n        /* \"#utility.yul\":5281:5316   */\n      eq\n        /* \"#utility.yul\":5271:5334   */\n      tag_388\n      jumpi\n        /* \"#utility.yul\":5330:5331   */\n      0x00\n        /* \"#utility.yul\":5327:5328   */\n      dup1\n        /* \"#utility.yul\":5320:5332   */\n      revert\n        /* \"#utility.yul\":5271:5334   */\n    tag_388:\n        /* \"#utility.yul\":5218:5340   */\n      pop\n      jump\t// out\n        /* \"#utility.yul\":5346:5485   */\n    tag_274:\n        /* \"#utility.yul\":5392:5397   */\n      0x00\n        /* \"#utility.yul\":5430:5436   */\n      dup2\n        /* \"#utility.yul\":5417:5437   */\n      calldataload\n        /* \"#utility.yul\":5408:5437   */\n      swap1\n      pop\n        /* \"#utility.yul\":5446:5479   */\n      tag_390\n        /* \"#utility.yul\":5473:5478   */\n      dup2\n        /* \"#utility.yul\":5446:5479   */\n      tag_273\n      jump\t// in\n    tag_390:\n        /* \"#utility.yul\":5346:5485   */\n      swap3\n      swap2\n      pop\n      pop\n      jump\t// out\n        /* \"#utility.yul\":5491:5965   */\n    tag_24:\n        /* \"#utility.yul\":5559:5565   */\n      0x00\n        /* \"#utility.yul\":5567:5573   */\n      dup1\n        /* \"#utility.yul\":5616:5618   */\n      0x40\n        /* \"#utility.yul\":5604:5613   */\n      dup4\n        /* \"#utility.yul\":5595:5602   */\n      dup6\n        /* \"#utility.yul\":5591:5614   */\n      sub\n        /* \"#utility.yul\":5587:5619   */\n      slt\n        /* \"#utility.yul\":5584:5703   */\n      iszero\n      tag_392\n      jumpi\n        /* \"#utility.yul\":5622:5701   */\n      tag_393\n      tag_256\n      jump\t// in\n    tag_393:\n        /* \"#utility.yul\":5584:5703   */\n    tag_392:\n        /* \"#utility.yul\":5742:5743   */\n      0x00\n        /* \"#utility.yul\":5767:5820   */\n      tag_394\n        /* \"#utility.yul\":5812:5819   */\n      dup6\n        /* \"#utility.yul\":5803:5809   */\n      dup3\n        /* \"#utility.yul\":5792:5801   */\n      dup7\n        /* \"#utility.yul\":5788:5810   */\n      add\n        /* \"#utility.yul\":5767:5820   */\n      tag_274\n      jump\t// in\n    tag_394:\n        /* \"#utility.yul\":5757:5820   */\n      swap3\n      pop\n        /* \"#utility.yul\":5713:5830   */\n      pop\n        /* \"#utility.yul\":5869:5871   */\n      0x20\n        /* \"#utility.yul\":5895:5948   */\n      tag_395\n        /* \"#utility.yul\":5940:5947   */\n      dup6\n        /* \"#utility.yul\":5931:5937   */\n      dup3\n        /* \"#utility.yul\":5920:5929   */\n      dup7\n        /* \"#utility.yul\":5916:5938   */\n      add\n        /* \"#utility.yul\":5895:5948   */\n      tag_274\n      jump\t// in\n    tag_395:\n        /* \"#utility.yul\":5885:5948   */\n      swap2\n      pop\n        /* \"#utility.yul\":5840:5958   */\n      pop\n        /* \"#utility.yul\":5491:5965   */\n      swap3\n      pop\n      swap3\n      swap1\n      pop\n      jump\t// out\n        /* \"#utility.yul\":5971:6107   */\n    tag_275:\n        /* \"#utility.yul\":6060:6066   */\n      0x00\n        /* \"#utility.yul\":6094:6099   */\n      dup2\n        /* \"#utility.yul\":6088:6100   */\n      mload\n        /* \"#utility.yul\":6078:6100   */\n      swap1\n      pop\n        /* \"#utility.yul\":5971:6107   */\n      swap2\n      swap1\n      pop\n      jump\t// out\n        /* \"#utility.yul\":6113:6319   */\n    tag_276:\n        /* \"#utility.yul\":6234:6245   */\n      0x00\n        /* \"#utility.yul\":6268:6274   */\n      dup3\n        /* \"#utility.yul\":6263:6266   */\n      dup3\n        /* \"#utility.yul\":6256:6275   */\n      mstore\n        /* \"#utility.yul\":6308:6312   */\n      0x20\n        /* \"#utility.yul\":6303:6306   */\n      dup3\n        /* \"#utility.yul\":6299:6313   */\n      add\n        /* \"#utility.yul\":6284:6313   */\n      swap1\n      pop\n        /* \"#utility.yul\":6113:6319   */\n      swap3\n      swap2\n      pop\n      pop\n      jump\t// out\n        /* \"#utility.yul\":6325:6479   */\n    tag_277:\n        /* \"#utility.yul\":6414:6418   */\n      0x00\n        /* \"#utility.yul\":6437:6440   */\n      dup2\n        /* \"#utility.yul\":6429:6440   */\n      swap1\n      pop\n        /* \"#utility.yul\":6467:6471   */\n      0x20\n        /* \"#utility.yul\":6462:6465   */\n      dup3\n        /* \"#utility.yul\":6458:6472   */\n      add\n        /* \"#utility.yul\":6450:6472   */\n      swap1\n      pop\n        /* \"#utility.yul\":6325:6479   */\n      swap2\n      swap1\n      pop\n      jump\t// out\n        /* \"#utility.yul\":6523:7205   */\n    tag_278:\n        /* \"#utility.yul\":6626:6629   */\n      0x00\n        /* \"#utility.yul\":6662:6666   */\n      0x40\n        /* \"#utility.yul\":6657:6660   */\n      dup4\n        /* \"#utility.yul\":6653:6667   */\n      add\n        /* \"#utility.yul\":6749:6753   */\n      0x00\n        /* \"#utility.yul\":6742:6747   */\n      dup4\n        /* \"#utility.yul\":6738:6754   */\n      add\n        /* \"#utility.yul\":6732:6755   */\n      mload\n        /* \"#utility.yul\":6802:6805   */\n      dup5\n        /* \"#utility.yul\":6796:6800   */\n      dup3\n        /* \"#utility.yul\":6792:6806   */\n      sub\n        /* \"#utility.yul\":6785:6789   */\n      0x00\n        /* \"#utility.yul\":6780:6783   */\n      dup7\n        /* \"#utility.yul\":6776:6790   */\n      add\n        /* \"#utility.yul\":6769:6807   */\n      mstore\n        /* \"#utility.yul\":6828:6901   */\n      tag_400\n        /* \"#utility.yul\":6896:6900   */\n      dup3\n        /* \"#utility.yul\":6882:6894   */\n      dup3\n        /* \"#utility.yul\":6828:6901   */\n      tag_266\n      jump\t// in\n    tag_400:\n        /* \"#utility.yul\":6820:6901   */\n      swap2\n      pop\n        /* \"#utility.yul\":6677:6912   */\n      pop\n        /* \"#utility.yul\":6995:6999   */\n      0x20\n        /* \"#utility.yul\":6988:6993   */\n      dup4\n        /* \"#utility.yul\":6984:7000   */\n      add\n        /* \"#utility.yul\":6978:7001   */\n      mload\n        /* \"#utility.yul\":7048:7051   */\n      dup5\n        /* \"#utility.yul\":7042:7046   */\n      dup3\n        /* \"#utility.yul\":7038:7052   */\n      sub\n        /* \"#utility.yul\":7031:7035   */\n      0x20\n        /* \"#utility.yul\":7026:7029   */\n      dup7\n        /* \"#utility.yul\":7022:7036   */\n      add\n        /* \"#utility.yul\":7015:7053   */\n      mstore\n        /* \"#utility.yul\":7074:7167   */\n      tag_401\n        /* \"#utility.yul\":7162:7166   */\n      dup3\n        /* \"#utility.yul\":7148:7160   */\n      dup3\n        /* \"#utility.yul\":7074:7167   */\n      tag_270\n      jump\t// in\n    tag_401:\n        /* \"#utility.yul\":7066:7167   */\n      swap2\n      pop\n        /* \"#utility.yul\":6922:7178   */\n      pop\n        /* \"#utility.yul\":7195:7199   */\n      dup1\n        /* \"#utility.yul\":7188:7199   */\n      swap2\n      pop\n        /* \"#utility.yul\":6631:7205   */\n      pop\n        /* \"#utility.yul\":6523:7205   */\n      swap3\n      swap2\n      pop\n      pop\n      jump\t// out\n        /* \"#utility.yul\":7211:7455   */\n    tag_279:\n        /* \"#utility.yul\":7324:7334   */\n      0x00\n        /* \"#utility.yul\":7359:7449   */\n      tag_403\n        /* \"#utility.yul\":7445:7448   */\n      dup4\n        /* \"#utility.yul\":7437:7443   */\n      dup4\n        /* \"#utility.yul\":7359:7449   */\n      tag_278\n      jump\t// in\n    tag_403:\n        /* \"#utility.yul\":7345:7449   */\n      swap1\n      pop\n        /* \"#utility.yul\":7211:7455   */\n      swap3\n      swap2\n      pop\n      pop\n      jump\t// out\n        /* \"#utility.yul\":7461:7596   */\n    tag_280:\n        /* \"#utility.yul\":7553:7557   */\n      0x00\n        /* \"#utility.yul\":7585:7589   */\n      0x20\n        /* \"#utility.yul\":7580:7583   */\n      dup3\n        /* \"#utility.yul\":7576:7590   */\n      add\n        /* \"#utility.yul\":7568:7590   */\n      swap1\n      pop\n        /* \"#utility.yul\":7461:7596   */\n      swap2\n      swap1\n      pop\n      jump\t// out\n        /* \"#utility.yul\":7644:8731   */\n    tag_281:\n        /* \"#utility.yul\":7807:7810   */\n      0x00\n        /* \"#utility.yul\":7836:7912   */\n      tag_406\n        /* \"#utility.yul\":7906:7911   */\n      dup3\n        /* \"#utility.yul\":7836:7912   */\n      tag_275\n      jump\t// in\n    tag_406:\n        /* \"#utility.yul\":7928:8036   */\n      tag_407\n        /* \"#utility.yul\":8029:8035   */\n      dup2\n        /* \"#utility.yul\":8024:8027   */\n      dup6\n        /* \"#utility.yul\":7928:8036   */\n      tag_276\n      jump\t// in\n    tag_407:\n        /* \"#utility.yul\":7921:8036   */\n      swap4\n      pop\n        /* \"#utility.yul\":8062:8065   */\n      dup4\n        /* \"#utility.yul\":8107:8111   */\n      0x20\n        /* \"#utility.yul\":8099:8105   */\n      dup3\n        /* \"#utility.yul\":8095:8112   */\n      mul\n        /* \"#utility.yul\":8090:8093   */\n      dup6\n        /* \"#utility.yul\":8086:8113   */\n      add\n        /* \"#utility.yul\":8137:8215   */\n      tag_408\n        /* \"#utility.yul\":8209:8214   */\n      dup6\n        /* \"#utility.yul\":8137:8215   */\n      tag_277\n      jump\t// in\n    tag_408:\n        /* \"#utility.yul\":8238:8245   */\n      dup1\n        /* \"#utility.yul\":8269:8270   */\n      0x00\n        /* \"#utility.yul\":8254:8686   */\n    tag_409:\n        /* \"#utility.yul\":8279:8285   */\n      dup6\n        /* \"#utility.yul\":8276:8277   */\n      dup2\n        /* \"#utility.yul\":8273:8286   */\n      lt\n        /* \"#utility.yul\":8254:8686   */\n      iszero\n      tag_411\n      jumpi\n        /* \"#utility.yul\":8350:8359   */\n      dup5\n        /* \"#utility.yul\":8344:8348   */\n      dup5\n        /* \"#utility.yul\":8340:8360   */\n      sub\n        /* \"#utility.yul\":8335:8338   */\n      dup10\n        /* \"#utility.yul\":8328:8361   */\n      mstore\n        /* \"#utility.yul\":8401:8407   */\n      dup2\n        /* \"#utility.yul\":8395:8408   */\n      mload\n        /* \"#utility.yul\":8429:8537   */\n      tag_412\n        /* \"#utility.yul\":8532:8536   */\n      dup6\n        /* \"#utility.yul\":8517:8530   */\n      dup3\n        /* \"#utility.yul\":8429:8537   */\n      tag_279\n      jump\t// in\n    tag_412:\n        /* \"#utility.yul\":8421:8537   */\n      swap5\n      pop\n        /* \"#utility.yul\":8560:8642   */\n      tag_413\n        /* \"#utility.yul\":8635:8641   */\n      dup4\n        /* \"#utility.yul\":8560:8642   */\n      tag_280\n      jump\t// in\n    tag_413:\n        /* \"#utility.yul\":8550:8642   */\n      swap3\n      pop\n        /* \"#utility.yul\":8671:8675   */\n      0x20\n        /* \"#utility.yul\":8666:8669   */\n      dup11\n        /* \"#utility.yul\":8662:8676   */\n      add\n        /* \"#utility.yul\":8655:8676   */\n      swap10\n      pop\n        /* \"#utility.yul\":8314:8686   */\n      pop\n        /* \"#utility.yul\":8301:8302   */\n      0x01\n        /* \"#utility.yul\":8298:8299   */\n      dup2\n        /* \"#utility.yul\":8294:8303   */\n      add\n        /* \"#utility.yul\":8289:8303   */\n      swap1\n      pop\n        /* \"#utility.yul\":8254:8686   */\n      jump(tag_409)\n    tag_411:\n        /* \"#utility.yul\":8258:8272   */\n      pop\n        /* \"#utility.yul\":8702:8706   */\n      dup3\n        /* \"#utility.yul\":8695:8706   */\n      swap8\n      pop\n        /* \"#utility.yul\":8722:8725   */\n      dup8\n        /* \"#utility.yul\":8715:8725   */\n      swap6\n      pop\n        /* \"#utility.yul\":7812:8731   */\n      pop\n      pop\n      pop\n      pop\n      pop\n        /* \"#utility.yul\":7644:8731   */\n      swap3\n      swap2\n      pop\n      pop\n      jump\t// out\n        /* \"#utility.yul\":8737:9198   */\n    tag_27:\n        /* \"#utility.yul\":8924:8928   */\n      0x00\n        /* \"#utility.yul\":8962:8964   */\n      0x20\n        /* \"#utility.yul\":8951:8960   */\n      dup3\n        /* \"#utility.yul\":8947:8965   */\n      add\n        /* \"#utility.yul\":8939:8965   */\n      swap1\n      pop\n        /* \"#utility.yul\":9011:9020   */\n      dup2\n        /* \"#utility.yul\":9005:9009   */\n      dup2\n        /* \"#utility.yul\":9001:9021   */\n      sub\n        /* \"#utility.yul\":8997:8998   */\n      0x00\n        /* \"#utility.yul\":8986:8995   */\n      dup4\n        /* \"#utility.yul\":8982:8999   */\n      add\n        /* \"#utility.yul\":8975:9022   */\n      mstore\n        /* \"#utility.yul\":9039:9191   */\n      tag_415\n        /* \"#utility.yul\":9186:9190   */\n      dup2\n        /* \"#utility.yul\":9177:9183   */\n      dup5\n        /* \"#utility.yul\":9039:9191   */\n      tag_281\n      jump\t// in\n    tag_415:\n        /* \"#utility.yul\":9031:9191   */\n      swap1\n      pop\n        /* \"#utility.yul\":8737:9198   */\n      swap3\n      swap2\n      pop\n      pop\n      jump\t// out\n        /* \"#utility.yul\":9204:9373   */\n    tag_282:\n        /* \"#utility.yul\":9288:9299   */\n      0x00\n        /* \"#utility.yul\":9322:9328   */\n      dup3\n        /* \"#utility.yul\":9317:9320   */\n      dup3\n        /* \"#utility.yul\":9310:9329   */\n      mstore\n        /* \"#utility.yul\":9362:9366   */\n      0x20\n        /* \"#utility.yul\":9357:9360   */\n      dup3\n        /* \"#utility.yul\":9353:9367   */\n      add\n        /* \"#utility.yul\":9338:9367   */\n      swap1\n      pop\n        /* \"#utility.yul\":9204:9373   */\n      swap3\n      swap2\n      pop\n      pop\n      jump\t// out\n        /* \"#utility.yul\":9379:9756   */\n    tag_283:\n        /* \"#utility.yul\":9467:9470   */\n      0x00\n        /* \"#utility.yul\":9495:9534   */\n      tag_418\n        /* \"#utility.yul\":9528:9533   */\n      dup3\n        /* \"#utility.yul\":9495:9534   */\n      tag_262\n      jump\t// in\n    tag_418:\n        /* \"#utility.yul\":9550:9621   */\n      tag_419\n        /* \"#utility.yul\":9614:9620   */\n      dup2\n        /* \"#utility.yul\":9609:9612   */\n      dup6\n        /* \"#utility.yul\":9550:9621   */\n      tag_282\n      jump\t// in\n    tag_419:\n        /* \"#utility.yul\":9543:9621   */\n      swap4\n      pop\n        /* \"#utility.yul\":9630:9695   */\n      tag_420\n        /* \"#utility.yul\":9688:9694   */\n      dup2\n        /* \"#utility.yul\":9683:9686   */\n      dup6\n        /* \"#utility.yul\":9676:9680   */\n      0x20\n        /* \"#utility.yul\":9669:9674   */\n      dup7\n        /* \"#utility.yul\":9665:9681   */\n      add\n        /* \"#utility.yul\":9630:9695   */\n      tag_264\n      jump\t// in\n    tag_420:\n        /* \"#utility.yul\":9720:9749   */\n      tag_421\n        /* \"#utility.yul\":9742:9748   */\n      dup2\n        /* \"#utility.yul\":9720:9749   */\n      tag_265\n      jump\t// in\n    tag_421:\n        /* \"#utility.yul\":9715:9718   */\n      dup5\n        /* \"#utility.yul\":9711:9750   */\n      add\n        /* \"#utility.yul\":9704:9750   */\n      swap2\n      pop\n        /* \"#utility.yul\":9471:9756   */\n      pop\n        /* \"#utility.yul\":9379:9756   */\n      swap3\n      swap2\n      pop\n      pop\n      jump\t// out\n        /* \"#utility.yul\":9762:10075   */\n    tag_31:\n        /* \"#utility.yul\":9875:9879   */\n      0x00\n        /* \"#utility.yul\":9913:9915   */\n      0x20\n        /* \"#utility.yul\":9902:9911   */\n      dup3\n        /* \"#utility.yul\":9898:9916   */\n      add\n        /* \"#utility.yul\":9890:9916   */\n      swap1\n      pop\n        /* \"#utility.yul\":9962:9971   */\n      dup2\n        /* \"#utility.yul\":9956:9960   */\n      dup2\n        /* \"#utility.yul\":9952:9972   */\n      sub\n        /* \"#utility.yul\":9948:9949   */\n      0x00\n        /* \"#utility.yul\":9937:9946   */\n      dup4\n        /* \"#utility.yul\":9933:9950   */\n      add\n        /* \"#utility.yul\":9926:9973   */\n      mstore\n        /* \"#utility.yul\":9990:10068   */\n      tag_423\n        /* \"#utility.yul\":10063:10067   */\n      dup2\n        /* \"#utility.yul\":10054:10060   */\n      dup5\n        /* \"#utility.yul\":9990:10068   */\n      tag_283\n      jump\t// in\n    tag_423:\n        /* \"#utility.yul\":9982:10068   */\n      swap1\n      pop\n        /* \"#utility.yul\":9762:10075   */\n      swap3\n      swap2\n      pop\n      pop\n      jump\t// out\n        /* \"#utility.yul\":10081:10199   */\n    tag_284:\n        /* \"#utility.yul\":10168:10192   */\n      tag_425\n        /* \"#utility.yul\":10186:10191   */\n      dup2\n        /* \"#utility.yul\":10168:10192   */\n      tag_272\n      jump\t// in\n    tag_425:\n        /* \"#utility.yul\":10163:10166   */\n      dup3\n        /* \"#utility.yul\":10156:10193   */\n      mstore\n        /* \"#utility.yul\":10081:10199   */\n      pop\n      pop\n      jump\t// out\n        /* \"#utility.yul\":10205:10427   */\n    tag_35:\n        /* \"#utility.yul\":10298:10302   */\n      0x00\n        /* \"#utility.yul\":10336:10338   */\n      0x20\n        /* \"#utility.yul\":10325:10334   */\n      dup3\n        /* \"#utility.yul\":10321:10339   */\n      add\n        /* \"#utility.yul\":10313:10339   */\n      swap1\n      pop\n        /* \"#utility.yul\":10349:10420   */\n      tag_427\n        /* \"#utility.yul\":10417:10418   */\n      0x00\n        /* \"#utility.yul\":10406:10415   */\n      dup4\n        /* \"#utility.yul\":10402:10419   */\n      add\n        /* \"#utility.yul\":10393:10399   */\n      dup5\n        /* \"#utility.yul\":10349:10420   */\n      tag_284\n      jump\t// in\n    tag_427:\n        /* \"#utility.yul\":10205:10427   */\n      swap3\n      swap2\n      pop\n      pop\n      jump\t// out\n        /* \"#utility.yul\":10433:10550   */\n    tag_285:\n        /* \"#utility.yul\":10542:10543   */\n      0x00\n        /* \"#utility.yul\":10539:10540   */\n      dup1\n        /* \"#utility.yul\":10532:10544   */\n      revert\n        /* \"#utility.yul\":10556:10736   */\n    tag_98:\n        /* \"#utility.yul\":10604:10681   */\n      0x4e487b7100000000000000000000000000000000000000000000000000000000\n        /* \"#utility.yul\":10601:10602   */\n      0x00\n        /* \"#utility.yul\":10594:10682   */\n      mstore\n        /* \"#utility.yul\":10701:10705   */\n      0x41\n        /* \"#utility.yul\":10698:10699   */\n      0x04\n        /* \"#utility.yul\":10691:10706   */\n      mstore\n        /* \"#utility.yul\":10725:10729   */\n      0x24\n        /* \"#utility.yul\":10722:10723   */\n      0x00\n        /* \"#utility.yul\":10715:10730   */\n      revert\n        /* \"#utility.yul\":10742:11023   */\n    tag_286:\n        /* \"#utility.yul\":10825:10852   */\n      tag_431\n        /* \"#utility.yul\":10847:10851   */\n      dup3\n        /* \"#utility.yul\":10825:10852   */\n      tag_265\n      jump\t// in\n    tag_431:\n        /* \"#utility.yul\":10817:10823   */\n      dup2\n        /* \"#utility.yul\":10813:10853   */\n      add\n        /* \"#utility.yul\":10955:10961   */\n      dup2\n        /* \"#utility.yul\":10943:10953   */\n      dup2\n        /* \"#utility.yul\":10940:10962   */\n      lt\n        /* \"#utility.yul\":10919:10937   */\n      0xffffffffffffffff\n        /* \"#utility.yul\":10907:10917   */\n      dup3\n        /* \"#utility.yul\":10904:10938   */\n      gt\n        /* \"#utility.yul\":10901:10963   */\n      or\n        /* \"#utility.yul\":10898:10986   */\n      iszero\n      tag_432\n      jumpi\n        /* \"#utility.yul\":10966:10984   */\n      tag_433\n      tag_98\n      jump\t// in\n    tag_433:\n        /* \"#utility.yul\":10898:10986   */\n    tag_432:\n        /* \"#utility.yul\":11006:11016   */\n      dup1\n        /* \"#utility.yul\":11002:11004   */\n      0x40\n        /* \"#utility.yul\":10995:11017   */\n      mstore\n        /* \"#utility.yul\":10785:11023   */\n      pop\n        /* \"#utility.yul\":10742:11023   */\n      pop\n      pop\n      jump\t// out\n        /* \"#utility.yul\":11029:11158   */\n    tag_287:\n        /* \"#utility.yul\":11063:11069   */\n      0x00\n        /* \"#utility.yul\":11090:11110   */\n      tag_435\n      tag_255\n      jump\t// in\n    tag_435:\n        /* \"#utility.yul\":11080:11110   */\n      swap1\n      pop\n        /* \"#utility.yul\":11119:11152   */\n      tag_436\n        /* \"#utility.yul\":11147:11151   */\n      dup3\n        /* \"#utility.yul\":11139:11145   */\n      dup3\n        /* \"#utility.yul\":11119:11152   */\n      tag_286\n      jump\t// in\n    tag_436:\n        /* \"#utility.yul\":11029:11158   */\n      swap2\n      swap1\n      pop\n      jump\t// out\n        /* \"#utility.yul\":11164:11281   */\n    tag_288:\n        /* \"#utility.yul\":11273:11274   */\n      0x00\n        /* \"#utility.yul\":11270:11271   */\n      dup1\n        /* \"#utility.yul\":11263:11275   */\n      revert\n        /* \"#utility.yul\":11287:11404   */\n    tag_289:\n        /* \"#utility.yul\":11396:11397   */\n      0x00\n        /* \"#utility.yul\":11393:11394   */\n      dup1\n        /* \"#utility.yul\":11386:11398   */\n      revert\n        /* \"#utility.yul\":11410:11718   */\n    tag_290:\n        /* \"#utility.yul\":11472:11476   */\n      0x00\n        /* \"#utility.yul\":11562:11580   */\n      0xffffffffffffffff\n        /* \"#utility.yul\":11554:11560   */\n      dup3\n        /* \"#utility.yul\":11551:11581   */\n      gt\n        /* \"#utility.yul\":11548:11604   */\n      iszero\n      tag_440\n      jumpi\n        /* \"#utility.yul\":11584:11602   */\n      tag_441\n      tag_98\n      jump\t// in\n    tag_441:\n        /* \"#utility.yul\":11548:11604   */\n    tag_440:\n        /* \"#utility.yul\":11622:11651   */\n      tag_442\n        /* \"#utility.yul\":11644:11650   */\n      dup3\n        /* \"#utility.yul\":11622:11651   */\n      tag_265\n      jump\t// in\n    tag_442:\n        /* \"#utility.yul\":11614:11651   */\n      swap1\n      pop\n        /* \"#utility.yul\":11706:11710   */\n      0x20\n        /* \"#utility.yul\":11700:11704   */\n      dup2\n        /* \"#utility.yul\":11696:11711   */\n      add\n        /* \"#utility.yul\":11688:11711   */\n      swap1\n      pop\n        /* \"#utility.yul\":11410:11718   */\n      swap2\n      swap1\n      pop\n      jump\t// out\n        /* \"#utility.yul\":11724:11870   */\n    tag_291:\n        /* \"#utility.yul\":11821:11827   */\n      dup3\n        /* \"#utility.yul\":11816:11819   */\n      dup2\n        /* \"#utility.yul\":11811:11814   */\n      dup4\n        /* \"#utility.yul\":11798:11828   */\n      calldatacopy\n        /* \"#utility.yul\":11862:11863   */\n      0x00\n        /* \"#utility.yul\":11853:11859   */\n      dup4\n        /* \"#utility.yul\":11848:11851   */\n      dup4\n        /* \"#utility.yul\":11844:11860   */\n      add\n        /* \"#utility.yul\":11837:11864   */\n      mstore\n        /* \"#utility.yul\":11724:11870   */\n      pop\n      pop\n      pop\n      jump\t// out\n        /* \"#utility.yul\":11876:12301   */\n    tag_292:\n        /* \"#utility.yul\":11954:11959   */\n      0x00\n        /* \"#utility.yul\":11979:12045   */\n      tag_445\n        /* \"#utility.yul\":11995:12044   */\n      tag_446\n        /* \"#utility.yul\":12037:12043   */\n      dup5\n        /* \"#utility.yul\":11995:12044   */\n      tag_290\n      jump\t// in\n    tag_446:\n        /* \"#utility.yul\":11979:12045   */\n      tag_287\n      jump\t// in\n    tag_445:\n        /* \"#utility.yul\":11970:12045   */\n      swap1\n      pop\n        /* \"#utility.yul\":12068:12074   */\n      dup3\n        /* \"#utility.yul\":12061:12066   */\n      dup2\n        /* \"#utility.yul\":12054:12075   */\n      mstore\n        /* \"#utility.yul\":12106:12110   */\n      0x20\n        /* \"#utility.yul\":12099:12104   */\n      dup2\n        /* \"#utility.yul\":12095:12111   */\n      add\n        /* \"#utility.yul\":12144:12147   */\n      dup5\n        /* \"#utility.yul\":12135:12141   */\n      dup5\n        /* \"#utility.yul\":12130:12133   */\n      dup5\n        /* \"#utility.yul\":12126:12142   */\n      add\n        /* \"#utility.yul\":12123:12148   */\n      gt\n        /* \"#utility.yul\":12120:12232   */\n      iszero\n      tag_447\n      jumpi\n        /* \"#utility.yul\":12151:12230   */\n      tag_448\n      tag_289\n      jump\t// in\n    tag_448:\n        /* \"#utility.yul\":12120:12232   */\n    tag_447:\n        /* \"#utility.yul\":12241:12295   */\n      tag_449\n        /* \"#utility.yul\":12288:12294   */\n      dup5\n        /* \"#utility.yul\":12283:12286   */\n      dup3\n        /* \"#utility.yul\":12278:12281   */\n      dup6\n        /* \"#utility.yul\":12241:12295   */\n      tag_291\n      jump\t// in\n    tag_449:\n        /* \"#utility.yul\":11960:12301   */\n      pop\n        /* \"#utility.yul\":11876:12301   */\n      swap4\n      swap3\n      pop\n      pop\n      pop\n      jump\t// out\n        /* \"#utility.yul\":12321:12661   */\n    tag_293:\n        /* \"#utility.yul\":12377:12382   */\n      0x00\n        /* \"#utility.yul\":12426:12429   */\n      dup3\n        /* \"#utility.yul\":12419:12423   */\n      0x1f\n        /* \"#utility.yul\":12411:12417   */\n      dup4\n        /* \"#utility.yul\":12407:12424   */\n      add\n        /* \"#utility.yul\":12403:12430   */\n      slt\n        /* \"#utility.yul\":12393:12515   */\n      tag_451\n      jumpi\n        /* \"#utility.yul\":12434:12513   */\n      tag_452\n      tag_258\n      jump\t// in\n    tag_452:\n        /* \"#utility.yul\":12393:12515   */\n    tag_451:\n        /* \"#utility.yul\":12551:12557   */\n      dup2\n        /* \"#utility.yul\":12538:12558   */\n      calldataload\n        /* \"#utility.yul\":12576:12655   */\n      tag_453\n        /* \"#utility.yul\":12651:12654   */\n      dup5\n        /* \"#utility.yul\":12643:12649   */\n      dup3\n        /* \"#utility.yul\":12636:12640   */\n      0x20\n        /* \"#utility.yul\":12628:12634   */\n      dup7\n        /* \"#utility.yul\":12624:12641   */\n      add\n        /* \"#utility.yul\":12576:12655   */\n      tag_292\n      jump\t// in\n    tag_453:\n        /* \"#utility.yul\":12567:12655   */\n      swap2\n      pop\n        /* \"#utility.yul\":12383:12661   */\n      pop\n        /* \"#utility.yul\":12321:12661   */\n      swap3\n      swap2\n      pop\n      pop\n      jump\t// out\n        /* \"#utility.yul\":12667:12789   */\n    tag_294:\n        /* \"#utility.yul\":12740:12764   */\n      tag_455\n        /* \"#utility.yul\":12758:12763   */\n      dup2\n        /* \"#utility.yul\":12740:12764   */\n      tag_268\n      jump\t// in\n    tag_455:\n        /* \"#utility.yul\":12733:12738   */\n      dup2\n        /* \"#utility.yul\":12730:12765   */\n      eq\n        /* \"#utility.yul\":12720:12783   */\n      tag_456\n      jumpi\n        /* \"#utility.yul\":12779:12780   */\n      0x00\n        /* \"#utility.yul\":12776:12777   */\n      dup1\n        /* \"#utility.yul\":12769:12781   */\n      revert\n        /* \"#utility.yul\":12720:12783   */\n    tag_456:\n        /* \"#utility.yul\":12667:12789   */\n      pop\n      jump\t// out\n        /* \"#utility.yul\":12795:12934   */\n    tag_295:\n        /* \"#utility.yul\":12841:12846   */\n      0x00\n        /* \"#utility.yul\":12879:12885   */\n      dup2\n        /* \"#utility.yul\":12866:12886   */\n      calldataload\n        /* \"#utility.yul\":12857:12886   */\n      swap1\n      pop\n        /* \"#utility.yul\":12895:12928   */\n      tag_458\n        /* \"#utility.yul\":12922:12927   */\n      dup2\n        /* \"#utility.yul\":12895:12928   */\n      tag_294\n      jump\t// in\n    tag_458:\n        /* \"#utility.yul\":12795:12934   */\n      swap3\n      swap2\n      pop\n      pop\n      jump\t// out\n        /* \"#utility.yul\":12960:14037   */\n    tag_296:\n        /* \"#utility.yul\":13029:13034   */\n      0x00\n        /* \"#utility.yul\":13073:13077   */\n      0x60\n        /* \"#utility.yul\":13061:13070   */\n      dup3\n        /* \"#utility.yul\":13056:13059   */\n      dup5\n        /* \"#utility.yul\":13052:13071   */\n      sub\n        /* \"#utility.yul\":13048:13078   */\n      slt\n        /* \"#utility.yul\":13045:13162   */\n      iszero\n      tag_460\n      jumpi\n        /* \"#utility.yul\":13081:13160   */\n      tag_461\n      tag_285\n      jump\t// in\n    tag_461:\n        /* \"#utility.yul\":13045:13162   */\n    tag_460:\n        /* \"#utility.yul\":13180:13201   */\n      tag_462\n        /* \"#utility.yul\":13196:13200   */\n      0x60\n        /* \"#utility.yul\":13180:13201   */\n      tag_287\n      jump\t// in\n    tag_462:\n        /* \"#utility.yul\":13171:13201   */\n      swap1\n      pop\n        /* \"#utility.yul\":13288:13289   */\n      0x00\n        /* \"#utility.yul\":13277:13286   */\n      dup3\n        /* \"#utility.yul\":13273:13290   */\n      add\n        /* \"#utility.yul\":13260:13291   */\n      calldataload\n        /* \"#utility.yul\":13318:13336   */\n      0xffffffffffffffff\n        /* \"#utility.yul\":13310:13316   */\n      dup2\n        /* \"#utility.yul\":13307:13337   */\n      gt\n        /* \"#utility.yul\":13304:13421   */\n      iszero\n      tag_463\n      jumpi\n        /* \"#utility.yul\":13340:13419   */\n      tag_464\n      tag_288\n      jump\t// in\n    tag_464:\n        /* \"#utility.yul\":13304:13421   */\n    tag_463:\n        /* \"#utility.yul\":13460:13519   */\n      tag_465\n        /* \"#utility.yul\":13515:13518   */\n      dup5\n        /* \"#utility.yul\":13506:13512   */\n      dup3\n        /* \"#utility.yul\":13495:13504   */\n      dup6\n        /* \"#utility.yul\":13491:13513   */\n      add\n        /* \"#utility.yul\":13460:13519   */\n      tag_293\n      jump\t// in\n    tag_465:\n        /* \"#utility.yul\":13453:13457   */\n      0x00\n        /* \"#utility.yul\":13446:13451   */\n      dup4\n        /* \"#utility.yul\":13442:13458   */\n      add\n        /* \"#utility.yul\":13435:13520   */\n      mstore\n        /* \"#utility.yul\":13211:13531   */\n      pop\n        /* \"#utility.yul\":13619:13621   */\n      0x20\n        /* \"#utility.yul\":13608:13617   */\n      dup3\n        /* \"#utility.yul\":13604:13622   */\n      add\n        /* \"#utility.yul\":13591:13623   */\n      calldataload\n        /* \"#utility.yul\":13650:13668   */\n      0xffffffffffffffff\n        /* \"#utility.yul\":13642:13648   */\n      dup2\n        /* \"#utility.yul\":13639:13669   */\n      gt\n        /* \"#utility.yul\":13636:13753   */\n      iszero\n      tag_466\n      jumpi\n        /* \"#utility.yul\":13672:13751   */\n      tag_467\n      tag_288\n      jump\t// in\n    tag_467:\n        /* \"#utility.yul\":13636:13753   */\n    tag_466:\n        /* \"#utility.yul\":13792:13851   */\n      tag_468\n        /* \"#utility.yul\":13847:13850   */\n      dup5\n        /* \"#utility.yul\":13838:13844   */\n      dup3\n        /* \"#utility.yul\":13827:13836   */\n      dup6\n        /* \"#utility.yul\":13823:13845   */\n      add\n        /* \"#utility.yul\":13792:13851   */\n      tag_293\n      jump\t// in\n    tag_468:\n        /* \"#utility.yul\":13785:13789   */\n      0x20\n        /* \"#utility.yul\":13778:13783   */\n      dup4\n        /* \"#utility.yul\":13774:13790   */\n      add\n        /* \"#utility.yul\":13767:13852   */\n      mstore\n        /* \"#utility.yul\":13541:13863   */\n      pop\n        /* \"#utility.yul\":13928:13930   */\n      0x40\n        /* \"#utility.yul\":13969:14018   */\n      tag_469\n        /* \"#utility.yul\":14014:14017   */\n      dup5\n        /* \"#utility.yul\":14005:14011   */\n      dup3\n        /* \"#utility.yul\":13994:14003   */\n      dup6\n        /* \"#utility.yul\":13990:14012   */\n      add\n        /* \"#utility.yul\":13969:14018   */\n      tag_295\n      jump\t// in\n    tag_469:\n        /* \"#utility.yul\":13962:13966   */\n      0x40\n        /* \"#utility.yul\":13955:13960   */\n      dup4\n        /* \"#utility.yul\":13951:13967   */\n      add\n        /* \"#utility.yul\":13944:14019   */\n      mstore\n        /* \"#utility.yul\":13873:14030   */\n      pop\n        /* \"#utility.yul\":12960:14037   */\n      swap3\n      swap2\n      pop\n      pop\n      jump\t// out\n        /* \"#utility.yul\":14043:14917   */\n    tag_41:\n        /* \"#utility.yul\":14143:14149   */\n      0x00\n        /* \"#utility.yul\":14151:14157   */\n      dup1\n        /* \"#utility.yul\":14159:14165   */\n      0x00\n        /* \"#utility.yul\":14208:14210   */\n      0x40\n        /* \"#utility.yul\":14196:14205   */\n      dup5\n        /* \"#utility.yul\":14187:14194   */\n      dup7\n        /* \"#utility.yul\":14183:14206   */\n      sub\n        /* \"#utility.yul\":14179:14211   */\n      slt\n        /* \"#utility.yul\":14176:14295   */\n      iszero\n      tag_471\n      jumpi\n        /* \"#utility.yul\":14214:14293   */\n      tag_472\n      tag_256\n      jump\t// in\n    tag_472:\n        /* \"#utility.yul\":14176:14295   */\n    tag_471:\n        /* \"#utility.yul\":14362:14363   */\n      0x00\n        /* \"#utility.yul\":14351:14360   */\n      dup5\n        /* \"#utility.yul\":14347:14364   */\n      add\n        /* \"#utility.yul\":14334:14365   */\n      calldataload\n        /* \"#utility.yul\":14392:14410   */\n      0xffffffffffffffff\n        /* \"#utility.yul\":14384:14390   */\n      dup2\n        /* \"#utility.yul\":14381:14411   */\n      gt\n        /* \"#utility.yul\":14378:14495   */\n      iszero\n      tag_473\n      jumpi\n        /* \"#utility.yul\":14414:14493   */\n      tag_474\n      tag_257\n      jump\t// in\n    tag_474:\n        /* \"#utility.yul\":14378:14495   */\n    tag_473:\n        /* \"#utility.yul\":14527:14592   */\n      tag_475\n        /* \"#utility.yul\":14584:14591   */\n      dup7\n        /* \"#utility.yul\":14575:14581   */\n      dup3\n        /* \"#utility.yul\":14564:14573   */\n      dup8\n        /* \"#utility.yul\":14560:14582   */\n      add\n        /* \"#utility.yul\":14527:14592   */\n      tag_261\n      jump\t// in\n    tag_475:\n        /* \"#utility.yul\":14509:14592   */\n      swap4\n      pop\n      swap4\n      pop\n        /* \"#utility.yul\":14305:14602   */\n      pop\n        /* \"#utility.yul\":14669:14671   */\n      0x20\n        /* \"#utility.yul\":14658:14667   */\n      dup5\n        /* \"#utility.yul\":14654:14672   */\n      add\n        /* \"#utility.yul\":14641:14673   */\n      calldataload\n        /* \"#utility.yul\":14700:14718   */\n      0xffffffffffffffff\n        /* \"#utility.yul\":14692:14698   */\n      dup2\n        /* \"#utility.yul\":14689:14719   */\n      gt\n        /* \"#utility.yul\":14686:14803   */\n      iszero\n      tag_476\n      jumpi\n        /* \"#utility.yul\":14722:14801   */\n      tag_477\n      tag_257\n      jump\t// in\n    tag_477:\n        /* \"#utility.yul\":14686:14803   */\n    tag_476:\n        /* \"#utility.yul\":14827:14900   */\n      tag_478\n        /* \"#utility.yul\":14892:14899   */\n      dup7\n        /* \"#utility.yul\":14883:14889   */\n      dup3\n        /* \"#utility.yul\":14872:14881   */\n      dup8\n        /* \"#utility.yul\":14868:14890   */\n      add\n        /* \"#utility.yul\":14827:14900   */\n      tag_296\n      jump\t// in\n    tag_478:\n        /* \"#utility.yul\":14817:14900   */\n      swap2\n      pop\n        /* \"#utility.yul\":14612:14910   */\n      pop\n        /* \"#utility.yul\":14043:14917   */\n      swap3\n      pop\n      swap3\n      pop\n      swap3\n      jump\t// out\n        /* \"#utility.yul\":14923:15041   */\n    tag_297:\n        /* \"#utility.yul\":15010:15034   */\n      tag_480\n        /* \"#utility.yul\":15028:15033   */\n      dup2\n        /* \"#utility.yul\":15010:15034   */\n      tag_268\n      jump\t// in\n    tag_480:\n        /* \"#utility.yul\":15005:15008   */\n      dup3\n        /* \"#utility.yul\":14998:15035   */\n      mstore\n        /* \"#utility.yul\":14923:15041   */\n      pop\n      pop\n      jump\t// out\n        /* \"#utility.yul\":15047:15269   */\n    tag_46:\n        /* \"#utility.yul\":15140:15144   */\n      0x00\n        /* \"#utility.yul\":15178:15180   */\n      0x20\n        /* \"#utility.yul\":15167:15176   */\n      dup3\n        /* \"#utility.yul\":15163:15181   */\n      add\n        /* \"#utility.yul\":15155:15181   */\n      swap1\n      pop\n        /* \"#utility.yul\":15191:15262   */\n      tag_482\n        /* \"#utility.yul\":15259:15260   */\n      0x00\n        /* \"#utility.yul\":15248:15257   */\n      dup4\n        /* \"#utility.yul\":15244:15261   */\n      add\n        /* \"#utility.yul\":15235:15241   */\n      dup5\n        /* \"#utility.yul\":15191:15262   */\n      tag_297\n      jump\t// in\n    tag_482:\n        /* \"#utility.yul\":15047:15269   */\n      swap3\n      swap2\n      pop\n      pop\n      jump\t// out\n        /* \"#utility.yul\":15275:15365   */\n    tag_298:\n        /* \"#utility.yul\":15309:15316   */\n      0x00\n        /* \"#utility.yul\":15352:15357   */\n      dup2\n        /* \"#utility.yul\":15345:15358   */\n      iszero\n        /* \"#utility.yul\":15338:15359   */\n      iszero\n        /* \"#utility.yul\":15327:15359   */\n      swap1\n      pop\n        /* \"#utility.yul\":15275:15365   */\n      swap2\n      swap1\n      pop\n      jump\t// out\n        /* \"#utility.yul\":15371:15480   */\n    tag_299:\n        /* \"#utility.yul\":15452:15473   */\n      tag_485\n        /* \"#utility.yul\":15467:15472   */\n      dup2\n        /* \"#utility.yul\":15452:15473   */\n      tag_298\n      jump\t// in\n    tag_485:\n        /* \"#utility.yul\":15447:15450   */\n      dup3\n        /* \"#utility.yul\":15440:15474   */\n      mstore\n        /* \"#utility.yul\":15371:15480   */\n      pop\n      pop\n      jump\t// out\n        /* \"#utility.yul\":15486:15696   */\n    tag_57:\n        /* \"#utility.yul\":15573:15577   */\n      0x00\n        /* \"#utility.yul\":15611:15613   */\n      0x20\n        /* \"#utility.yul\":15600:15609   */\n      dup3\n        /* \"#utility.yul\":15596:15614   */\n      add\n        /* \"#utility.yul\":15588:15614   */\n      swap1\n      pop\n        /* \"#utility.yul\":15624:15689   */\n      tag_487\n        /* \"#utility.yul\":15686:15687   */\n      0x00\n        /* \"#utility.yul\":15675:15684   */\n      dup4\n        /* \"#utility.yul\":15671:15688   */\n      add\n        /* \"#utility.yul\":15662:15668   */\n      dup5\n        /* \"#utility.yul\":15624:15689   */\n      tag_299\n      jump\t// in\n    tag_487:\n        /* \"#utility.yul\":15486:15696   */\n      swap3\n      swap2\n      pop\n      pop\n      jump\t// out\n        /* \"#utility.yul\":15702:15850   */\n    tag_300:\n        /* \"#utility.yul\":15804:15815   */\n      0x00\n        /* \"#utility.yul\":15841:15844   */\n      dup2\n        /* \"#utility.yul\":15826:15844   */\n      swap1\n      pop\n        /* \"#utility.yul\":15702:15850   */\n      swap3\n      swap2\n      pop\n      pop\n      jump\t// out\n        /* \"#utility.yul\":15880:16210   */\n    tag_301:\n        /* \"#utility.yul\":15996:15999   */\n      0x00\n        /* \"#utility.yul\":16017:16106   */\n      tag_490\n        /* \"#utility.yul\":16099:16105   */\n      dup4\n        /* \"#utility.yul\":16094:16097   */\n      dup6\n        /* \"#utility.yul\":16017:16106   */\n      tag_300\n      jump\t// in\n    tag_490:\n        /* \"#utility.yul\":16010:16106   */\n      swap4\n      pop\n        /* \"#utility.yul\":16116:16172   */\n      tag_491\n        /* \"#utility.yul\":16165:16171   */\n      dup4\n        /* \"#utility.yul\":16160:16163   */\n      dup6\n        /* \"#utility.yul\":16153:16158   */\n      dup5\n        /* \"#utility.yul\":16116:16172   */\n      tag_291\n      jump\t// in\n    tag_491:\n        /* \"#utility.yul\":16197:16203   */\n      dup3\n        /* \"#utility.yul\":16192:16195   */\n      dup5\n        /* \"#utility.yul\":16188:16204   */\n      add\n        /* \"#utility.yul\":16181:16204   */\n      swap1\n      pop\n        /* \"#utility.yul\":15880:16210   */\n      swap4\n      swap3\n      pop\n      pop\n      pop\n      jump\t// out\n        /* \"#utility.yul\":16216:16511   */\n    tag_72:\n        /* \"#utility.yul\":16358:16361   */\n      0x00\n        /* \"#utility.yul\":16380:16485   */\n      tag_493\n        /* \"#utility.yul\":16481:16484   */\n      dup3\n        /* \"#utility.yul\":16472:16478   */\n      dup5\n        /* \"#utility.yul\":16464:16470   */\n      dup7\n        /* \"#utility.yul\":16380:16485   */\n      tag_301\n      jump\t// in\n    tag_493:\n        /* \"#utility.yul\":16373:16485   */\n      swap2\n      pop\n        /* \"#utility.yul\":16502:16505   */\n      dup2\n        /* \"#utility.yul\":16495:16505   */\n      swap1\n      pop\n        /* \"#utility.yul\":16216:16511   */\n      swap4\n      swap3\n      pop\n      pop\n      pop\n      jump\t// out\n        /* \"#utility.yul\":16517:16697   */\n    tag_302:\n        /* \"#utility.yul\":16565:16642   */\n      0x4e487b7100000000000000000000000000000000000000000000000000000000\n        /* \"#utility.yul\":16562:16563   */\n      0x00\n        /* \"#utility.yul\":16555:16643   */\n      mstore\n        /* \"#utility.yul\":16662:16666   */\n      0x22\n        /* \"#utility.yul\":16659:16660   */\n      0x04\n        /* \"#utility.yul\":16652:16667   */\n      mstore\n        /* \"#utility.yul\":16686:16690   */\n      0x24\n        /* \"#utility.yul\":16683:16684   */\n      0x00\n        /* \"#utility.yul\":16676:16691   */\n      revert\n        /* \"#utility.yul\":16703:17023   */\n    tag_74:\n        /* \"#utility.yul\":16747:16753   */\n      0x00\n        /* \"#utility.yul\":16784:16785   */\n      0x02\n        /* \"#utility.yul\":16778:16782   */\n      dup3\n        /* \"#utility.yul\":16774:16786   */\n      div\n        /* \"#utility.yul\":16764:16786   */\n      swap1\n      pop\n        /* \"#utility.yul\":16831:16832   */\n      0x01\n        /* \"#utility.yul\":16825:16829   */\n      dup3\n        /* \"#utility.yul\":16821:16833   */\n      and\n        /* \"#utility.yul\":16852:16870   */\n      dup1\n        /* \"#utility.yul\":16842:16923   */\n      tag_496\n      jumpi\n        /* \"#utility.yul\":16908:16912   */\n      0x7f\n        /* \"#utility.yul\":16900:16906   */\n      dup3\n        /* \"#utility.yul\":16896:16913   */\n      and\n        /* \"#utility.yul\":16886:16913   */\n      swap2\n      pop\n        /* \"#utility.yul\":16842:16923   */\n    tag_496:\n        /* \"#utility.yul\":16970:16972   */\n      0x20\n        /* \"#utility.yul\":16962:16968   */\n      dup3\n        /* \"#utility.yul\":16959:16973   */\n      lt\n        /* \"#utility.yul\":16939:16957   */\n      dup2\n        /* \"#utility.yul\":16936:16974   */\n      sub\n        /* \"#utility.yul\":16933:17017   */\n      tag_497\n      jumpi\n        /* \"#utility.yul\":16989:17007   */\n      tag_498\n      tag_302\n      jump\t// in\n    tag_498:\n        /* \"#utility.yul\":16933:17017   */\n    tag_497:\n        /* \"#utility.yul\":16754:17023   */\n      pop\n        /* \"#utility.yul\":16703:17023   */\n      swap2\n      swap1\n      pop\n      jump\t// out\n        /* \"#utility.yul\":17029:17197   */\n    tag_303:\n        /* \"#utility.yul\":17169:17189   */\n      0x696e646578206f7574206f662072616e67650000000000000000000000000000\n        /* \"#utility.yul\":17165:17166   */\n      0x00\n        /* \"#utility.yul\":17157:17163   */\n      dup3\n        /* \"#utility.yul\":17153:17167   */\n      add\n        /* \"#utility.yul\":17146:17190   */\n      mstore\n        /* \"#utility.yul\":17029:17197   */\n      pop\n      jump\t// out\n        /* \"#utility.yul\":17203:17569   */\n    tag_304:\n        /* \"#utility.yul\":17345:17348   */\n      0x00\n        /* \"#utility.yul\":17366:17433   */\n      tag_501\n        /* \"#utility.yul\":17430:17432   */\n      0x12\n        /* \"#utility.yul\":17425:17428   */\n      dup4\n        /* \"#utility.yul\":17366:17433   */\n      tag_282\n      jump\t// in\n    tag_501:\n        /* \"#utility.yul\":17359:17433   */\n      swap2\n      pop\n        /* \"#utility.yul\":17442:17535   */\n      tag_502\n        /* \"#utility.yul\":17531:17534   */\n      dup3\n        /* \"#utility.yul\":17442:17535   */\n      tag_303\n      jump\t// in\n    tag_502:\n        /* \"#utility.yul\":17560:17562   */\n      0x20\n        /* \"#utility.yul\":17555:17558   */\n      dup3\n        /* \"#utility.yul\":17551:17563   */\n      add\n        /* \"#utility.yul\":17544:17563   */\n      swap1\n      pop\n        /* \"#utility.yul\":17203:17569   */\n      swap2\n      swap1\n      pop\n      jump\t// out\n        /* \"#utility.yul\":17575:17994   */\n    tag_92:\n        /* \"#utility.yul\":17741:17745   */\n      0x00\n        /* \"#utility.yul\":17779:17781   */\n      0x20\n        /* \"#utility.yul\":17768:17777   */\n      dup3\n        /* \"#utility.yul\":17764:17782   */\n      add\n        /* \"#utility.yul\":17756:17782   */\n      swap1\n      pop\n        /* \"#utility.yul\":17828:17837   */\n      dup2\n        /* \"#utility.yul\":17822:17826   */\n      dup2\n        /* \"#utility.yul\":17818:17838   */\n      sub\n        /* \"#utility.yul\":17814:17815   */\n      0x00\n        /* \"#utility.yul\":17803:17812   */\n      dup4\n        /* \"#utility.yul\":17799:17816   */\n      add\n        /* \"#utility.yul\":17792:17839   */\n      mstore\n        /* \"#utility.yul\":17856:17987   */\n      tag_504\n        /* \"#utility.yul\":17982:17986   */\n      dup2\n        /* \"#utility.yul\":17856:17987   */\n      tag_304\n      jump\t// in\n    tag_504:\n        /* \"#utility.yul\":17848:17987   */\n      swap1\n      pop\n        /* \"#utility.yul\":17575:17994   */\n      swap2\n      swap1\n      pop\n      jump\t// out\n        /* \"#utility.yul\":18000:18180   */\n    tag_305:\n        /* \"#utility.yul\":18048:18125   */\n      0x4e487b7100000000000000000000000000000000000000000000000000000000\n        /* \"#utility.yul\":18045:18046   */\n      0x00\n        /* \"#utility.yul\":18038:18126   */\n      mstore\n        /* \"#utility.yul\":18145:18149   */\n      0x11\n        /* \"#utility.yul\":18142:18143   */\n      0x04\n        /* \"#utility.yul\":18135:18150   */\n      mstore\n        /* \"#utility.yul\":18169:18173   */\n      0x24\n        /* \"#utility.yul\":18166:18167   */\n      0x00\n        /* \"#utility.yul\":18159:18174   */\n      revert\n        /* \"#utility.yul\":18186:18380   */\n    tag_95:\n        /* \"#utility.yul\":18226:18230   */\n      0x00\n        /* \"#utility.yul\":18246:18266   */\n      tag_507\n        /* \"#utility.yul\":18264:18265   */\n      dup3\n        /* \"#utility.yul\":18246:18266   */\n      tag_272\n      jump\t// in\n    tag_507:\n        /* \"#utility.yul\":18241:18266   */\n      swap2\n      pop\n        /* \"#utility.yul\":18280:18300   */\n      tag_508\n        /* \"#utility.yul\":18298:18299   */\n      dup4\n        /* \"#utility.yul\":18280:18300   */\n      tag_272\n      jump\t// in\n    tag_508:\n        /* \"#utility.yul\":18275:18300   */\n      swap3\n      pop\n        /* \"#utility.yul\":18324:18325   */\n      dup3\n        /* \"#utility.yul\":18321:18322   */\n      dup3\n        /* \"#utility.yul\":18317:18326   */\n      sub\n        /* \"#utility.yul\":18309:18326   */\n      swap1\n      pop\n        /* \"#utility.yul\":18348:18349   */\n      dup2\n        /* \"#utility.yul\":18342:18346   */\n      dup2\n        /* \"#utility.yul\":18339:18350   */\n      gt\n        /* \"#utility.yul\":18336:18373   */\n      iszero\n      tag_509\n      jumpi\n        /* \"#utility.yul\":18353:18371   */\n      tag_510\n      tag_305\n      jump\t// in\n    tag_510:\n        /* \"#utility.yul\":18336:18373   */\n    tag_509:\n        /* \"#utility.yul\":18186:18380   */\n      swap3\n      swap2\n      pop\n      pop\n      jump\t// out\n        /* \"#utility.yul\":18386:18566   */\n    tag_107:\n        /* \"#utility.yul\":18434:18511   */\n      0x4e487b7100000000000000000000000000000000000000000000000000000000\n        /* \"#utility.yul\":18431:18432   */\n      0x00\n        /* \"#utility.yul\":18424:18512   */\n      mstore\n        /* \"#utility.yul\":18531:18535   */\n      0x32\n        /* \"#utility.yul\":18528:18529   */\n      0x04\n        /* \"#utility.yul\":18521:18536   */\n      mstore\n        /* \"#utility.yul\":18555:18559   */\n      0x24\n        /* \"#utility.yul\":18552:18553   */\n      0x00\n        /* \"#utility.yul\":18545:18560   */\n      revert\n        /* \"#utility.yul\":18572:18713   */\n    tag_306:\n        /* \"#utility.yul\":18621:18625   */\n      0x00\n        /* \"#utility.yul\":18644:18647   */\n      dup2\n        /* \"#utility.yul\":18636:18647   */\n      swap1\n      pop\n        /* \"#utility.yul\":18667:18670   */\n      dup2\n        /* \"#utility.yul\":18664:18665   */\n      0x00\n        /* \"#utility.yul\":18657:18671   */\n      mstore\n        /* \"#utility.yul\":18701:18705   */\n      0x20\n        /* \"#utility.yul\":18698:18699   */\n      0x00\n        /* \"#utility.yul\":18688:18706   */\n      keccak256\n        /* \"#utility.yul\":18680:18706   */\n      swap1\n      pop\n        /* \"#utility.yul\":18572:18713   */\n      swap2\n      swap1\n      pop\n      jump\t// out\n        /* \"#utility.yul\":18743:19617   */\n    tag_307:\n        /* \"#utility.yul\":18846:18849   */\n      0x00\n        /* \"#utility.yul\":18883:18888   */\n      dup2\n        /* \"#utility.yul\":18877:18889   */\n      sload\n        /* \"#utility.yul\":18912:18948   */\n      tag_514\n        /* \"#utility.yul\":18938:18947   */\n      dup2\n        /* \"#utility.yul\":18912:18948   */\n      tag_74\n      jump\t// in\n    tag_514:\n        /* \"#utility.yul\":18964:19053   */\n      tag_515\n        /* \"#utility.yul\":19046:19052   */\n      dup2\n        /* \"#utility.yul\":19041:19044   */\n      dup7\n        /* \"#utility.yul\":18964:19053   */\n      tag_300\n      jump\t// in\n    tag_515:\n        /* \"#utility.yul\":18957:19053   */\n      swap5\n      pop\n        /* \"#utility.yul\":19084:19085   */\n      0x01\n        /* \"#utility.yul\":19073:19082   */\n      dup3\n        /* \"#utility.yul\":19069:19086   */\n      and\n        /* \"#utility.yul\":19100:19101   */\n      0x00\n        /* \"#utility.yul\":19095:19261   */\n      dup2\n      eq\n      tag_517\n      jumpi\n        /* \"#utility.yul\":19275:19276   */\n      0x01\n        /* \"#utility.yul\":19270:19611   */\n      dup2\n      eq\n      tag_518\n      jumpi\n        /* \"#utility.yul\":19062:19611   */\n      jump(tag_516)\n        /* \"#utility.yul\":19095:19261   */\n    tag_517:\n        /* \"#utility.yul\":19179:19183   */\n      0xff\n        /* \"#utility.yul\":19175:19184   */\n      not\n        /* \"#utility.yul\":19164:19173   */\n      dup4\n        /* \"#utility.yul\":19160:19185   */\n      and\n        /* \"#utility.yul\":19155:19158   */\n      dup7\n        /* \"#utility.yul\":19148:19186   */\n      mstore\n        /* \"#utility.yul\":19241:19247   */\n      dup2\n        /* \"#utility.yul\":19234:19248   */\n      iszero\n        /* \"#utility.yul\":19227:19249   */\n      iszero\n        /* \"#utility.yul\":19219:19225   */\n      dup3\n        /* \"#utility.yul\":19215:19250   */\n      mul\n        /* \"#utility.yul\":19210:19213   */\n      dup7\n        /* \"#utility.yul\":19206:19251   */\n      add\n        /* \"#utility.yul\":19199:19251   */\n      swap4\n      pop\n        /* \"#utility.yul\":19095:19261   */\n      jump(tag_516)\n        /* \"#utility.yul\":19270:19611   */\n    tag_518:\n        /* \"#utility.yul\":19337:19375   */\n      tag_519\n        /* \"#utility.yul\":19369:19374   */\n      dup6\n        /* \"#utility.yul\":19337:19375   */\n      tag_306\n      jump\t// in\n    tag_519:\n        /* \"#utility.yul\":19397:19398   */\n      0x00\n        /* \"#utility.yul\":19411:19565   */\n    tag_520:\n        /* \"#utility.yul\":19425:19431   */\n      dup4\n        /* \"#utility.yul\":19422:19423   */\n      dup2\n        /* \"#utility.yul\":19419:19432   */\n      lt\n        /* \"#utility.yul\":19411:19565   */\n      iszero\n      tag_522\n      jumpi\n        /* \"#utility.yul\":19499:19506   */\n      dup2\n        /* \"#utility.yul\":19493:19507   */\n      sload\n        /* \"#utility.yul\":19489:19490   */\n      dup2\n        /* \"#utility.yul\":19484:19487   */\n      dup10\n        /* \"#utility.yul\":19480:19491   */\n      add\n        /* \"#utility.yul\":19473:19508   */\n      mstore\n        /* \"#utility.yul\":19549:19550   */\n      0x01\n        /* \"#utility.yul\":19540:19547   */\n      dup3\n        /* \"#utility.yul\":19536:19551   */\n      add\n        /* \"#utility.yul\":19525:19551   */\n      swap2\n      pop\n        /* \"#utility.yul\":19447:19451   */\n      0x20\n        /* \"#utility.yul\":19444:19445   */\n      dup2\n        /* \"#utility.yul\":19440:19452   */\n      add\n        /* \"#utility.yul\":19435:19452   */\n      swap1\n      pop\n        /* \"#utility.yul\":19411:19565   */\n      jump(tag_520)\n    tag_522:\n        /* \"#utility.yul\":19594:19600   */\n      dup4\n        /* \"#utility.yul\":19589:19592   */\n      dup9\n        /* \"#utility.yul\":19585:19601   */\n      add\n        /* \"#utility.yul\":19578:19601   */\n      swap6\n      pop\n        /* \"#utility.yul\":19277:19611   */\n      pop\n      pop\n        /* \"#utility.yul\":19062:19611   */\n    tag_516:\n      pop\n        /* \"#utility.yul\":18850:19617   */\n      pop\n      pop\n        /* \"#utility.yul\":18743:19617   */\n      swap3\n      swap2\n      pop\n      pop\n      jump\t// out\n        /* \"#utility.yul\":19623:19892   */\n    tag_110:\n        /* \"#utility.yul\":19752:19755   */\n      0x00\n        /* \"#utility.yul\":19774:19866   */\n      tag_524\n        /* \"#utility.yul\":19862:19865   */\n      dup3\n        /* \"#utility.yul\":19853:19859   */\n      dup5\n        /* \"#utility.yul\":19774:19866   */\n      tag_307\n      jump\t// in\n    tag_524:\n        /* \"#utility.yul\":19767:19866   */\n      swap2\n      pop\n        /* \"#utility.yul\":19883:19886   */\n      dup2\n        /* \"#utility.yul\":19876:19886   */\n      swap1\n      pop\n        /* \"#utility.yul\":19623:19892   */\n      swap3\n      swap2\n      pop\n      pop\n      jump\t// out\n        /* \"#utility.yul\":19898:20131   */\n    tag_129:\n        /* \"#utility.yul\":19937:19940   */\n      0x00\n        /* \"#utility.yul\":19960:19984   */\n      tag_526\n        /* \"#utility.yul\":19978:19983   */\n      dup3\n        /* \"#utility.yul\":19960:19984   */\n      tag_272\n      jump\t// in\n    tag_526:\n        /* \"#utility.yul\":19951:19984   */\n      swap2\n      pop\n        /* \"#utility.yul\":20006:20072   */\n      0xffffffffffffffffffffffffffffffffffffffffffffffffffffffffffffffff\n        /* \"#utility.yul\":19999:20004   */\n      dup3\n        /* \"#utility.yul\":19996:20073   */\n      sub\n        /* \"#utility.yul\":19993:20096   */\n      tag_527\n      jumpi\n        /* \"#utility.yul\":20076:20094   */\n      tag_528\n      tag_305\n      jump\t// in\n    tag_528:\n        /* \"#utility.yul\":19993:20096   */\n    tag_527:\n        /* \"#utility.yul\":20123:20124   */\n      0x01\n        /* \"#utility.yul\":20116:20121   */\n      dup3\n        /* \"#utility.yul\":20112:20125   */\n      add\n        /* \"#utility.yul\":20105:20125   */\n      swap1\n      pop\n        /* \"#utility.yul\":19898:20131   */\n      swap2\n      swap1\n      pop\n      jump\t// out\n        /* \"#utility.yul\":20137:20304   */\n    tag_308:\n        /* \"#utility.yul\":20277:20296   */\n      0x4f626a656374206e6f74206c6f636b6564000000000000000000000000000000\n        /* \"#utility.yul\":20273:20274   */\n      0x00\n        /* \"#utility.yul\":20265:20271   */\n      dup3\n        /* \"#utility.yul\":20261:20275   */\n      add\n        /* \"#utility.yul\":20254:20297   */\n      mstore\n        /* \"#utility.yul\":20137:20304   */\n      pop\n      jump\t// out\n        /* \"#utility.yul\":20310:20676   */\n    tag_309:\n        /* \"#utility.yul\":20452:20455   */\n      0x00\n        /* \"#utility.yul\":20473:20540   */\n      tag_531\n        /* \"#utility.yul\":20537:20539   */\n      0x11\n        /* \"#utility.yul\":20532:20535   */\n      dup4\n        /* \"#utility.yul\":20473:20540   */\n      tag_282\n      jump\t// in\n    tag_531:\n        /* \"#utility.yul\":20466:20540   */\n      swap2\n      pop\n        /* \"#utility.yul\":20549:20642   */\n      tag_532\n        /* \"#utility.yul\":20638:20641   */\n      dup3\n        /* \"#utility.yul\":20549:20642   */\n      tag_308\n      jump\t// in\n    tag_532:\n        /* \"#utility.yul\":20667:20669   */\n      0x20\n        /* \"#utility.yul\":20662:20665   */\n      dup3\n        /* \"#utility.yul\":20658:20670   */\n      add\n        /* \"#utility.yul\":20651:20670   */\n      swap1\n      pop\n        /* \"#utility.yul\":20310:20676   */\n      swap2\n      swap1\n      pop\n      jump\t// out\n        /* \"#utility.yul\":20682:21101   */\n    tag_140:\n        /* \"#utility.yul\":20848:20852   */\n      0x00\n        /* \"#utility.yul\":20886:20888   */\n      0x20\n        /* \"#utility.yul\":20875:20884   */\n      dup3\n        /* \"#utility.yul\":20871:20889   */\n      add\n        /* \"#utility.yul\":20863:20889   */\n      swap1\n      pop\n        /* \"#utility.yul\":20935:20944   */\n      dup2\n        /* \"#utility.yul\":20929:20933   */\n      dup2\n        /* \"#utility.yul\":20925:20945   */\n      sub\n        /* \"#utility.yul\":20921:20922   */\n      0x00\n        /* \"#utility.yul\":20910:20919   */\n      dup4\n        /* \"#utility.yul\":20906:20923   */\n      add\n        /* \"#utility.yul\":20899:20946   */\n      mstore\n        /* \"#utility.yul\":20963:21094   */\n      tag_534\n        /* \"#utility.yul\":21089:21093   */\n      dup2\n        /* \"#utility.yul\":20963:21094   */\n      tag_309\n      jump\t// in\n    tag_534:\n        /* \"#utility.yul\":20955:21094   */\n      swap1\n      pop\n        /* \"#utility.yul\":20682:21101   */\n      swap2\n      swap1\n      pop\n      jump\t// out\n        /* \"#utility.yul\":21107:21279   */\n    tag_310:\n        /* \"#utility.yul\":21247:21271   */\n      0x596f7520617265206e6f7420746865206f776e65722e00000000000000000000\n        /* \"#utility.yul\":21243:21244   */\n      0x00\n        /* \"#utility.yul\":21235:21241   */\n      dup3\n        /* \"#utility.yul\":21231:21245   */\n      add\n        /* \"#utility.yul\":21224:21272   */\n      mstore\n        /* \"#utility.yul\":21107:21279   */\n      pop\n      jump\t// out\n        /* \"#utility.yul\":21285:21651   */\n    tag_311:\n        /* \"#utility.yul\":21427:21430   */\n      0x00\n        /* \"#utility.yul\":21448:21515   */\n      tag_537\n        /* \"#utility.yul\":21512:21514   */\n      0x16\n        /* \"#utility.yul\":21507:21510   */\n      dup4\n        /* \"#utility.yul\":21448:21515   */\n      tag_282\n      jump\t// in\n    tag_537:\n        /* \"#utility.yul\":21441:21515   */\n      swap2\n      pop\n        /* \"#utility.yul\":21524:21617   */\n      tag_538\n        /* \"#utility.yul\":21613:21616   */\n      dup3\n        /* \"#utility.yul\":21524:21617   */\n      tag_310\n      jump\t// in\n    tag_538:\n        /* \"#utility.yul\":21642:21644   */\n      0x20\n        /* \"#utility.yul\":21637:21640   */\n      dup3\n        /* \"#utility.yul\":21633:21645   */\n      add\n        /* \"#utility.yul\":21626:21645   */\n      swap1\n      pop\n        /* \"#utility.yul\":21285:21651   */\n      swap2\n      swap1\n      pop\n      jump\t// out\n        /* \"#utility.yul\":21657:22076   */\n    tag_145:\n        /* \"#utility.yul\":21823:21827   */\n      0x00\n        /* \"#utility.yul\":21861:21863   */\n      0x20\n        /* \"#utility.yul\":21850:21859   */\n      dup3\n        /* \"#utility.yul\":21846:21864   */\n      add\n        /* \"#utility.yul\":21838:21864   */\n      swap1\n      pop\n        /* \"#utility.yul\":21910:21919   */\n      dup2\n        /* \"#utility.yul\":21904:21908   */\n      dup2\n        /* \"#utility.yul\":21900:21920   */\n      sub\n        /* \"#utility.yul\":21896:21897   */\n      0x00\n        /* \"#utility.yul\":21885:21894   */\n      dup4\n        /* \"#utility.yul\":21881:21898   */\n      add\n        /* \"#utility.yul\":21874:21921   */\n      mstore\n        /* \"#utility.yul\":21938:22069   */\n      tag_540\n        /* \"#utility.yul\":22064:22068   */\n      dup2\n        /* \"#utility.yul\":21938:22069   */\n      tag_311\n      jump\t// in\n    tag_540:\n        /* \"#utility.yul\":21930:22069   */\n      swap1\n      pop\n        /* \"#utility.yul\":21657:22076   */\n      swap2\n      swap1\n      pop\n      jump\t// out\n        /* \"#utility.yul\":22082:22472   */\n    tag_312:\n        /* \"#utility.yul\":22188:22191   */\n      0x00\n        /* \"#utility.yul\":22216:22255   */\n      tag_542\n        /* \"#utility.yul\":22249:22254   */\n      dup3\n        /* \"#utility.yul\":22216:22255   */\n      tag_262\n      jump\t// in\n    tag_542:\n        /* \"#utility.yul\":22271:22360   */\n      tag_543\n        /* \"#utility.yul\":22353:22359   */\n      dup2\n        /* \"#utility.yul\":22348:22351   */\n      dup6\n        /* \"#utility.yul\":22271:22360   */\n      tag_300\n      jump\t// in\n    tag_543:\n        /* \"#utility.yul\":22264:22360   */\n      swap4\n      pop\n        /* \"#utility.yul\":22369:22434   */\n      tag_544\n        /* \"#utility.yul\":22427:22433   */\n      dup2\n        /* \"#utility.yul\":22422:22425   */\n      dup6\n        /* \"#utility.yul\":22415:22419   */\n      0x20\n        /* \"#utility.yul\":22408:22413   */\n      dup7\n        /* \"#utility.yul\":22404:22420   */\n      add\n        /* \"#utility.yul\":22369:22434   */\n      tag_264\n      jump\t// in\n    tag_544:\n        /* \"#utility.yul\":22459:22465   */\n      dup1\n        /* \"#utility.yul\":22454:22457   */\n      dup5\n        /* \"#utility.yul\":22450:22466   */\n      add\n        /* \"#utility.yul\":22443:22466   */\n      swap2\n      pop\n        /* \"#utility.yul\":22192:22472   */\n      pop\n        /* \"#utility.yul\":22082:22472   */\n      swap3\n      swap2\n      pop\n      pop\n      jump\t// out\n        /* \"#utility.yul\":22478:22753   */\n    tag_153:\n        /* \"#utility.yul\":22610:22613   */\n      0x00\n        /* \"#utility.yul\":22632:22727   */\n      tag_546\n        /* \"#utility.yul\":22723:22726   */\n      dup3\n        /* \"#utility.yul\":22714:22720   */\n      dup5\n        /* \"#utility.yul\":22632:22727   */\n      tag_312\n      jump\t// in\n    tag_546:\n        /* \"#utility.yul\":22625:22727   */\n      swap2\n      pop\n        /* \"#utility.yul\":22744:22747   */\n      dup2\n        /* \"#utility.yul\":22737:22747   */\n      swap1\n      pop\n        /* \"#utility.yul\":22478:22753   */\n      swap3\n      swap2\n      pop\n      pop\n      jump\t// out\n        /* \"#utility.yul\":22759:22852   */\n    tag_313:\n        /* \"#utility.yul\":22796:22802   */\n      0x00\n        /* \"#utility.yul\":22843:22845   */\n      0x20\n        /* \"#utility.yul\":22838:22840   */\n      0x1f\n        /* \"#utility.yul\":22831:22836   */\n      dup4\n        /* \"#utility.yul\":22827:22841   */\n      add\n        /* \"#utility.yul\":22823:22846   */\n      div\n        /* \"#utility.yul\":22813:22846   */\n      swap1\n      pop\n        /* \"#utility.yul\":22759:22852   */\n      swap2\n      swap1\n      pop\n      jump\t// out\n        /* \"#utility.yul\":22858:22965   */\n    tag_314:\n        /* \"#utility.yul\":22902:22910   */\n      0x00\n        /* \"#utility.yul\":22952:22957   */\n      dup3\n        /* \"#utility.yul\":22946:22950   */\n      dup3\n        /* \"#utility.yul\":22942:22958   */\n      shl\n        /* \"#utility.yul\":22921:22958   */\n      swap1\n      pop\n        /* \"#utility.yul\":22858:22965   */\n      swap3\n      swap2\n      pop\n      pop\n      jump\t// out\n        /* \"#utility.yul\":22971:23364   */\n    tag_315:\n        /* \"#utility.yul\":23040:23046   */\n      0x00\n        /* \"#utility.yul\":23090:23091   */\n      0x08\n        /* \"#utility.yul\":23078:23088   */\n      dup4\n        /* \"#utility.yul\":23074:23092   */\n      mul\n        /* \"#utility.yul\":23113:23210   */\n      tag_550\n        /* \"#utility.yul\":23143:23209   */\n      0xffffffffffffffffffffffffffffffffffffffffffffffffffffffffffffffff\n        /* \"#utility.yul\":23132:23141   */\n      dup3\n        /* \"#utility.yul\":23113:23210   */\n      tag_314\n      jump\t// in\n    tag_550:\n        /* \"#utility.yul\":23231:23270   */\n      tag_551\n        /* \"#utility.yul\":23261:23269   */\n      dup7\n        /* \"#utility.yul\":23250:23259   */\n      dup4\n        /* \"#utility.yul\":23231:23270   */\n      tag_314\n      jump\t// in\n    tag_551:\n        /* \"#utility.yul\":23219:23270   */\n      swap6\n      pop\n        /* \"#utility.yul\":23303:23307   */\n      dup1\n        /* \"#utility.yul\":23299:23308   */\n      not\n        /* \"#utility.yul\":23292:23297   */\n      dup5\n        /* \"#utility.yul\":23288:23309   */\n      and\n        /* \"#utility.yul\":23279:23309   */\n      swap4\n      pop\n        /* \"#utility.yul\":23352:23356   */\n      dup1\n        /* \"#utility.yul\":23342:23350   */\n      dup7\n        /* \"#utility.yul\":23338:23357   */\n      and\n        /* \"#utility.yul\":23331:23336   */\n      dup5\n        /* \"#utility.yul\":23328:23358   */\n      or\n        /* \"#utility.yul\":23318:23358   */\n      swap3\n      pop\n        /* \"#utility.yul\":23047:23364   */\n      pop\n      pop\n        /* \"#utility.yul\":22971:23364   */\n      swap4\n      swap3\n      pop\n      pop\n      pop\n      jump\t// out\n        /* \"#utility.yul\":23370:23430   */\n    tag_316:\n        /* \"#utility.yul\":23398:23401   */\n      0x00\n        /* \"#utility.yul\":23419:23424   */\n      dup2\n        /* \"#utility.yul\":23412:23424   */\n      swap1\n      pop\n        /* \"#utility.yul\":23370:23430   */\n      swap2\n      swap1\n      pop\n      jump\t// out\n        /* \"#utility.yul\":23436:23578   */\n    tag_317:\n        /* \"#utility.yul\":23486:23495   */\n      0x00\n        /* \"#utility.yul\":23519:23572   */\n      tag_554\n        /* \"#utility.yul\":23537:23571   */\n      tag_555\n        /* \"#utility.yul\":23546:23570   */\n      tag_556\n        /* \"#utility.yul\":23564:23569   */\n      dup5\n        /* \"#utility.yul\":23546:23570   */\n      tag_272\n      jump\t// in\n    tag_556:\n        /* \"#utility.yul\":23537:23571   */\n      tag_316\n      jump\t// in\n    tag_555:\n        /* \"#utility.yul\":23519:23572   */\n      tag_272\n      jump\t// in\n    tag_554:\n        /* \"#utility.yul\":23506:23572   */\n      swap1\n      pop\n        /* \"#utility.yul\":23436:23578   */\n      swap2\n      swap1\n      pop\n      jump\t// out\n        /* \"#utility.yul\":23584:23659   */\n    tag_318:\n        /* \"#utility.yul\":23627:23630   */\n      0x00\n        /* \"#utility.yul\":23648:23653   */\n      dup2\n        /* \"#utility.yul\":23641:23653   */\n      swap1\n      pop\n        /* \"#utility.yul\":23584:23659   */\n      swap2\n      swap1\n      pop\n      jump\t// out\n        /* \"#utility.yul\":23665:23934   */\n    tag_319:\n        /* \"#utility.yul\":23775:23814   */\n      tag_559\n        /* \"#utility.yul\":23806:23813   */\n      dup4\n        /* \"#utility.yul\":23775:23814   */\n      tag_317\n      jump\t// in\n    tag_559:\n        /* \"#utility.yul\":23836:23927   */\n      tag_560\n        /* \"#utility.yul\":23885:23926   */\n      tag_561\n        /* \"#utility.yul\":23909:23925   */\n      dup3\n        /* \"#utility.yul\":23885:23926   */\n      tag_318\n      jump\t// in\n    tag_561:\n        /* \"#utility.yul\":23877:23883   */\n      dup5\n        /* \"#utility.yul\":23870:23874   */\n      dup5\n        /* \"#utility.yul\":23864:23875   */\n      sload\n        /* \"#utility.yul\":23836:23927   */\n      tag_315\n      jump\t// in\n    tag_560:\n        /* \"#utility.yul\":23830:23834   */\n      dup3\n        /* \"#utility.yul\":23823:23928   */\n      sstore\n        /* \"#utility.yul\":23741:23934   */\n      pop\n        /* \"#utility.yul\":23665:23934   */\n      pop\n      pop\n      pop\n      jump\t// out\n        /* \"#utility.yul\":23940:24013   */\n    tag_320:\n        /* \"#utility.yul\":23985:23988   */\n      0x00\n        /* \"#utility.yul\":23940:24013   */\n      swap1\n      jump\t// out\n        /* \"#utility.yul\":24019:24208   */\n    tag_321:\n        /* \"#utility.yul\":24096:24128   */\n      tag_564\n      tag_320\n      jump\t// in\n    tag_564:\n        /* \"#utility.yul\":24137:24202   */\n      tag_565\n        /* \"#utility.yul\":24195:24201   */\n      dup2\n        /* \"#utility.yul\":24187:24193   */\n      dup5\n        /* \"#utility.yul\":24181:24185   */\n      dup5\n        /* \"#utility.yul\":24137:24202   */\n      tag_319\n      jump\t// in\n    tag_565:\n        /* \"#utility.yul\":24072:24208   */\n      pop\n        /* \"#utility.yul\":24019:24208   */\n      pop\n      pop\n      jump\t// out\n        /* \"#utility.yul\":24214:24400   */\n    tag_322:\n        /* \"#utility.yul\":24274:24394   */\n    tag_567:\n        /* \"#utility.yul\":24291:24294   */\n      dup2\n        /* \"#utility.yul\":24284:24289   */\n      dup2\n        /* \"#utility.yul\":24281:24295   */\n      lt\n        /* \"#utility.yul\":24274:24394   */\n      iszero\n      tag_569\n      jumpi\n        /* \"#utility.yul\":24345:24384   */\n      tag_570\n        /* \"#utility.yul\":24382:24383   */\n      0x00\n        /* \"#utility.yul\":24375:24380   */\n      dup3\n        /* \"#utility.yul\":24345:24384   */\n      tag_321\n      jump\t// in\n    tag_570:\n        /* \"#utility.yul\":24318:24319   */\n      0x01\n        /* \"#utility.yul\":24311:24316   */\n      dup2\n        /* \"#utility.yul\":24307:24320   */\n      add\n        /* \"#utility.yul\":24298:24320   */\n      swap1\n      pop\n        /* \"#utility.yul\":24274:24394   */\n      jump(tag_567)\n    tag_569:\n        /* \"#utility.yul\":24214:24400   */\n      pop\n      pop\n      jump\t// out\n        /* \"#utility.yul\":24406:24949   */\n    tag_323:\n        /* \"#utility.yul\":24507:24509   */\n      0x1f\n        /* \"#utility.yul\":24502:24505   */\n      dup3\n        /* \"#utility.yul\":24499:24510   */\n      gt\n        /* \"#utility.yul\":24496:24942   */\n      iszero\n      tag_572\n      jumpi\n        /* \"#utility.yul\":24541:24579   */\n      tag_573\n        /* \"#utility.yul\":24573:24578   */\n      dup2\n        /* \"#utility.yul\":24541:24579   */\n      tag_306\n      jump\t// in\n    tag_573:\n        /* \"#utility.yul\":24625:24654   */\n      tag_574\n        /* \"#utility.yul\":24643:24653   */\n      dup5\n        /* \"#utility.yul\":24625:24654   */\n      tag_313\n      jump\t// in\n    tag_574:\n        /* \"#utility.yul\":24615:24623   */\n      dup2\n        /* \"#utility.yul\":24611:24655   */\n      add\n        /* \"#utility.yul\":24808:24810   */\n      0x20\n        /* \"#utility.yul\":24796:24806   */\n      dup6\n        /* \"#utility.yul\":24793:24811   */\n      lt\n        /* \"#utility.yul\":24790:24839   */\n      iszero\n      tag_575\n      jumpi\n        /* \"#utility.yul\":24829:24837   */\n      dup2\n        /* \"#utility.yul\":24814:24837   */\n      swap1\n      pop\n        /* \"#utility.yul\":24790:24839   */\n    tag_575:\n        /* \"#utility.yul\":24852:24932   */\n      tag_576\n        /* \"#utility.yul\":24908:24930   */\n      tag_577\n        /* \"#utility.yul\":24926:24929   */\n      dup6\n        /* \"#utility.yul\":24908:24930   */\n      tag_313\n      jump\t// in\n    tag_577:\n        /* \"#utility.yul\":24898:24906   */\n      dup4\n        /* \"#utility.yul\":24894:24931   */\n      add\n        /* \"#utility.yul\":24881:24892   */\n      dup3\n        /* \"#utility.yul\":24852:24932   */\n      tag_322\n      jump\t// in\n    tag_576:\n        /* \"#utility.yul\":24511:24942   */\n      pop\n      pop\n        /* \"#utility.yul\":24496:24942   */\n    tag_572:\n        /* \"#utility.yul\":24406:24949   */\n      pop\n      pop\n      pop\n      jump\t// out\n        /* \"#utility.yul\":24955:25072   */\n    tag_324:\n        /* \"#utility.yul\":25009:25017   */\n      0x00\n        /* \"#utility.yul\":25059:25064   */\n      dup3\n        /* \"#utility.yul\":25053:25057   */\n      dup3\n        /* \"#utility.yul\":25049:25065   */\n      shr\n        /* \"#utility.yul\":25028:25065   */\n      swap1\n      pop\n        /* \"#utility.yul\":24955:25072   */\n      swap3\n      swap2\n      pop\n      pop\n      jump\t// out\n        /* \"#utility.yul\":25078:25247   */\n    tag_325:\n        /* \"#utility.yul\":25122:25128   */\n      0x00\n        /* \"#utility.yul\":25155:25206   */\n      tag_580\n        /* \"#utility.yul\":25203:25204   */\n      0x00\n        /* \"#utility.yul\":25199:25205   */\n      not\n        /* \"#utility.yul\":25191:25196   */\n      dup5\n        /* \"#utility.yul\":25188:25189   */\n      0x08\n        /* \"#utility.yul\":25184:25197   */\n      mul\n        /* \"#utility.yul\":25155:25206   */\n      tag_324\n      jump\t// in\n    tag_580:\n        /* \"#utility.yul\":25151:25207   */\n      not\n        /* \"#utility.yul\":25236:25240   */\n      dup1\n        /* \"#utility.yul\":25230:25234   */\n      dup4\n        /* \"#utility.yul\":25226:25241   */\n      and\n        /* \"#utility.yul\":25216:25241   */\n      swap2\n      pop\n        /* \"#utility.yul\":25129:25247   */\n      pop\n        /* \"#utility.yul\":25078:25247   */\n      swap3\n      swap2\n      pop\n      pop\n      jump\t// out\n        /* \"#utility.yul\":25252:25547   */\n    tag_326:\n        /* \"#utility.yul\":25328:25332   */\n      0x00\n        /* \"#utility.yul\":25474:25503   */\n      tag_582\n        /* \"#utility.yul\":25499:25502   */\n      dup4\n        /* \"#utility.yul\":25493:25497   */\n      dup4\n        /* \"#utility.yul\":25474:25503   */\n      tag_325\n      jump\t// in\n    tag_582:\n        /* \"#utility.yul\":25466:25503   */\n      swap2\n      pop\n        /* \"#utility.yul\":25536:25539   */\n      dup3\n        /* \"#utility.yul\":25533:25534   */\n      0x02\n        /* \"#utility.yul\":25529:25540   */\n      mul\n        /* \"#utility.yul\":25523:25527   */\n      dup3\n        /* \"#utility.yul\":25520:25541   */\n      or\n        /* \"#utility.yul\":25512:25541   */\n      swap1\n      pop\n        /* \"#utility.yul\":25252:25547   */\n      swap3\n      swap2\n      pop\n      pop\n      jump\t// out\n        /* \"#utility.yul\":25552:26947   */\n    tag_155:\n        /* \"#utility.yul\":25669:25706   */\n      tag_584\n        /* \"#utility.yul\":25702:25705   */\n      dup3\n        /* \"#utility.yul\":25669:25706   */\n      tag_262\n      jump\t// in\n    tag_584:\n        /* \"#utility.yul\":25771:25789   */\n      0xffffffffffffffff\n        /* \"#utility.yul\":25763:25769   */\n      dup2\n        /* \"#utility.yul\":25760:25790   */\n      gt\n        /* \"#utility.yul\":25757:25813   */\n      iszero\n      tag_585\n      jumpi\n        /* \"#utility.yul\":25793:25811   */\n      tag_586\n      tag_98\n      jump\t// in\n    tag_586:\n        /* \"#utility.yul\":25757:25813   */\n    tag_585:\n        /* \"#utility.yul\":25837:25875   */\n      tag_587\n        /* \"#utility.yul\":25869:25873   */\n      dup3\n        /* \"#utility.yul\":25863:25874   */\n      sload\n        /* \"#utility.yul\":25837:25875   */\n      tag_74\n      jump\t// in\n    tag_587:\n        /* \"#utility.yul\":25922:25989   */\n      tag_588\n        /* \"#utility.yul\":25982:25988   */\n      dup3\n        /* \"#utility.yul\":25974:25980   */\n      dup3\n        /* \"#utility.yul\":25968:25972   */\n      dup6\n        /* \"#utility.yul\":25922:25989   */\n      tag_323\n      jump\t// in\n    tag_588:\n        /* \"#utility.yul\":26016:26017   */\n      0x00\n        /* \"#utility.yul\":26040:26044   */\n      0x20\n        /* \"#utility.yul\":26027:26044   */\n      swap1\n      pop\n        /* \"#utility.yul\":26072:26074   */\n      0x1f\n        /* \"#utility.yul\":26064:26070   */\n      dup4\n        /* \"#utility.yul\":26061:26075   */\n      gt\n        /* \"#utility.yul\":26089:26090   */\n      0x01\n        /* \"#utility.yul\":26084:26702   */\n      dup2\n      eq\n      tag_590\n      jumpi\n        /* \"#utility.yul\":26746:26747   */\n      0x00\n        /* \"#utility.yul\":26763:26769   */\n      dup5\n        /* \"#utility.yul\":26760:26837   */\n      iszero\n      tag_591\n      jumpi\n        /* \"#utility.yul\":26812:26821   */\n      dup3\n        /* \"#utility.yul\":26807:26810   */\n      dup8\n        /* \"#utility.yul\":26803:26822   */\n      add\n        /* \"#utility.yul\":26797:26823   */\n      mload\n        /* \"#utility.yul\":26788:26823   */\n      swap1\n      pop\n        /* \"#utility.yul\":26760:26837   */\n    tag_591:\n        /* \"#utility.yul\":26863:26930   */\n      tag_592\n        /* \"#utility.yul\":26923:26929   */\n      dup6\n        /* \"#utility.yul\":26916:26921   */\n      dup3\n        /* \"#utility.yul\":26863:26930   */\n      tag_326\n      jump\t// in\n    tag_592:\n        /* \"#utility.yul\":26857:26861   */\n      dup7\n        /* \"#utility.yul\":26850:26931   */\n      sstore\n        /* \"#utility.yul\":26719:26941   */\n      pop\n        /* \"#utility.yul\":26054:26941   */\n      jump(tag_589)\n        /* \"#utility.yul\":26084:26702   */\n    tag_590:\n        /* \"#utility.yul\":26136:26140   */\n      0x1f\n        /* \"#utility.yul\":26132:26141   */\n      not\n        /* \"#utility.yul\":26124:26130   */\n      dup5\n        /* \"#utility.yul\":26120:26142   */\n      and\n        /* \"#utility.yul\":26170:26207   */\n      tag_593\n        /* \"#utility.yul\":26202:26206   */\n      dup7\n        /* \"#utility.yul\":26170:26207   */\n      tag_306\n      jump\t// in\n    tag_593:\n        /* \"#utility.yul\":26229:26230   */\n      0x00\n        /* \"#utility.yul\":26243:26451   */\n    tag_594:\n        /* \"#utility.yul\":26257:26264   */\n      dup3\n        /* \"#utility.yul\":26254:26255   */\n      dup2\n        /* \"#utility.yul\":26251:26265   */\n      lt\n        /* \"#utility.yul\":26243:26451   */\n      iszero\n      tag_596\n      jumpi\n        /* \"#utility.yul\":26336:26345   */\n      dup5\n        /* \"#utility.yul\":26331:26334   */\n      dup10\n        /* \"#utility.yul\":26327:26346   */\n      add\n        /* \"#utility.yul\":26321:26347   */\n      mload\n        /* \"#utility.yul\":26313:26319   */\n      dup3\n        /* \"#utility.yul\":26306:26348   */\n      sstore\n        /* \"#utility.yul\":26387:26388   */\n      0x01\n        /* \"#utility.yul\":26379:26385   */\n      dup3\n        /* \"#utility.yul\":26375:26389   */\n      add\n        /* \"#utility.yul\":26365:26389   */\n      swap2\n      pop\n        /* \"#utility.yul\":26434:26436   */\n      0x20\n        /* \"#utility.yul\":26423:26432   */\n      dup6\n        /* \"#utility.yul\":26419:26437   */\n      add\n        /* \"#utility.yul\":26406:26437   */\n      swap5\n      pop\n        /* \"#utility.yul\":26280:26284   */\n      0x20\n        /* \"#utility.yul\":26277:26278   */\n      dup2\n        /* \"#utility.yul\":26273:26285   */\n      add\n        /* \"#utility.yul\":26268:26285   */\n      swap1\n      pop\n        /* \"#utility.yul\":26243:26451   */\n      jump(tag_594)\n    tag_596:\n        /* \"#utility.yul\":26479:26485   */\n      dup7\n        /* \"#utility.yul\":26470:26477   */\n      dup4\n        /* \"#utility.yul\":26467:26486   */\n      lt\n        /* \"#utility.yul\":26464:26643   */\n      iszero\n      tag_597\n      jumpi\n        /* \"#utility.yul\":26537:26546   */\n      dup5\n        /* \"#utility.yul\":26532:26535   */\n      dup10\n        /* \"#utility.yul\":26528:26547   */\n      add\n        /* \"#utility.yul\":26522:26548   */\n      mload\n        /* \"#utility.yul\":26580:26628   */\n      tag_598\n        /* \"#utility.yul\":26622:26626   */\n      0x1f\n        /* \"#utility.yul\":26614:26620   */\n      dup10\n        /* \"#utility.yul\":26610:26627   */\n      and\n        /* \"#utility.yul\":26599:26608   */\n      dup3\n        /* \"#utility.yul\":26580:26628   */\n      tag_325\n      jump\t// in\n    tag_598:\n        /* \"#utility.yul\":26572:26578   */\n      dup4\n        /* \"#utility.yul\":26565:26629   */\n      sstore\n        /* \"#utility.yul\":26487:26643   */\n      pop\n        /* \"#utility.yul\":26464:26643   */\n    tag_597:\n        /* \"#utility.yul\":26689:26690   */\n      0x01\n        /* \"#utility.yul\":26685:26686   */\n      0x02\n        /* \"#utility.yul\":26677:26683   */\n      dup9\n        /* \"#utility.yul\":26673:26687   */\n      mul\n        /* \"#utility.yul\":26669:26691   */\n      add\n        /* \"#utility.yul\":26663:26667   */\n      dup9\n        /* \"#utility.yul\":26656:26692   */\n      sstore\n        /* \"#utility.yul\":26091:26702   */\n      pop\n      pop\n      pop\n        /* \"#utility.yul\":26054:26941   */\n    tag_589:\n      pop\n        /* \"#utility.yul\":25644:26947   */\n      pop\n      pop\n      pop\n        /* \"#utility.yul\":25552:26947   */\n      pop\n      pop\n      jump\t// out\n        /* \"#utility.yul\":26953:27081   */\n    tag_327:\n        /* \"#utility.yul\":27035:27046   */\n      0x00\n        /* \"#utility.yul\":27072:27075   */\n      dup2\n        /* \"#utility.yul\":27057:27075   */\n      swap1\n      pop\n        /* \"#utility.yul\":26953:27081   */\n      swap3\n      swap2\n      pop\n      pop\n      jump\t// out\n        /* \"#utility.yul\":27087:27460   */\n    tag_328:\n        /* \"#utility.yul\":27173:27176   */\n      0x00\n        /* \"#utility.yul\":27201:27240   */\n      tag_601\n        /* \"#utility.yul\":27234:27239   */\n      dup3\n        /* \"#utility.yul\":27201:27240   */\n      tag_262\n      jump\t// in\n    tag_601:\n        /* \"#utility.yul\":27256:27325   */\n      tag_602\n        /* \"#utility.yul\":27318:27324   */\n      dup2\n        /* \"#utility.yul\":27313:27316   */\n      dup6\n        /* \"#utility.yul\":27256:27325   */\n      tag_327\n      jump\t// in\n    tag_602:\n        /* \"#utility.yul\":27249:27325   */\n      swap4\n      pop\n        /* \"#utility.yul\":27334:27399   */\n      tag_603\n        /* \"#utility.yul\":27392:27398   */\n      dup2\n        /* \"#utility.yul\":27387:27390   */\n      dup6\n        /* \"#utility.yul\":27380:27384   */\n      0x20\n        /* \"#utility.yul\":27373:27378   */\n      dup7\n        /* \"#utility.yul\":27369:27385   */\n      add\n        /* \"#utility.yul\":27334:27399   */\n      tag_264\n      jump\t// in\n    tag_603:\n        /* \"#utility.yul\":27424:27453   */\n      tag_604\n        /* \"#utility.yul\":27446:27452   */\n      dup2\n        /* \"#utility.yul\":27424:27453   */\n      tag_265\n      jump\t// in\n    tag_604:\n        /* \"#utility.yul\":27419:27422   */\n      dup5\n        /* \"#utility.yul\":27415:27454   */\n      add\n        /* \"#utility.yul\":27408:27454   */\n      swap2\n      pop\n        /* \"#utility.yul\":27177:27460   */\n      pop\n        /* \"#utility.yul\":27087:27460   */\n      swap3\n      swap2\n      pop\n      pop\n      jump\t// out\n        /* \"#utility.yul\":27466:27678   */\n    tag_329:\n        /* \"#utility.yul\":27563:27573   */\n      0x00\n        /* \"#utility.yul\":27598:27672   */\n      tag_606\n        /* \"#utility.yul\":27668:27671   */\n      dup4\n        /* \"#utility.yul\":27660:27666   */\n      dup4\n        /* \"#utility.yul\":27598:27672   */\n      tag_328\n      jump\t// in\n    tag_606:\n        /* \"#utility.yul\":27584:27672   */\n      swap1\n      pop\n        /* \"#utility.yul\":27466:27678   */\n      swap3\n      swap2\n      pop\n      pop\n      jump\t// out\n        /* \"#utility.yul\":27684:27800   */\n    tag_330:\n        /* \"#utility.yul\":27769:27793   */\n      tag_608\n        /* \"#utility.yul\":27787:27792   */\n      dup2\n        /* \"#utility.yul\":27769:27793   */\n      tag_268\n      jump\t// in\n    tag_608:\n        /* \"#utility.yul\":27764:27767   */\n      dup3\n        /* \"#utility.yul\":27757:27794   */\n      mstore\n        /* \"#utility.yul\":27684:27800   */\n      pop\n      pop\n      jump\t// out\n        /* \"#utility.yul\":27806:28001   */\n    tag_331:\n        /* \"#utility.yul\":27883:27893   */\n      0x00\n        /* \"#utility.yul\":27904:27958   */\n      tag_610\n        /* \"#utility.yul\":27954:27957   */\n      dup4\n        /* \"#utility.yul\":27946:27952   */\n      dup4\n        /* \"#utility.yul\":27904:27958   */\n      tag_330\n      jump\t// in\n    tag_610:\n        /* \"#utility.yul\":27990:27994   */\n      0x20\n        /* \"#utility.yul\":27985:27988   */\n      dup4\n        /* \"#utility.yul\":27981:27995   */\n      add\n        /* \"#utility.yul\":27967:27995   */\n      swap1\n      pop\n        /* \"#utility.yul\":27806:28001   */\n      swap3\n      swap2\n      pop\n      pop\n      jump\t// out\n        /* \"#utility.yul\":28043:28828   */\n    tag_332:\n        /* \"#utility.yul\":28150:28153   */\n      0x00\n        /* \"#utility.yul\":28186:28190   */\n      dup1\n        /* \"#utility.yul\":28181:28184   */\n      dup4\n        /* \"#utility.yul\":28177:28191   */\n      add\n        /* \"#utility.yul\":28273:28277   */\n      0x00\n        /* \"#utility.yul\":28266:28271   */\n      dup4\n        /* \"#utility.yul\":28262:28278   */\n      add\n        /* \"#utility.yul\":28256:28279   */\n      mload\n        /* \"#utility.yul\":28299:28389   */\n      tag_612\n        /* \"#utility.yul\":28385:28388   */\n      dup6\n        /* \"#utility.yul\":28371:28383   */\n      dup3\n        /* \"#utility.yul\":28299:28389   */\n      tag_329\n      jump\t// in\n    tag_612:\n        /* \"#utility.yul\":28292:28389   */\n      swap5\n      pop\n        /* \"#utility.yul\":28201:28399   */\n      pop\n        /* \"#utility.yul\":28482:28486   */\n      0x20\n        /* \"#utility.yul\":28475:28480   */\n      dup4\n        /* \"#utility.yul\":28471:28487   */\n      add\n        /* \"#utility.yul\":28465:28488   */\n      mload\n        /* \"#utility.yul\":28508:28598   */\n      tag_613\n        /* \"#utility.yul\":28594:28597   */\n      dup6\n        /* \"#utility.yul\":28580:28592   */\n      dup3\n        /* \"#utility.yul\":28508:28598   */\n      tag_329\n      jump\t// in\n    tag_613:\n        /* \"#utility.yul\":28501:28598   */\n      swap5\n      pop\n        /* \"#utility.yul\":28409:28608   */\n      pop\n        /* \"#utility.yul\":28696:28700   */\n      0x40\n        /* \"#utility.yul\":28689:28694   */\n      dup4\n        /* \"#utility.yul\":28685:28701   */\n      add\n        /* \"#utility.yul\":28679:28702   */\n      mload\n        /* \"#utility.yul\":28722:28792   */\n      tag_614\n        /* \"#utility.yul\":28788:28791   */\n      dup6\n        /* \"#utility.yul\":28774:28786   */\n      dup3\n        /* \"#utility.yul\":28722:28792   */\n      tag_331\n      jump\t// in\n    tag_614:\n        /* \"#utility.yul\":28715:28792   */\n      swap5\n      pop\n        /* \"#utility.yul\":28618:28802   */\n      pop\n        /* \"#utility.yul\":28819:28822   */\n      dup4\n        /* \"#utility.yul\":28812:28822   */\n      swap2\n      pop\n        /* \"#utility.yul\":28155:28828   */\n      pop\n        /* \"#utility.yul\":28043:28828   */\n      swap3\n      swap2\n      pop\n      pop\n      jump\t// out\n        /* \"#utility.yul\":28834:29086   */\n    tag_333:\n        /* \"#utility.yul\":28951:28961   */\n      0x00\n        /* \"#utility.yul\":28986:29080   */\n      tag_616\n        /* \"#utility.yul\":29076:29079   */\n      dup4\n        /* \"#utility.yul\":29068:29074   */\n      dup4\n        /* \"#utility.yul\":28986:29080   */\n      tag_332\n      jump\t// in\n    tag_616:\n        /* \"#utility.yul\":28972:29080   */\n      swap1\n      pop\n        /* \"#utility.yul\":28834:29086   */\n      swap3\n      swap2\n      pop\n      pop\n      jump\t// out\n        /* \"#utility.yul\":29130:29765   */\n    tag_334:\n        /* \"#utility.yul\":29261:29264   */\n      0x00\n        /* \"#utility.yul\":29297:29301   */\n      dup1\n        /* \"#utility.yul\":29292:29295   */\n      dup4\n        /* \"#utility.yul\":29288:29302   */\n      add\n        /* \"#utility.yul\":29384:29388   */\n      0x00\n        /* \"#utility.yul\":29377:29382   */\n      dup4\n        /* \"#utility.yul\":29373:29389   */\n      add\n        /* \"#utility.yul\":29367:29390   */\n      mload\n        /* \"#utility.yul\":29410:29500   */\n      tag_618\n        /* \"#utility.yul\":29496:29499   */\n      dup6\n        /* \"#utility.yul\":29482:29494   */\n      dup3\n        /* \"#utility.yul\":29410:29500   */\n      tag_329\n      jump\t// in\n    tag_618:\n        /* \"#utility.yul\":29403:29500   */\n      swap5\n      pop\n        /* \"#utility.yul\":29312:29510   */\n      pop\n        /* \"#utility.yul\":29593:29597   */\n      0x20\n        /* \"#utility.yul\":29586:29591   */\n      dup4\n        /* \"#utility.yul\":29582:29598   */\n      add\n        /* \"#utility.yul\":29576:29599   */\n      mload\n        /* \"#utility.yul\":29619:29729   */\n      tag_619\n        /* \"#utility.yul\":29725:29728   */\n      dup6\n        /* \"#utility.yul\":29711:29723   */\n      dup3\n        /* \"#utility.yul\":29619:29729   */\n      tag_333\n      jump\t// in\n    tag_619:\n        /* \"#utility.yul\":29612:29729   */\n      swap5\n      pop\n        /* \"#utility.yul\":29520:29739   */\n      pop\n        /* \"#utility.yul\":29756:29759   */\n      dup4\n        /* \"#utility.yul\":29749:29759   */\n      swap2\n      pop\n        /* \"#utility.yul\":29266:29765   */\n      pop\n        /* \"#utility.yul\":29130:29765   */\n      swap3\n      swap2\n      pop\n      pop\n      jump\t// out\n        /* \"#utility.yul\":29771:30094   */\n    tag_161:\n        /* \"#utility.yul\":29927:29930   */\n      0x00\n        /* \"#utility.yul\":29949:30068   */\n      tag_621\n        /* \"#utility.yul\":30064:30067   */\n      dup3\n        /* \"#utility.yul\":30055:30061   */\n      dup5\n        /* \"#utility.yul\":29949:30068   */\n      tag_334\n      jump\t// in\n    tag_621:\n        /* \"#utility.yul\":29942:30068   */\n      swap2\n      pop\n        /* \"#utility.yul\":30085:30088   */\n      dup2\n        /* \"#utility.yul\":30078:30088   */\n      swap1\n      pop\n        /* \"#utility.yul\":29771:30094   */\n      swap3\n      swap2\n      pop\n      pop\n      jump\t// out\n        /* \"#utility.yul\":30100:30208   */\n    tag_335:\n        /* \"#utility.yul\":30177:30201   */\n      tag_623\n        /* \"#utility.yul\":30195:30200   */\n      dup2\n        /* \"#utility.yul\":30177:30201   */\n      tag_272\n      jump\t// in\n    tag_623:\n        /* \"#utility.yul\":30172:30175   */\n      dup3\n        /* \"#utility.yul\":30165:30202   */\n      mstore\n        /* \"#utility.yul\":30100:30208   */\n      pop\n      pop\n      jump\t// out\n        /* \"#utility.yul\":30252:31839   */\n    tag_336:\n        /* \"#utility.yul\":30365:30368   */\n      0x00\n        /* \"#utility.yul\":30401:30405   */\n      0xc0\n        /* \"#utility.yul\":30396:30399   */\n      dup4\n        /* \"#utility.yul\":30392:30406   */\n      add\n        /* \"#utility.yul\":30490:30494   */\n      0x00\n        /* \"#utility.yul\":30483:30488   */\n      dup4\n        /* \"#utility.yul\":30479:30495   */\n      add\n        /* \"#utility.yul\":30473:30496   */\n      mload\n        /* \"#utility.yul\":30543:30546   */\n      dup5\n        /* \"#utility.yul\":30537:30541   */\n      dup3\n        /* \"#utility.yul\":30533:30547   */\n      sub\n        /* \"#utility.yul\":30526:30530   */\n      0x00\n        /* \"#utility.yul\":30521:30524   */\n      dup7\n        /* \"#utility.yul\":30517:30531   */\n      add\n        /* \"#utility.yul\":30510:30548   */\n      mstore\n        /* \"#utility.yul\":30569:30666   */\n      tag_625\n        /* \"#utility.yul\":30661:30665   */\n      dup3\n        /* \"#utility.yul\":30647:30659   */\n      dup3\n        /* \"#utility.yul\":30569:30666   */\n      tag_278\n      jump\t// in\n    tag_625:\n        /* \"#utility.yul\":30561:30666   */\n      swap2\n      pop\n        /* \"#utility.yul\":30416:30677   */\n      pop\n        /* \"#utility.yul\":30757:30761   */\n      0x20\n        /* \"#utility.yul\":30750:30755   */\n      dup4\n        /* \"#utility.yul\":30746:30762   */\n      add\n        /* \"#utility.yul\":30740:30763   */\n      mload\n        /* \"#utility.yul\":30776:30839   */\n      tag_626\n        /* \"#utility.yul\":30833:30837   */\n      0x20\n        /* \"#utility.yul\":30828:30831   */\n      dup7\n        /* \"#utility.yul\":30824:30838   */\n      add\n        /* \"#utility.yul\":30810:30822   */\n      dup3\n        /* \"#utility.yul\":30776:30839   */\n      tag_269\n      jump\t// in\n    tag_626:\n        /* \"#utility.yul\":30687:30849   */\n      pop\n        /* \"#utility.yul\":30936:30940   */\n      0x40\n        /* \"#utility.yul\":30929:30934   */\n      dup4\n        /* \"#utility.yul\":30925:30941   */\n      add\n        /* \"#utility.yul\":30919:30942   */\n      mload\n        /* \"#utility.yul\":30955:31018   */\n      tag_627\n        /* \"#utility.yul\":31012:31016   */\n      0x40\n        /* \"#utility.yul\":31007:31010   */\n      dup7\n        /* \"#utility.yul\":31003:31017   */\n      add\n        /* \"#utility.yul\":30989:31001   */\n      dup3\n        /* \"#utility.yul\":30955:31018   */\n      tag_335\n      jump\t// in\n    tag_627:\n        /* \"#utility.yul\":30859:31028   */\n      pop\n        /* \"#utility.yul\":31114:31118   */\n      0x60\n        /* \"#utility.yul\":31107:31112   */\n      dup4\n        /* \"#utility.yul\":31103:31119   */\n      add\n        /* \"#utility.yul\":31097:31120   */\n      mload\n        /* \"#utility.yul\":31167:31170   */\n      dup5\n        /* \"#utility.yul\":31161:31165   */\n      dup3\n        /* \"#utility.yul\":31157:31171   */\n      sub\n        /* \"#utility.yul\":31150:31154   */\n      0x60\n        /* \"#utility.yul\":31145:31148   */\n      dup7\n        /* \"#utility.yul\":31141:31155   */\n      add\n        /* \"#utility.yul\":31134:31172   */\n      mstore\n        /* \"#utility.yul\":31193:31286   */\n      tag_628\n        /* \"#utility.yul\":31281:31285   */\n      dup3\n        /* \"#utility.yul\":31267:31279   */\n      dup3\n        /* \"#utility.yul\":31193:31286   */\n      tag_270\n      jump\t// in\n    tag_628:\n        /* \"#utility.yul\":31185:31286   */\n      swap2\n      pop\n        /* \"#utility.yul\":31038:31297   */\n      pop\n        /* \"#utility.yul\":31383:31387   */\n      0x80\n        /* \"#utility.yul\":31376:31381   */\n      dup4\n        /* \"#utility.yul\":31372:31388   */\n      add\n        /* \"#utility.yul\":31366:31389   */\n      mload\n        /* \"#utility.yul\":31436:31439   */\n      dup5\n        /* \"#utility.yul\":31430:31434   */\n      dup3\n        /* \"#utility.yul\":31426:31440   */\n      sub\n        /* \"#utility.yul\":31419:31423   */\n      0x80\n        /* \"#utility.yul\":31414:31417   */\n      dup7\n        /* \"#utility.yul\":31410:31424   */\n      add\n        /* \"#utility.yul\":31403:31441   */\n      mstore\n        /* \"#utility.yul\":31462:31555   */\n      tag_629\n        /* \"#utility.yul\":31550:31554   */\n      dup3\n        /* \"#utility.yul\":31536:31548   */\n      dup3\n        /* \"#utility.yul\":31462:31555   */\n      tag_270\n      jump\t// in\n    tag_629:\n        /* \"#utility.yul\":31454:31555   */\n      swap2\n      pop\n        /* \"#utility.yul\":31307:31566   */\n      pop\n        /* \"#utility.yul\":31649:31653   */\n      0xa0\n        /* \"#utility.yul\":31642:31647   */\n      dup4\n        /* \"#utility.yul\":31638:31654   */\n      add\n        /* \"#utility.yul\":31632:31655   */\n      mload\n        /* \"#utility.yul\":31702:31705   */\n      dup5\n        /* \"#utility.yul\":31696:31700   */\n      dup3\n        /* \"#utility.yul\":31692:31706   */\n      sub\n        /* \"#utility.yul\":31685:31689   */\n      0xa0\n        /* \"#utility.yul\":31680:31683   */\n      dup7\n        /* \"#utility.yul\":31676:31690   */\n      add\n        /* \"#utility.yul\":31669:31707   */\n      mstore\n        /* \"#utility.yul\":31728:31801   */\n      tag_630\n        /* \"#utility.yul\":31796:31800   */\n      dup3\n        /* \"#utility.yul\":31782:31794   */\n      dup3\n        /* \"#utility.yul\":31728:31801   */\n      tag_266\n      jump\t// in\n    tag_630:\n        /* \"#utility.yul\":31720:31801   */\n      swap2\n      pop\n        /* \"#utility.yul\":31576:31812   */\n      pop\n        /* \"#utility.yul\":31829:31833   */\n      dup1\n        /* \"#utility.yul\":31822:31833   */\n      swap2\n      pop\n        /* \"#utility.yul\":30370:31839   */\n      pop\n        /* \"#utility.yul\":30252:31839   */\n      swap3\n      swap2\n      pop\n      pop\n      jump\t// out\n        /* \"#utility.yul\":31845:32206   */\n    tag_163:\n        /* \"#utility.yul\":31982:31986   */\n      0x00\n        /* \"#utility.yul\":32020:32022   */\n      0x20\n        /* \"#utility.yul\":32009:32018   */\n      dup3\n        /* \"#utility.yul\":32005:32023   */\n      add\n        /* \"#utility.yul\":31997:32023   */\n      swap1\n      pop\n        /* \"#utility.yul\":32069:32078   */\n      dup2\n        /* \"#utility.yul\":32063:32067   */\n      dup2\n        /* \"#utility.yul\":32059:32079   */\n      sub\n        /* \"#utility.yul\":32055:32056   */\n      0x00\n        /* \"#utility.yul\":32044:32053   */\n      dup4\n        /* \"#utility.yul\":32040:32057   */\n      add\n        /* \"#utility.yul\":32033:32080   */\n      mstore\n        /* \"#utility.yul\":32097:32199   */\n      tag_632\n        /* \"#utility.yul\":32194:32198   */\n      dup2\n        /* \"#utility.yul\":32185:32191   */\n      dup5\n        /* \"#utility.yul\":32097:32199   */\n      tag_336\n      jump\t// in\n    tag_632:\n        /* \"#utility.yul\":32089:32199   */\n      swap1\n      pop\n        /* \"#utility.yul\":31845:32206   */\n      swap3\n      swap2\n      pop\n      pop\n      jump\t// out\n        /* \"#utility.yul\":32212:32375   */\n    tag_337:\n        /* \"#utility.yul\":32352:32367   */\n      0x4f626a656374206c6f636b656400000000000000000000000000000000000000\n        /* \"#utility.yul\":32348:32349   */\n      0x00\n        /* \"#utility.yul\":32340:32346   */\n      dup3\n        /* \"#utility.yul\":32336:32350   */\n      add\n        /* \"#utility.yul\":32329:32368   */\n      mstore\n        /* \"#utility.yul\":32212:32375   */\n      pop\n      jump\t// out\n        /* \"#utility.yul\":32381:32747   */\n    tag_338:\n        /* \"#utility.yul\":32523:32526   */\n      0x00\n        /* \"#utility.yul\":32544:32611   */\n      tag_635\n        /* \"#utility.yul\":32608:32610   */\n      0x0d\n        /* \"#utility.yul\":32603:32606   */\n      dup4\n        /* \"#utility.yul\":32544:32611   */\n      tag_282\n      jump\t// in\n    tag_635:\n        /* \"#utility.yul\":32537:32611   */\n      swap2\n      pop\n        /* \"#utility.yul\":32620:32713   */\n      tag_636\n        /* \"#utility.yul\":32709:32712   */\n      dup3\n        /* \"#utility.yul\":32620:32713   */\n      tag_337\n      jump\t// in\n    tag_636:\n        /* \"#utility.yul\":32738:32740   */\n      0x20\n        /* \"#utility.yul\":32733:32736   */\n      dup3\n        /* \"#utility.yul\":32729:32741   */\n      add\n        /* \"#utility.yul\":32722:32741   */\n      swap1\n      pop\n        /* \"#utility.yul\":32381:32747   */\n      swap2\n      swap1\n      pop\n      jump\t// out\n        /* \"#utility.yul\":32753:33172   */\n    tag_237:\n        /* \"#utility.yul\":32919:32923   */\n      0x00\n        /* \"#utility.yul\":32957:32959   */\n      0x20\n        /* \"#utility.yul\":32946:32955   */\n      dup3\n        /* \"#utility.yul\":32942:32960   */\n      add\n        /* \"#utility.yul\":32934:32960   */\n      swap1\n      pop\n        /* \"#utility.yul\":33006:33015   */\n      dup2\n        /* \"#utility.yul\":33000:33004   */\n      dup2\n        /* \"#utility.yul\":32996:33016   */\n      sub\n        /* \"#utility.yul\":32992:32993   */\n      0x00\n        /* \"#utility.yul\":32981:32990   */\n      dup4\n        /* \"#utility.yul\":32977:32994   */\n      add\n        /* \"#utility.yul\":32970:33017   */\n      mstore\n        /* \"#utility.yul\":33034:33165   */\n      tag_638\n        /* \"#utility.yul\":33160:33164   */\n      dup2\n        /* \"#utility.yul\":33034:33165   */\n      tag_338\n      jump\t// in\n    tag_638:\n        /* \"#utility.yul\":33026:33165   */\n      swap1\n      pop\n        /* \"#utility.yul\":32753:33172   */\n      swap2\n      swap1\n      pop\n      jump\t// out\n\n    auxdata: 0xa2646970667358221220b633dab95bebc57dbfbdf690fac36c4ba9293599a5319e711748daf013dfdedd64736f6c63430008180033\n}\n",
				"bytecode": {
					"linkReferences": {},
					"object": "608060405234801562000010575f80fd5b5060405162002e4938038062002e49833981810160405281019062000036919062000275565b815f908162000046919062000510565b508060015f6101000a81548173ffffffffffffffffffffffffffffffffffffffff021916908373ffffffffffffffffffffffffffffffffffffffff1602179055505050620005f4565b5f604051905090565b5f80fd5b5f80fd5b5f80fd5b5f80fd5b5f601f19601f8301169050919050565b7f4e487b71000000000000000000000000000000000000000000000000000000005f52604160045260245ffd5b620000f082620000a8565b810181811067ffffffffffffffff82111715620001125762000111620000b8565b5b80604052505050565b5f620001266200008f565b9050620001348282620000e5565b919050565b5f67ffffffffffffffff821115620001565762000155620000b8565b5b6200016182620000a8565b9050602081019050919050565b5f5b838110156200018d57808201518184015260208101905062000170565b5f8484015250505050565b5f620001ae620001a88462000139565b6200011b565b905082815260208101848484011115620001cd57620001cc620000a4565b5b620001da8482856200016e565b509392505050565b5f82601f830112620001f957620001f8620000a0565b5b81516200020b84826020860162000198565b91505092915050565b5f73ffffffffffffffffffffffffffffffffffffffff82169050919050565b5f6200023f8262000214565b9050919050565b620002518162000233565b81146200025c575f80fd5b50565b5f815190506200026f8162000246565b92915050565b5f80604083850312156200028e576200028d62000098565b5b5f83015167ffffffffffffffff811115620002ae57620002ad6200009c565b5b620002bc85828601620001e2565b9250506020620002cf858286016200025f565b9150509250929050565b5f81519050919050565b7f4e487b71000000000000000000000000000000000000000000000000000000005f52602260045260245ffd5b5f60028204905060018216806200032857607f821691505b6020821081036200033e576200033d620002e3565b5b50919050565b5f819050815f5260205f209050919050565b5f6020601f8301049050919050565b5f82821b905092915050565b5f60088302620003a27fffffffffffffffffffffffffffffffffffffffffffffffffffffffffffffffff8262000365565b620003ae868362000365565b95508019841693508086168417925050509392505050565b5f819050919050565b5f819050919050565b5f620003f8620003f2620003ec84620003c6565b620003cf565b620003c6565b9050919050565b5f819050919050565b6200041383620003d8565b6200042b6200042282620003ff565b84845462000371565b825550505050565b5f90565b6200044162000433565b6200044e81848462000408565b505050565b5b818110156200047557620004695f8262000437565b60018101905062000454565b5050565b601f821115620004c4576200048e8162000344565b620004998462000356565b81016020851015620004a9578190505b620004c1620004b88562000356565b83018262000453565b50505b505050565b5f82821c905092915050565b5f620004e65f1984600802620004c9565b1980831691505092915050565b5f620005008383620004d5565b9150826002028217905092915050565b6200051b82620002d9565b67ffffffffffffffff811115620005375762000536620000b8565b5b62000543825462000310565b6200055082828562000479565b5f60209050601f83116001811462000586575f841562000571578287015190505b6200057d8582620004f3565b865550620005ec565b601f198416620005968662000344565b5f5b82811015620005bf5784890151825560018201915060208501945060208101905062000598565b86831015620005df5784890151620005db601f891682620004d5565b8355505b6001600288020188555050505b505050505050565b61284780620006025f395ff3fe608060405234801561000f575f80fd5b50600436106100b2575f3560e01c80638da5cb5b1161006f5780638da5cb5b1461018a578063b83c893a146101a8578063cfe50a0c146101c4578063ef3cada2146101e2578063f3030f9514610212578063ff9e0c321461022e576100b2565b80630153ea91146100b65780630269ba5c146100e657806306fdde03146101165780634408497d14610134578063784544ec146101525780637f191d471461016e575b5f80fd5b6100d060048036038101906100cb9190611923565b61024a565b6040516100dd9190611acc565b60405180910390f35b61010060048036038101906100fb9190611b1f565b6104b2565b60405161010d9190611c59565b60405180910390f35b61011e610807565b60405161012b9190611cc1565b60405180910390f35b61013c610892565b6040516101499190611cf0565b60405180910390f35b61016c60048036038101906101679190611923565b61089e565b005b61018860048036038101906101839190611efc565b6109fe565b005b610192610c57565b60405161019f9190611f84565b60405180910390f35b6101c260048036038101906101bd9190611efc565b610c7c565b005b6101cc61127f565b6040516101d99190611c59565b60405180910390f35b6101fc60048036038101906101f79190611923565b61157a565b6040516102099190611fb7565b60405180910390f35b61022c60048036038101906102279190611923565b6115f2565b005b61024860048036038101906102439190611923565b6116a2565b005b61025261185b565b828261025e82826117e0565b610266575f80fd5b60048585604051610278929190611ffe565b90815260200160405180910390206040518060400160405290815f820180546102a090612043565b80601f01602080910402602001604051908101604052809291908181526020018280546102cc90612043565b80156103175780601f106102ee57610100808354040283529160200191610317565b820191905f5260205f20905b8154815290600101906020018083116102fa57829003601f168201915b50505050508152602001600182016040518060600160405290815f8201805461033f90612043565b80601f016020809104026020016040519081016040528092919081815260200182805461036b90612043565b80156103b65780601f1061038d576101008083540402835291602001916103b6565b820191905f5260205f20905b81548152906001019060200180831161039957829003601f168201915b505050505081526020016001820180546103cf90612043565b80601f01602080910402602001604051908101604052809291908181526020018280546103fb90612043565b80156104465780601f1061041d57610100808354040283529160200191610446565b820191905f5260205f20905b81548152906001019060200180831161042957829003601f168201915b50505050508152602001600282015f9054906101000a900473ffffffffffffffffffffffffffffffffffffffff1673ffffffffffffffffffffffffffffffffffffffff1673ffffffffffffffffffffffffffffffffffffffff1681525050815250509250505092915050565b60608160038054905081106104fc576040517f08c379a00000000000000000000000000000000000000000000000000000000081526004016104f3906120bd565b60405180910390fd5b5f84846105099190612108565b90505f8167ffffffffffffffff81111561052657610525611d0d565b5b60405190808252806020026020018201604052801561055f57816020015b61054c61185b565b8152602001906001900390816105445790505b5090505f8690505b8581116107fa576004600382815481106105845761058361213b565b5b905f5260205f200160405161059991906121fa565b90815260200160405180910390206040518060400160405290815f820180546105c190612043565b80601f01602080910402602001604051908101604052809291908181526020018280546105ed90612043565b80156106385780601f1061060f57610100808354040283529160200191610638565b820191905f5260205f20905b81548152906001019060200180831161061b57829003601f168201915b50505050508152602001600182016040518060600160405290815f8201805461066090612043565b80601f016020809104026020016040519081016040528092919081815260200182805461068c90612043565b80156106d75780601f106106ae576101008083540402835291602001916106d7565b820191905f5260205f20905b8154815290600101906020018083116106ba57829003601f168201915b505050505081526020016001820180546106f090612043565b80601f016020809104026020016040519081016040528092919081815260200182805461071c90612043565b80156107675780601f1061073e57610100808354040283529160200191610767565b820191905f5260205f20905b81548152906001019060200180831161074a57829003601f168201915b50505050508152602001600282015f9054906101000a900473ffffffffffffffffffffffffffffffffffffffff1673ffffffffffffffffffffffffffffffffffffffff1673ffffffffffffffffffffffffffffffffffffffff1681525050815250508282815181106107dc576107db61213b565b5b602002602001018190525080806107f290612210565b915050610567565b5080935050505092915050565b5f805461081390612043565b80601f016020809104026020016040519081016040528092919081815260200182805461083f90612043565b801561088a5780601f106108615761010080835404028352916020019161088a565b820191905f5260205f20905b81548152906001019060200180831161086d57829003601f168201915b505050505081565b5f600380549050905090565b81816108aa828261157a565b6108e9576040517f08c379a00000000000000000000000000000000000000000000000000000000081526004016108e0906122a1565b60405180910390fd5b8383600282826040516108fd929190611ffe565b90815260200160405180910390205f9054906101000a900473ffffffffffffffffffffffffffffffffffffffff1673ffffffffffffffffffffffffffffffffffffffff163373ffffffffffffffffffffffffffffffffffffffff1614610998576040517f08c379a000000000000000000000000000000000000000000000000000000000815260040161098f90612309565b60405180910390fd5b5f600287876040516109ab929190611ffe565b90815260200160405180910390205f6101000a81548173ffffffffffffffffffffffffffffffffffffffff021916908373ffffffffffffffffffffffffffffffffffffffff160217905550505050505050565b8282610a0a82826117e0565b15610a13575f80fd5b5f33905080846040019073ffffffffffffffffffffffffffffffffffffffff16908173ffffffffffffffffffffffffffffffffffffffff16815250505f604051806040016040528088888080601f0160208091040260200160405190810160405280939291908181526020018383808284375f81840152601f19601f820116905080830192505050505050508152602001868152509050806004825f0151604051610abe9190612357565b90815260200160405180910390205f820151815f019081610adf91906124f8565b506020820151816001015f820151815f019081610afc91906124f8565b506020820151816001019081610b1291906124f8565b506040820151816002015f6101000a81548173ffffffffffffffffffffffffffffffffffffffff021916908373ffffffffffffffffffffffffffffffffffffffff16021790555050509050506003815f0151908060018154018082558091505060019003905f5260205f20015f909190919091509081610b9291906124f8565b505f6040518060c001604052808381526020018473ffffffffffffffffffffffffffffffffffffffff1681526020014281526020018360200151815260200183602001518152602001836020015160200151815250905081604051610bf791906126c9565b60405180910390208373ffffffffffffffffffffffffffffffffffffffff167f3a81a26506fddefe4586928869f84f4a59463a4bf4f3df96de9204c1d126d3b283604051610c459190612789565b60405180910390a35050505050505050565b60015f9054906101000a900473ffffffffffffffffffffffffffffffffffffffff1681565b8282610c8882826117e0565b610c90575f80fd5b5f33905080846040019073ffffffffffffffffffffffffffffffffffffffff16908173ffffffffffffffffffffffffffffffffffffffff16815250505f604051806040016040528088888080601f0160208091040260200160405190810160405280939291908181526020018383808284375f81840152601f19601f8201169050808301925050505050505081526020018681525090505f6040518060c001604052806004845f0151604051610d469190612357565b90815260200160405180910390206040518060400160405290815f82018054610d6e90612043565b80601f0160208091040260200160405190810160405280929190818152602001828054610d9a90612043565b8015610de55780601f10610dbc57610100808354040283529160200191610de5565b820191905f5260205f20905b815481529060010190602001808311610dc857829003601f168201915b50505050508152602001600182016040518060600160405290815f82018054610e0d90612043565b80601f0160208091040260200160405190810160405280929190818152602001828054610e3990612043565b8015610e845780601f10610e5b57610100808354040283529160200191610e84565b820191905f5260205f20905b815481529060010190602001808311610e6757829003601f168201915b50505050508152602001600182018054610e9d90612043565b80601f0160208091040260200160405190810160405280929190818152602001828054610ec990612043565b8015610f145780601f10610eeb57610100808354040283529160200191610f14565b820191905f5260205f20905b815481529060010190602001808311610ef757829003601f168201915b50505050508152602001600282015f9054906101000a900473ffffffffffffffffffffffffffffffffffffffff1673ffffffffffffffffffffffffffffffffffffffff1673ffffffffffffffffffffffffffffffffffffffff16815250508152505081526020018473ffffffffffffffffffffffffffffffffffffffff1681526020014281526020016004845f0151604051610fb09190612357565b90815260200160405180910390206001016040518060600160405290815f82018054610fdb90612043565b80601f016020809104026020016040519081016040528092919081815260200182805461100790612043565b80156110525780601f1061102957610100808354040283529160200191611052565b820191905f5260205f20905b81548152906001019060200180831161103557829003601f168201915b5050505050815260200160018201805461106b90612043565b80601f016020809104026020016040519081016040528092919081815260200182805461109790612043565b80156110e25780601f106110b9576101008083540402835291602001916110e2565b820191905f5260205f20905b8154815290600101906020018083116110c557829003601f168201915b50505050508152602001600282015f9054906101000a900473ffffffffffffffffffffffffffffffffffffffff1673ffffffffffffffffffffffffffffffffffffffff1673ffffffffffffffffffffffffffffffffffffffff16815250508152602001836020015181526020018360200151602001518152509050816004835f01516040516111719190612357565b90815260200160405180910390205f820151815f01908161119291906124f8565b506020820151816001015f820151815f0190816111af91906124f8565b5060208201518160010190816111c591906124f8565b506040820151816002015f6101000a81548173ffffffffffffffffffffffffffffffffffffffff021916908373ffffffffffffffffffffffffffffffffffffffff16021790555050509050508160405161121f91906126c9565b60405180910390208373ffffffffffffffffffffffffffffffffffffffff167f13865537d60c2bfeec4e9564da7a79fa675751782ab1da10434025f0b662365e8360405161126d9190612789565b60405180910390a35050505050505050565b60605f60038054905067ffffffffffffffff8111156112a1576112a0611d0d565b5b6040519080825280602002602001820160405280156112da57816020015b6112c761185b565b8152602001906001900390816112bf5790505b5090505f5b600380549050811015611572576004600382815481106113025761130161213b565b5b905f5260205f200160405161131791906121fa565b90815260200160405180910390206040518060400160405290815f8201805461133f90612043565b80601f016020809104026020016040519081016040528092919081815260200182805461136b90612043565b80156113b65780601f1061138d576101008083540402835291602001916113b6565b820191905f5260205f20905b81548152906001019060200180831161139957829003601f168201915b50505050508152602001600182016040518060600160405290815f820180546113de90612043565b80601f016020809104026020016040519081016040528092919081815260200182805461140a90612043565b80156114555780601f1061142c57610100808354040283529160200191611455565b820191905f5260205f20905b81548152906001019060200180831161143857829003601f168201915b5050505050815260200160018201805461146e90612043565b80601f016020809104026020016040519081016040528092919081815260200182805461149a90612043565b80156114e55780601f106114bc576101008083540402835291602001916114e5565b820191905f5260205f20905b8154815290600101906020018083116114c857829003601f168201915b50505050508152602001600282015f9054906101000a900473ffffffffffffffffffffffffffffffffffffffff1673ffffffffffffffffffffffffffffffffffffffff1673ffffffffffffffffffffffffffffffffffffffff16815250508152505082828151811061155a5761155961213b565b5b602002602001018190525080806001019150506112df565b508091505090565b5f8073ffffffffffffffffffffffffffffffffffffffff16600284846040516115a4929190611ffe565b90815260200160405180910390205f9054906101000a900473ffffffffffffffffffffffffffffffffffffffff1673ffffffffffffffffffffffffffffffffffffffff161415905092915050565b81816115fe828261157a565b1561163e576040517f08c379a0000000000000000000000000000000000000000000000000000000008152600401611635906127f3565b60405180910390fd5b3360028585604051611651929190611ffe565b90815260200160405180910390205f6101000a81548173ffffffffffffffffffffffffffffffffffffffff021916908373ffffffffffffffffffffffffffffffffffffffff16021790555050505050565b60015f9054906101000a900473ffffffffffffffffffffffffffffffffffffffff1673ffffffffffffffffffffffffffffffffffffffff163373ffffffffffffffffffffffffffffffffffffffff1614611731576040517f08c379a000000000000000000000000000000000000000000000000000000000815260040161172890612309565b60405180910390fd5b818161173d828261157a565b61177c576040517f08c379a0000000000000000000000000000000000000000000000000000000008152600401611773906122a1565b60405180910390fd5b5f6002858560405161178f929190611ffe565b90815260200160405180910390205f6101000a81548173ffffffffffffffffffffffffffffffffffffffff021916908373ffffffffffffffffffffffffffffffffffffffff16021790555050505050565b5f82826040516020016117f4929190611ffe565b604051602081830303815290604052805190602001206004848460405161181c929190611ffe565b90815260200160405180910390205f0160405160200161183c91906121fa565b6040516020818303038152906040528051906020012014905092915050565b60405180604001604052806060815260200161187561187b565b81525090565b604051806060016040528060608152602001606081526020015f73ffffffffffffffffffffffffffffffffffffffff1681525090565b5f604051905090565b5f80fd5b5f80fd5b5f80fd5b5f80fd5b5f80fd5b5f8083601f8401126118e3576118e26118c2565b5b8235905067ffffffffffffffff811115611900576118ff6118c6565b5b60208301915083600182028301111561191c5761191b6118ca565b5b9250929050565b5f8060208385031215611939576119386118ba565b5b5f83013567ffffffffffffffff811115611956576119556118be565b5b611962858286016118ce565b92509250509250929050565b5f81519050919050565b5f82825260208201905092915050565b5f5b838110156119a557808201518184015260208101905061198a565b5f8484015250505050565b5f601f19601f8301169050919050565b5f6119ca8261196e565b6119d48185611978565b93506119e4818560208601611988565b6119ed816119b0565b840191505092915050565b5f73ffffffffffffffffffffffffffffffffffffffff82169050919050565b5f611a21826119f8565b9050919050565b611a3181611a17565b82525050565b5f606083015f8301518482035f860152611a5182826119c0565b91505060208301518482036020860152611a6b82826119c0565b9150506040830151611a806040860182611a28565b508091505092915050565b5f604083015f8301518482035f860152611aa582826119c0565b91505060208301518482036020860152611abf8282611a37565b9150508091505092915050565b5f6020820190508181035f830152611ae48184611a8b565b905092915050565b5f819050919050565b611afe81611aec565b8114611b08575f80fd5b50565b5f81359050611b1981611af5565b92915050565b5f8060408385031215611b3557611b346118ba565b5b5f611b4285828601611b0b565b9250506020611b5385828601611b0b565b9150509250929050565b5f81519050919050565b5f82825260208201905092915050565b5f819050602082019050919050565b5f604083015f8301518482035f860152611ba082826119c0565b91505060208301518482036020860152611bba8282611a37565b9150508091505092915050565b5f611bd28383611b86565b905092915050565b5f602082019050919050565b5f611bf082611b5d565b611bfa8185611b67565b935083602082028501611c0c85611b77565b805f5b85811015611c475784840389528151611c288582611bc7565b9450611c3383611bda565b925060208a01995050600181019050611c0f565b50829750879550505050505092915050565b5f6020820190508181035f830152611c718184611be6565b905092915050565b5f82825260208201905092915050565b5f611c938261196e565b611c9d8185611c79565b9350611cad818560208601611988565b611cb6816119b0565b840191505092915050565b5f6020820190508181035f830152611cd98184611c89565b905092915050565b611cea81611aec565b82525050565b5f602082019050611d035f830184611ce1565b92915050565b5f80fd5b7f4e487b71000000000000000000000000000000000000000000000000000000005f52604160045260245ffd5b611d43826119b0565b810181811067ffffffffffffffff82111715611d6257611d61611d0d565b5b80604052505050565b5f611d746118b1565b9050611d808282611d3a565b919050565b5f80fd5b5f80fd5b5f67ffffffffffffffff821115611da757611da6611d0d565b5b611db0826119b0565b9050602081019050919050565b828183375f83830152505050565b5f611ddd611dd884611d8d565b611d6b565b905082815260208101848484011115611df957611df8611d89565b5b611e04848285611dbd565b509392505050565b5f82601f830112611e2057611e1f6118c2565b5b8135611e30848260208601611dcb565b91505092915050565b611e4281611a17565b8114611e4c575f80fd5b50565b5f81359050611e5d81611e39565b92915050565b5f60608284031215611e7857611e77611d09565b5b611e826060611d6b565b90505f82013567ffffffffffffffff811115611ea157611ea0611d85565b5b611ead84828501611e0c565b5f83015250602082013567ffffffffffffffff811115611ed057611ecf611d85565b5b611edc84828501611e0c565b6020830152506040611ef084828501611e4f565b60408301525092915050565b5f805f60408486031215611f1357611f126118ba565b5b5f84013567ffffffffffffffff811115611f3057611f2f6118be565b5b611f3c868287016118ce565b9350935050602084013567ffffffffffffffff811115611f5f57611f5e6118be565b5b611f6b86828701611e63565b9150509250925092565b611f7e81611a17565b82525050565b5f602082019050611f975f830184611f75565b92915050565b5f8115159050919050565b611fb181611f9d565b82525050565b5f602082019050611fca5f830184611fa8565b92915050565b5f81905092915050565b5f611fe58385611fd0565b9350611ff2838584611dbd565b82840190509392505050565b5f61200a828486611fda565b91508190509392505050565b7f4e487b71000000000000000000000000000000000000000000000000000000005f52602260045260245ffd5b5f600282049050600182168061205a57607f821691505b60208210810361206d5761206c612016565b5b50919050565b7f696e646578206f7574206f662072616e676500000000000000000000000000005f82015250565b5f6120a7601283611c79565b91506120b282612073565b602082019050919050565b5f6020820190508181035f8301526120d48161209b565b9050919050565b7f4e487b71000000000000000000000000000000000000000000000000000000005f52601160045260245ffd5b5f61211282611aec565b915061211d83611aec565b9250828203905081811115612135576121346120db565b5b92915050565b7f4e487b71000000000000000000000000000000000000000000000000000000005f52603260045260245ffd5b5f819050815f5260205f209050919050565b5f815461218681612043565b6121908186611fd0565b9450600182165f81146121aa57600181146121bf576121f1565b60ff19831686528115158202860193506121f1565b6121c885612168565b5f5b838110156121e9578154818901526001820191506020810190506121ca565b838801955050505b50505092915050565b5f612205828461217a565b915081905092915050565b5f61221a82611aec565b91507fffffffffffffffffffffffffffffffffffffffffffffffffffffffffffffffff820361224c5761224b6120db565b5b600182019050919050565b7f4f626a656374206e6f74206c6f636b65640000000000000000000000000000005f82015250565b5f61228b601183611c79565b915061229682612257565b602082019050919050565b5f6020820190508181035f8301526122b88161227f565b9050919050565b7f596f7520617265206e6f7420746865206f776e65722e000000000000000000005f82015250565b5f6122f3601683611c79565b91506122fe826122bf565b602082019050919050565b5f6020820190508181035f830152612320816122e7565b9050919050565b5f6123318261196e565b61233b8185611fd0565b935061234b818560208601611988565b80840191505092915050565b5f6123628284612327565b915081905092915050565b5f6020601f8301049050919050565b5f82821b905092915050565b5f600883026123b77fffffffffffffffffffffffffffffffffffffffffffffffffffffffffffffffff8261237c565b6123c1868361237c565b95508019841693508086168417925050509392505050565b5f819050919050565b5f6123fc6123f76123f284611aec565b6123d9565b611aec565b9050919050565b5f819050919050565b612415836123e2565b61242961242182612403565b848454612388565b825550505050565b5f90565b61243d612431565b61244881848461240c565b505050565b5b8181101561246b576124605f82612435565b60018101905061244e565b5050565b601f8211156124b05761248181612168565b61248a8461236d565b81016020851015612499578190505b6124ad6124a58561236d565b83018261244d565b50505b505050565b5f82821c905092915050565b5f6124d05f19846008026124b5565b1980831691505092915050565b5f6124e883836124c1565b9150826002028217905092915050565b6125018261196e565b67ffffffffffffffff81111561251a57612519611d0d565b5b6125248254612043565b61252f82828561246f565b5f60209050601f831160018114612560575f841561254e578287015190505b61255885826124dd565b8655506125bf565b601f19841661256e86612168565b5f5b8281101561259557848901518255600182019150602085019450602081019050612570565b868310156125b257848901516125ae601f8916826124c1565b8355505b6001600288020188555050505b505050505050565b5f81905092915050565b5f6125db8261196e565b6125e581856125c7565b93506125f5818560208601611988565b6125fe816119b0565b840191505092915050565b5f61261483836125d1565b905092915050565b61262581611a17565b82525050565b5f612636838361261c565b60208301905092915050565b5f8083015f8301516126548582612609565b94505060208301516126668582612609565b9450506040830151612678858261262b565b9450508391505092915050565b5f6126908383612642565b905092915050565b5f8083015f8301516126aa8582612609565b94505060208301516126bc8582612685565b9450508391505092915050565b5f6126d48284612698565b915081905092915050565b6126e881611aec565b82525050565b5f60c083015f8301518482035f8601526127088282611b86565b915050602083015161271d6020860182611a28565b50604083015161273060408601826126df565b50606083015184820360608601526127488282611a37565b915050608083015184820360808601526127628282611a37565b91505060a083015184820360a086015261277c82826119c0565b9150508091505092915050565b5f6020820190508181035f8301526127a181846126ee565b905092915050565b7f4f626a656374206c6f636b6564000000000000000000000000000000000000005f82015250565b5f6127dd600d83611c79565b91506127e8826127a9565b602082019050919050565b5f6020820190508181035f83015261280a816127d1565b905091905056fea2646970667358221220b633dab95bebc57dbfbdf690fac36c4ba9293599a5319e711748daf013dfdedd64736f6c63430008180033",
					"opcodes": "PUSH1 0x80 PUSH1 0x40 MSTORE CALLVALUE DUP1 ISZERO PUSH3 0x10 JUMPI PUSH0 DUP1 REVERT JUMPDEST POP PUSH1 0x40 MLOAD PUSH3 0x2E49 CODESIZE SUB DUP1 PUSH3 0x2E49 DUP4 CODECOPY DUP2 DUP2 ADD PUSH1 0x40 MSTORE DUP2 ADD SWAP1 PUSH3 0x36 SWAP2 SWAP1 PUSH3 0x275 JUMP JUMPDEST DUP2 PUSH0 SWAP1 DUP2 PUSH3 0x46 SWAP2 SWAP1 PUSH3 0x510 JUMP JUMPDEST POP DUP1 PUSH1 0x1 PUSH0 PUSH2 0x100 EXP DUP2 SLOAD DUP2 PUSH20 0xFFFFFFFFFFFFFFFFFFFFFFFFFFFFFFFFFFFFFFFF MUL NOT AND SWAP1 DUP4 PUSH20 0xFFFFFFFFFFFFFFFFFFFFFFFFFFFFFFFFFFFFFFFF AND MUL OR SWAP1 SSTORE POP POP POP PUSH3 0x5F4 JUMP JUMPDEST PUSH0 PUSH1 0x40 MLOAD SWAP1 POP SWAP1 JUMP JUMPDEST PUSH0 DUP1 REVERT JUMPDEST PUSH0 DUP1 REVERT JUMPDEST PUSH0 DUP1 REVERT JUMPDEST PUSH0 DUP1 REVERT JUMPDEST PUSH0 PUSH1 0x1F NOT PUSH1 0x1F DUP4 ADD AND SWAP1 POP SWAP2 SWAP1 POP JUMP JUMPDEST PUSH32 0x4E487B7100000000000000000000000000000000000000000000000000000000 PUSH0 MSTORE PUSH1 0x41 PUSH1 0x4 MSTORE PUSH1 0x24 PUSH0 REVERT JUMPDEST PUSH3 0xF0 DUP3 PUSH3 0xA8 JUMP JUMPDEST DUP2 ADD DUP2 DUP2 LT PUSH8 0xFFFFFFFFFFFFFFFF DUP3 GT OR ISZERO PUSH3 0x112 JUMPI PUSH3 0x111 PUSH3 0xB8 JUMP JUMPDEST JUMPDEST DUP1 PUSH1 0x40 MSTORE POP POP POP JUMP JUMPDEST PUSH0 PUSH3 0x126 PUSH3 0x8F JUMP JUMPDEST SWAP1 POP PUSH3 0x134 DUP3 DUP3 PUSH3 0xE5 JUMP JUMPDEST SWAP2 SWAP1 POP JUMP JUMPDEST PUSH0 PUSH8 0xFFFFFFFFFFFFFFFF DUP3 GT ISZERO PUSH3 0x156 JUMPI PUSH3 0x155 PUSH3 0xB8 JUMP JUMPDEST JUMPDEST PUSH3 0x161 DUP3 PUSH3 0xA8 JUMP JUMPDEST SWAP1 POP PUSH1 0x20 DUP2 ADD SWAP1 POP SWAP2 SWAP1 POP JUMP JUMPDEST PUSH0 JUMPDEST DUP4 DUP2 LT ISZERO PUSH3 0x18D JUMPI DUP1 DUP3 ADD MLOAD DUP2 DUP5 ADD MSTORE PUSH1 0x20 DUP2 ADD SWAP1 POP PUSH3 0x170 JUMP JUMPDEST PUSH0 DUP5 DUP5 ADD MSTORE POP POP POP POP JUMP JUMPDEST PUSH0 PUSH3 0x1AE PUSH3 0x1A8 DUP5 PUSH3 0x139 JUMP JUMPDEST PUSH3 0x11B JUMP JUMPDEST SWAP1 POP DUP3 DUP2 MSTORE PUSH1 0x20 DUP2 ADD DUP5 DUP5 DUP5 ADD GT ISZERO PUSH3 0x1CD JUMPI PUSH3 0x1CC PUSH3 0xA4 JUMP JUMPDEST JUMPDEST PUSH3 0x1DA DUP5 DUP3 DUP6 PUSH3 0x16E JUMP JUMPDEST POP SWAP4 SWAP3 POP POP POP JUMP JUMPDEST PUSH0 DUP3 PUSH1 0x1F DUP4 ADD SLT PUSH3 0x1F9 JUMPI PUSH3 0x1F8 PUSH3 0xA0 JUMP JUMPDEST JUMPDEST DUP2 MLOAD PUSH3 0x20B DUP5 DUP3 PUSH1 0x20 DUP7 ADD PUSH3 0x198 JUMP JUMPDEST SWAP2 POP POP SWAP3 SWAP2 POP POP JUMP JUMPDEST PUSH0 PUSH20 0xFFFFFFFFFFFFFFFFFFFFFFFFFFFFFFFFFFFFFFFF DUP3 AND SWAP1 POP SWAP2 SWAP1 POP JUMP JUMPDEST PUSH0 PUSH3 0x23F DUP3 PUSH3 0x214 JUMP JUMPDEST SWAP1 POP SWAP2 SWAP1 POP JUMP JUMPDEST PUSH3 0x251 DUP2 PUSH3 0x233 JUMP JUMPDEST DUP2 EQ PUSH3 0x25C JUMPI PUSH0 DUP1 REVERT JUMPDEST POP JUMP JUMPDEST PUSH0 DUP2 MLOAD SWAP1 POP PUSH3 0x26F DUP2 PUSH3 0x246 JUMP JUMPDEST SWAP3 SWAP2 POP POP JUMP JUMPDEST PUSH0 DUP1 PUSH1 0x40 DUP4 DUP6 SUB SLT ISZERO PUSH3 0x28E JUMPI PUSH3 0x28D PUSH3 0x98 JUMP JUMPDEST JUMPDEST PUSH0 DUP4 ADD MLOAD PUSH8 0xFFFFFFFFFFFFFFFF DUP2 GT ISZERO PUSH3 0x2AE JUMPI PUSH3 0x2AD PUSH3 0x9C JUMP JUMPDEST JUMPDEST PUSH3 0x2BC DUP6 DUP3 DUP7 ADD PUSH3 0x1E2 JUMP JUMPDEST SWAP3 POP POP PUSH1 0x20 PUSH3 0x2CF DUP6 DUP3 DUP7 ADD PUSH3 0x25F JUMP JUMPDEST SWAP2 POP POP SWAP3 POP SWAP3 SWAP1 POP JUMP JUMPDEST PUSH0 DUP2 MLOAD SWAP1 POP SWAP2 SWAP1 POP JUMP JUMPDEST PUSH32 0x4E487B7100000000000000000000000000000000000000000000000000000000 PUSH0 MSTORE PUSH1 0x22 PUSH1 0x4 MSTORE PUSH1 0x24 PUSH0 REVERT JUMPDEST PUSH0 PUSH1 0x2 DUP3 DIV SWAP1 POP PUSH1 0x1 DUP3 AND DUP1 PUSH3 0x328 JUMPI PUSH1 0x7F DUP3 AND SWAP2 POP JUMPDEST PUSH1 0x20 DUP3 LT DUP2 SUB PUSH3 0x33E JUMPI PUSH3 0x33D PUSH3 0x2E3 JUMP JUMPDEST JUMPDEST POP SWAP2 SWAP1 POP JUMP JUMPDEST PUSH0 DUP2 SWAP1 POP DUP2 PUSH0 MSTORE PUSH1 0x20 PUSH0 KECCAK256 SWAP1 POP SWAP2 SWAP1 POP JUMP JUMPDEST PUSH0 PUSH1 0x20 PUSH1 0x1F DUP4 ADD DIV SWAP1 POP SWAP2 SWAP1 POP JUMP JUMPDEST PUSH0 DUP3 DUP3 SHL SWAP1 POP SWAP3 SWAP2 POP POP JUMP JUMPDEST PUSH0 PUSH1 0x8 DUP4 MUL PUSH3 0x3A2 PUSH32 0xFFFFFFFFFFFFFFFFFFFFFFFFFFFFFFFFFFFFFFFFFFFFFFFFFFFFFFFFFFFFFFFF DUP3 PUSH3 0x365 JUMP JUMPDEST PUSH3 0x3AE DUP7 DUP4 PUSH3 0x365 JUMP JUMPDEST SWAP6 POP DUP1 NOT DUP5 AND SWAP4 POP DUP1 DUP7 AND DUP5 OR SWAP3 POP POP POP SWAP4 SWAP3 POP POP POP JUMP JUMPDEST PUSH0 DUP2 SWAP1 POP SWAP2 SWAP1 POP JUMP JUMPDEST PUSH0 DUP2 SWAP1 POP SWAP2 SWAP1 POP JUMP JUMPDEST PUSH0 PUSH3 0x3F8 PUSH3 0x3F2 PUSH3 0x3EC DUP5 PUSH3 0x3C6 JUMP JUMPDEST PUSH3 0x3CF JUMP JUMPDEST PUSH3 0x3C6 JUMP JUMPDEST SWAP1 POP SWAP2 SWAP1 POP JUMP JUMPDEST PUSH0 DUP2 SWAP1 POP SWAP2 SWAP1 POP JUMP JUMPDEST PUSH3 0x413 DUP4 PUSH3 0x3D8 JUMP JUMPDEST PUSH3 0x42B PUSH3 0x422 DUP3 PUSH3 0x3FF JUMP JUMPDEST DUP5 DUP5 SLOAD PUSH3 0x371 JUMP JUMPDEST DUP3 SSTORE POP POP POP POP JUMP JUMPDEST PUSH0 SWAP1 JUMP JUMPDEST PUSH3 0x441 PUSH3 0x433 JUMP JUMPDEST PUSH3 0x44E DUP2 DUP5 DUP5 PUSH3 0x408 JUMP JUMPDEST POP POP POP JUMP JUMPDEST JUMPDEST DUP2 DUP2 LT ISZERO PUSH3 0x475 JUMPI PUSH3 0x469 PUSH0 DUP3 PUSH3 0x437 JUMP JUMPDEST PUSH1 0x1 DUP2 ADD SWAP1 POP PUSH3 0x454 JUMP JUMPDEST POP POP JUMP JUMPDEST PUSH1 0x1F DUP3 GT ISZERO PUSH3 0x4C4 JUMPI PUSH3 0x48E DUP2 PUSH3 0x344 JUMP JUMPDEST PUSH3 0x499 DUP5 PUSH3 0x356 JUMP JUMPDEST DUP2 ADD PUSH1 0x20 DUP6 LT ISZERO PUSH3 0x4A9 JUMPI DUP2 SWAP1 POP JUMPDEST PUSH3 0x4C1 PUSH3 0x4B8 DUP6 PUSH3 0x356 JUMP JUMPDEST DUP4 ADD DUP3 PUSH3 0x453 JUMP JUMPDEST POP POP JUMPDEST POP POP POP JUMP JUMPDEST PUSH0 DUP3 DUP3 SHR SWAP1 POP SWAP3 SWAP2 POP POP JUMP JUMPDEST PUSH0 PUSH3 0x4E6 PUSH0 NOT DUP5 PUSH1 0x8 MUL PUSH3 0x4C9 JUMP JUMPDEST NOT DUP1 DUP4 AND SWAP2 POP POP SWAP3 SWAP2 POP POP JUMP JUMPDEST PUSH0 PUSH3 0x500 DUP4 DUP4 PUSH3 0x4D5 JUMP JUMPDEST SWAP2 POP DUP3 PUSH1 0x2 MUL DUP3 OR SWAP1 POP SWAP3 SWAP2 POP POP JUMP JUMPDEST PUSH3 0x51B DUP3 PUSH3 0x2D9 JUMP JUMPDEST PUSH8 0xFFFFFFFFFFFFFFFF DUP2 GT ISZERO PUSH3 0x537 JUMPI PUSH3 0x536 PUSH3 0xB8 JUMP JUMPDEST JUMPDEST PUSH3 0x543 DUP3 SLOAD PUSH3 0x310 JUMP JUMPDEST PUSH3 0x550 DUP3 DUP3 DUP6 PUSH3 0x479 JUMP JUMPDEST PUSH0 PUSH1 0x20 SWAP1 POP PUSH1 0x1F DUP4 GT PUSH1 0x1 DUP2 EQ PUSH3 0x586 JUMPI PUSH0 DUP5 ISZERO PUSH3 0x571 JUMPI DUP3 DUP8 ADD MLOAD SWAP1 POP JUMPDEST PUSH3 0x57D DUP6 DUP3 PUSH3 0x4F3 JUMP JUMPDEST DUP7 SSTORE POP PUSH3 0x5EC JUMP JUMPDEST PUSH1 0x1F NOT DUP5 AND PUSH3 0x596 DUP7 PUSH3 0x344 JUMP JUMPDEST PUSH0 JUMPDEST DUP3 DUP2 LT ISZERO PUSH3 0x5BF JUMPI DUP5 DUP10 ADD MLOAD DUP3 SSTORE PUSH1 0x1 DUP3 ADD SWAP2 POP PUSH1 0x20 DUP6 ADD SWAP5 POP PUSH1 0x20 DUP2 ADD SWAP1 POP PUSH3 0x598 JUMP JUMPDEST DUP7 DUP4 LT ISZERO PUSH3 0x5DF JUMPI DUP5 DUP10 ADD MLOAD PUSH3 0x5DB PUSH1 0x1F DUP10 AND DUP3 PUSH3 0x4D5 JUMP JUMPDEST DUP4 SSTORE POP JUMPDEST PUSH1 0x1 PUSH1 0x2 DUP9 MUL ADD DUP9 SSTORE POP POP POP JUMPDEST POP POP POP POP POP POP JUMP JUMPDEST PUSH2 0x2847 DUP1 PUSH3 0x602 PUSH0 CODECOPY PUSH0 RETURN INVALID PUSH1 0x80 PUSH1 0x40 MSTORE CALLVALUE DUP1 ISZERO PUSH2 0xF JUMPI PUSH0 DUP1 REVERT JUMPDEST POP PUSH1 0x4 CALLDATASIZE LT PUSH2 0xB2 JUMPI PUSH0 CALLDATALOAD PUSH1 0xE0 SHR DUP1 PUSH4 0x8DA5CB5B GT PUSH2 0x6F JUMPI DUP1 PUSH4 0x8DA5CB5B EQ PUSH2 0x18A JUMPI DUP1 PUSH4 0xB83C893A EQ PUSH2 0x1A8 JUMPI DUP1 PUSH4 0xCFE50A0C EQ PUSH2 0x1C4 JUMPI DUP1 PUSH4 0xEF3CADA2 EQ PUSH2 0x1E2 JUMPI DUP1 PUSH4 0xF3030F95 EQ PUSH2 0x212 JUMPI DUP1 PUSH4 0xFF9E0C32 EQ PUSH2 0x22E JUMPI PUSH2 0xB2 JUMP JUMPDEST DUP1 PUSH4 0x153EA91 EQ PUSH2 0xB6 JUMPI DUP1 PUSH4 0x269BA5C EQ PUSH2 0xE6 JUMPI DUP1 PUSH4 0x6FDDE03 EQ PUSH2 0x116 JUMPI DUP1 PUSH4 0x4408497D EQ PUSH2 0x134 JUMPI DUP1 PUSH4 0x784544EC EQ PUSH2 0x152 JUMPI DUP1 PUSH4 0x7F191D47 EQ PUSH2 0x16E JUMPI JUMPDEST PUSH0 DUP1 REVERT JUMPDEST PUSH2 0xD0 PUSH1 0x4 DUP1 CALLDATASIZE SUB DUP2 ADD SWAP1 PUSH2 0xCB SWAP2 SWAP1 PUSH2 0x1923 JUMP JUMPDEST PUSH2 0x24A JUMP JUMPDEST PUSH1 0x40 MLOAD PUSH2 0xDD SWAP2 SWAP1 PUSH2 0x1ACC JUMP JUMPDEST PUSH1 0x40 MLOAD DUP1 SWAP2 SUB SWAP1 RETURN JUMPDEST PUSH2 0x100 PUSH1 0x4 DUP1 CALLDATASIZE SUB DUP2 ADD SWAP1 PUSH2 0xFB SWAP2 SWAP1 PUSH2 0x1B1F JUMP JUMPDEST PUSH2 0x4B2 JUMP JUMPDEST PUSH1 0x40 MLOAD PUSH2 0x10D SWAP2 SWAP1 PUSH2 0x1C59 JUMP JUMPDEST PUSH1 0x40 MLOAD DUP1 SWAP2 SUB SWAP1 RETURN JUMPDEST PUSH2 0x11E PUSH2 0x807 JUMP JUMPDEST PUSH1 0x40 MLOAD PUSH2 0x12B SWAP2 SWAP1 PUSH2 0x1CC1 JUMP JUMPDEST PUSH1 0x40 MLOAD DUP1 SWAP2 SUB SWAP1 RETURN JUMPDEST PUSH2 0x13C PUSH2 0x892 JUMP JUMPDEST PUSH1 0x40 MLOAD PUSH2 0x149 SWAP2 SWAP1 PUSH2 0x1CF0 JUMP JUMPDEST PUSH1 0x40 MLOAD DUP1 SWAP2 SUB SWAP1 RETURN JUMPDEST PUSH2 0x16C PUSH1 0x4 DUP1 CALLDATASIZE SUB DUP2 ADD SWAP1 PUSH2 0x167 SWAP2 SWAP1 PUSH2 0x1923 JUMP JUMPDEST PUSH2 0x89E JUMP JUMPDEST STOP JUMPDEST PUSH2 0x188 PUSH1 0x4 DUP1 CALLDATASIZE SUB DUP2 ADD SWAP1 PUSH2 0x183 SWAP2 SWAP1 PUSH2 0x1EFC JUMP JUMPDEST PUSH2 0x9FE JUMP JUMPDEST STOP JUMPDEST PUSH2 0x192 PUSH2 0xC57 JUMP JUMPDEST PUSH1 0x40 MLOAD PUSH2 0x19F SWAP2 SWAP1 PUSH2 0x1F84 JUMP JUMPDEST PUSH1 0x40 MLOAD DUP1 SWAP2 SUB SWAP1 RETURN JUMPDEST PUSH2 0x1C2 PUSH1 0x4 DUP1 CALLDATASIZE SUB DUP2 ADD SWAP1 PUSH2 0x1BD SWAP2 SWAP1 PUSH2 0x1EFC JUMP JUMPDEST PUSH2 0xC7C JUMP JUMPDEST STOP JUMPDEST PUSH2 0x1CC PUSH2 0x127F JUMP JUMPDEST PUSH1 0x40 MLOAD PUSH2 0x1D9 SWAP2 SWAP1 PUSH2 0x1C59 JUMP JUMPDEST PUSH1 0x40 MLOAD DUP1 SWAP2 SUB SWAP1 RETURN JUMPDEST PUSH2 0x1FC PUSH1 0x4 DUP1 CALLDATASIZE SUB DUP2 ADD SWAP1 PUSH2 0x1F7 SWAP2 SWAP1 PUSH2 0x1923 JUMP JUMPDEST PUSH2 0x157A JUMP JUMPDEST PUSH1 0x40 MLOAD PUSH2 0x209 SWAP2 SWAP1 PUSH2 0x1FB7 JUMP JUMPDEST PUSH1 0x40 MLOAD DUP1 SWAP2 SUB SWAP1 RETURN JUMPDEST PUSH2 0x22C PUSH1 0x4 DUP1 CALLDATASIZE SUB DUP2 ADD SWAP1 PUSH2 0x227 SWAP2 SWAP1 PUSH2 0x1923 JUMP JUMPDEST PUSH2 0x15F2 JUMP JUMPDEST STOP JUMPDEST PUSH2 0x248 PUSH1 0x4 DUP1 CALLDATASIZE SUB DUP2 ADD SWAP1 PUSH2 0x243 SWAP2 SWAP1 PUSH2 0x1923 JUMP JUMPDEST PUSH2 0x16A2 JUMP JUMPDEST STOP JUMPDEST PUSH2 0x252 PUSH2 0x185B JUMP JUMPDEST DUP3 DUP3 PUSH2 0x25E DUP3 DUP3 PUSH2 0x17E0 JUMP JUMPDEST PUSH2 0x266 JUMPI PUSH0 DUP1 REVERT JUMPDEST PUSH1 0x4 DUP6 DUP6 PUSH1 0x40 MLOAD PUSH2 0x278 SWAP3 SWAP2 SWAP1 PUSH2 0x1FFE JUMP JUMPDEST SWAP1 DUP2 MSTORE PUSH1 0x20 ADD PUSH1 0x40 MLOAD DUP1 SWAP2 SUB SWAP1 KECCAK256 PUSH1 0x40 MLOAD DUP1 PUSH1 0x40 ADD PUSH1 0x40 MSTORE SWAP1 DUP2 PUSH0 DUP3 ADD DUP1 SLOAD PUSH2 0x2A0 SWAP1 PUSH2 0x2043 JUMP JUMPDEST DUP1 PUSH1 0x1F ADD PUSH1 0x20 DUP1 SWAP2 DIV MUL PUSH1 0x20 ADD PUSH1 0x40 MLOAD SWAP1 DUP2 ADD PUSH1 0x40 MSTORE DUP1 SWAP3 SWAP2 SWAP1 DUP2 DUP2 MSTORE PUSH1 0x20 ADD DUP3 DUP1 SLOAD PUSH2 0x2CC SWAP1 PUSH2 0x2043 JUMP JUMPDEST DUP1 ISZERO PUSH2 0x317 JUMPI DUP1 PUSH1 0x1F LT PUSH2 0x2EE JUMPI PUSH2 0x100 DUP1 DUP4 SLOAD DIV MUL DUP4 MSTORE SWAP2 PUSH1 0x20 ADD SWAP2 PUSH2 0x317 JUMP JUMPDEST DUP3 ADD SWAP2 SWAP1 PUSH0 MSTORE PUSH1 0x20 PUSH0 KECCAK256 SWAP1 JUMPDEST DUP2 SLOAD DUP2 MSTORE SWAP1 PUSH1 0x1 ADD SWAP1 PUSH1 0x20 ADD DUP1 DUP4 GT PUSH2 0x2FA JUMPI DUP3 SWAP1 SUB PUSH1 0x1F AND DUP3 ADD SWAP2 JUMPDEST POP POP POP POP POP DUP2 MSTORE PUSH1 0x20 ADD PUSH1 0x1 DUP3 ADD PUSH1 0x40 MLOAD DUP1 PUSH1 0x60 ADD PUSH1 0x40 MSTORE SWAP1 DUP2 PUSH0 DUP3 ADD DUP1 SLOAD PUSH2 0x33F SWAP1 PUSH2 0x2043 JUMP JUMPDEST DUP1 PUSH1 0x1F ADD PUSH1 0x20 DUP1 SWAP2 DIV MUL PUSH1 0x20 ADD PUSH1 0x40 MLOAD SWAP1 DUP2 ADD PUSH1 0x40 MSTORE DUP1 SWAP3 SWAP2 SWAP1 DUP2 DUP2 MSTORE PUSH1 0x20 ADD DUP3 DUP1 SLOAD PUSH2 0x36B SWAP1 PUSH2 0x2043 JUMP JUMPDEST DUP1 ISZERO PUSH2 0x3B6 JUMPI DUP1 PUSH1 0x1F LT PUSH2 0x38D JUMPI PUSH2 0x100 DUP1 DUP4 SLOAD DIV MUL DUP4 MSTORE SWAP2 PUSH1 0x20 ADD SWAP2 PUSH2 0x3B6 JUMP JUMPDEST DUP3 ADD SWAP2 SWAP1 PUSH0 MSTORE PUSH1 0x20 PUSH0 KECCAK256 SWAP1 JUMPDEST DUP2 SLOAD DUP2 MSTORE SWAP1 PUSH1 0x1 ADD SWAP1 PUSH1 0x20 ADD DUP1 DUP4 GT PUSH2 0x399 JUMPI DUP3 SWAP1 SUB PUSH1 0x1F AND DUP3 ADD SWAP2 JUMPDEST POP POP POP POP POP DUP2 MSTORE PUSH1 0x20 ADD PUSH1 0x1 DUP3 ADD DUP1 SLOAD PUSH2 0x3CF SWAP1 PUSH2 0x2043 JUMP JUMPDEST DUP1 PUSH1 0x1F ADD PUSH1 0x20 DUP1 SWAP2 DIV MUL PUSH1 0x20 ADD PUSH1 0x40 MLOAD SWAP1 DUP2 ADD PUSH1 0x40 MSTORE DUP1 SWAP3 SWAP2 SWAP1 DUP2 DUP2 MSTORE PUSH1 0x20 ADD DUP3 DUP1 SLOAD PUSH2 0x3FB SWAP1 PUSH2 0x2043 JUMP JUMPDEST DUP1 ISZERO PUSH2 0x446 JUMPI DUP1 PUSH1 0x1F LT PUSH2 0x41D JUMPI PUSH2 0x100 DUP1 DUP4 SLOAD DIV MUL DUP4 MSTORE SWAP2 PUSH1 0x20 ADD SWAP2 PUSH2 0x446 JUMP JUMPDEST DUP3 ADD SWAP2 SWAP1 PUSH0 MSTORE PUSH1 0x20 PUSH0 KECCAK256 SWAP1 JUMPDEST DUP2 SLOAD DUP2 MSTORE SWAP1 PUSH1 0x1 ADD SWAP1 PUSH1 0x20 ADD DUP1 DUP4 GT PUSH2 0x429 JUMPI DUP3 SWAP1 SUB PUSH1 0x1F AND DUP3 ADD SWAP2 JUMPDEST POP POP POP POP POP DUP2 MSTORE PUSH1 0x20 ADD PUSH1 0x2 DUP3 ADD PUSH0 SWAP1 SLOAD SWAP1 PUSH2 0x100 EXP SWAP1 DIV PUSH20 0xFFFFFFFFFFFFFFFFFFFFFFFFFFFFFFFFFFFFFFFF AND PUSH20 0xFFFFFFFFFFFFFFFFFFFFFFFFFFFFFFFFFFFFFFFF AND PUSH20 0xFFFFFFFFFFFFFFFFFFFFFFFFFFFFFFFFFFFFFFFF AND DUP2 MSTORE POP POP DUP2 MSTORE POP POP SWAP3 POP POP POP SWAP3 SWAP2 POP POP JUMP JUMPDEST PUSH1 0x60 DUP2 PUSH1 0x3 DUP1 SLOAD SWAP1 POP DUP2 LT PUSH2 0x4FC JUMPI PUSH1 0x40 MLOAD PUSH32 0x8C379A000000000000000000000000000000000000000000000000000000000 DUP2 MSTORE PUSH1 0x4 ADD PUSH2 0x4F3 SWAP1 PUSH2 0x20BD JUMP JUMPDEST PUSH1 0x40 MLOAD DUP1 SWAP2 SUB SWAP1 REVERT JUMPDEST PUSH0 DUP5 DUP5 PUSH2 0x509 SWAP2 SWAP1 PUSH2 0x2108 JUMP JUMPDEST SWAP1 POP PUSH0 DUP2 PUSH8 0xFFFFFFFFFFFFFFFF DUP2 GT ISZERO PUSH2 0x526 JUMPI PUSH2 0x525 PUSH2 0x1D0D JUMP JUMPDEST JUMPDEST PUSH1 0x40 MLOAD SWAP1 DUP1 DUP3 MSTORE DUP1 PUSH1 0x20 MUL PUSH1 0x20 ADD DUP3 ADD PUSH1 0x40 MSTORE DUP1 ISZERO PUSH2 0x55F JUMPI DUP2 PUSH1 0x20 ADD JUMPDEST PUSH2 0x54C PUSH2 0x185B JUMP JUMPDEST DUP2 MSTORE PUSH1 0x20 ADD SWAP1 PUSH1 0x1 SWAP1 SUB SWAP1 DUP2 PUSH2 0x544 JUMPI SWAP1 POP JUMPDEST POP SWAP1 POP PUSH0 DUP7 SWAP1 POP JUMPDEST DUP6 DUP2 GT PUSH2 0x7FA JUMPI PUSH1 0x4 PUSH1 0x3 DUP3 DUP2 SLOAD DUP2 LT PUSH2 0x584 JUMPI PUSH2 0x583 PUSH2 0x213B JUMP JUMPDEST JUMPDEST SWAP1 PUSH0 MSTORE PUSH1 0x20 PUSH0 KECCAK256 ADD PUSH1 0x40 MLOAD PUSH2 0x599 SWAP2 SWAP1 PUSH2 0x21FA JUMP JUMPDEST SWAP1 DUP2 MSTORE PUSH1 0x20 ADD PUSH1 0x40 MLOAD DUP1 SWAP2 SUB SWAP1 KECCAK256 PUSH1 0x40 MLOAD DUP1 PUSH1 0x40 ADD PUSH1 0x40 MSTORE SWAP1 DUP2 PUSH0 DUP3 ADD DUP1 SLOAD PUSH2 0x5C1 SWAP1 PUSH2 0x2043 JUMP JUMPDEST DUP1 PUSH1 0x1F ADD PUSH1 0x20 DUP1 SWAP2 DIV MUL PUSH1 0x20 ADD PUSH1 0x40 MLOAD SWAP1 DUP2 ADD PUSH1 0x40 MSTORE DUP1 SWAP3 SWAP2 SWAP1 DUP2 DUP2 MSTORE PUSH1 0x20 ADD DUP3 DUP1 SLOAD PUSH2 0x5ED SWAP1 PUSH2 0x2043 JUMP JUMPDEST DUP1 ISZERO PUSH2 0x638 JUMPI DUP1 PUSH1 0x1F LT PUSH2 0x60F JUMPI PUSH2 0x100 DUP1 DUP4 SLOAD DIV MUL DUP4 MSTORE SWAP2 PUSH1 0x20 ADD SWAP2 PUSH2 0x638 JUMP JUMPDEST DUP3 ADD SWAP2 SWAP1 PUSH0 MSTORE PUSH1 0x20 PUSH0 KECCAK256 SWAP1 JUMPDEST DUP2 SLOAD DUP2 MSTORE SWAP1 PUSH1 0x1 ADD SWAP1 PUSH1 0x20 ADD DUP1 DUP4 GT PUSH2 0x61B JUMPI DUP3 SWAP1 SUB PUSH1 0x1F AND DUP3 ADD SWAP2 JUMPDEST POP POP POP POP POP DUP2 MSTORE PUSH1 0x20 ADD PUSH1 0x1 DUP3 ADD PUSH1 0x40 MLOAD DUP1 PUSH1 0x60 ADD PUSH1 0x40 MSTORE SWAP1 DUP2 PUSH0 DUP3 ADD DUP1 SLOAD PUSH2 0x660 SWAP1 PUSH2 0x2043 JUMP JUMPDEST DUP1 PUSH1 0x1F ADD PUSH1 0x20 DUP1 SWAP2 DIV MUL PUSH1 0x20 ADD PUSH1 0x40 MLOAD SWAP1 DUP2 ADD PUSH1 0x40 MSTORE DUP1 SWAP3 SWAP2 SWAP1 DUP2 DUP2 MSTORE PUSH1 0x20 ADD DUP3 DUP1 SLOAD PUSH2 0x68C SWAP1 PUSH2 0x2043 JUMP JUMPDEST DUP1 ISZERO PUSH2 0x6D7 JUMPI DUP1 PUSH1 0x1F LT PUSH2 0x6AE JUMPI PUSH2 0x100 DUP1 DUP4 SLOAD DIV MUL DUP4 MSTORE SWAP2 PUSH1 0x20 ADD SWAP2 PUSH2 0x6D7 JUMP JUMPDEST DUP3 ADD SWAP2 SWAP1 PUSH0 MSTORE PUSH1 0x20 PUSH0 KECCAK256 SWAP1 JUMPDEST DUP2 SLOAD DUP2 MSTORE SWAP1 PUSH1 0x1 ADD SWAP1 PUSH1 0x20 ADD DUP1 DUP4 GT PUSH2 0x6BA JUMPI DUP3 SWAP1 SUB PUSH1 0x1F AND DUP3 ADD SWAP2 JUMPDEST POP POP POP POP POP DUP2 MSTORE PUSH1 0x20 ADD PUSH1 0x1 DUP3 ADD DUP1 SLOAD PUSH2 0x6F0 SWAP1 PUSH2 0x2043 JUMP JUMPDEST DUP1 PUSH1 0x1F ADD PUSH1 0x20 DUP1 SWAP2 DIV MUL PUSH1 0x20 ADD PUSH1 0x40 MLOAD SWAP1 DUP2 ADD PUSH1 0x40 MSTORE DUP1 SWAP3 SWAP2 SWAP1 DUP2 DUP2 MSTORE PUSH1 0x20 ADD DUP3 DUP1 SLOAD PUSH2 0x71C SWAP1 PUSH2 0x2043 JUMP JUMPDEST DUP1 ISZERO PUSH2 0x767 JUMPI DUP1 PUSH1 0x1F LT PUSH2 0x73E JUMPI PUSH2 0x100 DUP1 DUP4 SLOAD DIV MUL DUP4 MSTORE SWAP2 PUSH1 0x20 ADD SWAP2 PUSH2 0x767 JUMP JUMPDEST DUP3 ADD SWAP2 SWAP1 PUSH0 MSTORE PUSH1 0x20 PUSH0 KECCAK256 SWAP1 JUMPDEST DUP2 SLOAD DUP2 MSTORE SWAP1 PUSH1 0x1 ADD SWAP1 PUSH1 0x20 ADD DUP1 DUP4 GT PUSH2 0x74A JUMPI DUP3 SWAP1 SUB PUSH1 0x1F AND DUP3 ADD SWAP2 JUMPDEST POP POP POP POP POP DUP2 MSTORE PUSH1 0x20 ADD PUSH1 0x2 DUP3 ADD PUSH0 SWAP1 SLOAD SWAP1 PUSH2 0x100 EXP SWAP1 DIV PUSH20 0xFFFFFFFFFFFFFFFFFFFFFFFFFFFFFFFFFFFFFFFF AND PUSH20 0xFFFFFFFFFFFFFFFFFFFFFFFFFFFFFFFFFFFFFFFF AND PUSH20 0xFFFFFFFFFFFFFFFFFFFFFFFFFFFFFFFFFFFFFFFF AND DUP2 MSTORE POP POP DUP2 MSTORE POP POP DUP3 DUP3 DUP2 MLOAD DUP2 LT PUSH2 0x7DC JUMPI PUSH2 0x7DB PUSH2 0x213B JUMP JUMPDEST JUMPDEST PUSH1 0x20 MUL PUSH1 0x20 ADD ADD DUP2 SWAP1 MSTORE POP DUP1 DUP1 PUSH2 0x7F2 SWAP1 PUSH2 0x2210 JUMP JUMPDEST SWAP2 POP POP PUSH2 0x567 JUMP JUMPDEST POP DUP1 SWAP4 POP POP POP POP SWAP3 SWAP2 POP POP JUMP JUMPDEST PUSH0 DUP1 SLOAD PUSH2 0x813 SWAP1 PUSH2 0x2043 JUMP JUMPDEST DUP1 PUSH1 0x1F ADD PUSH1 0x20 DUP1 SWAP2 DIV MUL PUSH1 0x20 ADD PUSH1 0x40 MLOAD SWAP1 DUP2 ADD PUSH1 0x40 MSTORE DUP1 SWAP3 SWAP2 SWAP1 DUP2 DUP2 MSTORE PUSH1 0x20 ADD DUP3 DUP1 SLOAD PUSH2 0x83F SWAP1 PUSH2 0x2043 JUMP JUMPDEST DUP1 ISZERO PUSH2 0x88A JUMPI DUP1 PUSH1 0x1F LT PUSH2 0x861 JUMPI PUSH2 0x100 DUP1 DUP4 SLOAD DIV MUL DUP4 MSTORE SWAP2 PUSH1 0x20 ADD SWAP2 PUSH2 0x88A JUMP JUMPDEST DUP3 ADD SWAP2 SWAP1 PUSH0 MSTORE PUSH1 0x20 PUSH0 KECCAK256 SWAP1 JUMPDEST DUP2 SLOAD DUP2 MSTORE SWAP1 PUSH1 0x1 ADD SWAP1 PUSH1 0x20 ADD DUP1 DUP4 GT PUSH2 0x86D JUMPI DUP3 SWAP1 SUB PUSH1 0x1F AND DUP3 ADD SWAP2 JUMPDEST POP POP POP POP POP DUP2 JUMP JUMPDEST PUSH0 PUSH1 0x3 DUP1 SLOAD SWAP1 POP SWAP1 POP SWAP1 JUMP JUMPDEST DUP2 DUP2 PUSH2 0x8AA DUP3 DUP3 PUSH2 0x157A JUMP JUMPDEST PUSH2 0x8E9 JUMPI PUSH1 0x40 MLOAD PUSH32 0x8C379A000000000000000000000000000000000000000000000000000000000 DUP2 MSTORE PUSH1 0x4 ADD PUSH2 0x8E0 SWAP1 PUSH2 0x22A1 JUMP JUMPDEST PUSH1 0x40 MLOAD DUP1 SWAP2 SUB SWAP1 REVERT JUMPDEST DUP4 DUP4 PUSH1 0x2 DUP3 DUP3 PUSH1 0x40 MLOAD PUSH2 0x8FD SWAP3 SWAP2 SWAP1 PUSH2 0x1FFE JUMP JUMPDEST SWAP1 DUP2 MSTORE PUSH1 0x20 ADD PUSH1 0x40 MLOAD DUP1 SWAP2 SUB SWAP1 KECCAK256 PUSH0 SWAP1 SLOAD SWAP1 PUSH2 0x100 EXP SWAP1 DIV PUSH20 0xFFFFFFFFFFFFFFFFFFFFFFFFFFFFFFFFFFFFFFFF AND PUSH20 0xFFFFFFFFFFFFFFFFFFFFFFFFFFFFFFFFFFFFFFFF AND CALLER PUSH20 0xFFFFFFFFFFFFFFFFFFFFFFFFFFFFFFFFFFFFFFFF AND EQ PUSH2 0x998 JUMPI PUSH1 0x40 MLOAD PUSH32 0x8C379A000000000000000000000000000000000000000000000000000000000 DUP2 MSTORE PUSH1 0x4 ADD PUSH2 0x98F SWAP1 PUSH2 0x2309 JUMP JUMPDEST PUSH1 0x40 MLOAD DUP1 SWAP2 SUB SWAP1 REVERT JUMPDEST PUSH0 PUSH1 0x2 DUP8 DUP8 PUSH1 0x40 MLOAD PUSH2 0x9AB SWAP3 SWAP2 SWAP1 PUSH2 0x1FFE JUMP JUMPDEST SWAP1 DUP2 MSTORE PUSH1 0x20 ADD PUSH1 0x40 MLOAD DUP1 SWAP2 SUB SWAP1 KECCAK256 PUSH0 PUSH2 0x100 EXP DUP2 SLOAD DUP2 PUSH20 0xFFFFFFFFFFFFFFFFFFFFFFFFFFFFFFFFFFFFFFFF MUL NOT AND SWAP1 DUP4 PUSH20 0xFFFFFFFFFFFFFFFFFFFFFFFFFFFFFFFFFFFFFFFF AND MUL OR SWAP1 SSTORE POP POP POP POP POP POP POP JUMP JUMPDEST DUP3 DUP3 PUSH2 0xA0A DUP3 DUP3 PUSH2 0x17E0 JUMP JUMPDEST ISZERO PUSH2 0xA13 JUMPI PUSH0 DUP1 REVERT JUMPDEST PUSH0 CALLER SWAP1 POP DUP1 DUP5 PUSH1 0x40 ADD SWAP1 PUSH20 0xFFFFFFFFFFFFFFFFFFFFFFFFFFFFFFFFFFFFFFFF AND SWAP1 DUP2 PUSH20 0xFFFFFFFFFFFFFFFFFFFFFFFFFFFFFFFFFFFFFFFF AND DUP2 MSTORE POP POP PUSH0 PUSH1 0x40 MLOAD DUP1 PUSH1 0x40 ADD PUSH1 0x40 MSTORE DUP1 DUP9 DUP9 DUP1 DUP1 PUSH1 0x1F ADD PUSH1 0x20 DUP1 SWAP2 DIV MUL PUSH1 0x20 ADD PUSH1 0x40 MLOAD SWAP1 DUP2 ADD PUSH1 0x40 MSTORE DUP1 SWAP4 SWAP3 SWAP2 SWAP1 DUP2 DUP2 MSTORE PUSH1 0x20 ADD DUP4 DUP4 DUP1 DUP3 DUP5 CALLDATACOPY PUSH0 DUP2 DUP5 ADD MSTORE PUSH1 0x1F NOT PUSH1 0x1F DUP3 ADD AND SWAP1 POP DUP1 DUP4 ADD SWAP3 POP POP POP POP POP POP POP DUP2 MSTORE PUSH1 0x20 ADD DUP7 DUP2 MSTORE POP SWAP1 POP DUP1 PUSH1 0x4 DUP3 PUSH0 ADD MLOAD PUSH1 0x40 MLOAD PUSH2 0xABE SWAP2 SWAP1 PUSH2 0x2357 JUMP JUMPDEST SWAP1 DUP2 MSTORE PUSH1 0x20 ADD PUSH1 0x40 MLOAD DUP1 SWAP2 SUB SWAP1 KECCAK256 PUSH0 DUP3 ADD MLOAD DUP2 PUSH0 ADD SWAP1 DUP2 PUSH2 0xADF SWAP2 SWAP1 PUSH2 0x24F8 JUMP JUMPDEST POP PUSH1 0x20 DUP3 ADD MLOAD DUP2 PUSH1 0x1 ADD PUSH0 DUP3 ADD MLOAD DUP2 PUSH0 ADD SWAP1 DUP2 PUSH2 0xAFC SWAP2 SWAP1 PUSH2 0x24F8 JUMP JUMPDEST POP PUSH1 0x20 DUP3 ADD MLOAD DUP2 PUSH1 0x1 ADD SWAP1 DUP2 PUSH2 0xB12 SWAP2 SWAP1 PUSH2 0x24F8 JUMP JUMPDEST POP PUSH1 0x40 DUP3 ADD MLOAD DUP2 PUSH1 0x2 ADD PUSH0 PUSH2 0x100 EXP DUP2 SLOAD DUP2 PUSH20 0xFFFFFFFFFFFFFFFFFFFFFFFFFFFFFFFFFFFFFFFF MUL NOT AND SWAP1 DUP4 PUSH20 0xFFFFFFFFFFFFFFFFFFFFFFFFFFFFFFFFFFFFFFFF AND MUL OR SWAP1 SSTORE POP POP POP SWAP1 POP POP PUSH1 0x3 DUP2 PUSH0 ADD MLOAD SWAP1 DUP1 PUSH1 0x1 DUP2 SLOAD ADD DUP1 DUP3 SSTORE DUP1 SWAP2 POP POP PUSH1 0x1 SWAP1 SUB SWAP1 PUSH0 MSTORE PUSH1 0x20 PUSH0 KECCAK256 ADD PUSH0 SWAP1 SWAP2 SWAP1 SWAP2 SWAP1 SWAP2 POP SWAP1 DUP2 PUSH2 0xB92 SWAP2 SWAP1 PUSH2 0x24F8 JUMP JUMPDEST POP PUSH0 PUSH1 0x40 MLOAD DUP1 PUSH1 0xC0 ADD PUSH1 0x40 MSTORE DUP1 DUP4 DUP2 MSTORE PUSH1 0x20 ADD DUP5 PUSH20 0xFFFFFFFFFFFFFFFFFFFFFFFFFFFFFFFFFFFFFFFF AND DUP2 MSTORE PUSH1 0x20 ADD TIMESTAMP DUP2 MSTORE PUSH1 0x20 ADD DUP4 PUSH1 0x20 ADD MLOAD DUP2 MSTORE PUSH1 0x20 ADD DUP4 PUSH1 0x20 ADD MLOAD DUP2 MSTORE PUSH1 0x20 ADD DUP4 PUSH1 0x20 ADD MLOAD PUSH1 0x20 ADD MLOAD DUP2 MSTORE POP SWAP1 POP DUP2 PUSH1 0x40 MLOAD PUSH2 0xBF7 SWAP2 SWAP1 PUSH2 0x26C9 JUMP JUMPDEST PUSH1 0x40 MLOAD DUP1 SWAP2 SUB SWAP1 KECCAK256 DUP4 PUSH20 0xFFFFFFFFFFFFFFFFFFFFFFFFFFFFFFFFFFFFFFFF AND PUSH32 0x3A81A26506FDDEFE4586928869F84F4A59463A4BF4F3DF96DE9204C1D126D3B2 DUP4 PUSH1 0x40 MLOAD PUSH2 0xC45 SWAP2 SWAP1 PUSH2 0x2789 JUMP JUMPDEST PUSH1 0x40 MLOAD DUP1 SWAP2 SUB SWAP1 LOG3 POP POP POP POP POP POP POP POP JUMP JUMPDEST PUSH1 0x1 PUSH0 SWAP1 SLOAD SWAP1 PUSH2 0x100 EXP SWAP1 DIV PUSH20 0xFFFFFFFFFFFFFFFFFFFFFFFFFFFFFFFFFFFFFFFF AND DUP2 JUMP JUMPDEST DUP3 DUP3 PUSH2 0xC88 DUP3 DUP3 PUSH2 0x17E0 JUMP JUMPDEST PUSH2 0xC90 JUMPI PUSH0 DUP1 REVERT JUMPDEST PUSH0 CALLER SWAP1 POP DUP1 DUP5 PUSH1 0x40 ADD SWAP1 PUSH20 0xFFFFFFFFFFFFFFFFFFFFFFFFFFFFFFFFFFFFFFFF AND SWAP1 DUP2 PUSH20 0xFFFFFFFFFFFFFFFFFFFFFFFFFFFFFFFFFFFFFFFF AND DUP2 MSTORE POP POP PUSH0 PUSH1 0x40 MLOAD DUP1 PUSH1 0x40 ADD PUSH1 0x40 MSTORE DUP1 DUP9 DUP9 DUP1 DUP1 PUSH1 0x1F ADD PUSH1 0x20 DUP1 SWAP2 DIV MUL PUSH1 0x20 ADD PUSH1 0x40 MLOAD SWAP1 DUP2 ADD PUSH1 0x40 MSTORE DUP1 SWAP4 SWAP3 SWAP2 SWAP1 DUP2 DUP2 MSTORE PUSH1 0x20 ADD DUP4 DUP4 DUP1 DUP3 DUP5 CALLDATACOPY PUSH0 DUP2 DUP5 ADD MSTORE PUSH1 0x1F NOT PUSH1 0x1F DUP3 ADD AND SWAP1 POP DUP1 DUP4 ADD SWAP3 POP POP POP POP POP POP POP DUP2 MSTORE PUSH1 0x20 ADD DUP7 DUP2 MSTORE POP SWAP1 POP PUSH0 PUSH1 0x40 MLOAD DUP1 PUSH1 0xC0 ADD PUSH1 0x40 MSTORE DUP1 PUSH1 0x4 DUP5 PUSH0 ADD MLOAD PUSH1 0x40 MLOAD PUSH2 0xD46 SWAP2 SWAP1 PUSH2 0x2357 JUMP JUMPDEST SWAP1 DUP2 MSTORE PUSH1 0x20 ADD PUSH1 0x40 MLOAD DUP1 SWAP2 SUB SWAP1 KECCAK256 PUSH1 0x40 MLOAD DUP1 PUSH1 0x40 ADD PUSH1 0x40 MSTORE SWAP1 DUP2 PUSH0 DUP3 ADD DUP1 SLOAD PUSH2 0xD6E SWAP1 PUSH2 0x2043 JUMP JUMPDEST DUP1 PUSH1 0x1F ADD PUSH1 0x20 DUP1 SWAP2 DIV MUL PUSH1 0x20 ADD PUSH1 0x40 MLOAD SWAP1 DUP2 ADD PUSH1 0x40 MSTORE DUP1 SWAP3 SWAP2 SWAP1 DUP2 DUP2 MSTORE PUSH1 0x20 ADD DUP3 DUP1 SLOAD PUSH2 0xD9A SWAP1 PUSH2 0x2043 JUMP JUMPDEST DUP1 ISZERO PUSH2 0xDE5 JUMPI DUP1 PUSH1 0x1F LT PUSH2 0xDBC JUMPI PUSH2 0x100 DUP1 DUP4 SLOAD DIV MUL DUP4 MSTORE SWAP2 PUSH1 0x20 ADD SWAP2 PUSH2 0xDE5 JUMP JUMPDEST DUP3 ADD SWAP2 SWAP1 PUSH0 MSTORE PUSH1 0x20 PUSH0 KECCAK256 SWAP1 JUMPDEST DUP2 SLOAD DUP2 MSTORE SWAP1 PUSH1 0x1 ADD SWAP1 PUSH1 0x20 ADD DUP1 DUP4 GT PUSH2 0xDC8 JUMPI DUP3 SWAP1 SUB PUSH1 0x1F AND DUP3 ADD SWAP2 JUMPDEST POP POP POP POP POP DUP2 MSTORE PUSH1 0x20 ADD PUSH1 0x1 DUP3 ADD PUSH1 0x40 MLOAD DUP1 PUSH1 0x60 ADD PUSH1 0x40 MSTORE SWAP1 DUP2 PUSH0 DUP3 ADD DUP1 SLOAD PUSH2 0xE0D SWAP1 PUSH2 0x2043 JUMP JUMPDEST DUP1 PUSH1 0x1F ADD PUSH1 0x20 DUP1 SWAP2 DIV MUL PUSH1 0x20 ADD PUSH1 0x40 MLOAD SWAP1 DUP2 ADD PUSH1 0x40 MSTORE DUP1 SWAP3 SWAP2 SWAP1 DUP2 DUP2 MSTORE PUSH1 0x20 ADD DUP3 DUP1 SLOAD PUSH2 0xE39 SWAP1 PUSH2 0x2043 JUMP JUMPDEST DUP1 ISZERO PUSH2 0xE84 JUMPI DUP1 PUSH1 0x1F LT PUSH2 0xE5B JUMPI PUSH2 0x100 DUP1 DUP4 SLOAD DIV MUL DUP4 MSTORE SWAP2 PUSH1 0x20 ADD SWAP2 PUSH2 0xE84 JUMP JUMPDEST DUP3 ADD SWAP2 SWAP1 PUSH0 MSTORE PUSH1 0x20 PUSH0 KECCAK256 SWAP1 JUMPDEST DUP2 SLOAD DUP2 MSTORE SWAP1 PUSH1 0x1 ADD SWAP1 PUSH1 0x20 ADD DUP1 DUP4 GT PUSH2 0xE67 JUMPI DUP3 SWAP1 SUB PUSH1 0x1F AND DUP3 ADD SWAP2 JUMPDEST POP POP POP POP POP DUP2 MSTORE PUSH1 0x20 ADD PUSH1 0x1 DUP3 ADD DUP1 SLOAD PUSH2 0xE9D SWAP1 PUSH2 0x2043 JUMP JUMPDEST DUP1 PUSH1 0x1F ADD PUSH1 0x20 DUP1 SWAP2 DIV MUL PUSH1 0x20 ADD PUSH1 0x40 MLOAD SWAP1 DUP2 ADD PUSH1 0x40 MSTORE DUP1 SWAP3 SWAP2 SWAP1 DUP2 DUP2 MSTORE PUSH1 0x20 ADD DUP3 DUP1 SLOAD PUSH2 0xEC9 SWAP1 PUSH2 0x2043 JUMP JUMPDEST DUP1 ISZERO PUSH2 0xF14 JUMPI DUP1 PUSH1 0x1F LT PUSH2 0xEEB JUMPI PUSH2 0x100 DUP1 DUP4 SLOAD DIV MUL DUP4 MSTORE SWAP2 PUSH1 0x20 ADD SWAP2 PUSH2 0xF14 JUMP JUMPDEST DUP3 ADD SWAP2 SWAP1 PUSH0 MSTORE PUSH1 0x20 PUSH0 KECCAK256 SWAP1 JUMPDEST DUP2 SLOAD DUP2 MSTORE SWAP1 PUSH1 0x1 ADD SWAP1 PUSH1 0x20 ADD DUP1 DUP4 GT PUSH2 0xEF7 JUMPI DUP3 SWAP1 SUB PUSH1 0x1F AND DUP3 ADD SWAP2 JUMPDEST POP POP POP POP POP DUP2 MSTORE PUSH1 0x20 ADD PUSH1 0x2 DUP3 ADD PUSH0 SWAP1 SLOAD SWAP1 PUSH2 0x100 EXP SWAP1 DIV PUSH20 0xFFFFFFFFFFFFFFFFFFFFFFFFFFFFFFFFFFFFFFFF AND PUSH20 0xFFFFFFFFFFFFFFFFFFFFFFFFFFFFFFFFFFFFFFFF AND PUSH20 0xFFFFFFFFFFFFFFFFFFFFFFFFFFFFFFFFFFFFFFFF AND DUP2 MSTORE POP POP DUP2 MSTORE POP POP DUP2 MSTORE PUSH1 0x20 ADD DUP5 PUSH20 0xFFFFFFFFFFFFFFFFFFFFFFFFFFFFFFFFFFFFFFFF AND DUP2 MSTORE PUSH1 0x20 ADD TIMESTAMP DUP2 MSTORE PUSH1 0x20 ADD PUSH1 0x4 DUP5 PUSH0 ADD MLOAD PUSH1 0x40 MLOAD PUSH2 0xFB0 SWAP2 SWAP1 PUSH2 0x2357 JUMP JUMPDEST SWAP1 DUP2 MSTORE PUSH1 0x20 ADD PUSH1 0x40 MLOAD DUP1 SWAP2 SUB SWAP1 KECCAK256 PUSH1 0x1 ADD PUSH1 0x40 MLOAD DUP1 PUSH1 0x60 ADD PUSH1 0x40 MSTORE SWAP1 DUP2 PUSH0 DUP3 ADD DUP1 SLOAD PUSH2 0xFDB SWAP1 PUSH2 0x2043 JUMP JUMPDEST DUP1 PUSH1 0x1F ADD PUSH1 0x20 DUP1 SWAP2 DIV MUL PUSH1 0x20 ADD PUSH1 0x40 MLOAD SWAP1 DUP2 ADD PUSH1 0x40 MSTORE DUP1 SWAP3 SWAP2 SWAP1 DUP2 DUP2 MSTORE PUSH1 0x20 ADD DUP3 DUP1 SLOAD PUSH2 0x1007 SWAP1 PUSH2 0x2043 JUMP JUMPDEST DUP1 ISZERO PUSH2 0x1052 JUMPI DUP1 PUSH1 0x1F LT PUSH2 0x1029 JUMPI PUSH2 0x100 DUP1 DUP4 SLOAD DIV MUL DUP4 MSTORE SWAP2 PUSH1 0x20 ADD SWAP2 PUSH2 0x1052 JUMP JUMPDEST DUP3 ADD SWAP2 SWAP1 PUSH0 MSTORE PUSH1 0x20 PUSH0 KECCAK256 SWAP1 JUMPDEST DUP2 SLOAD DUP2 MSTORE SWAP1 PUSH1 0x1 ADD SWAP1 PUSH1 0x20 ADD DUP1 DUP4 GT PUSH2 0x1035 JUMPI DUP3 SWAP1 SUB PUSH1 0x1F AND DUP3 ADD SWAP2 JUMPDEST POP POP POP POP POP DUP2 MSTORE PUSH1 0x20 ADD PUSH1 0x1 DUP3 ADD DUP1 SLOAD PUSH2 0x106B SWAP1 PUSH2 0x2043 JUMP JUMPDEST DUP1 PUSH1 0x1F ADD PUSH1 0x20 DUP1 SWAP2 DIV MUL PUSH1 0x20 ADD PUSH1 0x40 MLOAD SWAP1 DUP2 ADD PUSH1 0x40 MSTORE DUP1 SWAP3 SWAP2 SWAP1 DUP2 DUP2 MSTORE PUSH1 0x20 ADD DUP3 DUP1 SLOAD PUSH2 0x1097 SWAP1 PUSH2 0x2043 JUMP JUMPDEST DUP1 ISZERO PUSH2 0x10E2 JUMPI DUP1 PUSH1 0x1F LT PUSH2 0x10B9 JUMPI PUSH2 0x100 DUP1 DUP4 SLOAD DIV MUL DUP4 MSTORE SWAP2 PUSH1 0x20 ADD SWAP2 PUSH2 0x10E2 JUMP JUMPDEST DUP3 ADD SWAP2 SWAP1 PUSH0 MSTORE PUSH1 0x20 PUSH0 KECCAK256 SWAP1 JUMPDEST DUP2 SLOAD DUP2 MSTORE SWAP1 PUSH1 0x1 ADD SWAP1 PUSH1 0x20 ADD DUP1 DUP4 GT PUSH2 0x10C5 JUMPI DUP3 SWAP1 SUB PUSH1 0x1F AND DUP3 ADD SWAP2 JUMPDEST POP POP POP POP POP DUP2 MSTORE PUSH1 0x20 ADD PUSH1 0x2 DUP3 ADD PUSH0 SWAP1 SLOAD SWAP1 PUSH2 0x100 EXP SWAP1 DIV PUSH20 0xFFFFFFFFFFFFFFFFFFFFFFFFFFFFFFFFFFFFFFFF AND PUSH20 0xFFFFFFFFFFFFFFFFFFFFFFFFFFFFFFFFFFFFFFFF AND PUSH20 0xFFFFFFFFFFFFFFFFFFFFFFFFFFFFFFFFFFFFFFFF AND DUP2 MSTORE POP POP DUP2 MSTORE PUSH1 0x20 ADD DUP4 PUSH1 0x20 ADD MLOAD DUP2 MSTORE PUSH1 0x20 ADD DUP4 PUSH1 0x20 ADD MLOAD PUSH1 0x20 ADD MLOAD DUP2 MSTORE POP SWAP1 POP DUP2 PUSH1 0x4 DUP4 PUSH0 ADD MLOAD PUSH1 0x40 MLOAD PUSH2 0x1171 SWAP2 SWAP1 PUSH2 0x2357 JUMP JUMPDEST SWAP1 DUP2 MSTORE PUSH1 0x20 ADD PUSH1 0x40 MLOAD DUP1 SWAP2 SUB SWAP1 KECCAK256 PUSH0 DUP3 ADD MLOAD DUP2 PUSH0 ADD SWAP1 DUP2 PUSH2 0x1192 SWAP2 SWAP1 PUSH2 0x24F8 JUMP JUMPDEST POP PUSH1 0x20 DUP3 ADD MLOAD DUP2 PUSH1 0x1 ADD PUSH0 DUP3 ADD MLOAD DUP2 PUSH0 ADD SWAP1 DUP2 PUSH2 0x11AF SWAP2 SWAP1 PUSH2 0x24F8 JUMP JUMPDEST POP PUSH1 0x20 DUP3 ADD MLOAD DUP2 PUSH1 0x1 ADD SWAP1 DUP2 PUSH2 0x11C5 SWAP2 SWAP1 PUSH2 0x24F8 JUMP JUMPDEST POP PUSH1 0x40 DUP3 ADD MLOAD DUP2 PUSH1 0x2 ADD PUSH0 PUSH2 0x100 EXP DUP2 SLOAD DUP2 PUSH20 0xFFFFFFFFFFFFFFFFFFFFFFFFFFFFFFFFFFFFFFFF MUL NOT AND SWAP1 DUP4 PUSH20 0xFFFFFFFFFFFFFFFFFFFFFFFFFFFFFFFFFFFFFFFF AND MUL OR SWAP1 SSTORE POP POP POP SWAP1 POP POP DUP2 PUSH1 0x40 MLOAD PUSH2 0x121F SWAP2 SWAP1 PUSH2 0x26C9 JUMP JUMPDEST PUSH1 0x40 MLOAD DUP1 SWAP2 SUB SWAP1 KECCAK256 DUP4 PUSH20 0xFFFFFFFFFFFFFFFFFFFFFFFFFFFFFFFFFFFFFFFF AND PUSH32 0x13865537D60C2BFEEC4E9564DA7A79FA675751782AB1DA10434025F0B662365E DUP4 PUSH1 0x40 MLOAD PUSH2 0x126D SWAP2 SWAP1 PUSH2 0x2789 JUMP JUMPDEST PUSH1 0x40 MLOAD DUP1 SWAP2 SUB SWAP1 LOG3 POP POP POP POP POP POP POP POP JUMP JUMPDEST PUSH1 0x60 PUSH0 PUSH1 0x3 DUP1 SLOAD SWAP1 POP PUSH8 0xFFFFFFFFFFFFFFFF DUP2 GT ISZERO PUSH2 0x12A1 JUMPI PUSH2 0x12A0 PUSH2 0x1D0D JUMP JUMPDEST JUMPDEST PUSH1 0x40 MLOAD SWAP1 DUP1 DUP3 MSTORE DUP1 PUSH1 0x20 MUL PUSH1 0x20 ADD DUP3 ADD PUSH1 0x40 MSTORE DUP1 ISZERO PUSH2 0x12DA JUMPI DUP2 PUSH1 0x20 ADD JUMPDEST PUSH2 0x12C7 PUSH2 0x185B JUMP JUMPDEST DUP2 MSTORE PUSH1 0x20 ADD SWAP1 PUSH1 0x1 SWAP1 SUB SWAP1 DUP2 PUSH2 0x12BF JUMPI SWAP1 POP JUMPDEST POP SWAP1 POP PUSH0 JUMPDEST PUSH1 0x3 DUP1 SLOAD SWAP1 POP DUP2 LT ISZERO PUSH2 0x1572 JUMPI PUSH1 0x4 PUSH1 0x3 DUP3 DUP2 SLOAD DUP2 LT PUSH2 0x1302 JUMPI PUSH2 0x1301 PUSH2 0x213B JUMP JUMPDEST JUMPDEST SWAP1 PUSH0 MSTORE PUSH1 0x20 PUSH0 KECCAK256 ADD PUSH1 0x40 MLOAD PUSH2 0x1317 SWAP2 SWAP1 PUSH2 0x21FA JUMP JUMPDEST SWAP1 DUP2 MSTORE PUSH1 0x20 ADD PUSH1 0x40 MLOAD DUP1 SWAP2 SUB SWAP1 KECCAK256 PUSH1 0x40 MLOAD DUP1 PUSH1 0x40 ADD PUSH1 0x40 MSTORE SWAP1 DUP2 PUSH0 DUP3 ADD DUP1 SLOAD PUSH2 0x133F SWAP1 PUSH2 0x2043 JUMP JUMPDEST DUP1 PUSH1 0x1F ADD PUSH1 0x20 DUP1 SWAP2 DIV MUL PUSH1 0x20 ADD PUSH1 0x40 MLOAD SWAP1 DUP2 ADD PUSH1 0x40 MSTORE DUP1 SWAP3 SWAP2 SWAP1 DUP2 DUP2 MSTORE PUSH1 0x20 ADD DUP3 DUP1 SLOAD PUSH2 0x136B SWAP1 PUSH2 0x2043 JUMP JUMPDEST DUP1 ISZERO PUSH2 0x13B6 JUMPI DUP1 PUSH1 0x1F LT PUSH2 0x138D JUMPI PUSH2 0x100 DUP1 DUP4 SLOAD DIV MUL DUP4 MSTORE SWAP2 PUSH1 0x20 ADD SWAP2 PUSH2 0x13B6 JUMP JUMPDEST DUP3 ADD SWAP2 SWAP1 PUSH0 MSTORE PUSH1 0x20 PUSH0 KECCAK256 SWAP1 JUMPDEST DUP2 SLOAD DUP2 MSTORE SWAP1 PUSH1 0x1 ADD SWAP1 PUSH1 0x20 ADD DUP1 DUP4 GT PUSH2 0x1399 JUMPI DUP3 SWAP1 SUB PUSH1 0x1F AND DUP3 ADD SWAP2 JUMPDEST POP POP POP POP POP DUP2 MSTORE PUSH1 0x20 ADD PUSH1 0x1 DUP3 ADD PUSH1 0x40 MLOAD DUP1 PUSH1 0x60 ADD PUSH1 0x40 MSTORE SWAP1 DUP2 PUSH0 DUP3 ADD DUP1 SLOAD PUSH2 0x13DE SWAP1 PUSH2 0x2043 JUMP JUMPDEST DUP1 PUSH1 0x1F ADD PUSH1 0x20 DUP1 SWAP2 DIV MUL PUSH1 0x20 ADD PUSH1 0x40 MLOAD SWAP1 DUP2 ADD PUSH1 0x40 MSTORE DUP1 SWAP3 SWAP2 SWAP1 DUP2 DUP2 MSTORE PUSH1 0x20 ADD DUP3 DUP1 SLOAD PUSH2 0x140A SWAP1 PUSH2 0x2043 JUMP JUMPDEST DUP1 ISZERO PUSH2 0x1455 JUMPI DUP1 PUSH1 0x1F LT PUSH2 0x142C JUMPI PUSH2 0x100 DUP1 DUP4 SLOAD DIV MUL DUP4 MSTORE SWAP2 PUSH1 0x20 ADD SWAP2 PUSH2 0x1455 JUMP JUMPDEST DUP3 ADD SWAP2 SWAP1 PUSH0 MSTORE PUSH1 0x20 PUSH0 KECCAK256 SWAP1 JUMPDEST DUP2 SLOAD DUP2 MSTORE SWAP1 PUSH1 0x1 ADD SWAP1 PUSH1 0x20 ADD DUP1 DUP4 GT PUSH2 0x1438 JUMPI DUP3 SWAP1 SUB PUSH1 0x1F AND DUP3 ADD SWAP2 JUMPDEST POP POP POP POP POP DUP2 MSTORE PUSH1 0x20 ADD PUSH1 0x1 DUP3 ADD DUP1 SLOAD PUSH2 0x146E SWAP1 PUSH2 0x2043 JUMP JUMPDEST DUP1 PUSH1 0x1F ADD PUSH1 0x20 DUP1 SWAP2 DIV MUL PUSH1 0x20 ADD PUSH1 0x40 MLOAD SWAP1 DUP2 ADD PUSH1 0x40 MSTORE DUP1 SWAP3 SWAP2 SWAP1 DUP2 DUP2 MSTORE PUSH1 0x20 ADD DUP3 DUP1 SLOAD PUSH2 0x149A SWAP1 PUSH2 0x2043 JUMP JUMPDEST DUP1 ISZERO PUSH2 0x14E5 JUMPI DUP1 PUSH1 0x1F LT PUSH2 0x14BC JUMPI PUSH2 0x100 DUP1 DUP4 SLOAD DIV MUL DUP4 MSTORE SWAP2 PUSH1 0x20 ADD SWAP2 PUSH2 0x14E5 JUMP JUMPDEST DUP3 ADD SWAP2 SWAP1 PUSH0 MSTORE PUSH1 0x20 PUSH0 KECCAK256 SWAP1 JUMPDEST DUP2 SLOAD DUP2 MSTORE SWAP1 PUSH1 0x1 ADD SWAP1 PUSH1 0x20 ADD DUP1 DUP4 GT PUSH2 0x14C8 JUMPI DUP3 SWAP1 SUB PUSH1 0x1F AND DUP3 ADD SWAP2 JUMPDEST POP POP POP POP POP DUP2 MSTORE PUSH1 0x20 ADD PUSH1 0x2 DUP3 ADD PUSH0 SWAP1 SLOAD SWAP1 PUSH2 0x100 EXP SWAP1 DIV PUSH20 0xFFFFFFFFFFFFFFFFFFFFFFFFFFFFFFFFFFFFFFFF AND PUSH20 0xFFFFFFFFFFFFFFFFFFFFFFFFFFFFFFFFFFFFFFFF AND PUSH20 0xFFFFFFFFFFFFFFFFFFFFFFFFFFFFFFFFFFFFFFFF AND DUP2 MSTORE POP POP DUP2 MSTORE POP POP DUP3 DUP3 DUP2 MLOAD DUP2 LT PUSH2 0x155A JUMPI PUSH2 0x1559 PUSH2 0x213B JUMP JUMPDEST JUMPDEST PUSH1 0x20 MUL PUSH1 0x20 ADD ADD DUP2 SWAP1 MSTORE POP DUP1 DUP1 PUSH1 0x1 ADD SWAP2 POP POP PUSH2 0x12DF JUMP JUMPDEST POP DUP1 SWAP2 POP POP SWAP1 JUMP JUMPDEST PUSH0 DUP1 PUSH20 0xFFFFFFFFFFFFFFFFFFFFFFFFFFFFFFFFFFFFFFFF AND PUSH1 0x2 DUP5 DUP5 PUSH1 0x40 MLOAD PUSH2 0x15A4 SWAP3 SWAP2 SWAP1 PUSH2 0x1FFE JUMP JUMPDEST SWAP1 DUP2 MSTORE PUSH1 0x20 ADD PUSH1 0x40 MLOAD DUP1 SWAP2 SUB SWAP1 KECCAK256 PUSH0 SWAP1 SLOAD SWAP1 PUSH2 0x100 EXP SWAP1 DIV PUSH20 0xFFFFFFFFFFFFFFFFFFFFFFFFFFFFFFFFFFFFFFFF AND PUSH20 0xFFFFFFFFFFFFFFFFFFFFFFFFFFFFFFFFFFFFFFFF AND EQ ISZERO SWAP1 POP SWAP3 SWAP2 POP POP JUMP JUMPDEST DUP2 DUP2 PUSH2 0x15FE DUP3 DUP3 PUSH2 0x157A JUMP JUMPDEST ISZERO PUSH2 0x163E JUMPI PUSH1 0x40 MLOAD PUSH32 0x8C379A000000000000000000000000000000000000000000000000000000000 DUP2 MSTORE PUSH1 0x4 ADD PUSH2 0x1635 SWAP1 PUSH2 0x27F3 JUMP JUMPDEST PUSH1 0x40 MLOAD DUP1 SWAP2 SUB SWAP1 REVERT JUMPDEST CALLER PUSH1 0x2 DUP6 DUP6 PUSH1 0x40 MLOAD PUSH2 0x1651 SWAP3 SWAP2 SWAP1 PUSH2 0x1FFE JUMP JUMPDEST SWAP1 DUP2 MSTORE PUSH1 0x20 ADD PUSH1 0x40 MLOAD DUP1 SWAP2 SUB SWAP1 KECCAK256 PUSH0 PUSH2 0x100 EXP DUP2 SLOAD DUP2 PUSH20 0xFFFFFFFFFFFFFFFFFFFFFFFFFFFFFFFFFFFFFFFF MUL NOT AND SWAP1 DUP4 PUSH20 0xFFFFFFFFFFFFFFFFFFFFFFFFFFFFFFFFFFFFFFFF AND MUL OR SWAP1 SSTORE POP POP POP POP POP JUMP JUMPDEST PUSH1 0x1 PUSH0 SWAP1 SLOAD SWAP1 PUSH2 0x100 EXP SWAP1 DIV PUSH20 0xFFFFFFFFFFFFFFFFFFFFFFFFFFFFFFFFFFFFFFFF AND PUSH20 0xFFFFFFFFFFFFFFFFFFFFFFFFFFFFFFFFFFFFFFFF AND CALLER PUSH20 0xFFFFFFFFFFFFFFFFFFFFFFFFFFFFFFFFFFFFFFFF AND EQ PUSH2 0x1731 JUMPI PUSH1 0x40 MLOAD PUSH32 0x8C379A000000000000000000000000000000000000000000000000000000000 DUP2 MSTORE PUSH1 0x4 ADD PUSH2 0x1728 SWAP1 PUSH2 0x2309 JUMP JUMPDEST PUSH1 0x40 MLOAD DUP1 SWAP2 SUB SWAP1 REVERT JUMPDEST DUP2 DUP2 PUSH2 0x173D DUP3 DUP3 PUSH2 0x157A JUMP JUMPDEST PUSH2 0x177C JUMPI PUSH1 0x40 MLOAD PUSH32 0x8C379A000000000000000000000000000000000000000000000000000000000 DUP2 MSTORE PUSH1 0x4 ADD PUSH2 0x1773 SWAP1 PUSH2 0x22A1 JUMP JUMPDEST PUSH1 0x40 MLOAD DUP1 SWAP2 SUB SWAP1 REVERT JUMPDEST PUSH0 PUSH1 0x2 DUP6 DUP6 PUSH1 0x40 MLOAD PUSH2 0x178F SWAP3 SWAP2 SWAP1 PUSH2 0x1FFE JUMP JUMPDEST SWAP1 DUP2 MSTORE PUSH1 0x20 ADD PUSH1 0x40 MLOAD DUP1 SWAP2 SUB SWAP1 KECCAK256 PUSH0 PUSH2 0x100 EXP DUP2 SLOAD DUP2 PUSH20 0xFFFFFFFFFFFFFFFFFFFFFFFFFFFFFFFFFFFFFFFF MUL NOT AND SWAP1 DUP4 PUSH20 0xFFFFFFFFFFFFFFFFFFFFFFFFFFFFFFFFFFFFFFFF AND MUL OR SWAP1 SSTORE POP POP POP POP POP JUMP JUMPDEST PUSH0 DUP3 DUP3 PUSH1 0x40 MLOAD PUSH1 0x20 ADD PUSH2 0x17F4 SWAP3 SWAP2 SWAP1 PUSH2 0x1FFE JUMP JUMPDEST PUSH1 0x40 MLOAD PUSH1 0x20 DUP2 DUP4 SUB SUB DUP2 MSTORE SWAP1 PUSH1 0x40 MSTORE DUP1 MLOAD SWAP1 PUSH1 0x20 ADD KECCAK256 PUSH1 0x4 DUP5 DUP5 PUSH1 0x40 MLOAD PUSH2 0x181C SWAP3 SWAP2 SWAP1 PUSH2 0x1FFE JUMP JUMPDEST SWAP1 DUP2 MSTORE PUSH1 0x20 ADD PUSH1 0x40 MLOAD DUP1 SWAP2 SUB SWAP1 KECCAK256 PUSH0 ADD PUSH1 0x40 MLOAD PUSH1 0x20 ADD PUSH2 0x183C SWAP2 SWAP1 PUSH2 0x21FA JUMP JUMPDEST PUSH1 0x40 MLOAD PUSH1 0x20 DUP2 DUP4 SUB SUB DUP2 MSTORE SWAP1 PUSH1 0x40 MSTORE DUP1 MLOAD SWAP1 PUSH1 0x20 ADD KECCAK256 EQ SWAP1 POP SWAP3 SWAP2 POP POP JUMP JUMPDEST PUSH1 0x40 MLOAD DUP1 PUSH1 0x40 ADD PUSH1 0x40 MSTORE DUP1 PUSH1 0x60 DUP2 MSTORE PUSH1 0x20 ADD PUSH2 0x1875 PUSH2 0x187B JUMP JUMPDEST DUP2 MSTORE POP SWAP1 JUMP JUMPDEST PUSH1 0x40 MLOAD DUP1 PUSH1 0x60 ADD PUSH1 0x40 MSTORE DUP1 PUSH1 0x60 DUP2 MSTORE PUSH1 0x20 ADD PUSH1 0x60 DUP2 MSTORE PUSH1 0x20 ADD PUSH0 PUSH20 0xFFFFFFFFFFFFFFFFFFFFFFFFFFFFFFFFFFFFFFFF AND DUP2 MSTORE POP SWAP1 JUMP JUMPDEST PUSH0 PUSH1 0x40 MLOAD SWAP1 POP SWAP1 JUMP JUMPDEST PUSH0 DUP1 REVERT JUMPDEST PUSH0 DUP1 REVERT JUMPDEST PUSH0 DUP1 REVERT JUMPDEST PUSH0 DUP1 REVERT JUMPDEST PUSH0 DUP1 REVERT JUMPDEST PUSH0 DUP1 DUP4 PUSH1 0x1F DUP5 ADD SLT PUSH2 0x18E3 JUMPI PUSH2 0x18E2 PUSH2 0x18C2 JUMP JUMPDEST JUMPDEST DUP3 CALLDATALOAD SWAP1 POP PUSH8 0xFFFFFFFFFFFFFFFF DUP2 GT ISZERO PUSH2 0x1900 JUMPI PUSH2 0x18FF PUSH2 0x18C6 JUMP JUMPDEST JUMPDEST PUSH1 0x20 DUP4 ADD SWAP2 POP DUP4 PUSH1 0x1 DUP3 MUL DUP4 ADD GT ISZERO PUSH2 0x191C JUMPI PUSH2 0x191B PUSH2 0x18CA JUMP JUMPDEST JUMPDEST SWAP3 POP SWAP3 SWAP1 POP JUMP JUMPDEST PUSH0 DUP1 PUSH1 0x20 DUP4 DUP6 SUB SLT ISZERO PUSH2 0x1939 JUMPI PUSH2 0x1938 PUSH2 0x18BA JUMP JUMPDEST JUMPDEST PUSH0 DUP4 ADD CALLDATALOAD PUSH8 0xFFFFFFFFFFFFFFFF DUP2 GT ISZERO PUSH2 0x1956 JUMPI PUSH2 0x1955 PUSH2 0x18BE JUMP JUMPDEST JUMPDEST PUSH2 0x1962 DUP6 DUP3 DUP7 ADD PUSH2 0x18CE JUMP JUMPDEST SWAP3 POP SWAP3 POP POP SWAP3 POP SWAP3 SWAP1 POP JUMP JUMPDEST PUSH0 DUP2 MLOAD SWAP1 POP SWAP2 SWAP1 POP JUMP JUMPDEST PUSH0 DUP3 DUP3 MSTORE PUSH1 0x20 DUP3 ADD SWAP1 POP SWAP3 SWAP2 POP POP JUMP JUMPDEST PUSH0 JUMPDEST DUP4 DUP2 LT ISZERO PUSH2 0x19A5 JUMPI DUP1 DUP3 ADD MLOAD DUP2 DUP5 ADD MSTORE PUSH1 0x20 DUP2 ADD SWAP1 POP PUSH2 0x198A JUMP JUMPDEST PUSH0 DUP5 DUP5 ADD MSTORE POP POP POP POP JUMP JUMPDEST PUSH0 PUSH1 0x1F NOT PUSH1 0x1F DUP4 ADD AND SWAP1 POP SWAP2 SWAP1 POP JUMP JUMPDEST PUSH0 PUSH2 0x19CA DUP3 PUSH2 0x196E JUMP JUMPDEST PUSH2 0x19D4 DUP2 DUP6 PUSH2 0x1978 JUMP JUMPDEST SWAP4 POP PUSH2 0x19E4 DUP2 DUP6 PUSH1 0x20 DUP7 ADD PUSH2 0x1988 JUMP JUMPDEST PUSH2 0x19ED DUP2 PUSH2 0x19B0 JUMP JUMPDEST DUP5 ADD SWAP2 POP POP SWAP3 SWAP2 POP POP JUMP JUMPDEST PUSH0 PUSH20 0xFFFFFFFFFFFFFFFFFFFFFFFFFFFFFFFFFFFFFFFF DUP3 AND SWAP1 POP SWAP2 SWAP1 POP JUMP JUMPDEST PUSH0 PUSH2 0x1A21 DUP3 PUSH2 0x19F8 JUMP JUMPDEST SWAP1 POP SWAP2 SWAP1 POP JUMP JUMPDEST PUSH2 0x1A31 DUP2 PUSH2 0x1A17 JUMP JUMPDEST DUP3 MSTORE POP POP JUMP JUMPDEST PUSH0 PUSH1 0x60 DUP4 ADD PUSH0 DUP4 ADD MLOAD DUP5 DUP3 SUB PUSH0 DUP7 ADD MSTORE PUSH2 0x1A51 DUP3 DUP3 PUSH2 0x19C0 JUMP JUMPDEST SWAP2 POP POP PUSH1 0x20 DUP4 ADD MLOAD DUP5 DUP3 SUB PUSH1 0x20 DUP7 ADD MSTORE PUSH2 0x1A6B DUP3 DUP3 PUSH2 0x19C0 JUMP JUMPDEST SWAP2 POP POP PUSH1 0x40 DUP4 ADD MLOAD PUSH2 0x1A80 PUSH1 0x40 DUP7 ADD DUP3 PUSH2 0x1A28 JUMP JUMPDEST POP DUP1 SWAP2 POP POP SWAP3 SWAP2 POP POP JUMP JUMPDEST PUSH0 PUSH1 0x40 DUP4 ADD PUSH0 DUP4 ADD MLOAD DUP5 DUP3 SUB PUSH0 DUP7 ADD MSTORE PUSH2 0x1AA5 DUP3 DUP3 PUSH2 0x19C0 JUMP JUMPDEST SWAP2 POP POP PUSH1 0x20 DUP4 ADD MLOAD DUP5 DUP3 SUB PUSH1 0x20 DUP7 ADD MSTORE PUSH2 0x1ABF DUP3 DUP3 PUSH2 0x1A37 JUMP JUMPDEST SWAP2 POP POP DUP1 SWAP2 POP POP SWAP3 SWAP2 POP POP JUMP JUMPDEST PUSH0 PUSH1 0x20 DUP3 ADD SWAP1 POP DUP2 DUP2 SUB PUSH0 DUP4 ADD MSTORE PUSH2 0x1AE4 DUP2 DUP5 PUSH2 0x1A8B JUMP JUMPDEST SWAP1 POP SWAP3 SWAP2 POP POP JUMP JUMPDEST PUSH0 DUP2 SWAP1 POP SWAP2 SWAP1 POP JUMP JUMPDEST PUSH2 0x1AFE DUP2 PUSH2 0x1AEC JUMP JUMPDEST DUP2 EQ PUSH2 0x1B08 JUMPI PUSH0 DUP1 REVERT JUMPDEST POP JUMP JUMPDEST PUSH0 DUP2 CALLDATALOAD SWAP1 POP PUSH2 0x1B19 DUP2 PUSH2 0x1AF5 JUMP JUMPDEST SWAP3 SWAP2 POP POP JUMP JUMPDEST PUSH0 DUP1 PUSH1 0x40 DUP4 DUP6 SUB SLT ISZERO PUSH2 0x1B35 JUMPI PUSH2 0x1B34 PUSH2 0x18BA JUMP JUMPDEST JUMPDEST PUSH0 PUSH2 0x1B42 DUP6 DUP3 DUP7 ADD PUSH2 0x1B0B JUMP JUMPDEST SWAP3 POP POP PUSH1 0x20 PUSH2 0x1B53 DUP6 DUP3 DUP7 ADD PUSH2 0x1B0B JUMP JUMPDEST SWAP2 POP POP SWAP3 POP SWAP3 SWAP1 POP JUMP JUMPDEST PUSH0 DUP2 MLOAD SWAP1 POP SWAP2 SWAP1 POP JUMP JUMPDEST PUSH0 DUP3 DUP3 MSTORE PUSH1 0x20 DUP3 ADD SWAP1 POP SWAP3 SWAP2 POP POP JUMP JUMPDEST PUSH0 DUP2 SWAP1 POP PUSH1 0x20 DUP3 ADD SWAP1 POP SWAP2 SWAP1 POP JUMP JUMPDEST PUSH0 PUSH1 0x40 DUP4 ADD PUSH0 DUP4 ADD MLOAD DUP5 DUP3 SUB PUSH0 DUP7 ADD MSTORE PUSH2 0x1BA0 DUP3 DUP3 PUSH2 0x19C0 JUMP JUMPDEST SWAP2 POP POP PUSH1 0x20 DUP4 ADD MLOAD DUP5 DUP3 SUB PUSH1 0x20 DUP7 ADD MSTORE PUSH2 0x1BBA DUP3 DUP3 PUSH2 0x1A37 JUMP JUMPDEST SWAP2 POP POP DUP1 SWAP2 POP POP SWAP3 SWAP2 POP POP JUMP JUMPDEST PUSH0 PUSH2 0x1BD2 DUP4 DUP4 PUSH2 0x1B86 JUMP JUMPDEST SWAP1 POP SWAP3 SWAP2 POP POP JUMP JUMPDEST PUSH0 PUSH1 0x20 DUP3 ADD SWAP1 POP SWAP2 SWAP1 POP JUMP JUMPDEST PUSH0 PUSH2 0x1BF0 DUP3 PUSH2 0x1B5D JUMP JUMPDEST PUSH2 0x1BFA DUP2 DUP6 PUSH2 0x1B67 JUMP JUMPDEST SWAP4 POP DUP4 PUSH1 0x20 DUP3 MUL DUP6 ADD PUSH2 0x1C0C DUP6 PUSH2 0x1B77 JUMP JUMPDEST DUP1 PUSH0 JUMPDEST DUP6 DUP2 LT ISZERO PUSH2 0x1C47 JUMPI DUP5 DUP5 SUB DUP10 MSTORE DUP2 MLOAD PUSH2 0x1C28 DUP6 DUP3 PUSH2 0x1BC7 JUMP JUMPDEST SWAP5 POP PUSH2 0x1C33 DUP4 PUSH2 0x1BDA JUMP JUMPDEST SWAP3 POP PUSH1 0x20 DUP11 ADD SWAP10 POP POP PUSH1 0x1 DUP2 ADD SWAP1 POP PUSH2 0x1C0F JUMP JUMPDEST POP DUP3 SWAP8 POP DUP8 SWAP6 POP POP POP POP POP POP SWAP3 SWAP2 POP POP JUMP JUMPDEST PUSH0 PUSH1 0x20 DUP3 ADD SWAP1 POP DUP2 DUP2 SUB PUSH0 DUP4 ADD MSTORE PUSH2 0x1C71 DUP2 DUP5 PUSH2 0x1BE6 JUMP JUMPDEST SWAP1 POP SWAP3 SWAP2 POP POP JUMP JUMPDEST PUSH0 DUP3 DUP3 MSTORE PUSH1 0x20 DUP3 ADD SWAP1 POP SWAP3 SWAP2 POP POP JUMP JUMPDEST PUSH0 PUSH2 0x1C93 DUP3 PUSH2 0x196E JUMP JUMPDEST PUSH2 0x1C9D DUP2 DUP6 PUSH2 0x1C79 JUMP JUMPDEST SWAP4 POP PUSH2 0x1CAD DUP2 DUP6 PUSH1 0x20 DUP7 ADD PUSH2 0x1988 JUMP JUMPDEST PUSH2 0x1CB6 DUP2 PUSH2 0x19B0 JUMP JUMPDEST DUP5 ADD SWAP2 POP POP SWAP3 SWAP2 POP POP JUMP JUMPDEST PUSH0 PUSH1 0x20 DUP3 ADD SWAP1 POP DUP2 DUP2 SUB PUSH0 DUP4 ADD MSTORE PUSH2 0x1CD9 DUP2 DUP5 PUSH2 0x1C89 JUMP JUMPDEST SWAP1 POP SWAP3 SWAP2 POP POP JUMP JUMPDEST PUSH2 0x1CEA DUP2 PUSH2 0x1AEC JUMP JUMPDEST DUP3 MSTORE POP POP JUMP JUMPDEST PUSH0 PUSH1 0x20 DUP3 ADD SWAP1 POP PUSH2 0x1D03 PUSH0 DUP4 ADD DUP5 PUSH2 0x1CE1 JUMP JUMPDEST SWAP3 SWAP2 POP POP JUMP JUMPDEST PUSH0 DUP1 REVERT JUMPDEST PUSH32 0x4E487B7100000000000000000000000000000000000000000000000000000000 PUSH0 MSTORE PUSH1 0x41 PUSH1 0x4 MSTORE PUSH1 0x24 PUSH0 REVERT JUMPDEST PUSH2 0x1D43 DUP3 PUSH2 0x19B0 JUMP JUMPDEST DUP2 ADD DUP2 DUP2 LT PUSH8 0xFFFFFFFFFFFFFFFF DUP3 GT OR ISZERO PUSH2 0x1D62 JUMPI PUSH2 0x1D61 PUSH2 0x1D0D JUMP JUMPDEST JUMPDEST DUP1 PUSH1 0x40 MSTORE POP POP POP JUMP JUMPDEST PUSH0 PUSH2 0x1D74 PUSH2 0x18B1 JUMP JUMPDEST SWAP1 POP PUSH2 0x1D80 DUP3 DUP3 PUSH2 0x1D3A JUMP JUMPDEST SWAP2 SWAP1 POP JUMP JUMPDEST PUSH0 DUP1 REVERT JUMPDEST PUSH0 DUP1 REVERT JUMPDEST PUSH0 PUSH8 0xFFFFFFFFFFFFFFFF DUP3 GT ISZERO PUSH2 0x1DA7 JUMPI PUSH2 0x1DA6 PUSH2 0x1D0D JUMP JUMPDEST JUMPDEST PUSH2 0x1DB0 DUP3 PUSH2 0x19B0 JUMP JUMPDEST SWAP1 POP PUSH1 0x20 DUP2 ADD SWAP1 POP SWAP2 SWAP1 POP JUMP JUMPDEST DUP3 DUP2 DUP4 CALLDATACOPY PUSH0 DUP4 DUP4 ADD MSTORE POP POP POP JUMP JUMPDEST PUSH0 PUSH2 0x1DDD PUSH2 0x1DD8 DUP5 PUSH2 0x1D8D JUMP JUMPDEST PUSH2 0x1D6B JUMP JUMPDEST SWAP1 POP DUP3 DUP2 MSTORE PUSH1 0x20 DUP2 ADD DUP5 DUP5 DUP5 ADD GT ISZERO PUSH2 0x1DF9 JUMPI PUSH2 0x1DF8 PUSH2 0x1D89 JUMP JUMPDEST JUMPDEST PUSH2 0x1E04 DUP5 DUP3 DUP6 PUSH2 0x1DBD JUMP JUMPDEST POP SWAP4 SWAP3 POP POP POP JUMP JUMPDEST PUSH0 DUP3 PUSH1 0x1F DUP4 ADD SLT PUSH2 0x1E20 JUMPI PUSH2 0x1E1F PUSH2 0x18C2 JUMP JUMPDEST JUMPDEST DUP2 CALLDATALOAD PUSH2 0x1E30 DUP5 DUP3 PUSH1 0x20 DUP7 ADD PUSH2 0x1DCB JUMP JUMPDEST SWAP2 POP POP SWAP3 SWAP2 POP POP JUMP JUMPDEST PUSH2 0x1E42 DUP2 PUSH2 0x1A17 JUMP JUMPDEST DUP2 EQ PUSH2 0x1E4C JUMPI PUSH0 DUP1 REVERT JUMPDEST POP JUMP JUMPDEST PUSH0 DUP2 CALLDATALOAD SWAP1 POP PUSH2 0x1E5D DUP2 PUSH2 0x1E39 JUMP JUMPDEST SWAP3 SWAP2 POP POP JUMP JUMPDEST PUSH0 PUSH1 0x60 DUP3 DUP5 SUB SLT ISZERO PUSH2 0x1E78 JUMPI PUSH2 0x1E77 PUSH2 0x1D09 JUMP JUMPDEST JUMPDEST PUSH2 0x1E82 PUSH1 0x60 PUSH2 0x1D6B JUMP JUMPDEST SWAP1 POP PUSH0 DUP3 ADD CALLDATALOAD PUSH8 0xFFFFFFFFFFFFFFFF DUP2 GT ISZERO PUSH2 0x1EA1 JUMPI PUSH2 0x1EA0 PUSH2 0x1D85 JUMP JUMPDEST JUMPDEST PUSH2 0x1EAD DUP5 DUP3 DUP6 ADD PUSH2 0x1E0C JUMP JUMPDEST PUSH0 DUP4 ADD MSTORE POP PUSH1 0x20 DUP3 ADD CALLDATALOAD PUSH8 0xFFFFFFFFFFFFFFFF DUP2 GT ISZERO PUSH2 0x1ED0 JUMPI PUSH2 0x1ECF PUSH2 0x1D85 JUMP JUMPDEST JUMPDEST PUSH2 0x1EDC DUP5 DUP3 DUP6 ADD PUSH2 0x1E0C JUMP JUMPDEST PUSH1 0x20 DUP4 ADD MSTORE POP PUSH1 0x40 PUSH2 0x1EF0 DUP5 DUP3 DUP6 ADD PUSH2 0x1E4F JUMP JUMPDEST PUSH1 0x40 DUP4 ADD MSTORE POP SWAP3 SWAP2 POP POP JUMP JUMPDEST PUSH0 DUP1 PUSH0 PUSH1 0x40 DUP5 DUP7 SUB SLT ISZERO PUSH2 0x1F13 JUMPI PUSH2 0x1F12 PUSH2 0x18BA JUMP JUMPDEST JUMPDEST PUSH0 DUP5 ADD CALLDATALOAD PUSH8 0xFFFFFFFFFFFFFFFF DUP2 GT ISZERO PUSH2 0x1F30 JUMPI PUSH2 0x1F2F PUSH2 0x18BE JUMP JUMPDEST JUMPDEST PUSH2 0x1F3C DUP7 DUP3 DUP8 ADD PUSH2 0x18CE JUMP JUMPDEST SWAP4 POP SWAP4 POP POP PUSH1 0x20 DUP5 ADD CALLDATALOAD PUSH8 0xFFFFFFFFFFFFFFFF DUP2 GT ISZERO PUSH2 0x1F5F JUMPI PUSH2 0x1F5E PUSH2 0x18BE JUMP JUMPDEST JUMPDEST PUSH2 0x1F6B DUP7 DUP3 DUP8 ADD PUSH2 0x1E63 JUMP JUMPDEST SWAP2 POP POP SWAP3 POP SWAP3 POP SWAP3 JUMP JUMPDEST PUSH2 0x1F7E DUP2 PUSH2 0x1A17 JUMP JUMPDEST DUP3 MSTORE POP POP JUMP JUMPDEST PUSH0 PUSH1 0x20 DUP3 ADD SWAP1 POP PUSH2 0x1F97 PUSH0 DUP4 ADD DUP5 PUSH2 0x1F75 JUMP JUMPDEST SWAP3 SWAP2 POP POP JUMP JUMPDEST PUSH0 DUP2 ISZERO ISZERO SWAP1 POP SWAP2 SWAP1 POP JUMP JUMPDEST PUSH2 0x1FB1 DUP2 PUSH2 0x1F9D JUMP JUMPDEST DUP3 MSTORE POP POP JUMP JUMPDEST PUSH0 PUSH1 0x20 DUP3 ADD SWAP1 POP PUSH2 0x1FCA PUSH0 DUP4 ADD DUP5 PUSH2 0x1FA8 JUMP JUMPDEST SWAP3 SWAP2 POP POP JUMP JUMPDEST PUSH0 DUP2 SWAP1 POP SWAP3 SWAP2 POP POP JUMP JUMPDEST PUSH0 PUSH2 0x1FE5 DUP4 DUP6 PUSH2 0x1FD0 JUMP JUMPDEST SWAP4 POP PUSH2 0x1FF2 DUP4 DUP6 DUP5 PUSH2 0x1DBD JUMP JUMPDEST DUP3 DUP5 ADD SWAP1 POP SWAP4 SWAP3 POP POP POP JUMP JUMPDEST PUSH0 PUSH2 0x200A DUP3 DUP5 DUP7 PUSH2 0x1FDA JUMP JUMPDEST SWAP2 POP DUP2 SWAP1 POP SWAP4 SWAP3 POP POP POP JUMP JUMPDEST PUSH32 0x4E487B7100000000000000000000000000000000000000000000000000000000 PUSH0 MSTORE PUSH1 0x22 PUSH1 0x4 MSTORE PUSH1 0x24 PUSH0 REVERT JUMPDEST PUSH0 PUSH1 0x2 DUP3 DIV SWAP1 POP PUSH1 0x1 DUP3 AND DUP1 PUSH2 0x205A JUMPI PUSH1 0x7F DUP3 AND SWAP2 POP JUMPDEST PUSH1 0x20 DUP3 LT DUP2 SUB PUSH2 0x206D JUMPI PUSH2 0x206C PUSH2 0x2016 JUMP JUMPDEST JUMPDEST POP SWAP2 SWAP1 POP JUMP JUMPDEST PUSH32 0x696E646578206F7574206F662072616E67650000000000000000000000000000 PUSH0 DUP3 ADD MSTORE POP JUMP JUMPDEST PUSH0 PUSH2 0x20A7 PUSH1 0x12 DUP4 PUSH2 0x1C79 JUMP JUMPDEST SWAP2 POP PUSH2 0x20B2 DUP3 PUSH2 0x2073 JUMP JUMPDEST PUSH1 0x20 DUP3 ADD SWAP1 POP SWAP2 SWAP1 POP JUMP JUMPDEST PUSH0 PUSH1 0x20 DUP3 ADD SWAP1 POP DUP2 DUP2 SUB PUSH0 DUP4 ADD MSTORE PUSH2 0x20D4 DUP2 PUSH2 0x209B JUMP JUMPDEST SWAP1 POP SWAP2 SWAP1 POP JUMP JUMPDEST PUSH32 0x4E487B7100000000000000000000000000000000000000000000000000000000 PUSH0 MSTORE PUSH1 0x11 PUSH1 0x4 MSTORE PUSH1 0x24 PUSH0 REVERT JUMPDEST PUSH0 PUSH2 0x2112 DUP3 PUSH2 0x1AEC JUMP JUMPDEST SWAP2 POP PUSH2 0x211D DUP4 PUSH2 0x1AEC JUMP JUMPDEST SWAP3 POP DUP3 DUP3 SUB SWAP1 POP DUP2 DUP2 GT ISZERO PUSH2 0x2135 JUMPI PUSH2 0x2134 PUSH2 0x20DB JUMP JUMPDEST JUMPDEST SWAP3 SWAP2 POP POP JUMP JUMPDEST PUSH32 0x4E487B7100000000000000000000000000000000000000000000000000000000 PUSH0 MSTORE PUSH1 0x32 PUSH1 0x4 MSTORE PUSH1 0x24 PUSH0 REVERT JUMPDEST PUSH0 DUP2 SWAP1 POP DUP2 PUSH0 MSTORE PUSH1 0x20 PUSH0 KECCAK256 SWAP1 POP SWAP2 SWAP1 POP JUMP JUMPDEST PUSH0 DUP2 SLOAD PUSH2 0x2186 DUP2 PUSH2 0x2043 JUMP JUMPDEST PUSH2 0x2190 DUP2 DUP7 PUSH2 0x1FD0 JUMP JUMPDEST SWAP5 POP PUSH1 0x1 DUP3 AND PUSH0 DUP2 EQ PUSH2 0x21AA JUMPI PUSH1 0x1 DUP2 EQ PUSH2 0x21BF JUMPI PUSH2 0x21F1 JUMP JUMPDEST PUSH1 0xFF NOT DUP4 AND DUP7 MSTORE DUP2 ISZERO ISZERO DUP3 MUL DUP7 ADD SWAP4 POP PUSH2 0x21F1 JUMP JUMPDEST PUSH2 0x21C8 DUP6 PUSH2 0x2168 JUMP JUMPDEST PUSH0 JUMPDEST DUP4 DUP2 LT ISZERO PUSH2 0x21E9 JUMPI DUP2 SLOAD DUP2 DUP10 ADD MSTORE PUSH1 0x1 DUP3 ADD SWAP2 POP PUSH1 0x20 DUP2 ADD SWAP1 POP PUSH2 0x21CA JUMP JUMPDEST DUP4 DUP9 ADD SWAP6 POP POP POP JUMPDEST POP POP POP SWAP3 SWAP2 POP POP JUMP JUMPDEST PUSH0 PUSH2 0x2205 DUP3 DUP5 PUSH2 0x217A JUMP JUMPDEST SWAP2 POP DUP2 SWAP1 POP SWAP3 SWAP2 POP POP JUMP JUMPDEST PUSH0 PUSH2 0x221A DUP3 PUSH2 0x1AEC JUMP JUMPDEST SWAP2 POP PUSH32 0xFFFFFFFFFFFFFFFFFFFFFFFFFFFFFFFFFFFFFFFFFFFFFFFFFFFFFFFFFFFFFFFF DUP3 SUB PUSH2 0x224C JUMPI PUSH2 0x224B PUSH2 0x20DB JUMP JUMPDEST JUMPDEST PUSH1 0x1 DUP3 ADD SWAP1 POP SWAP2 SWAP1 POP JUMP JUMPDEST PUSH32 0x4F626A656374206E6F74206C6F636B6564000000000000000000000000000000 PUSH0 DUP3 ADD MSTORE POP JUMP JUMPDEST PUSH0 PUSH2 0x228B PUSH1 0x11 DUP4 PUSH2 0x1C79 JUMP JUMPDEST SWAP2 POP PUSH2 0x2296 DUP3 PUSH2 0x2257 JUMP JUMPDEST PUSH1 0x20 DUP3 ADD SWAP1 POP SWAP2 SWAP1 POP JUMP JUMPDEST PUSH0 PUSH1 0x20 DUP3 ADD SWAP1 POP DUP2 DUP2 SUB PUSH0 DUP4 ADD MSTORE PUSH2 0x22B8 DUP2 PUSH2 0x227F JUMP JUMPDEST SWAP1 POP SWAP2 SWAP1 POP JUMP JUMPDEST PUSH32 0x596F7520617265206E6F7420746865206F776E65722E00000000000000000000 PUSH0 DUP3 ADD MSTORE POP JUMP JUMPDEST PUSH0 PUSH2 0x22F3 PUSH1 0x16 DUP4 PUSH2 0x1C79 JUMP JUMPDEST SWAP2 POP PUSH2 0x22FE DUP3 PUSH2 0x22BF JUMP JUMPDEST PUSH1 0x20 DUP3 ADD SWAP1 POP SWAP2 SWAP1 POP JUMP JUMPDEST PUSH0 PUSH1 0x20 DUP3 ADD SWAP1 POP DUP2 DUP2 SUB PUSH0 DUP4 ADD MSTORE PUSH2 0x2320 DUP2 PUSH2 0x22E7 JUMP JUMPDEST SWAP1 POP SWAP2 SWAP1 POP JUMP JUMPDEST PUSH0 PUSH2 0x2331 DUP3 PUSH2 0x196E JUMP JUMPDEST PUSH2 0x233B DUP2 DUP6 PUSH2 0x1FD0 JUMP JUMPDEST SWAP4 POP PUSH2 0x234B DUP2 DUP6 PUSH1 0x20 DUP7 ADD PUSH2 0x1988 JUMP JUMPDEST DUP1 DUP5 ADD SWAP2 POP POP SWAP3 SWAP2 POP POP JUMP JUMPDEST PUSH0 PUSH2 0x2362 DUP3 DUP5 PUSH2 0x2327 JUMP JUMPDEST SWAP2 POP DUP2 SWAP1 POP SWAP3 SWAP2 POP POP JUMP JUMPDEST PUSH0 PUSH1 0x20 PUSH1 0x1F DUP4 ADD DIV SWAP1 POP SWAP2 SWAP1 POP JUMP JUMPDEST PUSH0 DUP3 DUP3 SHL SWAP1 POP SWAP3 SWAP2 POP POP JUMP JUMPDEST PUSH0 PUSH1 0x8 DUP4 MUL PUSH2 0x23B7 PUSH32 0xFFFFFFFFFFFFFFFFFFFFFFFFFFFFFFFFFFFFFFFFFFFFFFFFFFFFFFFFFFFFFFFF DUP3 PUSH2 0x237C JUMP JUMPDEST PUSH2 0x23C1 DUP7 DUP4 PUSH2 0x237C JUMP JUMPDEST SWAP6 POP DUP1 NOT DUP5 AND SWAP4 POP DUP1 DUP7 AND DUP5 OR SWAP3 POP POP POP SWAP4 SWAP3 POP POP POP JUMP JUMPDEST PUSH0 DUP2 SWAP1 POP SWAP2 SWAP1 POP JUMP JUMPDEST PUSH0 PUSH2 0x23FC PUSH2 0x23F7 PUSH2 0x23F2 DUP5 PUSH2 0x1AEC JUMP JUMPDEST PUSH2 0x23D9 JUMP JUMPDEST PUSH2 0x1AEC JUMP JUMPDEST SWAP1 POP SWAP2 SWAP1 POP JUMP JUMPDEST PUSH0 DUP2 SWAP1 POP SWAP2 SWAP1 POP JUMP JUMPDEST PUSH2 0x2415 DUP4 PUSH2 0x23E2 JUMP JUMPDEST PUSH2 0x2429 PUSH2 0x2421 DUP3 PUSH2 0x2403 JUMP JUMPDEST DUP5 DUP5 SLOAD PUSH2 0x2388 JUMP JUMPDEST DUP3 SSTORE POP POP POP POP JUMP JUMPDEST PUSH0 SWAP1 JUMP JUMPDEST PUSH2 0x243D PUSH2 0x2431 JUMP JUMPDEST PUSH2 0x2448 DUP2 DUP5 DUP5 PUSH2 0x240C JUMP JUMPDEST POP POP POP JUMP JUMPDEST JUMPDEST DUP2 DUP2 LT ISZERO PUSH2 0x246B JUMPI PUSH2 0x2460 PUSH0 DUP3 PUSH2 0x2435 JUMP JUMPDEST PUSH1 0x1 DUP2 ADD SWAP1 POP PUSH2 0x244E JUMP JUMPDEST POP POP JUMP JUMPDEST PUSH1 0x1F DUP3 GT ISZERO PUSH2 0x24B0 JUMPI PUSH2 0x2481 DUP2 PUSH2 0x2168 JUMP JUMPDEST PUSH2 0x248A DUP5 PUSH2 0x236D JUMP JUMPDEST DUP2 ADD PUSH1 0x20 DUP6 LT ISZERO PUSH2 0x2499 JUMPI DUP2 SWAP1 POP JUMPDEST PUSH2 0x24AD PUSH2 0x24A5 DUP6 PUSH2 0x236D JUMP JUMPDEST DUP4 ADD DUP3 PUSH2 0x244D JUMP JUMPDEST POP POP JUMPDEST POP POP POP JUMP JUMPDEST PUSH0 DUP3 DUP3 SHR SWAP1 POP SWAP3 SWAP2 POP POP JUMP JUMPDEST PUSH0 PUSH2 0x24D0 PUSH0 NOT DUP5 PUSH1 0x8 MUL PUSH2 0x24B5 JUMP JUMPDEST NOT DUP1 DUP4 AND SWAP2 POP POP SWAP3 SWAP2 POP POP JUMP JUMPDEST PUSH0 PUSH2 0x24E8 DUP4 DUP4 PUSH2 0x24C1 JUMP JUMPDEST SWAP2 POP DUP3 PUSH1 0x2 MUL DUP3 OR SWAP1 POP SWAP3 SWAP2 POP POP JUMP JUMPDEST PUSH2 0x2501 DUP3 PUSH2 0x196E JUMP JUMPDEST PUSH8 0xFFFFFFFFFFFFFFFF DUP2 GT ISZERO PUSH2 0x251A JUMPI PUSH2 0x2519 PUSH2 0x1D0D JUMP JUMPDEST JUMPDEST PUSH2 0x2524 DUP3 SLOAD PUSH2 0x2043 JUMP JUMPDEST PUSH2 0x252F DUP3 DUP3 DUP6 PUSH2 0x246F JUMP JUMPDEST PUSH0 PUSH1 0x20 SWAP1 POP PUSH1 0x1F DUP4 GT PUSH1 0x1 DUP2 EQ PUSH2 0x2560 JUMPI PUSH0 DUP5 ISZERO PUSH2 0x254E JUMPI DUP3 DUP8 ADD MLOAD SWAP1 POP JUMPDEST PUSH2 0x2558 DUP6 DUP3 PUSH2 0x24DD JUMP JUMPDEST DUP7 SSTORE POP PUSH2 0x25BF JUMP JUMPDEST PUSH1 0x1F NOT DUP5 AND PUSH2 0x256E DUP7 PUSH2 0x2168 JUMP JUMPDEST PUSH0 JUMPDEST DUP3 DUP2 LT ISZERO PUSH2 0x2595 JUMPI DUP5 DUP10 ADD MLOAD DUP3 SSTORE PUSH1 0x1 DUP3 ADD SWAP2 POP PUSH1 0x20 DUP6 ADD SWAP5 POP PUSH1 0x20 DUP2 ADD SWAP1 POP PUSH2 0x2570 JUMP JUMPDEST DUP7 DUP4 LT ISZERO PUSH2 0x25B2 JUMPI DUP5 DUP10 ADD MLOAD PUSH2 0x25AE PUSH1 0x1F DUP10 AND DUP3 PUSH2 0x24C1 JUMP JUMPDEST DUP4 SSTORE POP JUMPDEST PUSH1 0x1 PUSH1 0x2 DUP9 MUL ADD DUP9 SSTORE POP POP POP JUMPDEST POP POP POP POP POP POP JUMP JUMPDEST PUSH0 DUP2 SWAP1 POP SWAP3 SWAP2 POP POP JUMP JUMPDEST PUSH0 PUSH2 0x25DB DUP3 PUSH2 0x196E JUMP JUMPDEST PUSH2 0x25E5 DUP2 DUP6 PUSH2 0x25C7 JUMP JUMPDEST SWAP4 POP PUSH2 0x25F5 DUP2 DUP6 PUSH1 0x20 DUP7 ADD PUSH2 0x1988 JUMP JUMPDEST PUSH2 0x25FE DUP2 PUSH2 0x19B0 JUMP JUMPDEST DUP5 ADD SWAP2 POP POP SWAP3 SWAP2 POP POP JUMP JUMPDEST PUSH0 PUSH2 0x2614 DUP4 DUP4 PUSH2 0x25D1 JUMP JUMPDEST SWAP1 POP SWAP3 SWAP2 POP POP JUMP JUMPDEST PUSH2 0x2625 DUP2 PUSH2 0x1A17 JUMP JUMPDEST DUP3 MSTORE POP POP JUMP JUMPDEST PUSH0 PUSH2 0x2636 DUP4 DUP4 PUSH2 0x261C JUMP JUMPDEST PUSH1 0x20 DUP4 ADD SWAP1 POP SWAP3 SWAP2 POP POP JUMP JUMPDEST PUSH0 DUP1 DUP4 ADD PUSH0 DUP4 ADD MLOAD PUSH2 0x2654 DUP6 DUP3 PUSH2 0x2609 JUMP JUMPDEST SWAP5 POP POP PUSH1 0x20 DUP4 ADD MLOAD PUSH2 0x2666 DUP6 DUP3 PUSH2 0x2609 JUMP JUMPDEST SWAP5 POP POP PUSH1 0x40 DUP4 ADD MLOAD PUSH2 0x2678 DUP6 DUP3 PUSH2 0x262B JUMP JUMPDEST SWAP5 POP POP DUP4 SWAP2 POP POP SWAP3 SWAP2 POP POP JUMP JUMPDEST PUSH0 PUSH2 0x2690 DUP4 DUP4 PUSH2 0x2642 JUMP JUMPDEST SWAP1 POP SWAP3 SWAP2 POP POP JUMP JUMPDEST PUSH0 DUP1 DUP4 ADD PUSH0 DUP4 ADD MLOAD PUSH2 0x26AA DUP6 DUP3 PUSH2 0x2609 JUMP JUMPDEST SWAP5 POP POP PUSH1 0x20 DUP4 ADD MLOAD PUSH2 0x26BC DUP6 DUP3 PUSH2 0x2685 JUMP JUMPDEST SWAP5 POP POP DUP4 SWAP2 POP POP SWAP3 SWAP2 POP POP JUMP JUMPDEST PUSH0 PUSH2 0x26D4 DUP3 DUP5 PUSH2 0x2698 JUMP JUMPDEST SWAP2 POP DUP2 SWAP1 POP SWAP3 SWAP2 POP POP JUMP JUMPDEST PUSH2 0x26E8 DUP2 PUSH2 0x1AEC JUMP JUMPDEST DUP3 MSTORE POP POP JUMP JUMPDEST PUSH0 PUSH1 0xC0 DUP4 ADD PUSH0 DUP4 ADD MLOAD DUP5 DUP3 SUB PUSH0 DUP7 ADD MSTORE PUSH2 0x2708 DUP3 DUP3 PUSH2 0x1B86 JUMP JUMPDEST SWAP2 POP POP PUSH1 0x20 DUP4 ADD MLOAD PUSH2 0x271D PUSH1 0x20 DUP7 ADD DUP3 PUSH2 0x1A28 JUMP JUMPDEST POP PUSH1 0x40 DUP4 ADD MLOAD PUSH2 0x2730 PUSH1 0x40 DUP7 ADD DUP3 PUSH2 0x26DF JUMP JUMPDEST POP PUSH1 0x60 DUP4 ADD MLOAD DUP5 DUP3 SUB PUSH1 0x60 DUP7 ADD MSTORE PUSH2 0x2748 DUP3 DUP3 PUSH2 0x1A37 JUMP JUMPDEST SWAP2 POP POP PUSH1 0x80 DUP4 ADD MLOAD DUP5 DUP3 SUB PUSH1 0x80 DUP7 ADD MSTORE PUSH2 0x2762 DUP3 DUP3 PUSH2 0x1A37 JUMP JUMPDEST SWAP2 POP POP PUSH1 0xA0 DUP4 ADD MLOAD DUP5 DUP3 SUB PUSH1 0xA0 DUP7 ADD MSTORE PUSH2 0x277C DUP3 DUP3 PUSH2 0x19C0 JUMP JUMPDEST SWAP2 POP POP DUP1 SWAP2 POP POP SWAP3 SWAP2 POP POP JUMP JUMPDEST PUSH0 PUSH1 0x20 DUP3 ADD SWAP1 POP DUP2 DUP2 SUB PUSH0 DUP4 ADD MSTORE PUSH2 0x27A1 DUP2 DUP5 PUSH2 0x26EE JUMP JUMPDEST SWAP1 POP SWAP3 SWAP2 POP POP JUMP JUMPDEST PUSH32 0x4F626A656374206C6F636B656400000000000000000000000000000000000000 PUSH0 DUP3 ADD MSTORE POP JUMP JUMPDEST PUSH0 PUSH2 0x27DD PUSH1 0xD DUP4 PUSH2 0x1C79 JUMP JUMPDEST SWAP2 POP PUSH2 0x27E8 DUP3 PUSH2 0x27A9 JUMP JUMPDEST PUSH1 0x20 DUP3 ADD SWAP1 POP SWAP2 SWAP1 POP JUMP JUMPDEST PUSH0 PUSH1 0x20 DUP3 ADD SWAP1 POP DUP2 DUP2 SUB PUSH0 DUP4 ADD MSTORE PUSH2 0x280A DUP2 PUSH2 0x27D1 JUMP JUMPDEST SWAP1 POP SWAP2 SWAP1 POP JUMP INVALID LOG2 PUSH5 0x6970667358 0x22 SLT KECCAK256 0xB6 CALLER 0xDA 0xB9 JUMPDEST 0xEB 0xC5 PUSH30 0xBFBDF690FAC36C4BA9293599A5319E711748DAF013DFDEDD64736F6C6343 STOP ADDMOD XOR STOP CALLER "
				},
				"gasEstimates": {
					"creation": {
						"codeDepositCost": "2062200",
						"executionCost": "infinite",
						"totalCost": "infinite"
					},
					"external": {
						"_create(string,(string,string,address))": "infinite",
						"_update(string,(string,string,address))": "infinite",
						"forceUnlockObject(string)": "infinite",
						"getAllObjects()": "infinite",
						"getObject(string)": "infinite",
						"getObjects(uint256,uint256)": "infinite",
						"getObjectsNumber()": "2507",
						"isObjectLocked(string)": "infinite",
						"lockObject(string)": "infinite",
						"name()": "infinite",
						"owner()": "2508",
						"unlockObject(string)": "infinite"
					},
					"internal": {
						"objectExists(string calldata)": "infinite"
					}
				},
				"methodIdentifiers": {
					"_create(string,(string,string,address))": "7f191d47",
					"_update(string,(string,string,address))": "b83c893a",
					"forceUnlockObject(string)": "ff9e0c32",
					"getAllObjects()": "cfe50a0c",
					"getObject(string)": "0153ea91",
					"getObjects(uint256,uint256)": "0269ba5c",
					"getObjectsNumber()": "4408497d",
					"isObjectLocked(string)": "ef3cada2",
					"lockObject(string)": "f3030f95",
					"name()": "06fdde03",
					"owner()": "8da5cb5b",
					"unlockObject(string)": "784544ec"
				}
			},
			"storageLayout": {
				"storage": [
					{
						"astId": 33,
						"contract": "contracts/SuplyBeam_main.sol:SupplyBeam_main",
						"label": "name",
						"offset": 0,
						"slot": "0",
						"type": "t_string_storage"
					},
					{
						"astId": 35,
						"contract": "contracts/SuplyBeam_main.sol:SupplyBeam_main",
						"label": "owner",
						"offset": 0,
						"slot": "1",
						"type": "t_address"
					},
					{
						"astId": 39,
						"contract": "contracts/SuplyBeam_main.sol:SupplyBeam_main",
						"label": "lock",
						"offset": 0,
						"slot": "2",
						"type": "t_mapping(t_string_memory_ptr,t_address)"
					},
					{
						"astId": 42,
						"contract": "contracts/SuplyBeam_main.sol:SupplyBeam_main",
						"label": "object_keys",
						"offset": 0,
						"slot": "3",
						"type": "t_array(t_string_storage)dyn_storage"
					},
					{
						"astId": 47,
						"contract": "contracts/SuplyBeam_main.sol:SupplyBeam_main",
						"label": "objects",
						"offset": 0,
						"slot": "4",
						"type": "t_mapping(t_string_memory_ptr,t_struct(object)15_storage)"
					}
				],
				"types": {
					"t_address": {
						"encoding": "inplace",
						"label": "address",
						"numberOfBytes": "20"
					},
					"t_array(t_string_storage)dyn_storage": {
						"base": "t_string_storage",
						"encoding": "dynamic_array",
						"label": "string[]",
						"numberOfBytes": "32"
					},
					"t_mapping(t_string_memory_ptr,t_address)": {
						"encoding": "mapping",
						"key": "t_string_memory_ptr",
						"label": "mapping(string => address)",
						"numberOfBytes": "32",
						"value": "t_address"
					},
					"t_mapping(t_string_memory_ptr,t_struct(object)15_storage)": {
						"encoding": "mapping",
						"key": "t_string_memory_ptr",
						"label": "mapping(string => struct object)",
						"numberOfBytes": "32",
						"value": "t_struct(object)15_storage"
					},
					"t_string_memory_ptr": {
						"encoding": "bytes",
						"label": "string",
						"numberOfBytes": "32"
					},
					"t_string_storage": {
						"encoding": "bytes",
						"label": "string",
						"numberOfBytes": "32"
					},
					"t_struct(object)15_storage": {
						"encoding": "inplace",
						"label": "struct object",
						"members": [
							{
								"astId": 11,
								"contract": "contracts/SuplyBeam_main.sol:SupplyBeam_main",
								"label": "name",
								"offset": 0,
								"slot": "0",
								"type": "t_string_storage"
							},
							{
								"astId": 14,
								"contract": "contracts/SuplyBeam_main.sol:SupplyBeam_main",
								"label": "state",
								"offset": 0,
								"slot": "1",
								"type": "t_struct(state)9_storage"
							}
						],
						"numberOfBytes": "128"
					},
					"t_struct(state)9_storage": {
						"encoding": "inplace",
						"label": "struct state",
						"members": [
							{
								"astId": 4,
								"contract": "contracts/SuplyBeam_main.sol:SupplyBeam_main",
								"label": "name",
								"offset": 0,
								"slot": "0",
								"type": "t_string_storage"
							},
							{
								"astId": 6,
								"contract": "contracts/SuplyBeam_main.sol:SupplyBeam_main",
								"label": "notes",
								"offset": 0,
								"slot": "1",
								"type": "t_string_storage"
							},
							{
								"astId": 8,
								"contract": "contracts/SuplyBeam_main.sol:SupplyBeam_main",
								"label": "applied_by",
								"offset": 0,
								"slot": "2",
								"type": "t_address"
							}
						],
						"numberOfBytes": "96"
					}
				}
			},
			"userdoc": {
				"kind": "user",
				"methods": {},
				"version": 1
			}
		}
	}
}